:020000040800F2
:10000000A81D00206D4C0008FD370008774C000843
:10001000FF37000803380008073800080000000018
:100020000000000000000000000000000B38000885
:100030000D38000800000000834C0008DD3800087F
:10004000874C0008874C0008874C0008874C000844
:10005000874C0008874C0008874C0008874C000834
:10006000874C0008874C0008874C0008874C000824
:10007000874C0008874C0008874C0008874C000814
:10008000874C0008874C0008874C0008874C000804
:10009000874C0008874C0008874C00080F38000880
:1000A000874C0008874C0008874C0008874C0008E4
:1000B000874C00082138000829380008874C0008C0
:1000C000874C0008874C0008874C0008874C0008C4
:1000D000874C0008453800084D380008553800089E
:1000E000874C0008874C0008874C0008874C0008A4
:1000F000874C0008874C0008874C0008874C000894
:10010000874C0008874C0008874C0008874C000883
:100110005D38000865380008874C00082B38000857
:10012000874C0008874C0008874C0008874C000863
:10013000874C0008874C0008874C0008874C000853
:10014000874C0008874C0008874C0008874C000843
:10015000874C0008874C0008874C00086D38000861
:10016000874C0008874C0008874C0008874C000823
:10017000874C0008874C0008874C0008874C000813
:10018000874C0008874C0008DFF80CD00CF09AFF71
:1001900000480047A1010008A81D002000BFFEE79D
:1001A00001F052FD01F0BAFA17E00C4890F86C002B
:1001B000012807D1312003F007FB4FF4967003F0BC
:1001C000C5FB0AE0054890F86C0030B9302003F018
:1001D000FBFA4FF4967003F0B9FBE6E790090020B4
:1001E000FF20F94981F84E006421F748A0F850102B
:1001F0000121A0F85210FF20F34981F88001142159
:10020000F148A0F882110021A0F88411FF20EE49E6
:1002100081F820010021EC48A0F82211A0F8241157
:10022000FF20E94981F82C010021E748A0F82E11B0
:10023000A0F83011FF20E44981F832010021E248A2
:10024000A0F83411A0F83611FF20DF4981F83801F9
:100250000021DD48A0F83A11A0F83C11FF20DA494E
:1002600081F886010021D848A0F88811A0F88A11E9
:10027000FF20D54981F840050021D348A0F8421558
:10028000A0F84415FF20D04981F84C050021CE4844
:10029000A0F84E15A0F85015FF20CB4981F8A6050F
:1002A0003221C948A0F8A8150021A0F8AA15FF20FE
:1002B000C54981F8AC056421C348A0F8AE150021FA
:1002C000A0F8B015704770B504460D462946204683
:1002D00004F033FC70BDBC4A10700122BA4B5A7056
:1002E0007047B94A82F84C05012382F84D357047B2
:1002F0002DE9F04104460D4600260027E178A81FAD
:10030000814201D0BDE8F081002006E0215C31444B
:10031000CEB2B919CFB2411CC8B2A91E8142F5DCD8
:10032000601910F8020CB04204D1601910F8010CE9
:10033000B84200D0E6E72078AA2805D16078612885
:1003400003D06078FF2800D0DCE7A078202811D106
:10035000A0889E490880E08848802089888060893C
:10036000C880A0890881E0894881208A8881608AC4
:10037000C881C0E0A0780F280DD1207940B29449FF
:100380000870607940B24870A07940B28870E07916
:1003900040B2C870AFE0A07806280CD120798D4912
:1003A00048706079C870A0790871E1798948417115
:1003B000217A81719FE0A07807280AD1002005E00A
:1003C000211D095C844A1154411CC8B20628F7DB80
:1003D00091E0A078032824D1002005E0211D095CCC
:1003E0007E4A1154411CC8B20728F7DB002005E003
:1003F000211D095C7A4A1154411CC8B20928F7DB57
:10040000207A617A40EA012000B276498882084663
:10041000B0F91400642190FBF1F000B271498882B8
:1004200069E0A078052805D1A068C82801DA6D49DF
:10043000486060E0A078E0281ED12079012806D02D
:10044000022805D0102804D0112804D102E003E0CE
:1004500002E001E000E000BF00BF20795A4981F8C6
:100460000C06084680F80D6680F80E7600F20C61E6
:10047000AF20FFF730FF3EE0A078B0B9524890F8C7
:100480000F062179884236D14F4890F810066179DD
:10049000884230D14C4890F81106A17988422AD17F
:1004A0000020494981F8000625E0A078E12811D113
:1004B0002179607901EB00201FFA80F84248A0F80A
:1004C00014860021C0F8181600F21461FF20FFF70F
:1004D00008FF10E0A078E2280DD120793A4981F890
:1004E0000C06084680F80D6680F80E7600F20C6166
:1004F000FF20FFF7F0FE00BF04E710B504463A48BE
:10050000007838B9AA2C05D101203749087037483E
:1005100004708BE034480078012809D1612C01D0A7
:10052000FF2C05D1022030490870304844707DE02E
:100530002D480078022805D103202B4908702B484C
:10054000847073E02848007803280CD1FA2C0ADA6A
:100550000420254908702548C470254804700020EF
:100560002449087062E020480078042819D1204806
:100570000078002815DD1E480078401E1C490870D0
:100580001C4800781B490978491C1A4A1170001D43
:1005900016490C5416480078A8B90520124908706D
:1005A00044E011480078052826D106200E4908703D
:1005B000104800780F490978491C0E4A1170001D37
:1005C0000A490C5432E031E0000200202A090020E0
:1005D0002001002084090020110000200A000020D2
:1005E0003A09002090090020040000201C08002087
:1005F0000200002003000020FE480078062812D1E7
:100600000020FC490870FC480078001DFB490C5490
:10061000F9480078401DFA49087008460178F74803
:10062000FFF766FE02E00020F249087010BD7EB5BB
:100630000346402B77D00DDC322B48D005DCB3B11C
:100640000D2B2AD0302B6DD134E0332B4DD0342BF1
:10065000F9D158E0E22B73D004DC412B73D0E02BAE
:10066000F1D17DE0F12B6DD0F22BECD136E1E548F4
:1006700090F80C460D78681C08705455E14890F8C5
:100680000D460D78681C08705455DE4890F80E46EB
:100690000D78681C08705455D4E1002007E0DA4C4E
:1006A000255C0E78741C0C709555441CE0B204282F
:1006B000F5DBC7E1002007E0D44C255C0E78741C04
:1006C0000C709555441CE0B21728F5DBBAE1002008
:1006D00008E0CE4C133C255C0E78741C0C709555CC
:1006E000441CE0B20C28F4DBACE1002008E0C74C6D
:1006F000193C255C0E78741C0C709555441CE0B2B6
:100700000628F4DB9EE1002008E0C04CE41F255CD5
:100710000E78741C0C709555441CE0B20728F4DB6D
:1007200090E100E08DE1002007E0B94C255C0E78F7
:10073000741C0C709555441CE0B21428F5DB81E163
:1007400022E000E04EE0002007E0B24C255C0E788D
:10075000741C0C709555441CE0B20E28F5DB71E159
:10076000A84890F801460D78681C08705455002080
:1007700007E0A94C255C0E78741C0C709555441C40
:10078000E0B20A28F5DB5DE19E48B0F8140600B23D
:1007900002909DF808400D78681C087054559DF82B
:1007A00009400D78681C087054559648D0F8180612
:1007B00000909DF800400D78681C087054559DF815
:1007C00001400D78681C087054559DF802400D7862
:1007D000681C087054559DF803400D78681C08701B
:1007E00054552FE18D48808902909DF808400D787E
:1007F000681C087054559DF809400D78681C0870F5
:1008000054558648C08902909DF808400D78681CB0
:10081000087054559DF809400D78681C08705455AF
:100820007F48007802909DF808400D78681C087099
:1008300054557C48408902909DF808400D78681C0A
:10084000087054559DF809400D78681C087054557F
:100850007448808902909DF808400D78681C0870E3
:1008600054559DF809400D78681C087054556E4821
:10087000406800909DF800400D78681C0870545541
:100880009DF801400D78681C087054559DF8024091
:100890000D78681C087054559DF803400D78681C4D
:1008A000087054555F48C06901909DF804400D7868
:1008B000681C087054559DF805400D78681C087038
:1008C00054559DF806400D78681C087054559DF8E5
:1008D00007400D78681C08705455B3E05248808A70
:1008E00002909DF808400D78681C087054559DF8DA
:1008F00009400D78681C08705455464800890290DC
:100900009DF808400D78681C087054559DF8094002
:100910000D78681C087054553E48408902909DF837
:1009200008400D78681C087054559DF809400D78F2
:10093000681C087054553C48B0F8540002909DF86B
:1009400008400D78681C087054559DF809400D78D2
:10095000681C087054553548007802909DF808408E
:100960000D78681C087054552F48008802909DF837
:1009700008400D78681C087054559DF809400D78A2
:10098000681C087054552848408802909DF808401B
:100990000D78681C087054559DF809400D78681C46
:1009A000087054552048C08A02909DF808400D7880
:1009B000681C087054559DF809400D78681C087033
:1009C00054551948B0F85C0002909DF808400D7825
:1009D000681C087054559DF809400D78681C087013
:1009E00054551148B0F85A0002909DF808400D780F
:1009F000681C1DE004000020030000201C080020EB
:100A00000000002000020020060000206D090020E8
:100A10003A0B00201C09002002080020000A0020D8
:100A2000390000206C0B00209009002038000020C5
:100A3000087054559DF809400D78681C087054558D
:100A400000E000BF00BF7EBDF8B504460F460020A1
:100A50000090AA219DF80020501CC0B200907E4852
:100A6000815439789DF80020501CC0B200907A481B
:100A700081549DF80010481CC0B200907648445440
:100A800000219DF80020501CC0B200907248815493
:100A9000024669462046FFF7CAFD9DF80000001F88
:100AA0006D49C87000250026002007E06A49095CEE
:100AB0002944CDB27119CEB2411CC8B29DF80010C4
:100AC0008842F3DB9DF80010481CC0B200906248D9
:100AD00045549DF80010481CC0B200905E48465432
:100AE0005E4890F8000640B1E02C06D15B4880F8E3
:100AF0000F4680F8105680F811669DF80010564891
:100B0000FFF7E1FBF8BD10B5044604EB4400534980
:100B100001EB4000408828B304EB440001EB4000A7
:100B2000808804EB44014D4A02EB41014988884228
:100B30000CDA04EB4400114601EB40008088401CB5
:100B400004EB440102EB410188800BE0012004EB3F
:100B50004401424A02EB4101888004EB440102EB6C
:100B60004101487004EB44003C4901EB40004078EF
:100B700068B1002004EB4401384A02EB410148709F
:100B800004EB440002EB40012046FFF75DFF10BD7F
:100B9000324A82F84005012382F8413501222F4B69
:100BA00083F80026704710B52DED028BB0EE408A19
:100BB00000F024F83020FFF7A6FF3220FFF7A3FF54
:100BC0003320FFF7A0FF3420FFF79DFF4020FFF701
:100BD0009AFF4120FFF797FFE020FFF794FFE22004
:100BE000FFF791FF0D20FFF78EFFF120FFF78BFF3E
:100BF000F220FFF788FFBDEC028B10BD174890F87C
:100C00000006012821D116480078322805DA144858
:100C10000078401C124908701CE000201049087040
:100C200010480078401C0F490870084600780528D5
:100C300004DA0121094880F841150BE00020094938
:100C40000870064981F8000604E000200449087095
:100C5000044908707047000068010020000200206D
:100C6000050000200100002000B52DED028B85B0AD
:100C7000B0EE408AFE4890F8390000287DD1FC484B
:100C8000B0F94200B0F5966F06DA012000F0EEFAF6
:100C90000120F849087013E0F548B0F9420040F22D
:100CA000A461884206DA022000F0E0FA0220F1494D
:100CB000087005E0032000F0D9FA0320ED49087020
:100CC000EC484078EB49097888420BD0E948007835
:100CD000E849487008460078032803D10846807820
:100CE000401C8870E348807810B3E3480088B0F572
:100CF000FA6F10DAE048008800EE100AB8EE400AF9
:100D0000DFEDDE0A00EE880ABCEEC00A10EE100A23
:100D1000D94908800CE0D7498978032901DB00F024
:100D2000CDFA20B10021D44A1180D24A917000BF7F
:100D3000CF48B0F93A00A0F2DC5000EE900AF8EE8D
:100D4000E00AB0EE600A9FEDCE1ADFEDCE0A01F0A8
:100D5000E1FB8DED010AC648B0F93C00A0F2DC5081
:100D600000EE900AF8EEE00AB0EE600A9FEDC41AB9
:100D7000DFEDC40A01F0CEFB00E069E08DED020A70
:100D8000BB48B0F93E00A0F2DC5000EE900AF8EE4D
:100D9000E00AB0EE600A9FEDBC1ADFEDBA0A01F07E
:100DA000B9FB8DED030AB248B0F94000A0F2DC5067
:100DB00000EE900AF8EEE00AB0EE600A9FEDB21A7B
:100DC000DFEDB00A01F0A6FB8DED040AAF48007814
:100DD00058B19FEDAC0A8DED010A9FEDAA0A8DED89
:100DE000020A9FEDA80A8DED040A9DED010ADFEDD0
:100DF000A80A20EE200ADFEDA70A20EE200ABDEEA9
:100E0000C00A10EE100A00B2A34908809DED020A44
:100E1000B1EE400ADFED9E0A20EE200ADFED9D0ACA
:100E200020EE200ABDEEC00A10EE100A00B2488083
:100E30008F48C08FA0F57A7000B288800121974852
:100E400080F88711002096490870964908701EE0C6
:100E50009548C07878B19248007828B9032000F00E
:100E600005FA8F49087006E08E48007818B900F03E
:100E700025FA8C49087000208749088048804FF483
:100E8000AF7088800020C88088814881088105B0C3
:100E9000BDEC028B00BD10B504468448008800EE0E
:100EA000100AB8EE400ADFED820A20EE200ABDEEFD
:100EB000C00A10EE100A00B27E4908807B484088C4
:100EC00000EE100AB8EE400ADFED790A20EE200AA3
:100ED000BDEEC00A10EE100A00B248807348808848
:100EE00000EE100AB8EE400ADFED710A20EE200A8B
:100EF000BDEEC00A10EE100A00B288806B48C088B0
:100F000000EE100AB8EE400ADFED690A20EE200A72
:100F1000BDEEC00A10EE100A00B2C8806348008916
:100F200000EE100AB8EE400ADFED610A20EE200A5A
:100F3000BDEEC00A10EE100A00B208815B4840897D
:100F400000EE100AB8EE400ADFED590A20EE200A42
:100F5000BDEEC00A10EE100A00B2488153488089E5
:100F600000EE100AB8EE400ADFED510A20EE200A2A
:100F7000BDEEC00A10EE100A00B288814B48C0894D
:100F800000EE100AB8EE400ADFED490A20EE200A12
:100F9000BDEEC00A10EE100A00B2C88146480078C3
:100FA00018B901204449087027E0E4B1002017E097
:100FB000404931F91010002901DC00210BE03D49C6
:100FC00031F91010B1F57A7F02DD4FF47A7102E049
:100FD000384931F91010374A22F81010411CC8B2B4
:100FE0000828E5DB09E0002005E00021314A22F86D
:100FF0001010411CC8B20828F7DB2E4802F08BFF06
:1010000010BD10B502F046FDDFED2C0A20EE200ADF
:10101000BCEEC00A10EE100A2949088010BD10B5B8
:1010200028480088401C27490880084600880A2173
:1010300090FBF1F201FB120022490880084600886B
:10104000A0B99FED210A00F0CEFF9FED1F0AFFF728
:101050000BFE9FED1D0A00F045FB9FED1B0A01F002
:1010600093FC18484088401C16492FE03DE00000E2
:10107000000B0020190000201C00002000007A4412
:1010800000002042000000000000A0422A000020D2
:101090008F360E3B00C05A451C090020000200207C
:1010A0001700002018000020840900202A090020D1
:1010B000CDCCCC3D440900201E0000200000C842D9
:1010C00006000020200000200AD7233C4880084664
:1010D00040880A2190FBF1F201FB12000C49488084
:1010E0000846408808B9FFF78CFF03F0A5FD0120F2
:1010F00001F0EEFD9FED070A00F00EF89FED050AE6
:10110000FFF751FD0120FFF7C6FE02F064FD10BDA0
:10111000200000206F12833A10B52DED028BB0EE47
:10112000408A00F020F800BF2D4840782D4909780A
:10113000884214D02A4840782A49087000202A4959
:1011400088744FF487712848A0F813102448C169A7
:101150002548C0F815100121244880F8391100BF36
:10116000BDEC028B10BD22480078FF2804D0204837
:101170000078401C1E490870194800781D490978FC
:10118000884216D0164800781A4908701448007A28
:1011900050B11348C07838B11148408912490880CD
:1011A0000F488089488004E04FF400400E490880D1
:1011B00048800B4840781049097888420ED008488A
:1011C00040780D4908704FF400400749888001219C
:1011D000064880F833110020054908707047000068
:1011E0006C0B002027000020540900200002002082
:1011F00026000020240000202500002010B501203A
:10120000A2498870A24890F8000688B91020A04929
:1012100081F8010600219E4880F80216012180F81D
:10122000031600F20161FF20FFF7B2FC012010BDA0
:101230000020FCE710B5002094498870944890F88D
:10124000000688B91020924981F8010600219048D3
:1012500080F80216022180F8031600F20161FF20D7
:10126000FFF796FC012010BD0020FCE710B50446F6
:1012700088480078A0421FD0854890F80006C8B979
:1012800082480470834804700120814981F8010676
:1012900001217F4880F8021680F803167B48017808
:1012A0007B4880F8041600F20161FF20FFF770FC14
:1012B000012010BD0020FCE70120FAE710B57448BA
:1012C00090F8000688B91020714981F801060021C4
:1012D0006F4880F80216072180F8031600F20161BA
:1012E000FF20FFF755FC012010BD0020FCE701B5F1
:1012F000674890F80006C8B91020654981F80106D2
:101300000021634880F80216052180F803169DF835
:10131000001080F804169DF8011080F8051600F200
:101320000161FF20FFF734FC012008BD0020FCE72D
:1013300010B5574890F8000688B91020544981F834
:1013400001060021524880F80216062180F8031693
:1013500000F20161FF20FFF71BFC012010BD0020FF
:10136000FCE707B54A4890F8000648BB10204849FA
:1013700081F801060221464880F80216032180F810
:1013800003169DF8001080F804169DF8011080F8EF
:1013900005169DF8041080F806169DF8051080F8D3
:1013A00007169DF8081080F808169DF8091080F8B7
:1013B000091600F20161FF20FFF7EAFB01200EBDD4
:1013C0000020FCE710B5324890F8000688B90120EB
:1013D0002F4981F8010600212D4880F802160321CB
:1013E00080F8031600F20161FF20FFF7D1FB012016
:1013F00010BD0020FCE710B5254890F8000688B91C
:101400000120234981F801060021214880F80216B5
:10141000042180F8031600F20161FF20FFF7B8FBFA
:10142000012010BD0020FCE710B5194890F8000617
:1014300088B90120164981F801060021144880F876
:101440000216052180F8031600F20161FF20FFF764
:101450009FFB012010BD0020FCE710B50C4890F860
:10146000000688B901200A4981F8010600210848D0
:1014700080F80216022180F8031600F20161FF20B5
:10148000FFF786FB012010BD0020FCE78409002047
:10149000000200202800002010B504469848B0F94A
:1014A0004000B0F5AF6F0BDD9548B0F94000B0F5E6
:1014B000C86F05DA0120934948709349087002E02B
:1014C0000020904948708E48B0F93E00B0F5966F04
:1014D00006DA8C48407818B901208A49087002E081
:1014E0000020884908708848007801284AD1874838
:1014F000C078002853D18248B0F93A0040F26C71AC
:10150000884210DD7E48B0F93C0040F24C418842F0
:1015100009DA7B48B0F93E00884204DA7848B0F92D
:101520004000884217DB7648B0F9400040F26C7109
:10153000884230DD7248B0F93C0040F24C418842AC
:1015400029DA6F48B0F93E00884224DA6C48B0F9D5
:101550003A0088421FDA6E480088B0F57A7F12DAC6
:10156000D4ED000A6A48008800EE100AB8EE400A7E
:101570009FED681A00EE810ABCEEC00A10EE100A58
:101580006349088062E0FFF739FE00206049088067
:101590005D4908705AE000205D49088056E05B48CC
:1015A000C078012852D15648B0F93A0040F26C7127
:1015B000884210DD5248B0F93C0040F24C4188426C
:1015C00009DA4F48B0F93E00884204DA4C48B0F9D5
:1015D0004000884217DB4A48B0F9400040F26C7185
:1015E000884230DD4648B0F93C0040F24C41884228
:1015F00029DA4348B0F93E00884224DA4048B0F97D
:101600003A0088421FDA42480088B0F5967F12DA25
:10161000D4ED000A3E48008800EE100AB8EE400AF9
:101620009FED3C1A00EE810ABCEEC00A10EE100AD3
:10163000374908800AE0FFF7FDFD002034490880A3
:101640003149087002E000203149088010BD10B512
:101650002E48C078002844D12948B0F9400040F213
:101660004C41884217DA2648B0F93C00884212DA29
:101670002348B0F93E0088420DDA2148B0F93A001B
:10168000884208DA2448007838BBFFF79BFE012027
:101690002149087025E01A48B0F9400040F26C7109
:1016A00088421BDD1648B0F93C0040F24C418842AC
:1016B00014DA1348B0F93E0088420FDA1048B0F946
:1016C0003A0040F26C71884208DD1348007820B976
:1016D000FFF791FE01201049087002E000200E493A
:1016E000087010BD10B52DED020B054890F83900BB
:1016F00020B96846FFF7D0FEFFF7A9FF1CBD000028
:10170000000B00202A0000202E0000208409002069
:101710002C00002000007A442F0000200020054902
:10172000087381F86700487381F86C0081F85E00E7
:1017300070470000900900200146FD48007803280A
:1017400038D005DC58B101281AD002287ED11FE01C
:1017500014287CD015287BD01628F7D16DE1002005
:10176000F44A1070AA2905D1F1480078401CF04ACB
:10177000107004E0AB2902D11420ED4A10704CE245
:10178000FF2904D1EA480078401CE94A107044E27D
:10179000E84802780078401CE64B1870E64881540F
:1017A00018460078182804D1E1480078401CE04A27
:1017B000107032E2EA297BD1002005E0DE4A125C9B
:1017C000DE4B1A54421CD0B21828F7DB002042E04E
:1017D000DA4A02EB800292ED000AD94A02EB80025B
:1017E000D2ED000A30EE600AB5EEC00AF1EE10FA52
:1017F0000CDDD24A02EB800292ED000AD04A02EBE5
:101800008002D2ED000A30EE600A0DE0CB4A02EB16
:10181000800292ED000ACA4A02EB8002D2ED000A71
:1018200030EE600AB1EE400ADFEDC60AB4EEE00A1F
:10183000F1EE10FA09DDC24A02EB800292ED000AD5
:10184000BE4A02EB800282ED000A02E0E4E1DAE047
:10185000E1E0421CD0B20628BADBBB48B0F90C006C
:1018600000EE100AB8EEC00AB448D0ED000A9FEDB1
:10187000B71A10EE810AB448B0F90C0000EE900AD5
:10188000F8EEE00AB6EE001A41EE000ABDEEE00AFC
:1018900010EE100A00B2AC4A90811046B0F90E006A
:1018A00000EE100AB8EEC00AA448D0ED010A00E02C
:1018B000A5E09FEDA61A10EE810A1046B0F90E00C1
:1018C00000EE900AF8EEE00AB6EE001A41EE000AC9
:1018D000BDEEE00A10EE100A00B2D0811046B0F959
:1018E000100000EE100AB8EEC00A9448D0ED020ACB
:1018F0009FED961A10EE810A1046B0F9100000EE26
:10190000900AF8EEE00AB6EE001A41EE000ABDEECB
:10191000E00A10EE100A00B210821046B0F906007C
:1019200000EE100AB8EEC00A8448D0ED030AF1EECA
:10193000600A9FED861A10EE810A1046B0F9060083
:1019400000EE900AF8EEE00AB6EE001A41EE000A48
:10195000BDEEE00A10EE100A00B2D0801046B0F9D9
:10196000080000EE100AB8EEC00A7448D0ED040A70
:101970009FED761A10EE810A1046B0F9080000EECD
:10198000900AF8EEE00AB6EE001A41EE000ABDEE4B
:10199000E00A10EE100A00B210811046B0F90A00F9
:1019A00000EE100AB8EEC00A6448D0ED050A9FEDBB
:1019B000671A10EE810A1046B0F90A0000EE900A8C
:1019C000F8EEE00AB6EE001A41EE000ABDEEE00ABB
:1019D00010EE100A00B2508100200BE0574A02EBD3
:1019E000800292ED000A564A02EB800282ED000A64
:1019F000421CD0B20628F1DB0120554A10700020AD
:101A00004B4A107009E1FB2904D149480078401C79
:101A1000474A107001E1474802780078401C454B66
:101A200018704548815418460078042804D140486D
:101A30000078401C3E4A1070EFE0EB2976D13E481A
:101A40000078444A10703C48407850703A4880789A
:101A500090703948C078D0701046008838B93E4838
:101A600090F86600401C3C4A82F8660003E00020C3
:101A7000394A82F866003748B0F90000364AB2F9B0
:101A80006020801A002807DD3248B0F90000324A91
:101A9000B2F96020801A06E02F48B0F960002D4AA4
:101AA000B2F90020801A642803DD2C480078012850
:101AB00009D0294890F8660000280BDD264890F8E8
:101AC0006600042806DA2448B0F86000224AA2F82A
:101AD0005C0009E01F4800881F4AA2F85C0010461D
:101AE000B0F85C00A2F860001A48B0F90200B0F546
:101AF000FA7F07D101201A4A10700020164A82F896
:101B0000620082E01348408888B11248B0F90200B0
:101B1000114AB2F95A20801A002823DD0D48B0F985
:101B200002000D4AB2F95A20801A22E070E06CE0FF
:101B30003A0000203B000020AC0A0020300A0020C0
:101B4000E80A0020CDCC4C3E000A00200000C8422C
:101B500038000020340000209009002039000020C7
:101B60003C0000202E48B0F95A002E4AB2F902205B
:101B7000801A3C280ADD2A4890F86200012805D125
:101B80002748B0F95A00B0F5FA7F09D1244890F8F7
:101B90006600002810DD224890F8660004280BDA61
:101BA0001F48B0F85A001E4AA2F85A001046B0F872
:101BB0005A00A2F8640025E01B480078012805D1EE
:101BC00018484088164AA2F85A001BE01448B0F89A
:101BD0005A00134AA2F864001248B0F90200B2F9A0
:101BE0005A20104400EE100AB8EEC00AF6EE000AC1
:101BF00020EE200ABDEEC00A10EE100A00B2084A1C
:101C0000A2F85A000020084A10700120074A1070FC
:101C10000020074A107000E000BF00BF70470000BE
:101C200090090020340000203C00002039000020F2
:101C30003A00002010B502F0B9F90120F84981F806
:101C4000380081F8390010BD10B501F08BFE64201A
:101C500001F07CFE01F05EFF01F0EAFF642001F07C
:101C600075FE4FF4E13002F0DAFA4FF4E13002F0A1
:101C7000D0FB4FF4E13002F0C6FCEA4802F0E4FD8C
:101C8000E84802F0CAFE642001F060FEFFF7D2FFD0
:101C900001F0ACFE642001F059FEFEF7A1FA4FF40A
:101CA000487001F053FE01F041FB02F0A9FA012057
:101CB00010BD40F6C411884203DDDB4909780329D1
:101CC00003DCD94909780A290DD10021D64A1170BF
:101CD000D349B1F84E10491CD14AA2F84E10012147
:101CE00082F8501012E0B0F5967F0FDD40F6B83163
:101CF00088420BDA02B2CA49891CCB4B1B7821F807
:101D00001320C9490978491CC74A1170704738B572
:101D10000446C6A000680090C5484068C4490860F1
:101D200001F0E9FDC2494860084640680968401A68
:101D300040F6C411884202D90020BE490870BD484F
:101D400001780078401CBB4A1070BB4844541046D0
:101D5000007819287ED1182011460870B6480078FE
:101D60000F2878D1B448007E38B1B348007EB34A1A
:101D700012781DF802108842F3D10020AD49087096
:101D8000AD484078AC49897801F0070140EA01206C
:101D9000A3498882A848C0788006400DA649897862
:101DA00040EAE1009E49C882A3484079C007400D3F
:101DB000A149097940EA81009F49C97840EAA11008
:101DC000974908839C4880790007400D9A494979D2
:101DD00040EA6100924948839748C0794006400D27
:101DE0009549897940EA21108D4988839248407A43
:101DF0008007400D9049097A40EA41008E49C9792F
:101E000040EAE1108649C8838B48807AC006400DBD
:101E10008949497A40EAA100814908848648C07A04
:101E2000C0008549897A40EA61117D484184824831
:101E3000007B8149497B01F0070140EA0120784994
:101E400088847D48807B8006400D7B49497B40EA41
:101E5000E10001E072E067E07149C8847648007CE7
:101E6000C007400D7449C97B40EA81007249897BF3
:101E700040EAA1106A4908856F48407C0007400D80
:101E80006D49097C40EA6100654948856A48807C63
:101E90004006400D6849497C40EA21106049888528
:101EA0006548007D8007400D6349C97C40EA4100D8
:101EB0006149897C40EAE1105949C8855E48407D06
:101EC000C006400D5C49097D40EAA10054490886DE
:101ED0005948807DC0005849497D40EA6111504809
:101EE00041865548C07D4E4981F83400084690F837
:101EF000340000F0080040B90846B0F84E00401C1D
:101F0000A1F84E00022081F850004C480078401C97
:101F10004A4908700878C11700EB91718910A0EB4D
:101F20008101464A117009E0002005E0424A411C47
:101F3000515C1154411CC8B21828F7DB38BD10B5EC
:101F40000446D4ED000A3E48008800EE100AB8EEC0
:101F5000400A9FED3C1A00EE810ABCEEC00A10EE6A
:101F6000100A3749088008460088B0F57A7F39DDC5
:101F7000002008802A48B0F84E002949C886084643
:101F8000C08E052803DA012081F8380003E0002024
:101F9000234981F83800224890F83800C8B1204819
:101FA0000078D8B928480078401C2749087008787C
:101FB00000EBD0714910A0EB4101234A117010468B
:101FC0000078012802D102F072F807E001F0EEFF7C
:101FD00004E0134890F8500011490870002010499F
:101FE000A1F84E0010BD10B52DED020B6846FFF7AD
:101FF000A6FF0B4890F8380000286AD108480078FE
:10200000012823D1002008E00549891C31F810205F
:10201000383121F81020411CC8B20A28F4DB38E01E
:10202000000B002020A107004000002004142434ED
:10203000440000204C000020520B00204D000020E6
:102040005000002000007A444E0000202B48007809
:1020500002281ED100201AE02849143131F910104D
:10206000A1F5806100EE101AF8EEC00A9FED240A77
:102070009FED241A01EE200ABDEEC00A10EE101AE0
:102080000AB21E493A3121F81020411CC8B20A2870
:10209000E2DB1A48B0F94200B0F5966F05DD17484B
:1020A000B0F94200B0F5AF6F0BDB1448B0F9420055
:1020B000B0F5C86F09DD1148B0F94200B0F5E16F25
:1020C00003DA01201049087011E000200E49087061
:1020D0000DE001200C490870002006E000220749AD
:1020E0003A3121F81020411CC8B20A28F6DB064814
:1020F0000078024981F839001CBD0000000B002067
:102100000080BB442FDD243F52000020F0EE400A47
:10211000F5EEC00AF1EE10FA02DBB0EE600A70478D
:10212000B1EE600AFBE700B5B0EE403AB0EE602ACF
:10213000B5EEC03AF1EE10FA07D1B5EEC02AF1EED5
:1021400010FA02D19FEDFC1A99E0B0EE430AFFF7B6
:10215000DDFFF0EE403AB0EE420AFFF7D7FFF0EEB7
:10216000402AF4EEE23AF1EE10FA02D283EEA24AED
:1021700001E082EEA34A9FEDF10AB4EEC04AF1EE0F
:1021800010FA02D2F0EE441A2DE0DFEDED0AB6EEC1
:10219000000A14EE200AF0EE404ABDEEE40A10EE0A
:1021A000100A00EE100AB8EEC00A34EEC00AF0EED3
:1021B000404AE44901EB800191ED000AF0EE401A3B
:1021C000E04A411C02EB810191ED000A114601EB4E
:1021D0008001D1ED000A70EE600AB0EE610A00EEF7
:1021E000A40AF0EE401AF4EEE32AF1EE10FA20DD34
:1021F000B5EEC02AF1EE10FA0ADBB5EEC03AF1EE08
:1022000010FA02DBB0EE611A39E0B1EE611A36E085
:102210009FEDCD1AB5EEC03AF1EE10FA04DB31EEC7
:10222000610AB0EE401A2AE031EEC10AB0EE401A5F
:1022300025E0B5EEC03AF1EE10FA10DB9FEDC31ABF
:10224000B5EEC02AF1EE10FA04DB31EE610AB0EE11
:10225000401A14E031EE210AB0EE401A0FE09FED73
:10226000BC1AB5EEC02AF1EE10FA04DB31EE210AF9
:10227000B0EE401A03E031EE610AB0EE401AB0EE63
:10228000410A00BD00B5B0EE405AF0EE605AF0EEE3
:10229000450AB0EE650AFFF746FF00BDF0EE400AC2
:1022A000F6EE001A60EEA11AB0EE611AB0EE600A06
:1022B00010EE100AA749A1EB600000EE100A21EE13
:1022C000002AF7EE081A42EE401A61EE801AB0EECC
:1022D000610A21EE002AF7EE081A42EE401A61EE7A
:1022E000801AB0EE610A704700B5F0EE402AB0EEF9
:1022F000620AFFF7D3FF20EE220A00BD10B52DEDD4
:102300000A8BB0EE409AF0EE609A9FED930B53EC7F
:10231000102B51EC190B0AF0C3FD18D29FED900B56
:1023200053EC102B51EC190B0AF037FD41EC1B0B51
:102330009FED8D0B53EC102B0AF088FC41EC1A0B2F
:1023400053EC192B0AF029FD41EC180B17E09FED17
:10235000840B53EC102B51EC190B0AF01EFD41ECD1
:102360001B0B9FED810B53EC102B0AF013FD41EC7E
:102370001A0B53EC192B0AF010FD41EC180B9FEDD2
:10238000760B53EC102B51EC180B0AF089FD20D280
:102390009FED770B53EC102B51EC180B0AF056FC09
:1023A00041EC1C0B9FED740B53EC102B0AF0F5FC69
:1023B00041EC1B0B9FED6E0B53EC102B0AF046FC0F
:1023C00041EC1A0B53EC182B0AF0E7FC41EC180B0C
:1023D0001FE09FED670B53EC102B51EC180B0AF02C
:1023E000D6FC41EC1C0B9FED660B53EC102B0AF056
:1023F000D4FC41EC1B0B9FED5E0B53EC102B0AF051
:1024000025FC41EC1A0B53EC182B0AF0C6FC41ECEE
:10241000180BB0EE480AF0EE680ABDEC0A8B10BD4E
:1024200010B52DED068BB0EE408AF0EE608A0124E7
:102430009FED550B53EC102B51EC180B0AF048FD97
:102440000AD89FED510B53EC102B51EC180B0AF0EE
:102450009EFC41EC180BA41E20460AF010FD41EC36
:10246000190BB0EE480AF0EE680AFFF747FFB0EE2E
:1024700040AAF0EE60AA53EC192B51EC1A0B0AF0AB
:102480008CFC41EC100BBDEC068B10BD10B52DED96
:10249000088BB0EE408AF0EE608A01249FED3C0B81
:1024A00053EC102B51EC180B0AF0D0FB41EC180B3D
:1024B0009FED350B53EC102B51EC180B0AF008FD77
:1024C0000AD8A41E9FED300B53EC102B51EC180BC7
:1024D0000AF05DFC41EC180B20460AF0D0FC41EC00
:1024E0001A0BB0EE480AF0EE680AFFF799FFB0EE5B
:1024F00040BAF0EE60BA53EC1A2B51EC1B0B0AF009
:102500004CFC41EC190B0AF0FBFC00EE100ABDEC90
:10251000088B10BDF0EE401AF4EEE01AF1EE10FA5E
:102520003ADD31EEC10AB4EEE00AF1EE10FA3CD227
:10253000B0EE600A39E00000000000008180803BBE
:10254000000080435CD10008DB0F4940DB0FC93F2E
:10255000DB0FC9BFDF59375F00000000000000003B
:10256000000000602FF0D93F00000060305FF43FB2
:10257000000000000000F03F000000C0CCCCCCBF49
:10258000000000C0CCCCCC3FF1D4C853FB210940A3
:10259000F1D4C853FB21F93F31EE810AB4EEE00AD1
:1025A000F1EE10FA01DDB0EE600A7047F0EE401A6D
:1025B000B1EE412A32EE202AB4EEE12AF1EE10FA11
:1025C00009D231EE202AB4EEE12AF1EE10FA02DD52
:1025D000B0EE600A01E0B0EE610A7047F0EE402A0A
:1025E000B5EEC01AF1EE10FA02DDB0EE410A01E0DC
:1025F000B1EE410AB6EE003A22EE033A23EE213A5A
:10260000B4EEC30AF1EE10FA06D29FEDD40A20EE22
:10261000800AF0EE400A4DE0B5EEC01AF1EE10FA75
:1026200002DDB0EE410A01E0B1EE410A22EE213AAC
:10263000B4EEC30AF1EE10FA06D29FEDC90A20EEFD
:10264000800AF0EE400A35E0B5EEC01AF1EE10FA5D
:1026500002DDB0EE410A01E0B1EE410AB4EEE10A5A
:10266000F1EE10FA06D2B6EE000A20EE800AF0EE85
:10267000400A1FE0B5EEC01AF1EE10FA02DDB0EE2E
:10268000410A01E0B1EE410AB0EE003A21EE833A90
:10269000B4EEC30AF1EE10FA06D29FEDB20A20EEB4
:1026A000800AF0EE400A05E09FEDAF0A20EE800AB6
:1026B000F0EE400A9FEDAD0A20EE800A20EE223AAD
:1026C000F7EE003A83EE830AB7EE003A30EE030AE3
:1026D000F7EE003A83EE803A90ED000A71EE403A50
:1026E00090ED000A03EE230A80ED000A90ED000A47
:1026F000B1EE423A23EE213AB4EEC30AF1EE10FAFB
:1027000004D8B1EE420A20EE210A0DE090ED000A55
:1027100022EE213AB4EEC30AF1EE10FA02DD22EE07
:10272000210A01E090ED000A80ED000A90ED000A18
:1027300031EE400A704710B52DED028BB0EE408AA5
:10274000F0EE608A9FED8A0B53EC102B51EC180BC6
:102750000AF0BEFB0CD29FED880B53EC102B51EC12
:10276000180B0AF014FB41EC100BBDEC028B10BDF2
:102770009FED830B53EC102B51EC180B0AF090FBE0
:102780000AD29FED7D0B53EC102B51EC180B0AF085
:102790005DFA41EC100BE8E7B0EE480AF0EE680A8B
:1027A000E3E730B505460C46F0EE403AD5ED000AB9
:1027B00060EEA00A94ED001AD4ED001A41EE210A51
:1027C000B0EE600AFFF790FDB0EE403AB5EEC03AC9
:1027D000F1EE10FA02D81FEDA80A09E0B4EEE33AD0
:1027E000F1EE10FA02DDB0EE630A01E0B0EE430A4A
:1027F000B0EE404AB5EEC03AF1EE10FA06D11FED48
:10280000B20A83ED000A82ED000A0FE084EE030AAB
:10281000D5ED000A20EE200A82ED000A84EE030ABC
:10282000D4ED000A20EE200A83ED000A30BDF0EE60
:10283000400A0B7802EB8303C3ED000A0B785B1CA4
:102840000B700B78834201DB00230B700B7802EBDB
:10285000830393ED000A704700B50246B0EE403A9C
:102860000B46F7EE000A43EE430AB0EE600AFFF7AC
:102870003BFDD2ED000A20EE200AD2ED010A00EE67
:10288000C30A83ED000AF7EE000A43EE430AB0EEF6
:10289000600AFFF729FDD2ED010A20EE200AD2EDF1
:1028A000000A00EE830A83ED010A00BD90ED000AE4
:1028B000D1ED010A20EE200AD0ED010A91ED001AB7
:1028C00000EEC10A704790ED000AD1ED000A20EE3B
:1028D000200AD0ED010A91ED011A00EE810A70473D
:1028E00090ED010AD1ED020A20EE200AD0ED020A95
:1028F00091ED011A00EEC10A82ED000A90ED020A84
:10290000D1ED000A20EE200AD0ED000A91ED021A66
:1029100000EEC10A82ED010A90ED000AD1ED010A34
:1029200020EE200AD0ED010A91ED001A00EEC10A56
:1029300082ED020A704790ED000AD1ED000A20EE08
:10294000200AD0ED010A91ED011A00EE810AD0EDC6
:10295000020A91ED021A00EE810A70479A99993F96
:10296000CDCC4C3FCDCC4C3ECDCCCC3DC3F5C840BE
:1029700000000000008066400000000000807640FB
:1029800000000000008066C008B5C848D0ED000A0D
:102990009FEDC71AF4EEC10AF1EE10FA0BD2D0ED9A
:1029A000000AB7EE001A70EE810AC0ED000A01209D
:1029B000C049887002E00020BE498870BB48D0ED55
:1029C000010A9FEDBB1AF4EEC10AF1EE10FA0BD228
:1029D000D0ED010AB7EE001A70EE810AC0ED010ACF
:1029E00001208DF8000002E000208DF80000AF48C3
:1029F000D0ED020A9FEDAE1AF4EEC10AF1EE10FA24
:102A00000BD2D0ED020AB7EE001A70EE810AC0EDCB
:102A1000020A01208DF8010002E000208DF801007B
:102A20009DF8000030B19DF8010018B10120A149C6
:102A3000C87002E000209F49C87008BD70B5002230
:102A40000024C5788B1F9D4200D070BD002306E096
:102A5000C55C1544EAB2A518ECB25D1CEBB28D1E44
:102A60009D42F5DC431813F8023C934204D143180D
:102A700013F8013CA34200D0E7E78378512B38D10B
:102A800003795BB943798B4D6B7183795BB2AB7121
:102A9000C3795BB2EB71037A2B7186E00379012B6A
:102AA00012D14379834D2B72C3886B810389AB812B
:102AB000837A2B719FED800A7C4B83ED010A2B46B4
:102AC0001B785B1C2B7070E00379022B6DD143796E
:102AD000784DAB73C3882B8203896B824389AB82A9
:102AE0008389EB82C3892B83038A6B83837C2B715D
:102AF0005BE08378342B10D1D0F80730C82B01D29B
:102B00006C4DEB619FED6C0A684D85ED020A694DD5
:102B10006D786D1C674E757047E08378012B0DD181
:102B20008388644D2B86C3886B860389AB86438973
:102B3000EB8683892B87C3896B8736E08378042BE8
:102B400033D1B0F9043000EE103AB8EEC00ADFED30
:102B50005B0A20EE200A574B83ED080AB0F90630D5
:102B600000EE103AB8EEC00ADFED540A20EE200A5B
:102B7000504B83ED090AB0F9083000EE103AB8EE78
:102B8000C00ADFED4E0A20EE200A4A4B83ED0A0A06
:102B9000B0F90A3000EE103AB8EEC00ADFED470A8D
:102BA00020EE200A434B83ED0B0A00BF4DE710B522
:102BB00004464348007838B9AA2C05D10120404981
:102BC0000870404804706FE03D480078012809D142
:102BD000612C01D0FF2C05D10220394908703948F9
:102BE000447061E036480078022805D1032034495A
:102BF00008703448847057E03148007803280CD1BD
:102C0000FA2C0ADA04202E4908702E48C4702E4887
:102C1000047000202D49087046E0294800780428F7
:102C200019D129480078002815DD27480078401E72
:102C3000254908702548007824490978491C234A09
:102C40001170001D1F490C541F48007840BB05201F
:102C50001B49087028E01A48007805280DD1062085
:102C6000174908701948007818490978491C174A0B
:102C70001170001D13490C5416E011480078062805
:102C80000FD100200E49087010480078001D0D4932
:102C90000C540E480078401DC1B20A48FFF7CEFE22
:102CA00002E000200649087010BD0000DC0B002087
:102CB0000000FA436C0B00200000000017B7D13869
:102CC00055000020A80B00205300002054000020D5
:102CD0000146D548007800287ED00022D24B1A70D9
:102CE000D24A1288C832D14B1A80D14A127DD14BB8
:102CF0005A76CF4AD37DCF4A9376CD4A9369CD4A4F
:102D0000C2F81B30CA4AD369CA4AC2F81F30C84A3F
:102D1000526A0A2392FBF3F3C64AC2F82330C44A2C
:102D2000126B0A2392FBF3F213B2C24AA2F82730C5
:102D3000BF4A526B0A2392FBF3F213B2BD4AA2F8C8
:102D40002930BB4A926B0A2392FBF3F213B2B94AC1
:102D5000A2F82B30B64AB2F84C2000EE102AB8EE9A
:102D6000400ADFEDB50A20EE200ABCEEC00A10EEE4
:102D7000100A08B9002204E0C82801D9C82200E0DE
:102D800002461046AB4A82F82D00A94A526C00EE6A
:102D9000102AB8EE400ADFEDA80A20EE200ABCEEA9
:102DA000C00A10EE100A08B9002204E0C82801D9B0
:102DB000C82200E0024610469E4A82F82E009C4A35
:102DC000D26A00EE102AB8EE400ADFED9B0A20EE30
:102DD000200ABCEEC00A00E012E010EE100A08B9AA
:102DE000002204E0C82801D9C82200E002461046AB
:102DF000904A82F82F000123904A82F8213100BFC7
:102E0000704710B50E218E4801F084FA10BD10B540
:102E10000E218C4801F07EFA10BD10B5642000F040
:102E200095FD4FF4165001F0FAF9322000F08EFDB6
:102E30001C21854801F06EFA642000F087FD4FF4F4
:102E4000964001F0ECF9322000F080FD1C217E4814
:102E500001F060FA642000F079FD4FF4164001F0B3
:102E6000DEF9322000F072FD1C21774801F052FAA1
:102E7000642000F06BFD4FF4E13001F0D0F9142034
:102E800000F064FD0B21714801F044FA142000F0B9
:102E90005DFD0B216E4801F03DFA142000F056FD57
:102EA0000B216C4801F036FA142000F04FFD0B2185
:102EB000694801F02FFA142000F048FD0B21674803
:102EC00001F028FA142000F041FD0B21644801F0C4
:102ED00021FA142000F03AFDFFF793FF10BD10B562
:102EE0000146002000225F4B1B782BB9B52903D186
:102EF00001235C4C237095E05A4B1B78012B05D1C4
:102F0000622903D10223574C23708BE0554B1B7869
:102F1000022B05D10323534C2370534B197081E0CE
:102F2000504B1B78032B05D104234E4C23704F4B81
:102F3000197077E04B4B1B78042B05D10523494CC6
:102F400023704B4B19706DE0464B1B78052B10D14D
:102F50000623444C2370464B1B7803EB0123454C5E
:102F6000238023461B88622B5CDB00233D4C2370AF
:102F700058E03C4B1B78062B54DB3A4B1B789B1FCD
:102F80003C4C2488A41CA3420ADA364B1B789B1FB6
:102F9000274CE154334B1B785B1C324C237041E0CF
:102FA000314B1B780344D8B21318DAB22F4B1B787D
:102FB0000344D8B21318DAB22E4B1B780344D8B2AC
:102FC0001318DAB22B4B1B8800EB1323D8B213185B
:102FD000DAB2002307E0164CE45C0444E0B21418B3
:102FE000E2B25C1CE3B2234C2488A342F3DB104B17
:102FF000204C24881B5D834211D10D4C1D4B1B8836
:103000005B1CE35C93420AD1174B1B78012B06D162
:10301000164B1B78072B02D10123034C237000238E
:10302000104C237010BD00005600002058000020F6
:10303000E80B0020540900200AD7233C000200209E
:103040005A0000206800002092000020C3000020E9
:10305000CE000020D9000020E4000020EF00002076
:10306000FA0000200B0100200501002006010020CD
:103070000701002008010020D0ED0C1A01EE101A03
:10308000B8EEC11A31EE611AD0ED021A81EE212A92
:10309000F0EE420A01EE101AB8EEC11A80ED0C1AD9
:1030A00090ED051A21EE201AF0EE410A90ED0A1A71
:1030B000B4EEE01AF1EE10FA04D290ED0A1AF0EE36
:1030C000410A0EE090ED0A1AB1EE411AB4EEE01A90
:1030D000F1EE10FA05DD90ED0A1AB1EE411AF0EEAC
:1030E000410AD0ED031A01EE101AB8EEC12AB0EE73
:1030F000601A02EE211AD0ED0B1A90ED112A01EEA2
:10310000821AD0ED0D1A90ED002AB0EE410A01EEC0
:10311000820A002917DD90ED071AB4EEC01AF1EE0D
:1031200010FA10DDD0ED0B1A90ED042A01EE101A02
:10313000B8EEC11A22EE011A90ED022A41EE021AEF
:10314000C0ED0B1A18E0002916DA90ED061AB4EE5D
:10315000C01AF1EE10FA0FD2D0ED0B1A90ED042A3E
:1031600001EE101AB8EEC11A22EE011A90ED022AF1
:1031700041EE021AC0ED0B1A90ED0B1AD0ED081AB1
:10318000B4EEE11AF1EE10FA04D290ED081A80EDD7
:103190000B1A0CE090ED0B1AD0ED091AB4EEE11AFF
:1031A000F1EE10FA03DD90ED091A80ED0B1A90EDA7
:1031B000071AB4EEC01AF1EE10FA04D290ED071A15
:1031C000B0EE410A0AE090ED061AB4EEC01AF1EE34
:1031D00010FA03DD90ED061AB0EE410A7047F0EEEA
:1031E000400A90ED0C2A30EEC22AD0ED022A82EE7F
:1031F000223AB0EE431AC0ED0C0A90ED052A22EEF9
:10320000012AB0EE421A90ED0A2AB4EEC12AF1EE7C
:1032100010FA04D290ED0A2AB0EE421A0EE090EDB8
:103220000A2AB1EE422AB4EEC12AF1EE10FA05DD07
:1032300090ED0A2AB1EE422AB0EE421A70EEE12A6F
:1032400090ED033AB0EE412A02EE832AD0ED0B2A2C
:1032500090ED113A02EE832A32EE002AB0EE420AD5
:10326000F0EE601AF5EEC00AF1EE10FA13DD90ED03
:10327000072AB4EEC02AF1EE10FA0CDD90ED0B2A0D
:10328000D0ED042A62EEA02A90ED023A02EE832AE3
:1032900080ED0B2A17E0F5EEC00AF1EE10FA12D21B
:1032A00090ED062AB4EEC02AF1EE10FA0BD290EDA2
:1032B0000B2AD0ED042A62EEA02A90ED023A02EE2B
:1032C000832A80ED0B2A90ED0B2AD0ED082AB4EE6C
:1032D000E22AF1EE10FA04D290ED082A80ED0B2AD2
:1032E0000CE090ED0B2AD0ED092AB4EEE22AF1EEC3
:1032F00010FA03DD90ED092A80ED0B2A90ED072AE4
:10330000B4EEC02AF1EE10FA04D290ED072AB0EE26
:10331000420A0AE090ED062AB4EEC02AF1EE10FA55
:1033200003DD90ED062AB0EE420A70479FEDAA0A2F
:10333000AA4880ED030A9FEDAA0A80ED040A9FEDDA
:10334000A90A80ED050A9FEDA40AA74880ED030AAB
:103350009FEDA30A80ED040A9FEDA20A80ED050A05
:103360009FEDA20AA24880ED030A9FED9D0A80ED21
:10337000040A9FEDA00A80ED050A9FED9F0A9F4871
:1033800080ED030A9FED9E0A80ED040A9FED940AEA
:1033900080ED050A9FED980A9A4880ED030A9FED9B
:1033A000980A80ED040A9FED8E0A80ED050A9FEDD4
:1033B000910A954880ED030A9FED940A80ED040A76
:1033C0009FED920A80ED050A9FED900A834880EDFB
:1033D000100A9FED8E0A844880ED100A9FED8B0A3B
:1033E000834880ED100A9FED890A874880ED100A16
:1033F000B7EE080A794880ED0A0AB7EE080A7A485B
:1034000080ED0A0AB7EE000A794880ED0A0AB7EEA5
:10341000080A7D4880ED0A0AB7EE000A6F4880ED81
:10342000110AB7EE000A704880ED110AB7EE000AE3
:103430006F4880ED110AB7EE000A734880ED110A5B
:103440009FED720A654880ED020A9FED700A66489A
:1034500080ED020A9FED6D0A654880ED020A9FED3E
:103460006B0A694880ED020ABFEE000A5B4880EDF6
:10347000080AB7EE000A80ED090ABFEE000A5A48B2
:1034800080ED080AB7EE000A80ED090ABFEE000AD7
:10349000574880ED080AB7EE000A80ED090ABFEE32
:1034A000000A594880ED080AB7EE000A80ED090AC3
:1034B0009FED570A494880ED060A9FED560A80EDB8
:1034C000070A9FED530A484880ED060A9FED510A0E
:1034D00080ED070A9FED500A454880ED060A9FEDF2
:1034E0004F0A80ED070A9FED4E0A474880ED060A15
:1034F0009FED4C0A80ED070A704700B54A48007BF3
:10350000012821D14848806847494968401A00EE9F
:10351000100AB8EEC00A444880ED0D0A90ED0D0A7D
:10352000BDEEC00A10EE100A01B23148FFF7A4FD4B
:103530003D4880ED110A90ED110ABDEEC00A10EE73
:10354000100A00B23949888100BD00B53648407B79
:10355000012824D13448B0F916003349B1F91410C8
:10356000401A00EE100AB8EEC00A2F4880ED0E0A8D
:1035700090ED0E0ABDEEC00A10EE100A01B222480C
:10358000FFF77AFD284880ED120A90ED120ABDEE91
:10359000C00A10EE100A00B22449C8800BE022488D
:1035A000407B022804D16FF01D002049C88002E052
:1035B00000201E49C88000BD0246531818B2B42826
:1035C00002DDA0F5B47318B210F1B40F02DA00F501
:1035D000B47318B270470000CDCC0C3F4C0C0020E7
:1035E00000000000CDCC4C3D9C0C00206666E63E01
:1035F000EC0C0020CDCCCC3D9A99993F3C0D00209D
:103600006F12833A8C0D0020DC0D00200AD7233C7A
:10361000000034C200003442000020C200002042FA
:10362000000070C200007042900900201C090020B8
:103630004349097831B101290FD0022915D0032956
:1036400030D124E000213F4A1170662804D13C4962
:103650000978491C3A4A117025E0982804D1384964
:103660000978491C364A11701DE036490A780978F4
:10367000491C344B1970344988541946097801297A
:1036800004D12F490978491C2D4A11700BE0EE280E
:1036900004D12D4909782D4A82F86C100021284A5E
:1036A000117000E000BF00BF704710B504466620EF
:1036B000274908700120487008468470EE20C870C1
:1036C0000421234800F026FE10BD10B504466620F4
:1036D0001F4908700220487008468470EE20C870A8
:1036E00004211B4800F016FE10BD38B504460094B6
:1036F000662017490870032048709DF80000887004
:103700009DF80100C870EE2008710521104800F0F6
:1037100001FE38BD38B50446009466200C49087097
:10372000042048709DF8000088709DF80100C87062
:10373000EE2008710521064800F0ECFD38BD0000C0
:103740000C0100200D0100202C0E0020900900200B
:10375000360E00202449097831B101290CD0022904
:1037600012D003292DD121E0672804D11E49097800
:10377000491C1D4A117025E0942804D11A49097882
:10378000491C194A11701DE018490A780978491C2A
:10379000164B19701649885419460978012904D125
:1037A00011490978491C104A11700BE0E22804D134
:1037B0000F4909780F4A82F86D1000210A4A1170EA
:1037C00000E000BF00BF704710B5044667200A49FB
:1037D00008709320487008468470E220C870042165
:1037E000054800F0ACFF10BD1201002013010020BD
:1037F000450E0020900900200E010020704700BFF8
:10380000FEE700BFFEE700BFFEE77047704710B558
:10381000802003F0C4FE10B1802003F016FF10BD1D
:1038200010B500F01BFC10BD704710B50121114808
:1038300007F0ABFD28B101210E4807F003FEFDF7AC
:10384000EEFB10BD10B500F0ADFD10BD10B500F0E1
:103850009EFE10BD10B500F0BBFF10BD10B501F00D
:10386000A0F810BD10B501F0B0F910BD10B500F012
:1038700071FC10BD001400407FB5684604F0C1FD26
:103880004FF47A710198B0FBF1F4E4082146B1F1EC
:10389000807F00D31DE021F07F40401E4FF0E022EA
:1038A000506150170F22002807DA13071E0E314B04
:1038B00000F00F052D1F5E5503E013071D0E2E4B64
:1038C0001D5400BF00204FF0E022906107201061DE
:1038D00000BF6FF0040001F095FB7FBD2748D0E9E1
:1038E00000305A1C40F100002449C1E90020704713
:1038F00022480068704710B500BF204A11684FF099
:10390000E02252694FF0E0239B69D21A4FF47A7398
:103910005A434FF0E0235B69B2FBF3F201EB410342
:10392000C3EBC11302EBC300144C18CC4B40234330
:10393000E3D110BD30B50446FFF7DDFF054600BFFB
:10394000FFF7D9FF401BA042FAD330BD10B50446A3
:1039500003E04FF47A70FFF7EDFF201EA4F101049D
:10396000F7D110BD10B54FF4806001F099FAFFF760
:1039700083FF10BD18ED00E000E400E01801002016
:1039800000B58FB0684602F096FD0121880504F06D
:1039900050FE00BF564803F0ABF80028FAD1009063
:1039A0005448019054480290002003903220049023
:1039B000002005904FF48060069040000790800042
:1039C000089000010A904012099000200B900120FD
:1039D0000C9000200D900E906946454802F015FCB1
:1039E0000121434802F078FD0FB000BD00B58DB055
:1039F00001A801F009FC0121042004F01AFE0121B4
:103A0000080204F0FCFEFFF7BBFF03208DF8300036
:103A100020200B9000208DF833000BA9374803F0CD
:103A2000B9FE0020099007904FF4803008900020E4
:103A30000A9007A801F0F2FB002001908DF8080021
:103A400001208DF8090000200390059001208DF8D9
:103A5000180001A927484C3801F00DFB072301226B
:103A60000F2124484C3801F09EFD012121484C389B
:103A700001F077FF01211F484C3801F080FC012143
:103A80001C484C3801F047FF1A484C3801F057FEEB
:103A90000DB000BD9FED1A0AF0EE400A002010E0C4
:103AA000154931F8101000EE101AB8EE401ADFED8B
:103AB000151AB0EE600A01EE210AF0EE400A411C30
:103AC000C8B23228ECDB9FED101A80EE810A9FED20
:103AD0000F1A20EE010AB2EE061A20EE010AF7EEE6
:103AE000001A80EE211A9FED0A0A21EE000A7047A3
:103AF000106402404C200140500E0020000802409B
:103B0000000000000AD7A33C0000804500404E455D
:103B10006F12833A1CB5684603F0E7FE01211020BE
:103B200004F087FD01208DF804008DF807000020C7
:103B30008DF8060002208DF80500072000906946E8
:103B4000384803F027FE01208DF804008DF80600A8
:103B500002208DF80500802000906946314803F06E
:103B600019FE02212F4804F04BF801212D4804F0E2
:103B700047F804212B4804F043F88021294804F039
:103B80003FF81CBD00F0010119B10221254A118343
:103B900002E00221234A518300F0020119B1012100
:103BA000204A118302E001211E4A518300F00401E2
:103BB00019B104211B4A118302E00421194A5183DF
:103BC00000F0080119B18021164A518302E08021DA
:103BD000144A1183704700B500201DE0124931F8E6
:103BE0001010124A1256914204DA01218140194301
:103BF0008BB202E0012181408B430B4931F8101058
:103C0000491C89B2084A22F81010142902DB00214D
:103C100022F81010411CC8B20428DFDB1846FFF759
:103C2000B1FF00BD0010024024010020200100204F
:103C300030B58BB00025D44C01A803F056FE08A87F
:103C400005F063F903A805F09CFF012C01D80120C1
:103C500004E0CE48844200D900E020460446012119
:103C6000082004F0A9FD0121022004F0C8FD012173
:103C7000084604F0C4FD0121152004F0DAFC0C20F4
:103C8000019002208DF8080003208DF80900002023
:103C90008DF80A0001208DF80B0001A9BC4803F043
:103CA00079FD02221146BA4804F088F80222032165
:103CB000B74804F083F8B74800684008B0FBF4F058
:103CC000401E85B242F210700990ADF820500020DD
:103CD000ADF82800ADF8220008A9AF4805F08AF831
:103CE0006020ADF80C000020ADF818000120ADF800
:103CF0000E004FF47A60059003A9A74805F0E8FD8F
:103D00000821A54806F0B1F90120ADF80E004FF4E6
:103D10007A60059003A9A04805F0A2FE08219E48FC
:103D200006F0CFF901219C4805F0E9FA01219A48F3
:103D300005F0D1FB4FF4D440019002208DF808002B
:103D400003208DF8090000208DF80A0001208DF86D
:103D50000B0001A9914803F01DFD012209218F48A4
:103D600004F02CF801220B218C4804F027F80122E2
:103D70000D218A4804F022F801220E21874804F020
:103D80001DF884480068B0FBF4F0401E85B242F292
:103D900010700990ADF820500020ADF82800ADF863
:103DA00022008DF82A0008A97D4805F023F860203C
:103DB000ADF80C000020ADF81000ADF81800082098
:103DC000ADF81A004001ADF81C000020ADF81E004F
:103DD0000120ADF80E004FF47A60059003A97048F9
:103DE00005F0C1FB08216E4806F0CBF84FF47A606D
:103DF000059003A96A4805F07EFC0821684806F092
:103E0000FEF84FF47A60059003A9654805F060FD5F
:103E10000821634806F029F94FF47A60059003A958
:103E20005F4805F01DFE08215D4806F04AF90121B2
:103E30005B4807F0FCF80121594805F060FA0121C0
:103E4000574805F048FB4FF44070019002208DF870
:103E5000080003208DF8090000208DF80A000120D9
:103E60008DF80B0001A94F4803F094FC03220821B0
:103E70004C4803F0A3FF032209214A4803F09EFFA8
:103E800044480068B0FBF4F0401E85B242F2107066
:103E90000990ADF820500020ADF82800ADF82200C0
:103EA0008DF82A0008A9404804F0A4FF6020ADF86E
:103EB0000C000020ADF81000ADF818000820ADF897
:103EC0001A004001ADF81C000020ADF81E004FF4B0
:103ED0007A60059003A9344805F0FAFC08213048BF
:103EE00006F0C3F84FF47A60059003A92E4805F058
:103EF000B7FD08212A4806F0E4F801212A4807F016
:103F000096F80121284805F0FAF90121264805F024
:103F1000E2FA0BB030BDB0F90010890001F57A610A
:103F20001F4A1164B0F90210890001F57A61D1636A
:103F3000B0F90410890001F57A619163B0F90610B7
:103F4000890001F57A615163B0F90810890001F523
:103F50007A61114A40321160B0F90A10890001F506
:103F60007A61121F1160B0F90C10890001F57A61B5
:103F70000D4A40321160B0F90E10890001F57A61E6
:103F8000121F11607047000000093D0000BD0105CF
:103F90000000024044010020000C004000100240DC
:103FA00000000140000802400004014000B587B055
:103FB00005A803F09AFC02A806F0BBFE012102202E
:103FC00004F0FAFB0121042004F033FB1D208DF8DE
:103FD000040002208DF8050001208DF806008DF800
:103FE000070001A800F077FF8020059002208DF8DF
:103FF000180003208DF8190000208DF81A00022007
:104000008DF81B0005A95D4803F0C4FB02220721BF
:104010005A4803F0D3FE5320594908800420ADF8D4
:1040200008000A20ADF80A000120ADF80C000020BD
:10403000ADF80E00ADF8100002A95148283806F07E
:1040400092FD01214E48283805F045FA012204214D
:104050004B48283807F05AF807B000BD10B548485B
:104060001838008800F0040000B34FF6FB70444994
:10407000183908804FF6FF3008804048103000683B
:1040800000F0800090B93E48283806F0FEFE3D4919
:104090000880084600884988401A84B22046FDF707
:1040A00008FE384800883749488000BF10BD00B579
:1040B00087B0684603F019FC0121202004F09FFB23
:1040C0000121042004F0B5FA47208DF808000420EF
:1040D0008DF8090001208DF80A008DF80B0002A868
:1040E00000F0F9FE08220721244803F067FE802033
:1040F000009002208DF804008DF8050001208DF855
:10410000060000208DF8070069461C4803F042FBBA
:104110001D4803900020ADF810004FF40050ADF89A
:104120001200C010ADF814000020ADF818000420F3
:10413000ADF8160003A9154807F0DBFE012240F296
:104140002551124808F071FB0121104808F01AF8B7
:1041500007B000BD10B540F225510C4808F08BFCAB
:1041600058B140F22551094808F010FD0748001DDC
:104170000088C4B22046FDF7CAFD10BD0008024009
:10418000280400402C010020A086010000140140FA
:104190003EB504460121202004F00EFB1E4804F029
:1041A0004DFD01945320ADF800000020ADF808004B
:1041B000ADF802006946184804F01CFE01211648BB
:1041C00007F0ADF801221146134806F09FFF0121C8
:1041D000114805F080F90021202004F0EDFA3EBDE1
:1041E00008B537208DF8000007208DF80100012068
:1041F0008DF802008DF80300684600F06CFE08BDE3
:1042000010B54FF47A70FFF7C3FFFFF7E9FF012104
:10421000202004F0D1FA10BD00140040704710B502
:104220008AB0044606A807F048FF0121102004F0D8
:10423000E6FA0121084604F0FCF925208DF80C006F
:1042400003208DF80D0000208DF80E0001208DF860
:104250000F0003A800F03FFE07220921FE4803F0EB
:10426000ADFD07220A21FC4803F0A8FD4FF40070C1
:10427000019002208DF808008DF8090000208DF8CB
:104280000A0001208DF80B0001A9F34803F082FA1F
:104290004FF48060019002208DF808008DF809002D
:1042A00001208DF80A0000208DF80B0001A9EA48D2
:1042B00003F070FAE94807F0B7FD06940020ADF866
:1042C0001C00ADF81E00ADF82000ADF824000C2055
:1042D000ADF822000020ADF81000ADF812004FF448
:1042E0000070ADF814000020ADF8160006A9DB48F8
:1042F00007F0FFFD04A9D94807F0EBFE012240F2C8
:104300002551D64808F091FA0121D44807F03AFF28
:104310000AB010BD70B505460E4600240AE0295DBE
:10432000CF4802780078401CCD4B1870CD4881549E
:10433000601CC4B2B442F2DBC848808900F080003F
:1043400028B9012240F22771C44808F06EFA70BD06
:10435000C5490A780978491CC34B1970C349885468
:1043600019460978642902DB00211A46117070474A
:1043700010B510E0BE490A780978491CBC4B197089
:10438000BA49885CFFF754F9B9480078642802DB21
:104390000020B7490870B4480078B54909788842C8
:1043A000E8D110BD10B5AD48008800F0080010B18C
:1043B000AA488088C4B240F22551A84808F05BFBA7
:1043C00050B140F22551A54808F0E0FBA348808891
:1043D000C4B22046FFF7BCFF40F227719F4808F0A7
:1043E0004AFBA8B1A34801780078401CA14A10708C
:1043F0009C48405C99498880104600789849097823
:10440000884205D19548808920F0800093498881B1
:1044100010BD10B58AB0044606A807F04EFE012173
:10442000480404F0C9F90121082004F002F926200B
:104430008DF80C0004208DF80D0001208DF80E0081
:104440008DF80F0003A800F046FD072205218A48D9
:1044500003F0B4FC07220621874803F0AFFC2020BC
:10446000019002208DF808008DF8090000208DF8D9
:104470000A0001208DF80B0001A97F4803F08AF99A
:104480004020019002208DF808008DF809000120DD
:104490008DF80A0000208DF80B0001A9764803F082
:1044A00079F906940020ADF81C00ADF81E00ADF8B7
:1044B0002000ADF824000C20ADF822000020ADF85B
:1044C0001000ADF812004FF40070ADF81400002099
:1044D000ADF8160006A9694807F00BFD04A9674866
:1044E00007F0F7FD012240F22551644808F09DF9DC
:1044F0000121624807F046FE0AB010BD70B50546BE
:104500000E4600240AE0295D5D4802780078401CD0
:104510005B4B18705B488154601CC4B2B442F2DB40
:1045200056480C30008800F0800028B9012240F283
:104530002771524808F079F970BD53490A78097813
:10454000491C514B197051498854194609786429FE
:1045500002DB00211A461170704710B510E04C497B
:104560000A780978491C4A4B19704849885CFDF75C
:10457000E3F847480078642802DB002044490870CB
:1045800041480078424909788842E8D110BD10B509
:104590003A48008800F0080018B13848001D00882B
:1045A000C4B240F22551354808F065FA58B140F2DE
:1045B0002551324808F0EAFA3048001D0088C4B29C
:1045C0002046FFF7BAFF40F227712C4808F053FA53
:1045D000C0B1304801780078401C2E4A107029483C
:1045E000405C2649091D0880104600782449097856
:1045F000884207D121480C30008820F080001F49F4
:104600000C31088010BD10B58AB0044606A807F02A
:1046100054FD0121880404F0CFF80121022004F0A8
:1046200008F827208DF80C0002208DF80D000020DE
:104630008DF80E0001208DF80F0003A800F04BFC50
:1046400007220A21144803F0B9FB07220B21124864
:1046500003F0B4FB22E00000000002400010014023
:1046600031010020B40E002032010020B40F0020E0
:104670003301002030010020000C024000440040C3
:1046800035010020181000203601002018110020EC
:104690003701002034010020000402404FF4806004
:1046A000019002208DF808008DF8090000208DF897
:1046B0000A0001208DF80B0001A9FE4803F06AF8FA
:1046C0004FF40060019002208DF808008DF8090079
:1046D00001208DF80A0000208DF80B0001A9F54893
:1046E00003F058F806940020ADF81C00ADF81E0049
:1046F000ADF82000ADF824000C20ADF82200002019
:10470000ADF81000ADF812004FF40070ADF81400D1
:104710000020ADF8160006A9E74807F0EAFB04A957
:10472000E54807F0D6FC012240F22551E24808F0A6
:104730007CF80121E04807F025FD0AB010BD70B5F6
:1047400005460E4600240AE0295DDC480278007820
:10475000401CDA4B1870DA488154601CC4B2B44271
:10476000F2DBD5480C30008800F0800028B9012227
:1047700040F22771D04808F058F870BDD1490A7846
:104780000978491CCF4B1970CF49885419460978CC
:10479000642902DB00211A461170704710B510E041
:1047A000CA490A780978491CC84B1970C649885CFF
:1047B000FEF7D0FFC5480078642802DB0020C3491B
:1047C0000870C0480078C14909788842E8D110BD16
:1047D00010B5B948008800F0080018B1B648001DAF
:1047E0000088C4B240F22551B34808F044F958B1EA
:1047F00040F22551B04808F0C9F9AF48001D0088C3
:10480000C4B22046FFF7BAFF40F22771AA4808F069
:1048100032F9C0B1AE4801780078401CAC4A107043
:10482000A748405CA449091D088010460078A349A8
:104830000978884207D1A0480C30008820F0800019
:104840009D490C31088010BD10B588B0044604A8FD
:1048500007F033FC0121C80403F0AEFF0121084634
:1048600003F0E7FE34208DF80C0003208DF80D00D6
:1048700001208DF80E008DF80F0003A800F02BFB2F
:1048800008220021934803F099FA08220121914857
:1048900003F094FA0120019002208DF808008DF8B1
:1048A000090000208DF80A0001208DF80B0001A9F5
:1048B000884802F06FFF022001908DF808008DF803
:1048C000090001208DF80A0000208DF80B0001A9D5
:1048D000804802F05FFF04940020ADF81400ADF8AA
:1048E0001600ADF81800ADF81C000C20ADF81A0049
:1048F00004A9794807F0FDFA012240F225517648D3
:1049000007F093FF0121744807F03CFC08B010BD8C
:1049100070B505460E4600240AE0295D6F4802780E
:104920000078401C6D4B18706D488154601CC4B2F7
:10493000B442F2DB68480C30008800F0800028B9EF
:10494000012240F22771644807F06FFF70BD65498E
:104950000A780978491C634B1970634988541946D1
:104960000978642902DB00211A461170704710B5DE
:1049700010E05E490A780978491C5C4B19705A4965
:10498000885CFEF714F959480078642802DB00209F
:104990005649087053480078544909788842E8D14C
:1049A00010BD10B54C48008800F0080018B14A4806
:1049B000001D0088C4B240F22551474808F05BF85A
:1049C00058B140F22551444808F0E0F84248001D33
:1049D0000088C4B22046FFF7BAFF40F227713E4874
:1049E00008F049F8C0B1424801780078401C404ABC
:1049F00010703B48405C3849091D0880104600781B
:104A000036490978884207D133480C30008820F0B5
:104A1000800031490C31088010BD10B588B00446C3
:104A200004A807F04AFB0121080503F0C5FE012197
:104A3000042003F0FEFD0121082003F0FAFD3520DB
:104A40008DF80C0001208DF80D0000208DF80E006F
:104A500001208DF80F0003A800F03DFA08220C2178
:104A6000244803F0ABF908220221234803F0A6F9F9
:104A70004FF48050019002208DF808008DF8090055
:104A800000208DF80A0001208DF80B0001A91948BB
:104A900002F080FE0420019002208DF808008DF8BD
:104AA000090001208DF80A0000208DF80B0001A9F3
:104AB000114823E000040240004800403901002072
:104AC0007C1100203A0100207C1200203B010020D4
:104AD0003801002000000240004C00403D01002051
:104AE000E01200203E010020E01300203F010020E2
:104AF0003C01002000080240000C024002F04AFE87
:104B000004940020ADF81400ADF81600ADF81800BC
:104B1000ADF81C000C20ADF81A0004A94C4807F0B1
:104B2000E8F9012240F22551494807F07EFE0121B3
:104B3000474807F027FB08B010BD70B505460E4684
:104B400000240AE0295D434802780078401C414B6C
:104B5000187041488154601CC4B2B442F2DB3C4836
:104B6000808900F0800028B9012240F2277138487E
:104B700007F05BFE70BD39490A780978491C374B4C
:104B800019703749885419460978642902DB0021D5
:104B90001A461170704710B510E032490A7809784A
:104BA000491C304B19702E49885CFBF7A6FC2D4838
:104BB0000078642802DB00202A4908702748007822
:104BC000284909788842E8D110BD10B520480088EE
:104BD00000F0080010B11E488088C4B240F2255190
:104BE0001B4807F048FF50B140F22551184807F024
:104BF000CDFF17488088C4B22046FFF7BCFF40F2C3
:104C00002771134807F037FFA8B1174801780078DB
:104C1000401C154A10701048405C0D4988801046B1
:104C200000780C490978884205D10948808920F02C
:104C300080000749888110BD10B5FFF799FBFFF789
:104C40008CFCFFF7ABFDFFF792FEFFF7A4FF10BD52
:104C50000050004041010020441400204201002087
:104C600044150020430100204001002006488047F1
:104C700006480047FEE7FEE7FEE7FEE7FEE7FEE741
:104C8000FEE7FEE7FEE7FEE76D4D0008890100083C
:104C90000CB50020019000907648006840F4803008
:104CA0007449086000BF7348006800F40030009049
:104CB0000198401C0190009818B90198B0F5A06FB8
:104CC000F1D16C48006800F4003010B10120009070
:104CD00001E0002000900098012846D1654840304E
:104CE000006840F0805063494031086062480068C5
:104CF00040F48040604908605E48083000685D49C3
:104D0000083108600846006840F400400860084622
:104D1000006840F4A05008605848091F0860081F48
:104D2000006840F08070091F086000BF51480068AB
:104D300000F000700028F9D040F20560504908608A
:104D40004C480830006820F003004A4908310860E8
:104D50000846006840F00200086000BF454808307F
:104D6000006800F00C000828F8D10CBD10B54548CB
:104D7000006840F47000434908603E48006840F015
:104D800001003C49086000203A4908310860394870
:104D900000683D490840374908603C48091D0860E3
:104DA000081F006820F48020091F08600020314996
:104DB0000C310860FFF76CFF4FF00060314980391B
:104DC000086010BD70B500200022022300240221DB
:104DD000284D08352D6805F00C0020B1042806D0B8
:104DE000082834D107E02A4D2A4E356033E02A4D99
:104DF000284E35602FE01F4D2D1D2D68C5F38054C2
:104E00001C4D2D1D2D6805F03F0154B1224DB5FB01
:104E1000F1F5184E361D3668C6F3881605FB06F206
:104E200009E01B4DB5FBF1F5124E361D3668C6F391
:104E3000881605FB06F20F4D2D1D2D68C5F30145A3
:104E40006D1C6B00B2FBF3F5124E356003E0104DA4
:104E5000104E356000BF00BF064D08352D68C5F304
:104E600003150E4E705D0B4D2D68C540094E356023
:104E700070BD000000380240007000400854400738
:104E8000003C024088ED00E0FFFFF6FE10300024F9
:104E90000024F4004401002000127A0048010020A0
:104EA00010B50446B4F5E06F0BD0B4F5C06F08D070
:104EB000B4F5A06F05D0B4F5806F02D0B4F5407F93
:104EC00000D103E073215F48FBF768F95E48204397
:104ED0005E49086010BD2DE9F04104460025002719
:104EE0000F26E07810B1E078012800D103E0872197
:104EF0005448FBF753F96078102800DA03E0882162
:104F00005048FBF74BF9A078102800DA03E089211C
:104F10004C48FBF743F9E07818B34C48006800F4BC
:104F2000E060C0F5E060C0F30725C5F10400C7B23A
:104F30002E416078B840C5B2A078304005432807BC
:104F4000050E434821784554207800F01F010120C8
:104F5000884021784911890001F1E021C1F8000160
:104F600009E0207800F01F010120884039492278AB
:104F7000521141F82200BDE8F08170B504460D469B
:104F8000B4F1005F02D0B4F1006F00D103E0B121B1
:104F90002C48FBF703F93048854200D203E0B221E8
:104FA0002848FBF7FBF82D4905EA01002043274973
:104FB000091F086070BD70B504460D46102C03D063
:104FC000042C01D0022C00D103E0C4211D48FBF7C2
:104FD000E5F80DB1012D00D103E0C5211948FBF71B
:104FE000DDF83DB11948001D006820431749091D2F
:104FF000086006E01548001D0068A0431349091D1C
:10500000086070BD10B50446042C01D0601D00B9C5
:1050100003E0DC210B48FBF7C1F8042C08D14FF06A
:10502000E020006940F004004FF0E021086107E053
:105030004FF0E020006920F004004FF0E02108610B
:1050400010BD000060D500080000FA050CED00E07E
:1050500000E400E080E100E0FFFF0F0080FFFF1FA1
:1050600010B50121080203F08DFC00214FF480707F
:1050700003F088FC10BD2DE9F04105460C460026E2
:105080000027F748854205D0F648854202D0F64809
:10509000854200D103E0E921F448FBF77FF820685E
:1050A00058B12068B0F1807F07D02068B0F1007F50
:1050B00003D02068B0F1407F00D103E0EA21EB4843
:1050C000FBF76CF8207910B12079012800D103E0BA
:1050D000EB21E648FBF762F8607910B160790128AE
:1050E00000D103E0EC21E148FBF758F8A06858B183
:1050F000A068B0F1805F07D0A068B0F1005F03D076
:10510000A068B0F1405F00D103E0ED21D748FBF784
:1051100045F8E068D8B3E068B0F1807F37D0E06848
:10512000B0F1007F33D0E068B0F1407F2FD0E0686D
:10513000B0F1806F2BD0E068B0F1A06F27D0E068AD
:10514000B0F1C06F23D0E068B0F1E06F1FD0E0682D
:10515000B0F1006F1BD0E068B0F1106F17D0E068BD
:10516000B0F1206F13D0E068B0F1306F0FD0E0687D
:10517000B0F1406F0BD0E068B0F1506F07D0E0683D
:10518000B0F1606F03D0E068B0F1706F00D103E060
:10519000EE21B648FBF702F8206918B12069B0F596
:1051A000006F00D103E0EF21B048FAF7F7FF207D50
:1051B000012803DB207D102800DC03E0F021AB4850
:1051C000FAF7ECFF6E68AA4806402179206840EAA9
:1051D000012006436E60AE68A6480640D4E903107D
:1051E0000843A1680843617940EA41000643AE6084
:1051F000EE6A26F47006207D401EC0B2074346EAE0
:105200000756EE62BDE8F081002101600171417135
:105210008160C160016101210175704770B504466C
:105220000025206818B32068012820D020680228B3
:105230001DD0206805281AD02068062817D02068BD
:10524000072814D02068092811D0206811280ED012
:10525000206812280BD02068152808D0206816284E
:1052600005D02068172802D02068192800D104E052
:105270004FF4A9717D48FAF791FF606858B16068F2
:10528000B0F5803F07D06068B0F5003F03D060689C
:10529000B0F5403F00D104E040F253117348FAF7F3
:1052A0007DFFA06858B1A068B0F5804F07D0A06816
:1052B000B0F5004F03D0A068B0F5404F00D104E036
:1052C0004FF4AA716948FAF769FFE068D8B3E0685B
:1052D000B0F5807F37D0E068B0F5007F33D0E0686C
:1052E000B0F5407F2FD0E068B0F5806F2BD0E0683C
:1052F000B0F5A06F27D0E068B0F5C06F23D0E068AC
:10530000B0F5E06F1FD0E068B0F5006F1BD0E0682B
:10531000B0F5106F17D0E068B0F5206F13D0E068DB
:10532000B0F5306F0FD0E068B0F5406F0BD0E0689B
:10533000B0F5506F07D0E068B0F5606F03D0E0685B
:10534000B0F5706F00D104E040F255114748FAF70C
:1053500025FF4948056849480540D4E9000108434C
:10536000A1680843E168084305433D48C0F8045379
:1053700070BD0021016041608160C160704770B5FF
:1053800004460D463648844205D03648844202D051
:105390003548844200D104E040F28B113348FAF7DB
:1053A000FDFE0DB1012D00D104E04FF4C6712F4870
:1053B000FAF7F4FE25B1A06840F00100A06003E018
:1053C000A06820F00100A06070BD70B505460C46D5
:1053D00000262348854205D02248854202D0224833
:1053E000854200D104E04FF4E3712048FAF7D6FE7D
:1053F000234884420FD0234884420CD02248844260
:1054000009D0B4F5000F06D0B4F5800F03D0B4F581
:10541000400F00D004B904E040F2C7111348FAF776
:10542000BDFE6E681848C043064026436E6070BDDE
:1054300070B504460E4615460948844205D0094811
:10544000844202D00848844200D104E040F2E311D3
:105450000648FAF7A3FEB6F5805F17DA1BE00000F6
:10546000002001400021014000220140A8D5000891
:10547000FFFEFFFCFDF7FFC004230140E030FCFF0E
:1054800000028000000240000002C0004FF4F271F0
:10549000FD48FAF783FEB5F5805F00DA04E040F2DC
:1054A000E511F948FAF77AFE6662A56270BD70B53B
:1054B00005460C460026F548854205D0F44885424D
:1054C00002D0F448854200D104E04FF40371EE4865
:1054D000FAF764FE1CB3012C21D0022C1FD0032C40
:1054E0001DD0042C1BD0052C19D0062C17D0072C4E
:1054F00015D0082C13D0092C11D00A2C0FD00B2C4E
:105500000DD00C2C0BD00D2C09D00E2C07D00F2C4D
:1055100005D0102C03D0112C01D0122C00D104E0A6
:1055200040F20D21D848FAF739FE6E6826F01F06C2
:1055300026436E6070BD10B504460CB1012C00D13D
:1055400004E04FF41371D048FAF728FE3CB1D2487A
:10555000006840F40000CD49C1F8040306E0CE48DD
:10556000006820F40000C949C1F8040310BD10B55B
:1055700004460CB1012C00D104E040F26221C24883
:10558000FAF70CFE3CB1C448006840F48000BF4903
:10559000C1F8040306E0C048006820F48000BB495D
:1055A000C1F8040310BD2DE9F04706460C46174626
:1055B00098460025A946B548864205D0B44886429B
:1055C00002D0B448864200D104E04FF43271AE48B4
:1055D000FAF7E4FD1CB3012C21D0022C1FD0032CC0
:1055E0001DD0042C1BD0052C19D0062C17D0072C4D
:1055F00015D0082C13D0092C11D00A2C0FD00B2C4D
:105600000DD00C2C0BD00D2C09D00E2C07D00F2C4C
:1056100005D0102C03D0112C01D0122C00D104E0A5
:1056200040F2C9219848FAF7B9FD012F02DB102F8B
:1056300000DC04E040F2CA219348FAF7AFFDB8F16C
:10564000000F14D0B8F1010F11D0B8F1020F0ED035
:10565000B8F1030F0BD0B8F1040F08D0B8F1050F63
:1056600005D0B8F1060F02D0B8F1070F00D104E061
:1056700040F2CB218448FAF791FD092C13DDF5683F
:10568000A4F10A0000EB4001072000FA01F925EA25
:105690000905A4F10A0000EB400008FA00F945EA08
:1056A0000905F5600EE0356904EB4401072000FAB6
:1056B00001F925EA090504EB440008FA00F945EA76
:1056C00009053561072F11DA756B781E00EB800133
:1056D0001F2000FA01F925EA0905781E00EB800079
:1056E00004FA00F945EA0905756326E00D2F11DA81
:1056F000356BF81F00EB80011F2000FA01F925EA45
:105700000905F81F00EB800004FA00F945EA0905D5
:10571000356312E0F56AA7F10D0000EB80011F2050
:1057200000FA01F925EA0905A7F10D0000EB800058
:1057300004FA00F945EA0905F562BDE8F08710B5FD
:1057400004465248844205D05148844202D0514810
:10575000844200D104E040F23F314B48FAF71EFD8D
:10576000A06840F08040A06010BD70B504460025E0
:105770004648844205D04648844202D04548844287
:1057800000D104E040F24E313F48FAF707FDA0682F
:1057900000F4800008B1012500E00025284670BD16
:1057A00070B504460D463948844205D038488442D5
:1057B00002D03848844200D104E040F26B313248D4
:1057C000FAF7ECFC0DB1012D00D104E04FF45B7150
:1057D0002D48FAF7E3FC25B1A06840F48060A06092
:1057E00003E0A06820F48060A06070BD70B504463E
:1057F0000D462648844205D02548844202D02548DB
:10580000844200D104E04FF461711F48FAF7C6FCEE
:105810000DB1012D00D104E040F285311A48FAF7AC
:10582000BDFC25B1A06840F00200A06003E0A068C4
:1058300020F00200A06070BD2DE9F04104460D4645
:10584000002600271148844205D01148844202D026
:105850001048844200D104E040F2A1310A48FAF72E
:105860009DFC012D02DB082D00DC04E040F2A2319A
:105870000548FAF793FC666826F460466F1E46EA10
:1058800047366660BDE8F081A8D5000800200140D9
:1058900000210140002201400423014070B504466C
:1058A0000D46F948844205D0F848844202D0F848B1
:1058B000844200D104E040F2BE31F648FAF76EFCB3
:1058C0000DB1012D00D104E040F2BF31F148FAF7EB
:1058D00065FC25B1606840F40060606003E06068CA
:1058E00020F40060606070BD10B50446E648844254
:1058F00005D0E648844202D0E548844200D104E065
:1059000040F2D531E348FAF749FCE06C80B210BDB3
:10591000E1480068704770B504460D46DA48844295
:1059200005D0DA48844202D0D948844200D104E04C
:1059300040F21B41D748FAF731FC0DB1012D00D1DF
:1059400004E040F21C41D348FAF728FC25B1A068D6
:1059500040F48070A06003E0A06820F48070A06034
:1059600070BD70B504460D46C748844205D0C7488F
:10597000844202D0C648844200D104E040F2334160
:10598000C448FAF70BFC0DB1012D00D104E040F240
:105990003441C048FAF702FC25B1A06840F4007019
:1059A000A06003E0A06820F40070A06070BD10B596
:1059B00004460CB1012C00D104E040F24E41B54840
:1059C000FAF7ECFB44B1B448001F006840F4005003
:1059D000AD49C1F8040307E0AF48001F006820F498
:1059E0000050A949C1F8040310BD2DE9F04706464F
:1059F0000C4691461D460027B846BA46A248864244
:105A000005D0A248864202D0A148864200D104E0D7
:105A100040F2A6419F48FAF7C1FB1CB3012C21D0EC
:105A2000022C1FD0032C1DD0042C1BD0052C19D008
:105A3000062C17D0072C15D0082C13D0092C11D008
:105A40000A2C0FD00B2C0DD00C2C0BD00D2C09D008
:105A50000E2C07D00F2C05D0102C03D0112C01D008
:105A6000122C00D104E040F2A7418A48FAF796FBD5
:105A7000B9F1010F03DBB9F1040F00DC04E04FF4CE
:105A800095618448FAF78AFB6DB1012D0BD0022D88
:105A900009D0032D07D0042D05D0052D03D0062DE8
:105AA00001D0072D00D104E040F2A9417948FAF76E
:105AB00075FB092C13DDF768A4F10A0000EB400127
:105AC000072000FA01F827EA0807A4F10A0000EB12
:105AD000400005FA00F847EA0807F7600EE037696A
