:020000040800F2
:100000000803002091010008990100089B010008E5
:100010009D0100089F010008A101000800000000E8
:10002000000000000000000000000000A301000824
:10003000A501000800000000A7010008A9010008B0
:10004000AB010008AB010008AB010008AB010008E0
:10005000AB010008AB010008AB010008AB010008D0
:10006000AB010008AB010008AB010008AB010008C0
:10007000AB010008AB010008AB010008AB010008B0
:10008000AB010008AB010008AB010008AB010008A0
:1000900011130008AB010008AB010008490B000870
:1000A000AB010008AB010008AB010008AB01000880
:1000B000AB010008AB010008AB010008AB01000870
:1000C000AB010008AB010008AB010008AB01000860
:1000D000AB010008B9100008AB010008AB01000833
:1000E000150B0008AB010008AB01000800F002F896
:1000F00000F03FF80AA090E8000C82448344AAF183
:100100000107DA4501D100F034F8AFF2090EBAE880
:100110000F0013F0010F18BFFB1A43F0010318473B
:100120007014000090140000103A24BF78C878C101
:10013000FAD8520724BF30C830C144BF04680C60ED
:10014000704700000023002400250026103A28BF35
:1001500078C1FBD8520728BF30C148BF0B60704739
:10016000642900F07580002070471FB51FBD10B5D1
:1001700010BD00F035F91146FFF7F7FF01F098F9CF
:1001800000F053F903B4FFF7F2FF03BC01F038F9B4
:100190000948804709480047FEE7FEE7FEE7FEE71B
:1001A000FEE7FEE7FEE7FEE7FEE7FEE70448054957
:1001B000034A054B7047000059100008ED00000885
:1001C00008010020080300200801002070470000FB
:1001D0000FB4044910B503AA029800F0D3F810BC7C
:1001E0005DF814FB300000202DE9F0410E46044676
:1001F000002020622046E168884730B3252805D0DA
:10020000D4E901219047206A401CF2E7E1682046CA
:1002100000278847050018D0A5F14100192802D809
:1002200020354FF400673246294620462760FFF705
:1002300097FF40B1012804D0F61D26F007060836C6
:10024000D8E7361DD6E72846DAE7206ABDE8F08110
:100250002DE9F0410646002410687529314616A59F
:1002600010D0AFF30080002802DA404213A507E067
:1002700031688A0701D512A502E0490704D511A506
:10028000012401E0AFF3008000210A2206F12407D7
:1002900009E0B0FBF2FCB0FBF2F302FB1C003030D3
:1002A00078541846491C0028F3D123462A46304684
:1002B000BDE8F04100F00CB8000000002D00000087
:1002C0002B00000020000000704770477047704707
:1002D0002DE9F0470D4699469246044600F1240860
:1002E0000168880604D5E06921F01001216000E072
:1002F0000120A84201DD471B00E00027A1697A190F
:1003000002EB0900081AA0612078C00602D420463A
:10031000AFF30080002608E0D4E901211AF80600B6
:100320009047206A401C761C20624E45F4DB207802
:10033000C0060AD52046AFF3008006E0D4E90121CB
:1003400030209047206A401C2062381EA7F1010728
:10035000F4DC07E0D4E9012118F805009047206A91
:10036000401C2062281EA5F10105F3DC2046AFF3F6
:1003700000802078000602D50220BDE8F087012029
:10038000FBE70000074B70B50D467B4400F011F809
:100390000446284600F020F810B14FF0FF3070BD41
:1003A000204670BD0711000001694A1C02610878EF
:1003B000704700B58FB0CDE90131002105910549A5
:1003C0007944CDE9031011466846FFF70DFF0FB0E1
:1003D00000BD0000E5FFFFFF007B00F080007047DC
:1003E000754600F02BF8AE4605006946534620F0EE
:1003F0000700854618B020B5FFF7D8FEBDE82040BD
:100400004FF000064FF000074FF000084FF0000BD0
:1004100021F00701AC46ACE8C009ACE8C009ACE883
:10042000C009ACE8C0098D46704710B50446AFF36B
:1004300000802046BDE81040FFF7A4BE004870478A
:10044000A40000201FB50121082000F003FD0121B8
:10045000084600F0FFFC48208DF80F004FF40050D4
:10046000ADF80C0003208DF80E0003A9124800F02F
:10047000FDFB0D21012000F0D9FB4FF4005001904D
:1004800001208DF80A0000208DF808000C208DF85E
:10049000090001A800F080FB28208DF80000012051
:1004A0008DF8030002208DF801008DF802006846E7
:1004B00000F07EFC1FBD0000000C014010B50021C3
:1004C000837A012202FA03F13D4A126842F00102E6
:1004D0003B4B1A603A4A1C3212688A43384B1C3331
:1004E0001A60027BCAB9364A0C3212688A43344B0E
:1004F0000C331A604288C38842EA0343304A4032D0
:10050000847A42F834300288838842EA03432C4AD2
:100510004032847A02EBC4025360027B012A19D173
:10052000274A0C3212680A43254B0C331A60428862
:10053000038842EA0343224A4032847A42F8343044
:10054000C288838842EA03431D4A4032847A02EB20
:10055000C4025360C27A3AB9194A121D12688A431A
:10056000174B1B1D1A6006E0154A121D12680A433C
:10057000134B1B1D1A60028932B9114A14321268DA
:100580008A430F4B14331A600289012A06D10C4AA0
:10059000143212680A430A4B14331A60427B012A50
:1005A00006D1074A1C3212680A43054B1C331A60F5
:1005B000034A126822F00102014B1A6010BD0000CC
:1005C000006600401AB143690B43436102E043698E
:1005D0008B434361704730B5024600200023146806
:1005E00024F002041460146844F00104146000E074
:1005F0005B1C546804F001041CB94FF6FF74A3425D
:10060000F6D1546804F001040CB900206CE08C7938
:10061000012C04D1146844F08004146003E01468D1
:1006200024F080041460CC79012C04D1146844F0C7
:100630004004146003E0146824F0400414600C7A51
:10064000012C04D1146844F02004146003E0146801
:1006500024F0200414604C7A012C04D1146844F076
:100660001004146003E0146824F0100414608C7A01
:10067000012C04D1146844F00804146003E01468E9
:1006800024F008041460CC7A012C04D1146844F0DE
:100690000404146003E0146824F0040414608C78EB
:1006A000A407CD7844EA05640D7944EA05444D7900
:1006B00044EA05540D886D1E2C43D461146824F05F
:1006C00001041460002300E05B1C546804F0010482
:1006D0001CB14FF6FF74A342F6D1546804F0010434
:1006E0000CB1002000E0012030BD00002DE9F041F8
:1006F0008AB005460E4617469846109C01210420F4
:1007000000F0A8FB0121480600F094FB4FF4805054
:10071000ADF8240003208DF8260018208DF827005E
:1007200009A9304800F0A2FA4FF40060ADF82400A7
:1007300048208DF8270009A92A4800F097FA0020E0
:100740008DF81E008DF81F008DF8200001208DF817
:10075000210000208DF822008DF823008DF81A006A
:100760008DF81B0002208DF81C0001208DF81D0063
:100770003C20ADF8180006A91B48FFF72CFF01200C
:100780008DF8120000208DF8130001208DF8140060
:100790000020ADF80800ADF80A00ADF80C00ADF887
:1007A0000E00ADF8100001208DF8150002A8FFF72B
:1007B00085FE012202210C48FFF704FF14208DF86A
:1007C000040001208DF8050000208DF806000120AE
:1007D0008DF8070001A800F0EBFA00200AB0BDE890
:1007E000F0810000000801400064004010B500F5F1
:1007F000D87303EB01131B6803F004031372137A1D
:1008000053B900F5D87303EB01131B6840F2FF7472
:1008100004EA5353136009E000F5D87303EB0113A6
:100820001B686FF0604404EAD303536000F5D8738B
:1008300003EB01131B6803F00203537200F5D87336
:1008400003EB01135B6803F00F03937200F5D87399
:1008500003EB01135B681B0AD37400F5D87303EB39
:1008600001139B68D37200F5D87303EB01139B68E7
:100870001C0A147300F5D87303EB01139B681C0C5E
:10088000547300F5D87303EB01139B681B0E93732D
:1008900000F5D87303EB0113DB68D37300F5D8734D
:1008A00003EB0113DB681C0A147400F5D87303EB27
:1008B0000113DB681C0C547400F5D87303EB0113AF
:1008C000DB681B0E937421B9C36843F02003C36037
:1008D00003E0036943F02003036110BD10B5024635
:1008E0000020936803F08063B3F1806F00D110E0C3
:1008F000936803F00063B3F1006F01D1012008E0B9
:10090000936803F08053B3F1805F01D1022000E0CF
:100910000420042874D002F5C07303EB00131B6895
:1009200003F0010402F5C07303EB00131C600B7AA3
:100930007BB94B7A0C8843EA445302F5C07404EB4C
:1009400000142468234302F5C07404EB00142360F0
:1009500010E00B7A4C6843EAC4034C7A234302F557
:10096000C07404EB00142468234302F5C07404EB44
:10097000001423608B7A03F00F038B7202F5C073AF
:1009800003EB00135B6823F00F0402F5C07303EB65
:1009900000135C6002F5C07303EB00135B688C7A94
:1009A000234302F5C07404EB001463608B7B1C06C8
:1009B0004B7B44EA03440B7B44EA0323CC7A234376
:1009C00002F5C07404EB0014A3608B7C1C064B7C06
:1009D00044EA03440B7C44EA0323CC7B234302F523
:1009E000C07404EB0014E36002F5C07303EB001362
:1009F0001B6843F0010402F5C07303EB00131C6095
:100A000010BD000010B50246002321B1012907D016
:100A100002290FD109E090681D4C00EA04030BE0A5
:100A200090681C4C00EA040306E090681A4C00EA47
:100A3000040301E0002300BF00BF184C181BA342B1
:100A400016D007DC83B16FF08060184470B10228C3
:100A500018D111E0B0F5007F10D0114C204448B1FE
:100A6000B0F5003F0ED10BE002230DE000230BE0B8
:100A7000002309E0002307E0012305E0012303E050
:100A8000012301E0002300BF00BFD8B210BD000069
:100A90000300000400030008000003100001000828
:100AA0000001FFF7F0B585B007460D460024002091
:100AB0000090019004208DF8080000208DF80900B6
:100AC0008DF80A5000BF05E0395D0DF10B000155AE
:100AD000601C84B2AC42F7DB69460D48FFF7FEFEAE
:100AE0000646002401E0601C84B231460848FFF746
:100AF00089FF18B940F6FF708442F4DB40F6FF70BE
:100B0000844202DB012005B0F0BD0020FBE70000BD
:100B10000064004010B54FF4005000F031F8012897
:100B20000AD1282000F08AFC4FF4005000F028F889
:100B3000012801D1034908704FF4005000F01AF861
:100B400010BD00002800002010B5202000F018F88B
:100B5000012809D1142000F071FC202000F010F8C9
:100B6000012801D102490870202000F003F810BDCF
:100B7000280000200149086070470000140401406B
:100B800001460020034A12680A400AB1012000E031
:100B90000020704714040140002123498279002A73
:100BA0003AD00A46126803689A430B461A600A1D37
:100BB000126803689A430B1D1A60027911440A688F
:100BC00003681A430A60184A0832126803689A4395
:100BD000154B08331A601A1D126803689A43124BAA
:100BE0000C331A604279102A0ED11A1F126803685A
:100BF0001A430D4B08331A601A1D126803681A4312
:100C0000094B0C331A600DE00749427911440A6818
:100C100003681A430A6005E0027911440A68036810
:100C20009A430A60704700000004014030B500227A
:100C30008B071C0F0F2303FA04F20B4B8C1053F895
:100C400024309343084C8D1044F8253023468C10F3
:100C500053F824308C07240F00FA04F42343024C89
:100C60008D1044F8253030BD080001402DE9F041D9
:100C7000024600250026002000230024002791F8CA
:100C800003C00CF00F0591F803C00CF0100CBCF180
:100C9000000F03D091F802C04CEA050591F800C09E
:100CA000BCF1000F31D0146800202BE04FF0010C94
:100CB0000CFA00F3B1F800C00CEA03069E4220D102
:100CC00083004FF00F0C0CFA03F7BC4305FA03FC4A
:100CD0004CEA040491F803C0BCF1280F06D14FF090
:100CE000010C0CFA00FCC2F814C00AE091F803C031
:100CF000BCF1480F05D14FF0010C0CFA00FCC2F812
:100D000010C0401C0828D1D31460B1F800C0BCF159
:100D1000FF0F34DD546800202EE000F1080C4FF086
:100D2000010808FA0CF3B1F800C00CEA03069E4271
:100D300021D183004FF00F0C0CFA03F7BC4305FAE6
:100D400003FC4CEA040491F803C0BCF1280F05D160
:100D500000F1080C08FA0CF8C2F8148091F803C0EE
:100D6000BCF1480F07D100F1080C4FF0010808FA58
:100D70000CF8C2F81080401C0828CED35460BDE89F
:100D8000F081000008B50121042000F063F8102074
:100D90008DF803003020ADF8000003208DF802002C
:100DA00069460248FFF762FF08BD000000080140E5
:100DB00070B5002100230F22C47804B3154C2468B9
:100DC00004F4E064C4F5E064210AC1F10403CA40FC
:100DD000447804FA03F184781440214309010E4C4D
:100DE0000678A155047804F01F050124AC4005786D
:100DF0006D11AD0005F1E025C5F8004109E004786A
:100E000004F01F050124AC40044D0678761145F826
:100E1000264070BD0CED00E000E400E080E100E061
:100E200002490143024A1160704700000000FA05C0
:100E30000CED00E029B1064AD2690243044BDA61A5
:100E400004E0034AD2698243014BDA617047000033
:100E50000010024029B1064A92690243044B9A618C
:100E600004E0034A92698243014B9A617047000093
:100E70000010024030B500210022002400232D4D37
:100E80006D6805F00C0121B1042905D0082923D192
:100E900005E0294D056022E0274D05601FE0254D46
:100EA0006D6805F47012234D6D6805F480340225D9
:100EB00005EB92421CB9214D554305600BE01D4DD9
:100EC0006D6805F400351DB11C4D5543056002E009
:100ED000194D5543056002E0174D056000BF00BF86
:100EE000144D6D6805F0F0010909154D6B5C05683E
:100EF000DD4045600F4D6D6805F4E061090A104D55
:100F00006B5C4568DD4085600A4D6D6805F4605195
:100F1000C90A0B4D6B5C4568DD40C560054D6D68C9
:100F200005F44041890B074D6B5CC568B5FBF3F5D3
:100F3000056130BD0010024000127A0000093D003A
:100F4000000000201000002010B500F001F810BDD6
:100F50000CB50020019000903348006840F48030C8
:100F60003149086000BF3048006800F4003000904C
:100F70000198401C0190009818B90198B0F5A06F35
:100F8000F1D12948006800F4003010B10120009030
:100F900001E0002000900098012843D12348006818
:100FA00040F01000214908600846006820F0030066
:100FB00008600846006840F0020008601A4840686F
:100FC000194948600846406848600846406840F44F
:100FD000806048600846406820F47C1048600846FD
:100FE000406840F4E81048600846006840F08070AF
:100FF000086000BF0C48006800F000700028F9D0BD
:101000000948406820F003000749486008464068E6
:1010100040F00200486000BF0348406800F00C0048
:101020000828F9D10CBD0000001002400020024049
:10103000042808D14FF0E021096941F004014FF084
:10104000E022116107E04FF0E021096921F004017D
:101050004FF0E0221161704710B51348006840F06E
:1010600001001149086008464068104908400E49CF
:101070004860084600680E4908400B490860084669
:10108000006820F4802008600846406820F4FE00D4
:1010900048604FF41F008860FFF756FF4FF0006074
:1010A0000449086010BD0000001002400000FFF875
:1010B000FFFFF6FE08ED00E010B540F22551214893
:1010C00000F061F8C0B31F4800F018F9C4B21E4820
:1010D000008800F4004078BB1B48008800F4804082
:1010E00060B10A2C03D000201749086020E01648A0
:1010F000006840F400401449086019E00D2C06D146
:101100001148006840F480400F49086010E00E4824
:101110000088C0F30D000D490C540B480068401CBA
:101120000949086008460068642801D10020086069
:101130002146044800F0E7F840F22551014800F04C
:1011400007F810BD003801402C00002040000020AE
:1011500010B50022002340F66A14A14200D100BF5E
:101160000A1201249440A3B2DC43048010BD21B1D3
:10117000828942F40052828104E082894DF6FF7335
:101180001A408281704770B5024600240023002572
:10119000002040F66A16B14200D100BFC1F34215EB
:1011A00001F01F03012606FA03F3012D02D19689EF
:1011B000334006E0022D02D1168A334001E0968AC0
:1011C00033400C12012606FA04F41688344013B199
:1011D0000CB1012000E0002070BDF0B503460024F2
:1011E00000260025002040F66A17B94200D100BF52
:1011F0001846C1F3421401F01F06012707FA06F54D
:10120000012C01D10C3004E0022C01D1103000E09F
:1012100014301AB107682F43076002E00768AF4334
:101220000760F0BD2DE9F04786B005460E46002464
:10123000A24600BFA1460027B08900B100BF2F46DB
:101240002C8A4CF6FF700440F08804432C82AC8951
:101250004EF6F3100440B088318908437189084381
:101260000443AC81AC8A4FF6FF400440B08904438C
:10127000AC8201A8FFF7FEFD1F48874202D1DDF8CE
:1012800010A001E0DDF80CA0A88900F4004040B1F6
:101290000AEBCA0000EB0A1031684900B0FBF1F814
:1012A00007E00AEBCA0000EB0A1031688900B0FBC6
:1012B000F1F86420B8FBF0F004012009642101FB7F
:1012C0001089A88900F4004040B1322000EBC90029
:1012D000B0FBF1F000F00700044308E0322000EB1F
:1012E00009106421B0FBF1F000F00F0004432C81E1
:1012F00006B0BDE8F087000000380140014688884C
:10130000C0F308007047C1F30802828070470000F4
:1013100010B586B000240020019002908DF80C00DA
:101320008DF80D008DF8170001AA00210548FFF780
:101330005DFA9DF80F000449087001200349087008
:1013400006B010BD006400403500002034000020CD
:1013500010B586B0044601210420FFF77BFD012172
:101360008803FFF777FD18208DF817004FF4007001
:10137000ADF8140003208DF8160005A91E48FFF7EC
:1013800075FC04208DF817000002ADF8140003204E
:101390008DF8160005A91848FFF768FC25208DF880
:1013A000100001208DF8130000208DF8110002209C
:1013B0008DF8120004A8FFF7FBFC00940020ADF8A4
:1013C0000C000C20ADF80A000020ADF80800ADF8C4
:1013D0000600ADF8040069460848FFF723FF012224
:1013E00040F225510548FFF7F8FE01210348FFF7B9
:1013F000BEFE06B010BD00000008014000380140EC
:1014000000BF704710B56FF00400FFF711FE0748EA
:1014100000680749B0FBF1F006490860084600681B
:101420004FF47A7148430449086010BD140000204D
:1014300000127A00380000203C00002010B1B0F506
:10144000E96F00D97047124A126842434FF0E02317
:101450005A6100229A611A46126942F001021A6129
:1014600000BF4FF0E022116901F001021AB101F44E
:101470008032002AF5D04FF0E022126922F00102FA
:101480004FF0E0231A6100229A6100BFDAE7000002
:101490003C00002000BF054A128802F04002002AEA
:1014A000F9D0C2B2014B1B1D1A80704700380140B1
:1014B0001CB500BF4120019000BF4FF4A060FFF7B2
:1014C000AFFC4FF4E130FFF743FFFFF79BFF002035
:1014D0000423082207210090FFF708F9FFF752FCC8
:1014E000FEF7B0FF21A0FEF773FE0120224908603D
:1014F0002249C1F8940137E02148007801280FD132
:10150000012101A8FFF7CEFA38B91B48006808B9D5
:10151000012000E0002018490860002018490870E8
:101520001848007801281FD1002016490870164875
:10153000017816A0FEF74CFE13480078422813D11C
:101540000D48001D006808B9012000E000200A498C
:10155000091D086000200C49087001200849087026
:101560004FF47A70FFF76AFFC6E7000043414E2050
:10157000746573740A0D0A00900121420000214233
:1015800028000020340000203500002025642000C1
:10159000B0150008000000204000000028010008ED
:1015A000F015000840000020C802000044010008B7
:1015B00000000000010203040102030406070809F9
:1015C0000204060800A24A04000000000000000017
:1015D00001020304060708090000000000000000E3
:1015E00000000000000000000000000000000000FB
:04000005080001915D
:00000001FF
