:020000040800F2
:10000000001E0020C17A0008F5560008CB7A0008CF
:10001000F7560008FB560008FF56000800000000D5
:10002000000000000000000000000000035700086E
:100030000557000800000000D77A0008095800089A
:10004000DB7A0008DB7A0008DB7A0008DB7A00083C
:10005000DB7A0008DB7A0008DB7A0008DB7A00082C
:10006000DB7A0008DB7A0008DB7A0008DB7A00081C
:10007000DB7A0008DB7A0008DB7A0008DB7A00080C
:10008000DB7A0008DB7A0008DB7A0008DB7A0008FC
:10009000DB7A0008DB7A0008DB7A000807570008E3
:1000A000DB7A0008DB7A0008DB7A0008DB7A0008DC
:1000B000DB7A00081957000821570008DB7A00088E
:1000C000DB7A0008DB7A0008DB7A0008DB7A0008BC
:1000D000DB7A00086B570008735700087B5700084D
:1000E000DB7A0008DB7A0008DB7A0008DB7A00089C
:1000F000DB7A0008DB7A0008DB7A0008DB7A00088C
:10010000DB7A0008DB7A0008DB7A0008DB7A00087B
:10011000835700088B570008DB7A00085157000806
:10012000DB7A0008DB7A0008DB7A0008DB7A00085B
:10013000DB7A0008DB7A0008DB7A0008DB7A00084B
:10014000DB7A0008DB7A0008DB7A0008DB7A00083B
:10015000DB7A0008DB7A0008DB7A00089357000896
:10016000DB7A0008DB7A0008DB7A0008DB7A00081B
:10017000DB7A0008DB7A0008DB7A0008DB7A00080B
:10018000DB7A0008DB7A0008DFF80CD010F0D2F937
:100190000048004747020008001E002010B54A1D15
:1001A000344B1A60FD22344B1A7000225A708A1C9C
:1001B00052B29A700122DA7000221A712F4B1A6023
:1001C0000DE02E4A1268825C53B22B4C2B4A126807
:1001D000521DA354294A1268521C284B1A60274A00
:1001E00012688A42EDDB0022244B1A6012E000BF45
:1001F000234A128802F04002002AF9D01E4A1F4BFF
:100200001B68D2561E4B1B1D1A801C4A1268521CBA
:100210001A4B1A60194A1268164B1B689A42E6DBA1
:1002200010BD0EB517A207CA8DE8070068460FF08B
:1002300037FC17490860084601686846FFF7AEFFBB
:100240000EBD00BFFEE703F067FEFFF7EAFF4FF4C5
:100250007A7005F011FB4FF47A7005F00DFB4FF446
:100260007A7005F009FB00F01FF801E000F042F899
:10027000FCE70000000000209C0400200400002097
:10028000004800405B76365DB5E7C8FC47CCE2002D
:1002900008000020704770477047704710B502F0A3
:1002A000C6F910BD70477047002000BF1FE000EB8B
:1002B0004001234A02EB810189884FF47A7292FB54
:1002C000F1F100EB40021E4B03EB8202D18000EB08
:1002D00040011A4602EB8101C988012905DA012192
:1002E00000EB400203EB8202D180411CC8B2072818
:1002F000DDD3704770B5002400BF1EE005F08EFA14
:10030000054604EB44000E4901EB80008068281A82
:1003100004EB44010A4A02EB8101C98888420AD3EE
:1003200004EB4400114601EB8000856004EB4401BE
:1003300052F821008047601CC4B2072CDED370BD88
:10034000B400002030B58BB004460D4601210420D6
:100350000BF05CF9012108200BF07BF902220C2143
:10036000FE480AF055FC4FF48050099002208DF8A9
:1003700028008DF8290009A9F8480AF035F944F653
:100380001F6006904820ADF814000020ADF81C0056
:10039000ADF8160005A9F2480BF056FC1E208DF8AA
:1003A000200000208DF8210001208DF822008DF81A
:1003B000230008A807F0B9FC01221146E8480DF017
:1003C000CFFD6020ADF800000120ADF80200002054
:1003D000ADF80C004FF4617002906946E0480BF0F4
:1003E000ECFF0021DE480CF0F6FC0121DC480BF0AC
:1003F0009CFF0BB030BD30B50024DA4D2C806C80F2
:10040000AC802C46E38020816181A2810125D64CFD
:1004100084F8875130BD10B540F2DC50D3490860F4
:1004200008460168CE480CF05DFB0020D04908600A
:10043000D0490860D0490870D049087010BD10B587
:10044000CD48007860B90120CB49087040F21450C3
:10045000C649086008460168C1480CF043FB0EE03D
:10046000C348006840F65431884208DB40F2DC5053
:10047000BE49086008460168B9480CF033FB10BD5E
:1004800010B5BE48007860B90120BC49087040F240
:10049000A460B649086008460168B1480CF022FB28
:1004A0000EE0B448006840F65431884208DB40F260
:1004B000DC50AE49086008460168A9480CF012FB00
:1004C00010BD10B54FF40041A4480AF094FA012081
:1004D000AB49087010BD10B52DED0C8BB0EE408A05
:1004E000F0EE608AB0EE419AA64890ED000AA64868
:1004F00080ED000A18EE100A0FF040FE41EC1D0BD3
:10050000A24890ED000B53EC102B51EC1D0B0FF09B
:10051000ACFD41EC1B0B9E4800680FF02FFE41EC38
:100520001C0B53EC1B2B0FF0A6FD41EC1A0B0FF02C
:1005300069FE98490860084690ED000ABDEEC00AC1
:1005400010EE100A00B2944908800846B0F9000085
:10055000142801DD142008808F48B0F9000010F144
:10056000140F03DA6FF013008B4908808A48B0F942
:100570000000052807DA8848B0F90000002802DDED
:100580000A20854908808448B0F90000002809DA6B
:100590008148B0F9000010F1050F03DD6FF009008C
:1005A0007D49088018EE900A0FF0E8FD41EC1D0B24
:1005B0007A4890ED000B53EC102B51EC1D0B0FF013
:1005C00057FD41EC1B0B724800680FF0D7FD41EC62
:1005D0001C0B53EC1B2B0FF04EFD41EC1A0B0FF0D4
:1005E00011FE6F490860084690ED000ABDEEC00A92
:1005F00010EE100A00B26B4908800846B0F90000FE
:10060000142801DD0A2008806648B0F9000010F1C6
:10061000140F03DA6FF00900624908806148B0F9ED
:100620000000052807DA5F48B0F90000002802DD65
:100630000A205C4908805B48B0F90000002809DA0C
:100640005848B0F9000010F1050F03DD6FF0090004
:1006500054490880544890ED000AB8EEC00A39EEBB
:10066000400A5248D0ED000A20EE200A504880EDA2
:10067000000A90ED000ABDEEC00A10EE100A00B2AA
:100680004C4908804C48B0F900004C49096848437F
:1006900000280DDD4848B0F9000048490968401AB3
:1006A000474908600846008800B2464908800EE0C5
:1006B0004148B0F9000041490968884203DA052041
:1006C0004049088003E06FF004003E4908803D483F
:1006D000B0F900303748B0F900203248B0F90010C6
:1006E0002D48B0F90000FFF786FE374800684FF448
:1006F000967190FBF1F201FB120000281BD12648F5
:10070000B0F90000002817DD2648B0F900000028E5
:1007100012DD2EA1012002F0B2FC30A1324810F00F
:1007200059F931480FF0BCF93049086008460168B2
:100730002D48FFF733FDAFE01748B0F9000000285F
:1007400071DD1848B0F9000000286CDA28A10120FA
:1007500002F095FC2AA1244858E064E0000C024015
:1007600000080040500C0020E40400205402002047
:10077000D0020020C8020020D4020020CC020020B9
:10078000A202002068040020AC02002038020020F1
:100790006C0200206402002074020020400200204D
:1007A0006802002076020020000300205C02002086
:1007B000600200207802002014030020E4010020E1
:1007C000E80100207A020020FC010020C7B0BDF83B
:1007D0002B312CCFF2D7F32B310000005B73395D46
:1007E000C7B0D7F300000000100000200800002070
:1007F000C7B0BDF82B312CCFF2D3D22B3100000083
:100800005B73395DC7B0D3D20000000010F0E2F88E
:10081000F6480FF045F9F649086008460168F348C4
:10082000FFF7BCFC38E0F348B0F90000002817DA05
:10083000F148B0F90000002812DDF0A1012002F01B
:100840001EFCF2A1E94810F0C5F8E8480FF028F9BD
:10085000E749086008460168E448FFF79FFC1BE091
:10086000E448B0F90000002816DAE348B0F90000C7
:10087000002811DAE8A1012002F001FCEAA1DB481E
:1008800010F0A8F8D9480FF00BF9D94908600846CC
:100890000168D648FFF782FCBDEC0C8B10BD10B58B
:1008A0002DED048BB0EE408AF0EE608AB0EE419AF6
:1008B0009FEDE00A30EE680ADF4880ED000A90ED17
:1008C000000ABDEEC00A10EE100A00B2C949088045
:1008D0000846B0F900000A2801DD05200880C54857
:1008E000B0F9000010F10A0F03DA6FF00400C149FB
:1008F0000880C048B0F90000052807DABD48B0F903
:100900000000002802DD0220BA490880B948B0F989
:100910000000002809DAB748B0F9000010F1050F0F
:1009200003DD6FF00100B34908809FEDC40A30EE8B
:10093000480AC34880ED000A90ED000ABDEEC00AE7
:1009400010EE100A00B2AC4908800846B0F9000069
:100950000A2801DD05200880A748B0F9000010F141
:100960000A0F03DA6FF00400A3490880A248B0F927
:100970000000052807DAA048B0F90000002802DDD1
:1009800002209D4908809C48B0F90000002809DA3F
:100990009948B0F9000010F1050F03DD6FF0010078
:1009A00095490880A74890ED000AB8EEC00A39EED4
:1009B000400AA54880ED000AA448B0F90000A34908
:1009C000088000230846B0F900208B48B0F90010D9
:1009D0008848B0F90000FFF70EFD8648B0F9000026
:1009E000002819DD8448B0F90000002814DDAFF2BA
:1009F0002421012002F043FBAFF220217B480FF0BD
:100A0000E9FF7A480FF04CF8794908600846016818
:100A10007648FFF7C3FB57E07648B0F9000000289E
:100A200019DD7548B0F90000002814DAAFF2402152
:100A3000012002F024FBAFF238216C480FF0CAFF0E
:100A40006A480FF02DF86A4908600846016867484F
:100A5000FFF7A4FB38E06748B0F90000002817DA78
:100A60006548B0F90000002812DD64A1012002F001
:100A700006FB66A15D480FF0ADFF5C480FF010F873
:100A80005B490860084601685848FFF787FB1BE090
:100A90005848B0F90000002816DA5748B0F90000AD
:100AA000002811DA5CA1012002F0E9FA5EA14F48AA
:100AB0000FF090FF4D480EF0F3FF4D4908600846D7
:100AC00001684A48FFF76AFBBDEC048B10BD10B506
:100AD0002DED068BB0EE408AF0EE608AB0EE419AC2
:100AE0005B480078022803D05948007801287AD161
:100AF00057480078022877D15648B0F9000000EE38
:100B0000100AB8EEC00ADFED540A30EE600A10EEAB
:100B1000101A08460FF032FB41EC1A0B4F4890EDCB
:100B2000000B53EC102B51EC1A0B0FF03BFB5CD875
:100B30004848B0F9000000EE100AB8EEC00ADFED38
:100B4000460A30EE200A10EE101A08460FF016FB87
:100B500041EC1A0B414890ED000B53EC102B51EC7B
:100B60001A0B0FF037FB40D83D48B0F9000000EEFB
:100B7000100AB8EEC00ADFED380A30EE600A10EE57
:100B8000101A08460FF0FAFA41EC1A0B354890EDAE
:100B9000000B53EC102B51EC1A0B0FF003FB65D23A
:100BA0002F48B0F9000000EE100AB8EEC00ADFEDE1
:100BB0002A0A30EE200A10EE101A08460FF0DEFA6C
:100BC00041EC1A0B274890ED000B53EC102B51EC25
:100BD0001A0B0FF0FFFA49D81020234908700120A2
:100BE000BDEC068B10BDDFE057E03FE010000020B9
:100BF000080000207402002076020020BAF3CDCB5A
:100C00002B312CCFF2D7F32B310000005B73395D11
:100C1000BAF3D7F300000000BAF3CDCB2B312CCFC1
:100C2000F2D3D22B310000005B73395DBAF3D3D21B
:100C3000000000000000F042640200200000204399
:100C400068020020000300206002002078020020DB
:100C5000B0020020F4010020CDCC4C3D3802002031
:100C6000F60100204002002082020020FE4890EDA4
:100C7000001AFE48B0F9000000EE100AF8EEC00AB3
:100C8000FB48B0F9000000EE100AB8EEC00AFFF70A
:100C900006FE0020BDEC068B10BDF648B0F9000042
:100CA00000EE100AB8EEC00A5FED150A30EE600AD9
:100CB00010EE101A08460FF061FA41EC1A0BEE48DC
:100CC00090ED000B53EC102B51EC1A0B0FF06AFA5D
:100CD00055D8E848B0F9000000EE100AB8EEC00A96
:100CE0005FED230A30EE200A10EE101A08460FF0CE
:100CF00045FA41EC1A0BE04890ED000B53EC102B39
:100D000051EC1A0B0FF066FA39D8DC48B0F9000044
:100D100000EE100AB8EEC00A5FED310A30EE600A4C
:100D200010EE101A08460FF029FA41EC1A0BD448BD
:100D300090ED000B53EC102B51EC1A0B0FF032FA24
:100D40001DD2CE48B0F9000000EE100AB8EEC00A7D
:100D50005FED3F0A30EE200A10EE101A08460FF041
:100D60000DFA41EC1A0BC64890ED000B53EC102B1A
:100D700051EC1A0B0FF02EFA01D801208AE7BA487D
:100D800090ED001ABD48B0F9000000EE100AF8EE30
:100D9000C00AB848B0F9000000EE100AB8EEC00A68
:100DA000FFF77DFD002075E79FEDB60A38EE400A9B
:100DB00010EE101A08460FF0E1F941EC1A0BAE489C
:100DC00090ED000B53EC102B51EC1A0B0FF0EAF9DD
:100DD00052D89FEDAC0A38EE000A10EE101A084601
:100DE0000FF0CCF941EC1A0BA34890ED000B53EC3B
:100DF000102B51EC1A0B0FF0EDF93DD89FEDA10A25
:100E000038EEC00A10EE101A08460FF0B7F941ECA0
:100E10001A0B9B4890ED000B53EC102B51EC1A0B66
:100E20000FF0C0F928D29FED970A38EE800A10EE35
:100E3000101A08460FF0A2F941EC1A0B904890EDF9
:100E4000000B53EC102B51EC1A0B0FF0C3F913D815
:100E50008DA192480FF0BEFD90480EF021FE904902
:100E60000860084601688D48FFF798F98DA10120B8
:100E700002F005F901200DE7B0EE491AF0EE680A1C
:100E8000B0EE480AFFF727FB002003E710B52DED71
:100E90000C8B82B08B48007801287CD18A488B4922
:100EA0008B4B8C4ACDE900108BA191480EF000FECF
:100EB0000446874890ED000B53EC102B9FED8D0BF3
:100EC00051EC100B0FF0D7F841EC190B9FED8B1B79
:100ED0007F4890ED000B0FF0B3FDB0EE40DAF0EE7E
:100EE00060DA9FED880B53EC102B51EC1D0B0FF0CB
:100EF000C2F841EC1B0B9FED851B754890ED000B74
:100F00000FF09EFDB0EE40DAF0EE60DA9FED810B5F
:100F100053EC102B51EC1D0B0FF0ADF841EC1C0BFA
:100F200053EC1B2B0FF000F841EC1A0B53EC192B70
:100F30000FF09BF841EC180B9FED780B53EC102B46
:100F40000EF0F2FF4C4A03C2604890ED000B53ECE8
:100F5000102B9FED740B51EC100B0FF08CF841EC43
:100F6000190B9FED661B594890ED000B0FF068FDC3
:100F7000B0EE40BAF0EE60BA9FED6C0B53EC102B64
:100F800051EC1B0B0FF077F841EC1A0B53EC192BBB
:100F90000EF0CAFF00E00FE041EC180B9FED650B6F
:100FA00053EC102B0EF0C0FF354A03C20020454918
:100FB00008706249087000BF02B0BDEC0C8B10BD18
:100FC0004048007801283BD149484078F0281CD19E
:100FD000474800794649C97840EA012000B22549CE
:100FE0000880434880794249497940EA012000B2AB
:100FF000224908805248007818B9012051490870E8
:1010000019E000204F49087015E039484078F12870
:1010100011D1374800793649C97840EA012000B239
:1010200013490880324880793149497940EA0120E2
:1010300000B20E4908800020224908703F4908701C
:10104000704710B52DED088B3F4890F83800002808
:1010500041F0E7823C48B0F94400B0F5487F75DDC7
:101060003948B0F9440072E058020020F60100202F
:10107000F4010020EC01002038020020EE010020E5
:1010800040020020CDCC4C3E5B73395DB5BDB4EF62
:10109000B5DAD2BBB8F6C7F8D3F2000010000020D2
:1010A00008000020B5BDB4EFB5DAD2BBB8F6C7F87A
:1010B000D3F2A3ACD7BCB1B8CFC2BDB5B8DFB6C808
:1010C0000000000028040020200200201802002058
:1010D000100200200B020020244B5425632C2025F5
:1010E0006C662C256C662C20256C662000000000A8
:1010F000C80E002007CE1951DA1BBC3F00000000CB
:10110000000000403F575BB1BFECEC3F0000000027
:1011100000000840492EFF21FDF6C5BFBDE3141DA8
:10112000C9E5D33F6B2BF697DD93ED3FC22FF5F367
:10113000A622853FD0B359F5B9DAB23F2F0400207B
:10114000B1020020B0020020BA0C002028E0B0F567
:10115000966F25DAF848007818B902F000FCF649D5
:1011600008700120F5490870F54800780978884230
:1011700019D0F2480078F2490870F2A1F5480FF052
:1011800029FCF4480EF08CFCF3490860084601681D
:10119000F048FFF703F8F1A1012001F070FF02E031
:1011A0000020E5490870EE48B0F9440040F21451BF
:1011B00088423EDDEA48B0F9440040F2A46188422A
:1011C00037DAE8480078002836D1E749087001206E
:1011D000E64908700220D9490870D9480078097892
:1011E000884229D0D5480078D5490870E0A1D9486F
:1011F0000FF0F0FBD7480EF053FCD74908600846C3
:101200000168D448FEF7CAFFDDA1012001F037FFD5
:101210000120DC4908700020DB490870DB490870B8
:10122000DB49087000231A4619461846FFF7E3F811
:1012300002E00020CB490870C948B0F9440040F2F0
:10124000A461884214DDC648B0F9440040F6980114
:1012500088420DDAC448007820B90120C2490870DC
:10126000C24908700320B5490870B549087002E00A
:101270000020BD490870BC480078012841F0D481A5
:10128000BA480078152881F0CA81DFE810F015000F
:101290001D002C00500076009E00C400E600D10125
:1012A00076026403EC04DF05C809C809C809E10631
:1012B00026099209B909C2090020B649086001202F
:1012C000B049087001F0ACB9A8480078401CA749A3
:1012D00008700120AB49087000231A4619461846C9
:1012E000FFF789F8EEE702F087FAA0490978084489
:1012F0009E490870A3480078012814D1A6A19548FA
:101300000FF068FB93480EF0CBFB9349086008464A
:1013100001689048FEF742FFA0A1012001F0AFFE56
:10132000002098490870012096490870CAE799483A
:101330000068B0F5FA6F14DA9648006814309549E1
:10134000086008460068B0F57A7F15DA084600683C
:10135000642811DD00231A4619461846FFF74BF89A
:101360000AE000208B49086080480078401C7F49D3
:101370000870012083490870A4E7022002F074FA83
:101380007A49097808447949087000208149086041
:101390007C480078012814D182A16E480FF01AFB16
:1013A0006C480EF07DFB6C4908600846016869488E
:1013B000FEF7F4FE7CA1012001F061FE00207149DE
:1013C000087001206F4908707CE772480068B0F52A
:1013D000FA6F14DA6F48006814306E4908600846E6
:1013E0000068B0F57A7F15DA08460068642811DDD8
:1013F00000231A4619461846FEF7FDFF0AE00020B2
:101400006449086059480078401C58490870012018
:101410005C49087056E7642002F067FA534909787E
:1014200008445249087000205A490860554800781D
:10143000012811D160A147480FF0CCFA45480EF0C1
:101440002FFB45490860084601684248FEF7A6FEA2
:101450005AA1012001F013FE34E74E480068B0F5B0
:10146000FA6F67DA4B48006814304A49086008464A
:101470000068642190FBF1F201FB1200002858D1B2
:101480006FF00900504908800A20504908805048F0
:10149000B0F900004F4908604D48B0F900000968F4
:1014A000484300280DDD4A48B0F900004949096861
:1014B000401A494908600846008800B24749088038
:1014C0000EE04348B0F9000042490968884203DA57
:1014D00005204249088003E06FF004003F4908807E
:1014E0003F48D0ED000A3F4890ED000AB8EEC00A30
:1014F00030EEC00A3C48D0ED000A20EE200A3B48FE
:1015000080ED000A90ED000ABDEEC00A10EE100A50
:1015100000B2374908803148B0F900300846B0F9C8
:1015200000202948B0F900102848B0F90000FEF763
:1015300062FF7CE05EE00000F2020020F502002085
:10154000F40200205B78315D20736F756E64323079
:1015500031200000100000200800002031B5B50047
:10156000BA0C0020F1020020F302002082020020C9
:101570005B78315D20736F756E643230332000000C
:1015800032B5B50087020020310400202F0400206E
:1015900030040020F80200205B73385DBDE2CBF818
:1015A000000000005B73395DC4A3CABD32A3AC7AEE
:1015B000D6E1C1E3CBD900005B73395DD2BBBCFC83
:1015C000C6F0B7C9000000007602002074020020B7
:1015D00014030020E4010020E80100207A0200202A
:1015E00058020020000300205C020020600200205E
:1015F00078020020F9A1FD480FF0ECF9FB480EF04D
:101600004FFAFB49086008460168F848FEF7C6FD36
:10161000F3A1012001F033FD0020F6490860F648EF
:101620000078401CF44908700120F449087049E62C
:10163000F34800681430F2490860F248006814303A
:10164000F049086008460068B0F57A7F01DB0020A9
:101650000860FFF71BFCFFF7B3FCEB48007801289C
:1016600015D1EA4890ED001AE948B0F9000000EE03
:10167000100AF8EEC00AE748B0F9000000EE100AC0
:10168000B8EEC00AFFF723FAE349086018E0E34820
:10169000E349097800EBC10090ED011AF0EE410A30
:1016A000DE48DF49097800EBC10090ED001AB0EE8A
:1016B000410AD64890ED001AFFF709FAD6490860AA
:1016C000D548006810B90020CD490860D2480068AC
:1016D000012851D1CA480068B0F5487F4CDB002092
:1016E000C44908600120C54908700020C549086048
:1016F000CC490860CCA1012001F0C1FCC2480078AF
:1017000001281ED1BE480068B0F5C86F19DBBA4881
:101710000078401CB84908700020B9490860C6A18B
:10172000012001F0ACFCC7A1B0480FF053F9AF485D
:101730000EF0B6F9AE49086008460168AB48FEF7FE
:101740002DFDAF480068B0F5C86F15DBAE480078D6
:1017500090B9B3480078401CB14908700846007839
:101760000B2802D11020A4490870BAA1012001F071
:1017700086FC0020A2490860A4E5A2480068143055
:10178000A049086008460068642190FBF1F201FB63
:10179000120000287ED1B448D0ED000AB34890ED85
:1017A000000AB8EEC00A30EEC00A10EE101A084661
:1017B0000EF0E4FC41EC190BB0EE490AF0EE690AB8
:1017C0000FF032F9B0EE408AF0EE608A9FEDA80B80
:1017D00053EC102B51EC180B0EF0FCFC6DD80020D4
:1017E000A5490880A54908809F48D0ED000A9F4878
:1017F00090ED000AB8EEC00A30EEC00AA048D0ED65
:10180000000A20EE200A9F4880ED000A9E48B0F9A9
:1018100000009E490968484300280DDD9A48B0F948
:1018200000009A490968401A9949086008460088EA
:1018300000B2984908800EE09348B0F9000093493F
:101840000968884203DA05209249088003E06FF0B6
:101850000400904908808B4890ED000ABDEEC00A54
:1018600010EE100A00B28C4908808A48B0F90030A6
:101870000846B0F900208148B0F900107E48B0F960
:101880000000FEF7B8FD7848D0ED000A774890EDEB
:10189000000A00E023E0B8EEC00AF4EEC00AF1EE60
:1018A00010FA04DD7DA1012001F0E9FB17E0AFF2A1
:1018B000F871012001F0E3FB11E07BA1012001F0B0
:1018C000DEFB00204B4908607E4908704D490860E6
:1018D0007D4908607D4908600120524908605148EF
:1018E0000068B8B346480068143045490860FFF7FF
:1018F000CDFAFFF765FB5C4890ED001A4448B0F95B
:10190000000000EE100AF8EEC00A4248B0F90000EC
:1019100000EE100AB8EEC00AFFF7D9F83E49086099
:101920000846006810B90020354908603A48006848
:1019300001280FD13248006840F6B831884209DBEF
:101940002D480078401C2C49087000202C49086064
:1019500034490860B6E45D480068401C5B49086093
:1019600028480068401C2749086000BF0020424901
:101970000880424908803C48D0ED000A3B4890ED81
:10198000000AB8EEC00A30EEC00A3D48D0ED000AA9
:1019900020EE200A3B4880ED000A90ED000ABDEEE3
:1019A000C00A10EE100A00B23B4908803648B0F970
:1019B000000036490968484300280DDD3248B0F977
:1019C000000032490968401A314908600846008819
:1019D00000B2304908808AE07AE000005B73395D2C
:1019E000C0EBBFAAC6F0B7C9B5E3000010000020E5
:1019F00008000020F8020020820200208702002058
:101A0000E0010020FC010020B0020020580200206C
:101A1000EE010020EC010020C40200200C01002097
:101A2000F0020020E4020020B5BDB4EFB5DA78B8CA
:101A3000F6C7F8D3F2000000C7B0CDF9D7C5BBF0A8
:101A4000B5E300005B73395DC7B0CDF9D7C5BBF016
:101A5000B5E30000C7B0CDF9CFC2D2BBB8F6D7AA64
:101A6000D5DBB5E300000000700200200003002079
:101A700000000000000024407402002076020020D4
:101A80005C0200206002002014030020E40100201A
:101A9000E80100207A02002078020020C9CFC9FDA9
:101AA000B8DFB6C800000000B5BDB4EFD6B8B6A820
:101AB000B8DFB6C8A3ACD7BCB1B8CFC2B7BDC9B345
:101AC000B4FC0000A1020020BC020020C0020020E3
:101AD000FE48B0F90000FE490968884203DA052093
:101AE000FC49088003E06FF00400FA490880F948D7
:101AF000B0F90030F848B0F90020F848B0F900100B
:101B0000F748B0F90000FEF776FCFFF7BFF9FFF7E2
:101B100057FAF44890ED001AF348B0F9000000EECF
:101B2000100AF8EEC00AF148B0F9000000EE100A01
:101B3000B8EEC00AFEF7CBFFED490860ED4800683B
:101B400048B90120EB490860FEF79AFCEAA10120A0
:101B500001F095FA86E0ED480068B0F5917F21DB51
:101B6000EA480068B0F5A07F1CDAE8480068B0F5E4
:101B7000917F14D1FEF74FFCE5A1012001F07FFA1F
:101B8000EAA1F2480EF026FFF0480DF089FFF04977
:101B9000086008460168ED48FEF700FB62E0FEF7CA
:101BA0003AFC5FE0D9480068B0F5A07F22DBD74857
:101BB000006840F2622188421CDAFEF740FC0120F6
:101BC000E4490870D1480068B0F5077F4AD1E2A126
:101BD000012001F054FAE7A1DC480EF0FBFEDB48DF
:101BE0000DF05EFFDA49086008460168D748FEF745
:101BF000D5FA37E0C5480068B0F5D27F32DBFEF792
:101C00000AFCE4A1012001F03AFAE9A1CF480EF064
:101C1000E1FECE480DF044FFCD490860084601685A
:101C2000CA48FEF7BBFAEA480078401CE849087049
:101C30004FF40041E74808F00DFF0020E649087026
:101C4000B2490860E5490860E1480078401CE04975
:101C500008700020E2490870E2490860A549086060
:101C6000AA490860D6E3DF4800681430DD490860FF
:101C700008460068642190FBF1F201FB1200002885
:101C80007BD1D948D0ED000AD84890ED000AB8EED3
:101C9000C00A30EEC00A10EE101A08460EF06EFAB6
:101CA00041EC190BB0EE490AF0EE690A0EF0BCFEE9
:101CB000B0EE408AF0EE608A1FED930B53EC102BD0
:101CC00051EC180B0EF086FA58D800208449088091
:101CD00082490880C448D0ED000AC44890ED000A4B
:101CE000B8EEC00A30EEC00AC148D0ED000A20EEBE
:101CF000200AC04880ED000A90ED000ABDEEC00A3F
:101D000010EE100A00B2744908807048B0F9000063
:101D10006F490968484300280DDD6C48B0F90000A0
:101D20006B490968401AB44908600846008800B247
:101D3000684908800EE06548B0F900006449096808
:101D4000884203DA05206349088003E06FF004004D
:101D5000604908805F48B0F900305F48B0F9002062
:101D60005E48B0F900105E48B0F90000FEF743FB92
:101D7000AFF2D821012001F082F966E09FA1012095
:101D800001F07DF900209549086091480078401CD9
:101D90008F4908700020924908709249086055499F
:101DA00008605A4908604E4908804C4908808E48AE
:101DB000D0ED000A8D4890ED000AB8EEC00A30EE72
:101DC000C00A8B48D0ED000A20EE200A894880ED39
:101DD000000A90ED000ABDEEC00A10EE100A00B233
:101DE0003D4908803948B0F900003949096848433D
:101DF00000280DDD3548B0F9000035490968401A62
:101E00007D4908600846008800B2324908800EE02B
:101E10002E48B0F900002E490968884203DA0520EF
:101E20002C49088003E06FF004002A490880294803
:101E3000B0F900302848B0F900202848B0F9001067
:101E40002748B0F90000FEF7D6FAE9E371480068C8
:101E500014307049086063480068143061490860B4
:101E60000846006842F21071884202DB00205D499A
:101E70000860FFF70BF868480078002804DD664822
:101E80000078401E6449087064486349097800EB93
:101E9000C10090ED011AF0EE410A60485E490978F0
:101EA00000EBC10090ED001AB0EE410A4E4890EDF3
:101EB000001AFEF70CFE0E4908600846006810B9CB
:101EC0000020544908600A480068A9E01403002073
:101ED000E40100207A02002078020020760200202F
:101EE0007402002070020020EE010020EC010020AE
:101EF000C4020020BC020020CFC2B7C5B5F5C0BAED
:101F0000A3ACBCC6CAB1BFAACABC0000C0020020B4
:101F1000CDA3D6B9CFC2B7C5B5F5C0BAA3ACD7BCAF
:101F2000B1B8D0FCCDA335C3EB0000005B73395DC5
:101F3000CDA3D6B9CFC2B7C5B5F5C0BAA3ACD7BC8F
:101F4000B1B8D0FCCDA335C3EB00000010000020D9
:101F500008000020B1020020D0FCCDA335C3EBCA9D
:101F6000B1BCE4B5BDA3ACD7BCB1B8C9CFC9FDB550
:101F7000F5C0BA005B73395DD0FCCDA335C3EBCAA5
:101F8000B1BCE4B5BDA3ACD7BCB1B8C9CFC9FDB530
:101F9000F5C0BA00C9CFC9FD352E38C3EBB5BDA316
:101FA000ACD7BCB1B8BBD8B8B4B8DFB6C800000075
:101FB0005B73395DC9CFC9FD352E38C3EBB5BDA301
:101FC000ACD7BCB1B8BBD8B8B4B8DFB6C800000055
:101FD00082020020000C0240A2020020F802002031
:101FE000A1020020FC010020580200200003002074
:101FF0005C02002060020020E8010020B5BDB4EFC3
:10200000312E38C3D7B8DFB6C8A3ACBCCCD0F8D11A
:10201000B2C2DF00E0010020F00200200C0100202D
:10202000012814D1FC480068B0F5487F0FDB002080
:10203000FA4908600820FA4908700120F949087037
:102040000020F9490860F4490860F8490860E7E2AF
:10205000F54800681430F44908600846006842F208
:102060001071884202DB0020EF490860FEF70EFF86
:10207000EF48F04A127800EBC20090ED000ADFED65
:10208000EE0A30EE600A10EE101A08460EF076F8EE
:1020900041EC180BE94890ED000B53EC102B51EC80
:1020A000180B0EF07FF87AD8E148E24A127800EB7C
:1020B000C20090ED000ADFEDE00A30EE200A10EEDB
:1020C000101A08460EF05AF841EC180BDB4890ED58
:1020D000000B53EC102B51EC180B0EF07BF85ED874
:1020E000D348D44A127800EBC20090ED010ADFED2C
:1020F000D20A30EE600A10EE101A08460EF03EF8D2
:1021000041EC180BCE4890ED000B53EC102B51EC2A
:10211000180B0EF047F842D2C548C64A127800EBB9
:10212000C20090ED010ADFEDC40A30EE200A10EE85
:10213000101A08460EF022F841EC180BC04890ED3A
:10214000000B53EC102B51EC180B0EF043F826D873
:10215000FEF7B7F90020BB490870BBA1C1480EF0DB
:1021600039FCC0480DF09CFCBF4908600846016876
:10217000BC48FEF713F8B5A1012000F080FF002055
:10218000A6490860A6480078401CA54908700120AF
:10219000A44908700020A44908609DE1FFE7B34806
:1021A00090ED000AB24880ED000AB24800680DF0D8
:1021B000E5FF41EC1B0BA14890ED000B53EC102BFD
:1021C00051EC1B0B0DF051FF41EC190BAA480068B4
:1021D0000DF0D4FF41EC1A0B53EC192B0DF04BFF13
:1021E00041EC180B0EF00EF8A4490860084690ED7B
:1021F000000ABDEEC00A10EE100A00B2A049088025
:102200000846B0F90000142801DD0F2008809C4822
:10221000B0F9000010F1140F03DA6FF00E009849C6
:1022200008809748B0F90000052807DA9448B0F90B
:102230000000002802DD0520914908809048B0F98F
:102240000000002809DA8E48B0F9000010F1050FEF
:1022500003DD6FF004008A4908808A4800680DF0A9
:102260008DFF41EC1B0B764890ED000B53EC102BCF
:1022700051EC1B0B0DF0FCFE41EC190B7E48006885
:102280000DF07CFF41EC1A0B53EC192B0DF0F3FE13
:1022900041EC180B0DF0B6FF7B490860084690ED45
:1022A000000ABDEEC00A10EE100A00B2774908809D
:1022B0000846B0F90000142801DD0F20088073489B
:1022C000B0F9000010F1140F03DA6FF00E006F493F
:1022D00008806E48B0F90000052807DA6B48B0F9AD
:1022E0000000002802DD0520684908806748B0F931
:1022F0000000002809DA6548B0F9000010F1050F68
:1023000003DD6FF00400614908806148B0F9000006
:1023100060490968484300280DDD5D48B0F90000B8
:102320005C490968401A5C4908600846008800B2A8
:102330005A4908800EE05648B0F90000554909682E
:10234000884203DA05205549088003E06FF0040055
:10235000524908805248D0ED000A524890ED000AD8
:10236000B8EEC00A30EEC00A4F48D0ED000A20EEA9
:10237000200A4E4880ED000A90ED000ABDEEC00A2A
:1023800010EE100A00B24A4908804448B0F9003003
:102390000846B0F900203D48B0F900103848B0F9BF
:1023A0000000FEF728F8204800684FF4967190FB73
:1023B000F1F201FB120060BB3148B0F900000028C7
:1023C00009DD3248B0F90000002804DD3949012058
:1023D00000F055FE80E02A48B0F9000000280ADD30
:1023E0002A48B0F90000002805DA324924310120DA
:1023F00000F045FE70E02248B0F9000000285DDAE8
:102400002248B0F90000002858DD2B49012000F0D7
:1024100036FE61E004E10000E0010020F802002047
:102420008202002087020020FC010020E40200203C
:102430000C010020F00200209A99193E3802002079
:1024400040020020A50200205B73395DB5BDB4EFEA
:10245000C6F0BDB5B5E3A3ACD7BCB1B87AD6E13010
:10246000CBD90000100000200800002068040020E4
:10247000AC020020D80100206C0200206402002081
:1024800074020020DC010020680200207602002097
:1024900014030020E4010020E80100207A0200205B
:1024A00058020020000300205C020020600200208F
:1024B00078020020CC070008FC0B00088448B0F923
:1024C0000000002808DA8348B0F90000002803DA89
:1024D0008149012000F0D3FDA2E08048006814305B
:1024E0007E49086008460068642190FBF1F201FB18
:1024F000120098BB002076490880764908809FED3D
:10250000780A784880ED000A90ED000ABDEEC00A16
:1025100010EE100A00B2744908807448B0F9000047
:1025200073490968484300280DDD7048B0F9000080
:102530006F490968401A6F4908600846008800B270
:102540006D4908800FE06948B0F9000068490968E2
:10255000884204DA05206849088004E011E06FF041
:102560000400654908806448B0F900305E48B0F95D
:1025700000205848B0F900105548B0F90000FDF7A8
:102580003AFF56480068B0F57A7F11DB5BA1012065
:1025900000F075FD00205E4908605E480078401C30
:1025A0005C49087001205C49087000204B490860B4
:1025B00036E001F0D4F9002055490860554800780C
:1025C000401C5449087054480078012814D153A184
:1025D00055480EF0FFF954480DF062FA534908606F
:1025E000084601685048FDF7D9FD4DA1012000F0D3
:1025F00046FD00204849087000204D4908700FE052
:10260000434800681430424908600020424908707D
:1026100006E03F48006814303D49086000E000BF14
:1026200002E000203B490870BDEC088B10BD10B5DE
:102630004048007848B940F2DC513F480AF052FA6D
:1026400001203C4908703D4908703C48007810B1B1
:1026500001283AD136E03A480078002831D00020ED
:10266000374908703748C0783749087035480079CD
:1026700036490870A520364908705A204870032052
:1026800088700020C870FD2008710521304803F0D3
:1026900003FE2D480078012805D12C480078012838
:1026A00001D1264908702BA11F480EF093F91E484E
:1026B0000DF0F6F91D490860084601681A48FDF753
:1026C0006DFD03E0FEF7BDFC00E000BF00BF10BDE4
:1026D0007402002076020020180C0008FC01002083
:1026E0000000000060020020780200201403002097
:1026F000E4010020E80100207A0200207AD6E130CF
:10270000CBD92CD7BCB1B8D2BBBCFCBDB5C2E400A0
:10271000F802002082020020870200205B73395DEE
:10272000BDB5C2E400000000100000200800002039
:10273000F00200200801002000080040B000002046
:1027400032040020F40E0020B2020020B302002068
:10275000B40200205B73385DD7BCB1B8D2D1CDEAEA
:10276000B3C9A3ACB6FEBCB6D2D1BDE2CBF8000073
:10277000FF20FA4981F8C0030021F848A0F8C213ED
:10278000A0F8C413FF20F54981F8C6030021F348DF
:10279000A0F8C813A0F8CA13FF20F04981F84E0032
:1027A0006421EE48A0F850100121A0F85210FF203B
:1027B000EA4981F880011421E848A0F8821100213B
:1027C000A0F88411FF20E54981F820010021E348A9
:1027D000A0F82211A0F82411FF20E04981F832016D
:1027E0000021DE48A0F83411A0F83611FF20DB49A3
:1027F00081F838010021D948A0F83A11A0F83C111D
:10280000FF20D64981F886010021D448A0F888111C
:10281000A0F88A11FF20D14981F840050021CF4856
:10282000A0F84215A0F84415FF20CC4981F84C05CA
:102830000021CA48A0F84E15A0F85015FF20C7493E
:1028400081F8A6050021C548A0F8A815A0F8AA158A
:10285000704770B504460D462946204604F0DFFD5A
:1028600070BDBE4A10700122BC4B5A707047BB4A03
:1028700082F84C05012382F84D3570472DE9F0416F
:1028800004460D4600260027E178A81F814201D0AA
:10289000BDE8F081002006E0215C3144CEB2B919D8
:1028A000CFB2411CC8B2A91E8142F5DC601910F8F4
:1028B000020CB04204D1601910F8010CB84200D0EB
:1028C000E6E72078AA2805D16078612803D06078EF
:1028D000FF2800D0DCE7A078202811D1A088A049EB
:1028E0000880E0884880208988806089C880A08925
:1028F0000881E0894881208A8881608AC881AEE0A9
:10290000A0780F280DD1207940B2964908706079DF
:1029100040B24870A07940B28870E07940B2C87087
:102920009DE0A07806280CD120798F494870607905
:10293000C870A0790871E1798B484171217A817161
:102940008DE0A0780728DAD0A078E0281ED1207981
:10295000012806D0022805D0102804D0112804D15F
:1029600002E003E002E001E000E000BF00BF2079E8
:102970007A4981F80C06084680F80D6680F80E76D4
:1029800000F20C61AF20FFF76CFF68E0A078B0B9EF
:10299000724890F80F062179884260D16F4890F80C
:1029A0001006617988425AD16C4890F81106A179D5
:1029B000884254D10020694981F800064FE0A07890
:1029C000E12811D12179607901EB00201FFA80F80C
:1029D0006248A0F814860021C0F8181600F21461AD
:1029E000FF20FFF744FF3AE0A078E2280ED12079DB
:1029F0005A4981F80C06084680F80D6680F80E7674
:102A000000F20C61FF20FFF72CFF28E0A0780528DA
:102A100006D15649606808605549A06808601EE004
:102A2000A078082806D15349606808605249A06818
:102A3000086014E0A078032811D1A0884F490880CD
:102A4000E0884F49088020894E4908800846B0F93F
:102A50000000642190FBF1F000B24A49088000BFF9
:102A600016E710B504464848007838B9AA2C05D1B5
:102A70000120454908704548047092E042480078BA
:102A8000012809D1612C01D0FF2C05D102203E493B
:102A900008703E48447084E03B480078022805D125
:102AA000032039490870394884707AE03648007844
:102AB00003280CD1FA2C0ADA042033490870334871
:102AC000C4703348047000203249087069E02E4811
:102AD0000078042819D12E480078002815DD2C48EC
:102AE0000078401E2A4908702A4800782949097848
:102AF000491C284A1170001D24490C5424480078B0
:102B000058BB0520204908704BE01F480078052875
:102B10000DD106201C4908701E4800781D4909780F
:102B2000491C1C4A1170001D18490C5439E0164804
:102B30000078062832D10020134908701548007823
:102B4000001D12490C5413480078401D12490870AA
:102B5000084601780D48FFF791FE22E0E4040020CA
:102B60005E0C002018040020AE0C0020FC020020A7
:102B700000030020080300200C03002010030020A5
:102B800012030020140300201D030020000B00206E
:102B90001B0300201C030020160300200020FE4918
:102BA000087010BD7CB506460C461546402E70D008
:102BB0000BDC302E52D003DC6EB30D2E6AD140E018
:102BC000332E58D0342EF9D165E0E02E71D004DCDC
:102BD000412E7ED0A02EF1D104E0E22E6BD0F12E5A
:102BE000ECD1C5E002212278501C2070A954EB489A
:102BF0000CF056FFEA490860002007E0E7490A5C4C
:102C00002378591C2170EA54411CC8B2E449096870
:102C10008842F3DBBAE0E34890F80C162278501CA7
:102C20002070A954DF4890F80D162278501C2070AF
:102C3000A954DC4890F80E162278501C2070A95434
:102C4000A4E0002007E0D8490A5C2378591C2170D1
:102C5000EA54411CC8B20428F5DB97E0002007E0E5
:102C6000D2490A5C2378591C2170EA54411CC8B22D
:102C70001728F5DB8AE0002008E0CC4919390A5C06
:102C80002378591C2170EA54411CC8B20628F4DB91
:102C90007CE011E079E0002008E0C449C91F0A5C2B
:102CA0002378591C2170EA54411CC8B20728F4DB70
:102CB0006CE01BE00DE02DE0002007E0BC490A5C61
:102CC0002378591C2170EA54411CC8B21428F5DB42
:102CD0005CE0002007E0B7490A5C2378591C2170AA
:102CE000EA54411CC8B20E28F5DB4FE0AD4890F81D
:102CF00001162278501C2070A954002007E0AE492C
:102D00000A5C2378591C2170EA54411CC8B20A2875
:102D1000F5DB3BE0A348B0F8140600B201909DF843
:102D200004102278501C2070A9549DF805102278B8
:102D3000501C2070A9549B48D0F8180600909DF8AC
:102D400000102278501C2070A9549DF801102278A0
:102D5000501C2070A9549DF802102278501C20703D
:102D6000A9549DF803102278501C2070A9540DE03E
:102D7000002007E08F490A5C2378591C2170EA542F
:102D8000411CC8B20E28F5DB00E000BF00BF7CBDCF
:102D9000F8B504460F4600200090AA219DF80020B7
:102DA000501CC0B200908548815439789DF80020AD
:102DB000501CC0B20090814881549DF80010481CFE
:102DC000C0B200907D48445400219DF80020501C62
:102DD000C0B2009079488154024669462046FFF708
:102DE000E1FE9DF80000001F7449C8700025002610
:102DF000002007E07149095C2944CDB27119CEB2B7
:102E0000411CC8B29DF800108842F3DB9DF8001009
:102E1000481CC0B20090694845549DF80010481CF9
:102E2000C0B20090654846545E4890F8000640B134
:102E3000E02C06D15B4880F80F4680F8105680F8E9
:102E400011669DF800105D48FFF703FDF8BD10B551
:102E5000044604EB4400534901EB4000408828B38A
:102E600004EB440001EB4000808804EB44014D4A30
:102E700002EB4101498888420CDA04EB4400114618
:102E800001EB40008088401C04EB440102EB41014F
:102E900088800BE0012004EB4401424A02EB41012F
:102EA000888004EB440102EB4101487004EB4400CC
:102EB0003C4901EB4000407868B1002004EB44013C
:102EC000384A02EB4101487004EB440002EB400138
:102ED0002046FFF75DFF10BD324A82F8400501230E
:102EE00082F8413501222F4B83F8002670471FB529
:102EF000044600200246401C31498C549DF80430A1
:102F00000246401C8B549DF805300246401C8B54F1
:102F10009DF808300246401C8B549DF8093002464B
:102F2000401C8B549DF80C300246401C8B549DF87D
:102F30000D300246401C8B549DF818300146421C4F
:102F4000D0B21F4A53549DF819300146421CD0B2EA
:102F50001B4A53549DF81C300146421CD0B2184AFB
:102F600053549DF81D300146421CD0B2144A5354AC
:102F70009DF820300146421CD0B2114A53549DF8AE
:102F800021300146421CD0B20D4A53549DF82430E2
:102F90000146421CD0B215E01D0300207400002041
:102FA00004030020E404002020030020970C0020EC
:102FB000F40C0020500C0020E60A0020B004002091
:102FC000000C0020914A53549DF825300146421CC4
:102FD000D0B28E4A53548E4908701FBD70B500247C
:102FE0008B480078002849D0AA222046611CCCB228
:102FF00088490A54FF222146601CC4B285484254C5
:10300000F1222146601CC4B282484254002220466C
:10301000611CCCB27F490A54002008E07B490B5C5C
:103020002146621CD4B27B4A5354411CC8B2784931
:1030300009788842F2DB201F7649C87000250026F7
:10304000002007E07349095C2944CDB27119CEB262
:10305000411CC8B2A042F5DB2046611CCCB26D49D0
:103060000D542046611CCCB26A490E542146694871
:10307000FFF7EFFB00206649087000BF70BD10B578
:103080000246002007E00B5C634C2354431CD8B27B
:10309000282800DB02E00B5C002BF4D100BF022AE1
:1030A00000DD00225D4B1A705D4B187010BD70B5CD
:1030B00000245B480078002850D0AA222046611CDA
:1030C000CCB254490A54FF222046611CCCB251496B
:1030D0000A54A0222046611CCCB24E490A54002258
:1030E0002046611CCCB24B490A544C480278204619
:1030F000611CCCB247490A54002008E046490B5CE9
:103100002146621CD4B2434A5354411CC8B24449BC
:1031100009788842F2DB201F3E49C870002500264E
:10312000002007E03B49095C2944CDB27119CEB2B9
:10313000411CC8B2A042F5DB2046611CCCB2354927
:103140000D542046611CCCB232490E542146314800
:10315000FFF77FFB00203249087000BF70BD10B53B
:103160002DED028BB0EE408A00F022F83020FFF700
:103170006EFE3320FFF76BFE3420FFF768FE402021
:10318000FFF765FE4120FFF762FEE020FFF75FFEDC
:10319000E220FFF75CFE0D20FFF759FEFFF787FFE7
:1031A000FFF71CFFA120FFF752FEBDEC028B10BD04
:1031B0001C4890F80006012821D11B4800783228CD
:1031C00005DA19480078401C174908701CE00020F7
:1031D0001549087015480078401C144908700846C5
:1031E0000078052804DA01210E4880F841150BE02B
:1031F00000200E4908700B4981F8000604E0002009
:10320000094908700949087070470000000C002047
:1032100018030020B0040020280C0020190300200F
:103220001A030020E40400201E03002017030020DE
:1032300000B52DED028B85B0B0EE408AF74890F8CE
:10324000380000287CD1F54890F839000028F9D1E1
:10325000F248B0F94200B0F5966F06DA012000F0AE
:1032600003FB0120EE49087013E0EC48B0F942007E
:1032700040F2A461884206DA022000F0F5FA02204A
:10328000E749087005E0032000F0EEFA0320E44966
:103290000870E3484078E249097888420BD0E0485A
:1032A0000078DF49487008460078032803D10846B3
:1032B0008078401C8870DA48807810B3D94800883C
:1032C000B0F5FA6F10DAD748008800EE100AB8EEB1
:1032D000400ADFEDD50A00EE880ABCEEC00A10EE07
:1032E000100AD04908800CE0CD498978032901DB18
:1032F00000F0E2FA20B10021CA4A1180C84A917058
:1033000000BFC648B0F93A00A0F2DC5000EE900AC7
:10331000F8EEE00AB0EE600A9FEDC41ADFEDC40AD1
:1033200001F076FA8DED010ABC48B0F93C00A0F23C
:10333000DC5000EE900AF8EEE00AB0EE600A00E021
:1033400085E09FEDBA1ADFEDBA0A01F061FA8DED62
:10335000020AB248B0F93E00A0F2DC5000EE900A3A
:10336000F8EEE00AB0EE600A9FEDB21ADFEDB00AA7
:1033700001F04EFA8DED030AA848B0F94000A0F222
:10338000DC5000EE900AF8EEE00AB0EE600A9FED25
:10339000A91ADFEDA70A01F03BFA8DED040AA64851
:1033A000007858B19FEDA20A8DED010A9FEDA00AA9
:1033B0008DED020A9FED9E0A8DED040A9848007873
:1033C00002283ADA9DED010ADFED9C0A20EE200A80
:1033D000DFED9B0A20EE200ABDEEC00A10EE100AB7
:1033E00000B2984908809DED020AB1EE400ADFED77
:1033F000930A20EE200ADFED920A20EE200ABDEEAD
:10340000C00A10EE100A00B248808448C08FA0F5B0
:103410007A7000B288809DED040AB1EE400ADFEDBB
:103420008A0A20EE200ADFED890A20EE200ABDEE8E
:10343000C00A10EE100A00B2C8800121844880F84A
:103440008711002083490870834908701EE0834873
:10345000C07878B17F48007828B9032000F004FADA
:103460007C49087006E07C48007818B900F024FA1E
:103470007949087000207349088048804FF4AF7084
:1034800088800020C88088814881088105B0BDEC13
:10349000028B00BD10B504467148008800EE100A8A
:1034A000B8EE400ADFED6F0A20EE200ABDEEC00A3A
:1034B00010EE100A00B26C4908806948408800EE9E
:1034C000100AB8EE400ADFED670A20EE200ABDEED2
:1034D000C00A10EE100A00B248806148808800EEF1
:1034E000100AB8EE400ADFED5F0A20EE200ABDEEBA
:1034F000C00A10EE100A00B288805948C08800EE59
:10350000100AB8EE400ADFED570A20EE200ABDEEA1
:10351000C00A10EE100A00B2C8805148008900EEBF
:10352000100AB8EE400ADFED4F0A20EE200ABDEE89
:10353000C00A10EE100A00B208814948408900EE26
:10354000100AB8EE400ADFED470A20EE200ABDEE71
:10355000C00A10EE100A00B248814148808900EE8E
:10356000100AB8EE400ADFED3F0A20EE200ABDEE59
:10357000C00A10EE100A00B288813948C08900EEF6
:10358000100AB8EE400ADFED370A20EE200ABDEE41
:10359000C00A10EE100A00B2C8813448007818B989
:1035A00001203249087027E0E4B1002017E02E49DD
:1035B00031F91010002901DC00210BE02A4931F912
:1035C0001010B1F57A7F02DD4FF47A7102E02649DE
:1035D00031F91010244A22F81010411CC8B20828F2
:1035E000E5DB09E0002005E000211F4A22F8101069
:1035F000411CC8B20828F7DB1B4802F046FC10BD8E
:1036000010B502F0DDF9DFED1A0A20EE200ABCEE5B
:10361000C00A10EE100A1749088010BDBA0C00202D
:10362000260300202A03002000007A4400002042E4
:10363000000000000000A042380300208F360E3B3F
:1036400000C05A45500C0020C6F91B3B00004843FF
:10365000E40400202403002025030020AE0C0020F9
:103660005E0C0020CDCCCC3D6E0C00202C03002045
:103670000000C8422003002010B523480088401CE9
:1036800021490880084600880A2190FBF1F201FBDD
:1036900012001D4908800846008810BB9FED1B0AD8
:1036A00000F016FE9FED190AFFF7C2FD9FED170A05
:1036B00000F00EFC9FED150A01F0E4FA1248408874
:1036C000401C11494880084640880A2190FBF1F2CD
:1036D00001FB12000C4948800846408808B9FFF7F2
:1036E0008FFF03F01BFF012001F06CFC9FED080A27
:1036F00000F010F89FED060AFFF731FD0120FFF7FB
:10370000C9FE02F01FFA10BD2E0300200AD7233C89
:103710006F12833A10B52DED028BB0EE408A00F0A7
:1037200020F800BF2D4840782D490978884214D0F0
:103730002A4840782A49087000202A4988744FF4A2
:1037400087712848A0F813102448C1692548C0F89B
:1037500015100121244880F8391100BFBDEC028BFF
:1037600010BD22480078FF2804D020480078401C73
:103770001E490870194800781D490978884216D0FA
:10378000164800781A4908701448007A50B1134856
:10379000C07838B111484089124908800F488089A3
:1037A000488004E04FF400400E49088048800B48F0
:1037B00040781049097888420ED0084840780D4971
:1037C00008704FF40040074988800121064880F8BE
:1037D000331100200549087070470000280D0020B3
:1037E000350300207E0C0020E40400203403002078
:1037F000320300203303002010B50120F749887000
:10380000F74890F8000688B91020F54981F80106BC
:103810000021F34880F80216012180F8031600F217
:103820000161FF20FFF758FB012010BD0020FCE7DD
:1038300010B50020E9498870E94890F8000688B979
:103840001020E74981F801060021E54880F80216BA
:10385000022180F8031600F20161FF20FFF73CFB14
:10386000012010BD0020FCE710B50446DD480078BB
:10387000A0421FD0DA4890F80006C8B9D7480470B3
:10388000D84804700120D64981F801060121D448A6
:1038900080F8021680F80316D0480178D04880F8E6
:1038A000041600F20161FF20FFF716FB012010BD96
:1038B0000020FCE70120FAE710B5C94890F800069F
:1038C00088B91020C64981F801060021C44880F853
:1038D0000216072180F8031600F20161FF20FFF7AE
:1038E000FBFA012010BD0020FCE701B5BC4890F8B0
:1038F0000006C8B91020BA4981F801060021B8486D
:1039000080F80216052180F803169DF8001080F853
:1039100004169DF8011080F8051600F20161FF20E1
:10392000FFF7DAFA012008BD0020FCE710B5AC482B
:1039300090F8000688B91020A94981F801060021F5
:10394000A74880F80216042180F8031600F20161EE
:10395000FF20FFF7C1FA012010BD0020FCE710B5E1
:103960009F4890F8000688B910209D4981F801060B
:1039700000219B4880F80216062180F8031600F209
:103980000161FF20FFF7A8FA012010BD0020FCE72D
:1039900001B5934890F8000608BB1020904981F8C3
:1039A000010601218E4880F80216022180F80316D4
:1039B0009DF8001080F804169DF8011080F8051697
:1039C0009DF8021080F806169DF8031080F807167F
:1039D00000F20161FF20FFF77FFA012008BD0020FF
:1039E000FCE713B57E4890F8000680BB10207C49A8
:1039F00081F8010601217A4880F8021680F8031642
:103A00009DF8001080F804169DF8011080F8051646
:103A10009DF8021080F806169DF8031080F807162E
:103A20009DF8041080F808169DF8051080F8091616
:103A30009DF8061080F80A169DF8071080F80B16FE
:103A400000F20161FF20FFF747FA01201CBDFFE7EC
:103A50000020FBE707B5624890F8000648BB10203D
:103A60005F4981F8010602215D4880F802160321B2
:103A700080F803169DF8001080F804169DF80110D8
:103A800080F805169DF8041080F806169DF80510BC
:103A900080F807169DF8081080F808169DF80910A0
:103AA00080F8091600F20161FF20FFF715FA0120E6
:103AB0000EBD0020FCE713B5494890F8000608BB8E
:103AC0001020474981F801060221454880F8021676
:103AD000012180F803169DF8001080F804169DF867
:103AE000011080F805169DF8041080F806169DF860
:103AF000051080F8071600F20161FF20FFF7ECF9CE
:103B000001201CBD0020FCE713B5354890F80006E5
:103B100000BB1020324981F801060221304880F8AC
:103B2000021680F803169DF8001080F804169DF820
:103B3000011080F805169DF8041080F806169DF80F
:103B4000051080F8071600F20161FF20FFF7C4F9A5
:103B500001201CBD0020FCE737B50446204890F842
:103B6000000600BB10201E4981F8010602211C48F6
:103B700080F8021680F803469DF8041080F80416B9
:103B80009DF8051080F805169DF8081080F80616B7
:103B90009DF8091080F8071600F20161FF20FFF779
:103BA0009BF901203EBD0020FCE710B50C4890F8C1
:103BB000000688B901200A4981F801060021084859
:103BC00080F80216032180F8031600F20161FF203D
:103BD000FFF782F9012010BD0020FCE7AE0C0020A9
:103BE000E40400203603002010B5254890F80006B4
:103BF00088B90120224981F801060021204880F877
:103C00000216042180F8031600F20161FF20FFF77D
:103C100063F9012010BD0020FCE710B5184890F8AA
:103C2000000688B90120164981F8010600211448D0
:103C300080F80216052180F8031600F20161FF20CA
:103C4000FFF74AF9012010BD0020FCE710B50C4831
:103C500090F8000688B90120094981F80106002181
:103C6000074880F80216022180F8031600F201616D
:103C7000FF20FFF731F9012010BD0020FCE7000014
:103C8000E404002010B504469848B0F94000B0F5AF
:103C9000AF6F0BDD9548B0F94000B0F5C86F05DA9D
:103CA0000120934948709349087002E00020904930
:103CB00048708E48B0F93E00B0F5966F06DA8C4831
:103CC000407818B901208A49087002E0002088492C
:103CD00008708848007801284AD18748C0780028B1
:103CE00053D18248B0F93A0040F26C71884210DD3D
:103CF0007E48B0F93C0040F24C41884209DA7B48EA
:103D0000B0F93E00884204DA7848B0F940008842B1
:103D100017DB7648B0F9400040F26C71884230DD24
:103D20007248B0F93C0040F24C41884229DA6F48B1
:103D3000B0F93E00884224DA6C48B0F93A00884273
:103D40001FDA6E480088B0F57A7F12DAD4ED000AE7
:103D50006A48008800EE100AB8EE400A9FED681A23
:103D600000EE810ABCEEC00A10EE100A634908801A
:103D700062E0FFF741FD0020604908805D4908705E
:103D80005AE000205D49088056E05B48C078012871
:103D900052D15648B0F93A0040F26C71884210DDB9
:103DA0005248B0F93C0040F24C41884209DA4F4891
:103DB000B0F93E00884204DA4C48B0F9400088422D
:103DC00017DB4A48B0F9400040F26C71884230DDA0
:103DD0004648B0F93C0040F24C41884229DA434859
:103DE000B0F93E00884224DA4048B0F93A008842EF
:103DF0001FDA42480088B0F5967F12DAD4ED000A47
:103E00003E48008800EE100AB8EE400A9FED3C1ACA
:103E100000EE810ABCEEC00A10EE100A3749088095
:103E20000AE0FFF705FD0020344908803149087099
:103E300002E000203149088010BD10B52E48C0783E
:103E4000002844D12948B0F9400040F24C41884252
:103E500017DA2648B0F93C00884212DA2348B0F954
:103E60003E0088420DDA2148B0F93A00884208DA6B
:103E70002448007838BBFFF798FE012021490870DC
:103E800025E01A48B0F9400040F26C7188421BDD11
:103E90001648B0F93C0040F24C41884214DA13480D
:103EA000B0F93E0088420FDA1048B0F93A0040F20B
:103EB0006C71884208DD1348007820B9FFF794FE42
:103EC00001201049087002E000200E49087010BD62
:103ED00010B52DED020B054890F8380020B9684662
:103EE000FFF7D0FEFFF7A9FF1CBD0000BA0C0020B1
:103EF000380300203C030020AE0C00203A030020D1
:103F000000007A443D03002010B502F009F80120BA
:103F1000F84981F8380010BD10B501F0B9FC6420F3
:103F200001F0AAFC01F08CFD01F03CFE642001F0E0
:103F3000A3FC03F03BFB0020EF490860EF49C1F808
:103F4000B40275220221E82003F078FC4FF4E1303E
:103F500002F01FF94FF4E13002F088FA4FF4E1303B
:103F600002F094FDE64803F0D9F8E54803F0ECF9D7
:103F7000642001F081FCFFF7C7FF01F0CDFC642055
:103F800001F07AFCFEF7F4FB4FF4487001F074FC8A
:103F900002F0F0F8FFF74CFC012010BD40F6C41110
:103FA000884203DDD7490978032903DCD54909781C
:103FB0000A290DD10021D34A1170CE49B1F84E1013
:103FC000491CCC4AA2F84E10012182F8501012E090
:103FD000B0F5967F0FDD40F6B83188420BDA02B2B9
:103FE000C449891CC74B1B7821F81320C54909789F
:103FF000491CC44A1170704738B50446C2A0006815
:104000000090C2484068C149086001F00AFCBF49FD
:104010004860084640680968401A40F6C411884262
:1040200002D90020BA490870B94801780078401CCC
:10403000B74A1070B74844541046007819287CD10C
:10404000182011460870B34800780F2876D1B1487F
:10405000007E38B1AF48007EAF4A12781DF80210DA
:104060008842F3D10020AA490870AA484078A9499B
:10407000897801F0070140EA01209E498882A5481D
:10408000C0788006400DA349897840EAE10099494B
:10409000C882A0484079C007400D9E49097940EA8E
:1040A00081009C49C97840EAA11092490883994847
:1040B00080790007400D9749497940EA61008D49B0
:1040C00048839448C0794006400D9249897940EA76
:1040D0002110884988838F48407A8007400D8D4998
:1040E000097A40EA41008B49C97940EAE1108149E7
:1040F000C8838848807AC006400D8649497A40EADC
:10410000A1007C4908848348C07AC0008149897A2B
:1041100040EA6111774841847E48007B7D49497BB4
:1041200001F0070140EA0120724988847948807BC8
:104130008006400D7749497B01E074E069E040EA80
:10414000E1006C49C8847348007CC007400D714988
:10415000C97B40EA81006F49897B40EAA11065492B
:1041600008856C48407C0007400D6A49097C40EA9C
:104170006100604948856748807C4006400D65497C
:10418000497C40EA21105B4988856248007D8007B0
:10419000400D6049C97C40EA41005E49897C40EAA3
:1041A000E1105449C8855B48407DC006400D59491F
:1041B000097D40EAA1004F4908865648807DC0002D
:1041C0005449497D40EA61114A4841865148C07DC1
:1041D000484981F83400084690F8340000F008009F
:1041E00040B90846B0F84E00401CA1F84E0002202D
:1041F00081F8500048480078401C4749087008780A
:10420000C11700EB91718910A0EB8101424A117036
:1042100009E0002005E03F4A411C515C1154411C5B
:10422000C8B21828F7DB38BD10B50446D4ED000A33
:104230003A48008800EE100AB8EE400A9FED381A9E
:1042400000EE810ABCEEC00A10EE100A3349088065
:1042500008460088B0F57A7F39DD002008802548BF
:10426000B0F84E002349C8860846C08E052803DAF8
:10427000012081F8380003E000201E4981F8380051
:104280001C4890F83800C8B11A480078D8B92548B9
:104290000078401C23490870087800EBD071491061
:1042A000A0EB41011F4A117010460078012802D18D
:1042B00001F0B7FE07E001F033FE04E00D4890F88E
:1042C00050000C49087000200A49A1F84E0010BDAA
:1042D00010B52DED020B6846FFF7A6FF054890F8D4
:1042E0003800002878D103480078012827D1002021
:1042F00022E00000BA0C0020B0824142008041421E
:1043000020A10700410300200414243444030020AA
:104310004C0300200C0D00204D0300205003002012
:1043200000007A444E030020344931F8102038311F
:1043300021F81020411CC8B20A28F5DB23E02F48E1
:10434000801E007802281ED100201AE02B4912316D
:1043500031F91010A1F5806100EE101AF8EEC00AD4
:104360009FED270A9FED271A01EE200ABDEEC00A35
:1043700010EE101A0AB22149383121F81020411CE0
:10438000C8B20A28E2DB1D48801EB0F94200B0F531
:10439000966F06DD1948801EB0F94200B0F5AF6F88
:1043A0000DDB1648801EB0F94200B0F5C86F0DDD78
:1043B0001248801EB0F94200B0F5E16F06DA012024
:1043C0000E49891E81F8390016E005E000200B49EE
:1043D000891E81F839000FE001200849891E81F803
:1043E0003900002006E000220449383121F810206D
:1043F000411CC8B20A28F6DB1CBD0000BC0C002022
:104400000080BB442FDD243FF0EE400AF5EEC00AE9
:10441000F1EE10FA02DBB0EE600A7047B1EE600A0E
:10442000FBE700B5B0EE403AB0EE602AB5EEC03A18
:10443000F1EE10FA07D1B5EEC02AF1EE10FA02D172
:104440009FEDFC1A99E0B0EE430AFFF7DDFFF0EEB6
:10445000403AB0EE420AFFF7D7FFF0EE402AF4EE02
:10446000E23AF1EE10FA02D283EEA24A01E082EEC5
:10447000A34A9FEDF10AB4EEC04AF1EE10FA02D25F
:10448000F0EE441A2DE0DFEDED0AB6EE000A14EE70
:10449000200AF0EE404ABDEEE40A10EE100A00EEEB
:1044A000100AB8EEC00A34EEC00AF0EE404AE44901
:1044B00001EB800191ED000AF0EE401AE04A411C48
:1044C00002EB810191ED000A114601EB8001D1ED73
:1044D000000A70EE600AB0EE610A00EEA40AF0EE87
:1044E000401AF4EEE32AF1EE10FA20DDB5EEC02A10
:1044F000F1EE10FA0ADBB5EEC03AF1EE10FA02DB8B
:10450000B0EE611A39E0B1EE611A36E09FEDCD1AD6
:10451000B5EEC03AF1EE10FA04DB31EE610AB0EE0E
:10452000401A2AE031EEC10AB0EE401A25E0B5EE9D
:10453000C03AF1EE10FA10DB9FEDC31AB5EEC02AB7
:10454000F1EE10FA04DB31EE610AB0EE401A14E02D
:1045500031EE210AB0EE401A0FE09FEDBC1AB5EE25
:10456000C02AF1EE10FA04DB31EE210AB0EE401A57
:1045700003E031EE610AB0EE401AB0EE410A00BD30
:1045800000B5B0EE405AF0EE605AF0EE450AB0EEDB
:10459000650AFFF746FF00BDF0EE400AF6EE001A8E
:1045A00060EEA11AB0EE611AB0EE600A10EE100AC9
:1045B000A749A1EB600000EE100A21EE002AF7EEF9
:1045C000081A42EE401A61EE801AB0EE610A21EE3E
:1045D000002AF7EE081A42EE401A61EE801AB0EE99
:1045E000610A704700B5F0EE402AB0EE620AFFF7AC
:1045F000D3FF20EE220A00BD10B52DED0A8BB0EEE0
:10460000409AF0EE609A9FED930B53EC102B51EC17
:10461000190B0BF0C7FD18D29FED900B53EC102B2C
:1046200051EC190B0BF027FD41EC1B0B9FED8D0B93
:1046300053EC102B0BF078FC41EC1A0B53EC192BBC
:104640000BF019FD41EC180B17E09FED840B53ECB8
:10465000102B51EC190B0BF00EFD41EC1B0B9FEDD9
:10466000810B53EC102B0BF003FD41EC1A0B53ECB8
:10467000192B0BF000FD41EC180B9FED760B53EC62
:10468000102B51EC180B0BF08DFD20D29FED770B0A
:1046900053EC102B51EC180B0BF046FC41EC1C0BAF
:1046A0009FED740B53EC102B0BF0E5FC41EC1B0B56
:1046B0009FED6E0B53EC102B0BF036FC41EC1A0BFC
:1046C00053EC182B0BF0D7FC41EC180B1FE09FEDBF
:1046D000670B53EC102B51EC180B0BF0C6FC41ECA4
:1046E0001C0B9FED660B53EC102B0BF0C4FC41EC44
:1046F0001B0B9FED5E0B53EC102B0BF015FC41ECEC
:104700001A0B53EC182B0BF0B6FC41EC180BB0EE67
:10471000480AF0EE680ABDEC0A8B10BD10B52DED0D
:10472000068BB0EE408AF0EE608A01249FED550BB7
:1047300053EC102B51EC180B0BF04CFD0AD89FEDED
:10474000510B53EC102B51EC180B0BF08EFC41EC81
:10475000180BA41E20460BF000FD41EC190BB0EE27
:10476000480AF0EE680AFFF747FFB0EE40AAF0EE05
:1047700060AA53EC192B51EC1A0B0BF07CFC41ECAA
:10478000100BBDEC068B10BD10B52DED088BB0EEF7
:10479000408AF0EE608A01249FED3C0B53EC102B15
:1047A00051EC180B0BF0C0FB41EC180B9FED350BD7
:1047B00053EC102B51EC180B0BF00CFD0AD8A41E77
:1047C0009FED300B53EC102B51EC180B0BF04DFC04
:1047D00041EC180B20460BF0C0FC41EC1A0BB0EE7C
:1047E000480AF0EE680AFFF799FFB0EE40BAF0EE23
:1047F00060BA53EC1A2B51EC1B0B0BF03CFC41EC58
:10480000190B0BF0FFFC00EE100ABDEC088B10BD7D
:10481000F0EE401AF4EEE01AF1EE10FA3ADD31EE65
:10482000C10AB4EEE00AF1EE10FA3CD2B0EE600A32
:1048300039E00000000000008180803B00008043E0
:104840001C190108DB0F4940DB0FC93FDB0FC9BF53
:10485000DF59375F0000000000000000000000602A
:104860002FF0D93F00000060305FF43F00000000EF
:104870000000F03F000000C0CCCCCCBF000000C066
:10488000CCCCCC3FF1D4C853FB210940F1D4C85360
:10489000FB21F93F31EE810AB4EEE00AF1EE10FAA5
:1048A00001DDB0EE600A7047F0EE401AB1EE412A29
:1048B00032EE202AB4EEE12AF1EE10FA09D231EEFE
:1048C000202AB4EEE12AF1EE10FA02DDB0EE600A21
:1048D00001E0B0EE610A7047F0EE402AB5EEC01A72
:1048E000F1EE10FA02DDB0EE410A01E0B1EE410A4C
:1048F000B6EE003A22EE033A23EE213AB4EEC30AB2
:10490000F1EE10FA06D29FEDD40A20EE800AF0EE06
:10491000400A4DE0B5EEC01AF1EE10FA02DDB0EE3D
:10492000410A01E0B1EE410A22EE213AB4EEC30A97
:10493000F1EE10FA06D29FEDC90A20EE800AF0EEE1
:10494000400A35E0B5EEC01AF1EE10FA02DDB0EE25
:10495000410A01E0B1EE410AB4EEE10AF1EE10FACB
:1049600006D2B6EE000A20EE800AF0EE400A1FE002
:10497000B5EEC01AF1EE10FA02DDB0EE410A01E028
:10498000B1EE410AB0EE003A21EE833AB4EEC30A2A
:10499000F1EE10FA06D29FEDB20A20EE800AF0EE98
:1049A000400A05E09FEDAF0A20EE800AF0EE400AD3
:1049B0009FEDAD0A20EE800A20EE223AF7EE003A93
:1049C00083EE830AB7EE003A30EE030AF7EE003AC0
:1049D00083EE803A90ED000A71EE403A90ED000AC5
:1049E00003EE230A80ED000A90ED000AB1EE423A90
:1049F00023EE213AB4EEC30AF1EE10FA04D8B1EE78
:104A0000420A20EE210A0DE090ED000A22EE213A42
:104A1000B4EEC30AF1EE10FA02DD22EE210A01E043
:104A200090ED000A80ED000A90ED000A31EE400A98
:104A3000704710B52DED028BB0EE408AF0EE608A23
:104A40009FED8A0B53EC102B51EC180B0BF0C2FBB3
:104A50000CD29FED880B53EC102B51EC180B0BF084
:104A600004FB41EC100BBDEC028B10BD9FED830BE2
:104A700053EC102B51EC180B0BF094FB0AD29FED6A
:104A80007D0B53EC102B51EC180B0BF04DFA41EC55
:104A9000100BE8E7B0EE480AF0EE680AE3E730B53D
:104AA00005460C46F0EE403AD5ED000A60EEA00A4D
:104AB00094ED001AD4ED001A41EE210AB0EE600A1E
:104AC000FFF790FDB0EE403AB5EEC03AF1EE10FAC5
:104AD00002D81FEDA80A09E0B4EEE33AF1EE10FAAD
:104AE00002DDB0EE630A01E0B0EE430AB0EE404AE8
:104AF000B5EEC03AF1EE10FA06D11FEDB20A83ED21
:104B0000000A82ED000A0FE084EE030AD5ED000AE8
:104B100020EE200A82ED000A84EE030AD4ED000A9A
:104B200020EE200A83ED000A30BDF0EE400A0B783B
:104B300002EB8303C3ED000A0B785B1C0B700B7850
:104B4000834201DB00230B700B7802EB830393EDB0
:104B5000000A704700B50246B0EE403A0B46F7EE49
:104B6000000A43EE430AB0EE600AFFF73BFDD2EDC8
:104B7000000A20EE200AD2ED010A00EEC30A83EDFE
:104B8000000AF7EE000A43EE430AB0EE600AFFF7B0
:104B900029FDD2ED010A20EE200AD2ED000A00EE36
:104BA000830A83ED010A00BD90ED000AD1ED010AF0
:104BB00020EE200AD0ED010A91ED001A00EEC10AA4
:104BC000704790ED000AD1ED000A20EE200AD0EDEA
:104BD000010A91ED011A00EE810A704790ED010A79
:104BE000D1ED020A20EE200AD0ED020A91ED011A61
:104BF00000EEC10A82ED000A90ED020AD1ED000A32
:104C000020EE200AD0ED000A91ED021A00EEC10A52
:104C100082ED010A90ED000AD1ED010A20EE200A92
:104C2000D0ED010A91ED001A00EEC10A82ED020AF0
:104C3000704790ED000AD1ED000A20EE200AD0ED79
:104C4000010A91ED011A00EE810AD0ED020A91ED00
:104C5000021A00EE810A70479A99993FCDCC4C3FD9
:104C6000CDCC4C3ECDCCCC3DC3F5C84000000000BF
:104C700000806640000000000080764000000000D8
:104C8000008066C008B5C648D0ED000A9FEDC51A81
:104C9000F4EEC10AF1EE10FA0BD2D0ED000AB7EE35
:104CA000001A70EE810AC0ED000A0120BE4988702A
:104CB00002E00020BC498870B948D0ED010A9FEDA0
:104CC000B91AF4EEC10AF1EE10FA0BD2D0ED010AD6
:104CD000B7EE001A70EE810AC0ED010A01208DF8CE
:104CE000000002E000208DF80000AD48D0ED020A7F
:104CF0009FEDAC1AF4EEC10AF1EE10FA0BD2D0ED32
:104D0000020AB7EE001A70EE810AC0ED020A012015
:104D10008DF8010002E000208DF801009DF80000F0
:104D200030B19DF8010018B101209F49C87002E020
:104D300000209D49C87008BD30B500220024C57808
:104D40008B1F9D4200D030BD002306E0C55C15449A
:104D5000EAB2A518ECB25D1CEBB28D1E9D42F5DCEB
:104D6000431813F8023C934204D1431813F8013C52
:104D7000A34200D0E7E78378512B38D103795BB9A0
:104D80004379894D6B7183795BB2AB71C3795BB247
:104D9000EB71037A2B7183E00379012B12D14379F4
:104DA000814D2B72C3886B810389AB81837A2B7110
:104DB0009FED7E0A7A4B83ED010A2B461B785B1C24
:104DC0002B706DE00379022B6AD14379764DAB737A
:104DD000C3882B8203896B824389AB828389EB82F0
:104DE000C3892B83038A6B83837C2B7158E0837880
:104DF000342B0DD1D0F807306B4DEB619FED6B0A72
:104E0000674B83ED020A2B465B785B1C6B7047E0B7
:104E10008378012B0DD18388634D2B86C3886B86E5
:104E20000389AB864389EB8683892B87C3896B878C
:104E300036E08378042B33D1B0F9043000EE103A19
:104E4000B8EEC00ADFED5A0A20EE200A564B83ED79
:104E5000080AB0F9063000EE103AB8EEC00ADFEDED
:104E6000540A20EE200A504B83ED090AB0F90830AD
:104E700000EE103AB8EEC00ADFED4D0A20EE200A2F
:104E8000494B83ED0A0AB0F90A3000EE103AB8EE49
:104E9000C00ADFED470A20EE200A434B83ED0B0AE0
:104EA00000BF50E710B504464248007838B9AA2C34
:104EB00005D101203F4908703F4804706FE03D482C
:104EC0000078012809D1612C01D0FF2C05D10220E6
:104ED000384908703848447061E036480078022844
:104EE00005D10320334908703348847057E03148B6
:104EF000007803280CD1FA2C0ADA04202D49087016
:104F00002D48C4702D48047000202D49087046E0DB
:104F100028480078042819D128480078002815DD91
:104F200026480078401E2549087025480078244905
:104F30000978491C224A1170001D1F490C541F4852
:104F4000007840BB05201B49087028E0194800780C
:104F500005280DD10620174908701948007818490E
:104F60000978491C164A1170001D13490C5416E0AB
:104F70001048007806280FD100200E49087010480C
:104F80000078001D0C490C540D480078401DC1B23A
:104F90000948FFF7D1FE02E000200649087010BD65
:104FA000980D00200000FA43280D002000000000AA
:104FB00017B7D13854030020640D0020520300209D
:104FC000530300200146D548007800287ED00022F7
:104FD000D24B1A70D24A1288C832D14B1A80D14AA9
:104FE000127DD14B5A76CF4AD37DCF4A9376CD4AA4
:104FF0009369CD4AC2F81B30CA4AD369CA4AC2F87B
:105000001F30C84A526A0A2392FBF3F3C64AC2F819
:105010002330C44A126B0A2392FBF3F213B2C24A42
:10502000A2F82730BF4A526B0A2392FBF3F213B265
:10503000BD4AA2F82930BB4A926B0A2392FBF3F2D5
:1050400013B2B94AA2F82B30B64AB2F84C2000EE9F
:10505000102AB8EE400ADFEDB50A20EE200ABCEEB9
:10506000C00A10EE100A08B9002204E0C82801D9CD
:10507000C82200E002461046AB4A82F82D00A94A39
:10508000526C00EE102AB8EE400ADFEDA80A20EEBE
:10509000200ABCEEC00A10EE100A08B9002204E093
:1050A000C82801D9C82200E0024610469E4A82F86C
:1050B0002E009C4AD26A00EE102AB8EE400ADFEDBC
:1050C0009B0A20EE200ABCEEC00A00E012E010EEBF
:1050D000100A08B9002204E0C82801D9C82200E05B
:1050E00002461046904A82F82F000123904A82F827
:1050F000213100BF704710B50E218E4801F0CCF869
:1051000010BD10B50E218C4801F0C6F810BD10B5C9
:10511000642000F0B1FB4FF4165001F03AF8322051
:1051200000F0AAFB1C21854801F0B6F8642000F0CD
:10513000A3FB4FF4964001F02CF8322000F09CFBCA
:105140001C217E4801F0A8F8642000F095FB4FF484
:10515000164001F01EF8322000F08EFB1C2177482B
:1051600001F09AF8642000F087FB4FF4E13001F081
:1051700010F8142000F080FB0B21714801F08CF82E
:10518000142000F079FB0B216E4801F085F8142003
:1051900000F072FB0B216C4801F07EF8142000F047
:1051A0006BFB0B21694801F077F8142000F064FBD9
:1051B0000B21674801F070F8142000F05DFB0B2113
:1051C000644801F069F8142000F056FBFFF793FFE4
:1051D00010BD10B50146002000225F4B1B782BB993
:1051E000B52903D101235C4C237095E05A4B1B7801
:1051F000012B05D1622903D10223574C23708BE088
:10520000554B1B78022B05D10323534C2370534B72
:10521000197081E0504B1B78032B05D104234E4CB1
:1052200023704F4B197077E04B4B1B78042B05D143
:105230000523494C23704B4B19706DE0464B1B788E
:10524000052B10D10623444C2370464B1B7803EBEF
:105250000123454C238023461B88622B5CDB002303
:105260003D4C237058E03C4B1B78062B54DB3A4BEB
:105270001B789B1F3C4C2488A41CA3420ADA364BA3
:105280001B789B1F274CE154334B1B785B1C324C23
:10529000237041E0314B1B780344D8B21318DAB2C3
:1052A0002F4B1B780344D8B21318DAB22E4B1B785D
:1052B0000344D8B21318DAB22B4B1B8800EB13232C
:1052C000D8B21318DAB2002307E0164CE45C0444A9
:1052D000E0B21418E2B25C1CE3B2234C2488A3426F
:1052E000F3DB104B204C24881B5D834211D10D4C05
:1052F0001D4B1B885B1CE35C93420AD1174B1B7848
:10530000012B06D1164B1B78072B02D10123034C2E
:1053100023700023104C237010BD000056030020A2
:1053200058030020A40D00207E0C00200AD7233C47
:10533000E40400205A0300206803002092030020A8
:10534000C3030020CE030020D9030020E403002083
:10535000EF030020FA0300200B04002005040020C6
:1053600006040020070400200804002030B503468E
:105370001C788C545D78541C0D559D78941C0D55EB
:10538000DD78D41C0D5530BD11B52DED020B044652
:105390000A2C00DC04B91EBD0B2C43D2DFE804F05C
:1053A00042060C12181E242A30363C000122CF4936
:1053B0006846FFF7DBFF35E00522CC496846FFF77A
:1053C000D5FF2FE00922C9496846FFF7CFFF29E042
:1053D0000D22C6496846FFF7C9FF23E01122C349E1
:1053E0006846FFF7C3FF1DE01522C0496846FFF776
:1053F000BDFF17E01922BD496846FFF7B7FF11E06E
:105400001D22BA496846FFF7B1FF0BE02122B749D8
:105410006846FFF7ABFF05E02522B4496846FFF771
:10542000A5FF00BF00BF00BFB5E711B52DED020B12
:1054300004460A2C00DC04B91EBD0B2C43D2DFE865
:1054400004F042060C12181E242A30363C000322B7
:10545000A7496846FFF78AFF35E00722A449684656
:10546000FFF784FF2FE00B22A1496846FFF77EFF7C
:1054700029E00F229E496846FFF778FF23E01322B8
:105480009B496846FFF772FF1DE01722984968465E
:10549000FFF76CFF17E01B2295496846FFF766FF90
:1054A00011E01F2292496846FFF760FF0BE02322BC
:1054B0008F496846FFF75AFF05E027228C49684666
:1054C000FFF754FF00BF00BF00BFB5E711B52DEDDA
:1054D000020B04460A2C00DC04B91EBD0B2C43D27F
:1054E000DFE804F042060C12181E242A30363C0075
:1054F00004227F496846FFF739FF35E008227C49DE
:105500006846FFF733FF2FE00C2279496846FFF722
:105510002DFF29E0102276496846FFF727FF23E098
:10552000142273496846FFF721FF1DE018227049D5
:105530006846FFF71BFF17E01C226D496846FFF71E
:1055400015FF11E020226A496846FFF70FFF0BE0C4
:10555000242267496846FFF709FF05E028226449CD
:105560006846FFF703FF00BF00BF00BFB5E7014675
:105570000A2900DC09B90020704724205B4A10701A
:105580000B293CD2DFE801F03B060B10151A1F2453
:10559000292F35000520554A50710620ECE70920D7
:1055A000524A50720A20E7E70D20504A50730E20ED
:1055B000E2E711204D4A50741220DDE715204B4AD6
:1055C00050751620D8E71920484A50761A20D3E79C
:1055D0001D20464A50771E20CEE72120434A82F8FC
:1055E00021002220C8E72520404A82F825002620F5
:1055F000C2E729203D4A82F829002A20BCE7002082
:10560000BAE701460A2900DC09B9002070470B29D6
:105610002FD2DFE801F02E060A0E12161A1E2226DD
:105620002A000920324A9070F0E70D20304A90702D
:10563000ECE711202E4A9070E8E715202C4A907074
:10564000E4E719202A4A9070E0E71D20284A90706C
:10565000DCE72120264A9070D8E72520244A907064
:10566000D4E72920224A9070D0E72D20204A90705C
:10567000CCE70020CAE701460A2900DC09B900206E
:1056800070470B292FD2DFE801F02E060A0E121602
:105690001A1E22262A000A20154A9070F0E70E20D2
:1056A000134A9070ECE71220114A9070E8E7162038
:1056B0000F4A9070E4E71A200D4A9070E0E71E2030
:1056C0000B4A9070DCE72220094A9070D8E7262028
:1056D000074A9070D4E72A20054A9070D0E72D2021
:1056E000034A9070CCE70020CAE70000080E0020B3
:1056F000320E0020704700BFFEE700BFFEE700BF8C
:10570000FEE77047704710B5802004F072FE10B1BC
:10571000802004F0C4FE10BD10B500F059FC10BD8F
:1057200010B501211D4808F05AFD80B101211B4828
:1057300008F0B2FD0021194806F08CFB0122114649
:10574000164808F00DFC0121144806F0EEFD10BDCE
:1057500010B50121124808F042FD28B1012110487E
:1057600008F09AFDFDF788FF10BD10B500F0DCFDD4
:1057700010BD10B500F07CFF10BD10B501F078FA37
:1057800010BD10B501F0A4FD10BD10B501F08FFEE5
:1057900010BD10B500F098FC10BD000000080040DE
:1057A000001400407FB5684605F055FD4FF47A714E
:1057B0000198B0FBF1F4E4082146B1F1807F00D3F9
:1057C0001DE021F07F40401E4FF0E0225061501755
:1057D0000F22002807DA13071E0E314B00F00F05C9
:1057E0002D1F5E5503E013071D0E2E4B1D5400BFE9
:1057F00000204FF0E02290610720106100BF6FF0A1
:10580000040002F029FB7FBD2748D0E900305A1C74
:1058100040F100002449C1E9002070472248006897
:10582000704710B500BF204A11684FF0E02252695E
:105830004FF0E0239B69D21A4FF47A735A434FF02A
:10584000E0235B69B2FBF3F201EB4103C3EBC1134D
:1058500002EBC300144C18CC4B402343E3D110BDE2
:1058600030B50446FFF7DDFF054600BFFFF7D9FF5F
:10587000401BA042FAD330BD10B5044603E04FF4FC
:105880007A70FFF7EDFF201EA4F10104F7D110BDDF
:1058900010B54FF4806002F02DFAFFF783FF10BDC2
:1058A00018ED00E000E400E01004002000B58FB027
:1058B000684603F02AFD0121880505F0E4FD00BFDC
:1058C000564804F03FF80028FAD10090544801905F
:1058D000544802900020039032200490002005904C
:1058E0004FF480600690400007908000089000010F
:1058F0000A904012099000200B9001200C9000208B
:105900000D900E906946454803F0A9FB01214348DC
:1059100003F00CFD0FB000BD00B58DB001A802F082
:105920009DFB0121042005F0AEFD0121080205F0D8
:1059300090FEFFF7BBFF03208DF8300020200B9076
:1059400000208DF833000BA9374804F04DFE0020ED
:10595000099007904FF48030089000200A9007A823
:1059600002F086FB002001908DF8080001208DF8E0
:10597000090000200390059001208DF8180001A96E
:1059800027484C3802F0A1FA072301220F212448AE
:105990004C3802F032FD012121484C3802F00BFF57
:1059A00001211F484C3802F014FC01211C484C38DE
:1059B00002F0DBFE1A484C3802F0EBFD0DB000BDE2
:1059C0009FED1A0AF0EE400A002010E0154931F868
:1059D000101000EE101AB8EE401ADFED151AB0EEF6
:1059E000600A01EE210AF0EE400A411CC8B23228DA
:1059F000ECDB9FED101A80EE810A9FED0F1A20EE6E
:105A0000010AB2EE061A20EE010AF7EE001A80EE45
:105A1000211A9FED0A0A21EE000A70471064024025
:105A20004C200140640E00200008024000000000ED
:105A30000AD7A33C0000804500404E456F12833AD0
:105A40001CB5684604F07BFE0121082005F01BFD13
:105A50000121102005F017FD01208DF804008DF8BC
:105A6000070000208DF8060002208DF805000720B1
:105A700000906946474804F0B7FD01208DF8040006
:105A80008DF8060002208DF8050080200090694600
:105A9000404804F0A9FD02213E4804F0DBFF01214B
:105AA0003C4804F0D7FF04213A4804F0D3FF80219A
:105AB000384804F0CFFF4FF44040009001208DF8AB
:105AC000040000208DF8060003208DF80500012059
:105AD0008DF807006946304804F086FD4FF4004118
