:020000040800F2
:10000000380C0020450100083D12000813110008BB
:1000100039120008310A00086527000800000000B6
:10002000000000000000000000000000CD180008E3
:10003000690C000800000000591700085D01000865
:100040005F0100085F0100085F0100085F01000810
:100050005F0100085F0100085F0100085F01000800
:100060005F0100085F0100085F0100085F010008F0
:100070005F0100085F0100085F0100085F010008E0
:100080005F0100085F0100085F0100085F010008D0
:100090005F0100085F0100085F0100085F010008C0
:1000A0005F010008B91C00085F0100085F0100083B
:1000B0005F0100085F0100085F0100085F010008A0
:1000C0005F0100085F0100085F0100085F01000890
:1000D0005F0100081D240008492400087524000859
:1000E0005F0100085F0100085F0100085F01000870
:1000F0005F0100085F0100085F0100085F01000860
:100100005F0100085F0100085F0100085F0100084F
:100110005F0100085F0100085F0100085F0100083F
:100120005F0100085F0100085F0100085F0100082F
:10013000DFF80CD000F00EFC00480047793F0008C3
:10014000380C00200648804706480047FEE7FEE7D7
:10015000FEE7FEE7FEE7FEE7FEE7FEE7FEE7FEE777
:10016000591C00083101000840EA01039B0703D035
:1001700009E008C9121F08C0042AFAD203E011F8E6
:10018000013B00F8013B521EF9D27047F0B480EAFF
:100190000102D40F4200B2EB410F02D202460846E0
:1001A00011464A0042D0C30DDDB2C1F3C752AD1AA9
:1001B000202D35DAC1F3160141F4000204B1524298
:1001C000C5F1200602FA06F12A411044B3EBD05FD4
:1001D00023D0C4B1012DA0EBC35009DCF0BC4FF01B
:1001E000004202EAC352DBB200F5000000F050BA50
:1001F000400000F1807000EBC350A0F1807040EA35
:10020000D170490009E0490841EAC071A0EBC35030
:1002100000F50000400800EBC350F0BC00F02FBA1E
:100220006142012202EB4101001BF6E7F0BC70477E
:1002300081F00041AAE780F00040A7E780EA0102D0
:1002400010B502F00043400022D04A001FD0010E3A
:1002500001EB1261C0F35600C2F3560240F40000F5
:1002600042F40002A0FB022000047F39140400D0F5
:10027000401C50EA124001D44000491EC2B20C0694
:1002800004EBD010401C4008802A02D003E000207C
:1002900010BD20F00100002900DA0020184310BD35
:1002A00030B480EA010202F0004530F0004221F053
:1002B000004013D090B1C30DD40DC2F31601C0F3AA
:1002C0001600E41A41F4000140F400027D3491422A
:1002D00001D3641C00E04900002C02DA30BC00208D
:1002E00070474FF400000023914201D3891A034361
:1002F00040084FEA4101F7D151B1914202D14FF08C
:10030000004105E002D24FF0010101E06FF0010170
:1003100003EBC450284430BC00F0B1B92DE9FE4FC6
:1003200081EA030404F0004421F0004100944FF0FE
:10033000000B23F0004350EA01045ED052EA0304AC
:100340005BD0C3F30A54C1F30A552C44A4F2F3342E
:100350000194A0FB0254C1F3130141F48011C3F3D3
:10036000130343F4801301FB024400FB034E840A91
:10037000970A44EA815447EA8357A4FB0768029529
:100380008D0A05FB07854FEA932C04FB0C542705C7
:10039000029D4FEA065847EA1637B5EB08056EEBA3
:1003A000070C870E920E47EA811742EA8312A7FBD9
:1003B0000201B6EB0B0164EB00042B0D43EA0C3396
:1003C0005E1844EB1C50DA465146E7FB0201C5F3C8
:1003D00013044FEA0B3343EA14534FEA0432019CEF
:1003E00043EA0603A4F10C040294009CCDE900B496
:1003F00000F08BF903B0BDE8F08F00200146F9E76B
:100400002DE9F04D81EA030404F0004B21F0004592
:1004100014464FF0000A23F0004150EA050220D0B4
:1004200054EA01021DD0C5F30A570246C5F313036F
:10043000C1F31300C1F30A5640F4801543F480134E
:10044000A7EB0608101BD64608F2FD3873EB050033
:1004500002D308F1010801E092185B41B8F1000FE6
:1004600003DA00200146BDE8F08D00204FF4801132
:10047000064684460EE0171B73EB050705D3121BD7
:1004800063EB050306434CEA010C49084FEA3000D0
:1004900092185B4150EA0107EDD152EA030012D0F5
:1004A00082EA040083EA0501084305D0101BAB4132
:1004B00006D20122002306E000224FF0004302E0B2
:1004C0006FF0010253101AEB06004CEB085110EBD1
:1004D0000A0041EB0B01BDE8F04D00F007B9C10F78
:1004E00080EAE0700844CA079623002100F0D0B8E3
:1004F0000EB5C10F80EAE0700844CA07002140F23F
:1005000033438DE80E000A460B4600F0FEF803B0B8
:1005100000BD00F0004220F00040C10DC0F3160005
:1005200040F400007F2901DA00207047962903DC9F
:10053000C1F19601C84001E096398840002AF4D004
:100540004042704770B5C1F30A5201F000450024E3
:10055000C1F3130140F2FF3341F480119A4201DAF2
:10056000002070BD40F233439A42A2F2334203DCD2
:10057000524200F074F800E090402C43F1D0404229
:1005800070BD00F0004230F000400AD0C10D01F50E
:100590006071C0F3160042EA0151C20840071143DE
:1005A0007047002001467047002801DBC0F1004081
:1005B000002901DBC1F1004181427047002801DBC5
:1005C000C0F10040002901DBC1F1004188427047C1
:1005D00030B50B46014600202022012409E021FA13
:1005E00002F59D4205D303FA02F5491B04FA02F510
:1005F0002844151EA2F10102F1DC30BD2DE9F05FA7
:100600000546002092469B46884606468146402481
:100610001BE0284641464746224600F020F8534654
:100620005A46C01A914110D311461846224600F08E
:10063000A3F92D1A67EB01084F462246012000213D
:1006400000F09AF917EB00094E41201EA4F10104B5
:10065000DFDC484631462A464346BDE8F09F202A63
:1006600004DB203A21FA02F00021704721FA02F35C
:10067000D040C2F12002914008431946704700293A
:10068000A8BF7047401C490008BF20F00100704718
:1006900010B4B0FA80FC00FA0CF050EA010404BF78
:1006A00010BC704749B1CCF1200421FA04F411FACE
:1006B0000CF118BF012121430843A3EB0C01CB1D12
:1006C0004FEA00614FEA102042BF002010BC704783
:1006D00000EBC35010440029A4BF10BC7047401C5D
:1006E000490008BF20F0010010BC704710B5141E6F
:1006F00073F1000408DA401C41F1000192185B41DB
:100700001A4301D120F0010010BD2DE9F04D9246B1
:100710009B4611B1B1FA81F202E0B0FA80F22032C8
:10072000904600F029F904460F4640EA0A0041EAE3
:100730000B0153465A46084313D0114653EA0100B1
:1007400019D0C8F140025046FFF789FF05460E4612
:1007500050465946424600F00FF9084305D00120A3
:1007600004E020463946BDE8F08D0020054346EA06
:10077000E0762C4337430A986305E40AA0EB0800AF
:100780000022FD0A44EA47540A3002D500200146FF
:10079000E9E7010510196941DDE9084500196941DA
:1007A000BDE8F04DA2E72DE9FE4F804681EA030047
:1007B000C00F0C46009021F0004123F00045B8EB3B
:1007C0000200A94105D24046214690461C460B46F0
:1007D000024623F00040104347D0270DC7F30A001C
:1007E000C3F30A510290401A019040286BDAC3F318
:1007F000130040F4801B0098924620B10023D2EBF6
:10080000030A63EB0B0B01985946C0F140025046B6
:1008100000F0B2F806460D4650465946019A00F0DF
:10082000BAF810EB08006141002487EA115284EA0B
:10083000E7731A4340D0009A62B3019A012A4FEA43
:10084000075215DC001B61EB02014FF0004202EA87
:100850000752CDE90042001C41F5801132462B467B
:10086000FFF753FF03B0BDE8F08F40462146F9E79C
:10087000001B61EB0201001C41F5801300185B4175
:100880002018A2F5001747EB030140EAD570B6190E
:100890006D4111E06D084FEA360645EAC0754FEA32
:1008A0000752001B61EB0201001C41F58011490851
:1008B0004FEA30000019514132462B4603B0BDE8E3
:1008C000F04FFFF713BF0098012240000023D0EB48
:1008D000020263EBE073009821464FEAE074B8EB44
:1008E000000061EB0401E9E783F000435BE781F07E
:1008F000004158E7C1F30A52C1F3130140F2FF333C
:1009000041F480119A4202DA00200146704740F219
:1009100033439A42A2F2334202DC5242FFF79FBEB7
:1009200000F02AB830B5041E71F1000404DB4FF06A
:100930000044404264EB0101141E73F1000405DB26
:100940001C464FF00043524263EB0403994208BF38
:10095000904230BD064C074D06E0E06840F00103D0
:1009600094E8070098471034AC42F6D3FFF7E4FB55
:10097000E05D0008005E0008202A04DB203A00FA4F
:1009800002F1002070479140C2F1200320FA03F3E6
:10099000194390407047202A06DBCB17203A41FAD2
:1009A00002F043EAE07306E041FA02F3D040C2F1FC
:1009B0002002914008431946704770B521F000436A
:1009C00003430CD0C1F30A550024D5EB040564EBB6
:1009D0000403D617AD1AB34102DB0020014670BDF7
:1009E000201841EB025170BD70B5012418E00E498A
:1009F00051F8240001F022FF022500BF00200B491E
:100A000008700321342001F09FFF642003F060FA96
:100A10000648007800B170BD6D1E002DEED1641C3B
:100A20000A2CE4DB00BFF6E7984200080000002033
:100A300000BFFEE703468B4203DB934201DC01204B
:100A400070470020FCE7000010B5364890F9000020
:100A500063285BD00EDC55282ED006DC422831D02E
:100A600043284DD0522858D13EE061280FD062284B
:100A700053D130E06D280FD004DC652811D06828F0
:100A80004BD149E0722835D0752846D10EE002F0EE
:100A900017FA00B141E000BF02F03AFA00B13CE0C1
:100AA00000BF02F05DFA00B137E000BF062002F09F
:100AB0003DF900B131E000BF002002F037F900B18C
:100AC0002BE000BF062002F0C9F918B91649886961
:100AD00001F0B4FE21E0022002F0C0F918B9124979
:100AE000886801F0ABFE18E0062002F085F900B13D
:100AF00013E000BF032002F07FF900B10DE000BF5A
:100B00001E2002F045F900B107E000BF022002F00C
:100B10003FF900B101E000BF00BF00BFFF20014965
:100B2000087010BD01000020984200082DE9F84F20
:100B300007460C4690464FF00009CA46002500269D
:100B4000A346A01D00900425A7F1500010283AD21A
:100B5000DFE800F01608190F1E2326292C2F323942
:100B6000393939354FF0340903254FF0400A012651
:100B70002BE04FF03D0903254FF02E0A012624E01B
:100B80004FF0300921E04FF037094FF003081CE027
:100B90004FF03A094FF0030817E04FF0410914E015
:100BA0004FF0450911E04FF049090EE04FF04D09B3
:100BB0000BE04FF0510908E04FF0550905E01448EB
:100BC000D0F8009001E0BDE8F88F00BFB8F1030F46
:100BD00001D1032500265DB16A000E4901EB4900F1
:100BE0005946FFF7C1FA294648460B4A1268904712
:100BF0005EB17200074901EB4A000099FFF7B4FAB1
:100C000031465046044A1268904700BFDBE70000B7
:100C100030000020CE0100201C00002070B50646E8
:100C2000002467222146641C0D4842549422214628
:100C3000641C42542146641C4654E2222146641C32
:100C40004254002508E00648415D064801F067FD72
:100C5000642003F063F96D1CA542F4DB012070BD34
:100C60005203002000380140704710B5044620466A
:100C700003F02EF910BD000010B50446AF4800780F
:100C80000F2876D2DFE800F0081F364B60768BA085
:100C9000B5CADFFAF8F7F600672C13D1A748007839
:100CA000401CA6490870A64801780078401CA44A58
:100CB0001070A44844542146A34801F030FD14208C
:100CC00003F02CF938E1932C13D19C480078401C98
:100CD0009A4908709A4801780078401C984A107028
:100CE000984844542146984801F019FD142003F017
:100CF00015F921E1924801780078401C904A107063
:100D0000904844548D480078401C8C490870214616
:100D10008D4801F004FD142003F000F90CE188482F
:100D200001780078401C864A1070864844548348F5
:100D30000078401C814908702146834801F0EFFC8F
:100D4000142003F0EBF8F7E07D4801780078401CB0
:100D50007B4A10707B48445478480078401C77499F
:100D600008702146784801F0DAFC142003F0D6F828
:100D7000E2E0E0E0724801780078401C704A1070B0
:100D8000704844546D480078401C6C4908702146F6
:100D90006D4801F0C4FC142003F0C0F8CCE06848B2
:100DA00001780078401C664A1070664844546348D5
:100DB0000078401C614908702146634801F0AFFC8F
:100DC000142003F0ABF8B7E05D4801780078401CD0
:100DD0005B4A10705B48445458480078401C57499F
:100DE00008702146584801F09AFC142003F096F848
:100DF000A2E0534801780078401C514A10705148D5
:100E000044544E480078401C4C49087021464E48D6
:100E100001F085FC142003F081F88DE0484801784A
:100E20000078401C464A10704648445443480078B5
:100E3000401C424908702146434801F070FC1420D0
:100E400003F06CF878E03E4801780078401C3C4A9A
:100E500010703C4844543D48047038480078401CA9
:100E6000364908702146384801F059FC142003F037
:100E700055F861E047E02FE017E0FFE730480178E0
:100E80000078401C2E4A10702E4844542F4844705D
:100E90002A480078401C2949087021462A4801F058
:100EA0003EFC142003F03AF846E02548017800782B
:100EB000401C234A107023484454244884701F481F
:100EC0000078401C1D49087021461F4801F027FC8E
:100ED000142003F023F82FE0194801780078401C13
:100EE000174A1070174844541848C47013480078C3
:100EF000401C124908702146134801F010FC1420D0
:100F000003F00CF818E0E22C14D100200B49087013
:100F10000B4801780078401C094A10700948445475
:100F20002146094801F0FBFB002005490870142008
:100F300002F0F4FF00E000BF00BF10BD6A00002017
:100F40006B000020200300200048004066000020C5
:100F50002DE9F04102460025002600200023002450
:100F6000002791F803C00CF00F0591F803C00CF0B6
:100F7000100CBCF1000F03D091F802C04CEA05053B
:100F800091F800C0BCF1000F31D0146800202BE0B4
:100F90004FF0010C0CFA00F3B1F800C00CEA0306A4
:100FA0009E4220D183004FF00F0C0CFA03F7BC4394
:100FB00005FA03FC4CEA040491F803C0BCF1280FC5
:100FC00006D14FF0010C0CFA00FCC2F814C00AE084
:100FD00091F803C0BCF1480F05D14FF0010C0CFA99
:100FE00000FCC2F810C0401C0828D1D31460B1F82E
:100FF00000C0BCF1FF0F34DD546800202EE000F18A
:10100000080C4FF0010808FA0CF3B1F800C00CEA24
:1010100003069E4221D183004FF00F0C0CFA03F718
:10102000BC4305FA03FC4CEA040491F803C0BCF18C
:10103000280F05D100F1080C08FA0CF8C2F814804A
:1010400091F803C0BCF1480F07D100F1080C4FF034
:10105000010808FA0CF8C2F81080401C0828CED30A
:101060005460BDE8F0810000F0B50A46002300247A
:101070000021002500F00046B6F1004F02D11D4EC0
:10108000F16901E01B4E7168C0F3034583B200F4BF
:101090004016B6F5401F08D121F07061154E7668F4
:1010A00026F07066134F7E6012E000F48016B6F5ED
:1010B000801F06D1032606FA05F4A14341F07061B2
:1010C00006E0460D360103FA06F6B14341F07061C1
:1010D00022B1460D360103FA06F6314300F0004610
:1010E000B6F1004F02D1034EF16101E0014E716093
:1010F000F0BD0000000001400246002093680B4054
:101100000BB1012000E00020704741617047016190
:10111000704700BFFEE7000010B54FF400710948AA
:10112000FFF7F5FF4FF480710648FFF7F0FF4FF42B
:1011300000710448FFF7E9FF4FF480710148FFF7A1
:10114000E4FF10BD000C014010B54FF4807107485A
:10115000FFF7DDFF4FF400710448FFF7D6FF4FF4AF
:1011600000710248FFF7D3FF10BD0000000C0140E2
:1011700010B54FF480710448FFF7C9FF4FF4807138
:101180000148FFF7C2FF10BD000C014008B5012166
:10119000042000F011FB0121084600F00DFB0121A5
:1011A0001648FFF761FF10208DF8030049F6331051
:1011B000ADF8000003208DF8020069461048FFF7E3
:1011C000C7FE02210E48FFF7A2FF4FF401610C4851
:1011D000FFF79DFF4FF400410948FFF798FF4FF4D8
:1011E00080710748FFF791FF4FF481510448FFF7E2
:1011F0008CFF01210248FFF788FF08BD0002300084
:101200000008014008B50121082000F0D5FA0320AC
:101210008DF8020069460748FFF79AFE48208DF8CE
:1012200003004FF47040ADF8000069460148FFF735
:101230008FFE08BD000C014000BFFEE770470000B4
:1012400070B5002100230F22C47804B3154C246824
:1012500004F4E064C4F5E064210AC1F10403CA4067
:10126000447804FA03F184781440214309010E4CB8
:101270000678A155047804F01F050124AC400578D8
:101280006D11AD0005F1E025C5F8004109E00478D5
:1012900004F01F050124AC40044D0678761145F892
:1012A000264070BD0CED00E000E400E080E100E0CD
:1012B00002490143024A1160704700000000FA052C
:1012C0000CED00E070B500240CE0002506E00020E5
:1012D000074901EBC5010855681CC5B2802DF6DB36
:1012E000601CC4B2082CF0DB00F0E2F870BD000016
:1012F0008403002070B50B46CE1701EB5676C6F37B
:10130000C702CE1701EB5676F610A1EBC606F4B273
:101310000123A340DDB20E4B03EBC0039B5CDB4318
:101320000B4E06EBC006B354094B03EBC0039B5CAA
:101330002B43074E06EBC006B354054B03EBC0032B
:101340009B5CDB43024E06EBC006B35470BD00004D
:101350008403002070B50A46CE1701EB5676C6F31B
:10136000C703CE1701EB5676F610A1EBC606F4B212
:101370000122A240D5B2054A02EBC002D25C2A4348
:10138000024E06EBC006F25470BD0000840300203C
:1013900008B50121082000F00FFA4FF44070ADF8B5
:1013A000000010208DF8030003208DF8020069462C
:1013B0003E48FFF7CDFD4FF440713C48FFF7A7FED4
:1013C000C82002F085FD0021AE2000F036F9002192
:1013D000084600F032F90021102000F02EF900211B
:1013E000402000F02AF90021812000F026F9002198
:1013F000CF2000F022F90021A12000F01EF90021E9
:10140000C82000F01AF90021A62000F016F90021EA
:10141000A82000F012F900213F2000F00EF9002171
:10142000D32000F00AF90021084600F006F9002157
:10143000D52000F002F90021802000F0FEF8002104
:10144000D92000F0FAF80021F12000F0F6F8002190
:10145000DA2000F0F2F80021122000F0EEF800216E
:10146000DB2000F0EAF80021402000F0E6F800213F
:10147000202000F0E2F80021022000F0DEF8002138
:101480008D2000F0DAF80021142000F0D6F80021B9
:10149000A42000F0D2F80021A62000F0CEF8002110
:1014A000AF2000F0CAF8FFF70DFF08BD000C0140A7
:1014B00070B500241CE004F1B001C8B2002100F0B6
:1014C000BCF80021084600F0B8F80021102000F018
:1014D000B4F8002508E0084901EBC501085D0121C9
:1014E00000F0ABF8681CC5B2802DF4DB601CC4B200
:1014F000082CE0DB70BD0000840300202DE9FF4FC5
:1015000081B080460E461C4600962046E31704EB49
:101510005373DB1021464FEAE47C04EB5C7C4FEA1A
:10152000EC0CA4EBCC0CBCF1000F02D04FF0010C82
:1015300001E04FF0000C6344224604EBD27C4FEAFA
:101540006C0C03FB0CF303F0FF0B03982038C7B2BD
:10155000002547E00C2C07D107EB4700234901EB9E
:10156000800010F805A014E0102C05D1204800EBF5
:10157000071010F805A00CE0182C07D107EBC700E6
:101580001C4901EB800010F805A002E005B0BDE8A1
:10159000F08F4FF000091FE00AF0800020B13146C3
:1015A0004046FFF7D7FE03E031464046FFF7A2FE74
:1015B0004FEA4A604FEA106A701CC6B20098301AAF
:1015C000A04205D1009E08F1010000F0FF0806E0EE
:1015D00009F1010000F0FF09B9F1080FDCDB00BFE1
:1015E000681CC5B25D45B5DB00BFCFE7C04400084D
:1015F00034490008244F0008F0B506460F4614464B
:101600001D4613E022782B4639463046FFF776FF19
:10161000284605EBD07106EB6101CEB2C5F1800022
:10162000B04202DA0026B81CC7B2641C2078202819
:1016300002DB20787E28E5DDF0BD70B505460C465E
:10164000FFF76AFD782000F043F9FFF791FD1CB128
:10165000402000F03DF902E0002000F039F9FFF7EA
:1016600087FD284600F034F9FFF782FDFFF76CFD97
:1016700070BD000030B589B005460C4601210C2034
:1016800000F09AF80121022000F076F818208DF879
:1016900023000320ADF8200002208DF8220008A9C5
:1016A0002A48FFF755FC18208DF82300C020ADF81C
:1016B000200002208DF8220008A92548FFF748FCE9
:1016C000ADF81850ADF814400020ADF81A00ADF890
:1016D000160005A91F4800F0A7FD6020ADF8040022
:1016E0000020ADF80A00ADF80C000120ADF80600AE
:1016F00001A9184800F034FC01A9164800F086FC46
:1017000001A9144800F0E2FC01A9124800F038FDDC
:101710000121104800F0FAFB08210E4800F06CFC93
:1017200008210C4800F0C4FC08210A4800F01EFD06
:101730000821084800F062FD0121064800F0C8FBBE
:101740000121044800F0D6FB09B030BD000C014077
:101750000008014000040040704700210160416022
:101760008160C160016141618161C1610162416269
:101770008162C1627047000029B1064AD269024302
:10178000044BDA6104E0034AD2698243014BDA6117
:10179000704700000010024029B1064A1269024356
:1017A000044B1A6104E0034A12698243014B1A6137
:1017B000704700000010024029B1064A92690243B6
:1017C000044B9A6104E0034A92698243014B9A6197
:1017D000704700000010024029B1064AD268024357
:1017E000044BDA6004E0034AD2688243014BDA60BA
:1017F000704700000010024030B500210022002494
:1018000000232D4D6D6805F00C0121B1042905D090
:10181000082923D105E0294D056022E0274D056008
:101820001FE0254D6D6805F47012234D6D6805F4B9
:101830008034022505EB92421CB9214D55430560C9
:101840000BE01D4D6D6805F400351DB11C4D554371
:10185000056002E0194D5543056002E0174D056033
:1018600000BF00BF144D6D6805F0F0010909154D6A
:101870006B5C0568DD4045600F4D6D6805F4E06107
:10188000090A104D6B5C4568DD4085600A4D6D6846
:1018900005F46051C90A0B4D6B5C4568DD40C560BD
:1018A000054D6D6805F44041890B074D6B5CC568BB
:1018B000B5FBF3F5056130BD0010024000127A005F
:1018C00000093D005000002060000020704700002B
:1018D00070B50446002520E04FF480711048FFF7F2
:1018E00014FC04F0800028B14FF400710C48FFF79D
:1018F0000EFC04E04FF400710948FFF706FC4FF4BA
:1019000080710748FFF703FC4FF480710448FFF72C
:10191000FCFB6006040E681CC5B2082DDCDB70BD44
:10192000000C014010B5002233E0362806D03928DB
:101930000CD03C2812D03F2820D117E0164B93F949
:10194000003043F00103144C23701FE0124B93F955
:10195000003043F00203104C237017E00E4B93F954
:10196000003043F008030C4C23700FE00A4B93F94E
:10197000003043F00403084C237007E0064B1B784B
:1019800043F080035BB2044C237000BF00BF401CD7
:10199000521C8A42C9D310BD0000002070B5044615
:1019A0000D462946204600F0BFFE70BD70B50546C5
:1019B0000C46012D06D0022D23D0032D3ED0042D40
:1019C0007DD15CE0002C0DDB02213E48FFF79FFB40
:1019D0004FF480713B48FFF798FBA1B23A4800F002
:1019E0001AFC0DE002213748FFF78FFB4FF480719E
:1019F0003448FFF78CFB604281B2334800F00BFCA7
:101A00005EE0002C0CDB10212E48FFF780FB20212C
:101A10002C48FFF77AFBA1B22B4800F0FEFB0CE04C
:101A200010212848FFF771FB20212648FFF76FFBA4
:101A3000604281B2244800F0F0FB41E0002C0EDB54
:101A40004FF400611F48FFF762FB4FF480511D48BF
:101A5000FFF75BFBA1B21C4800F0E1FB0EE04FF486
:101A600000611848FFF751FB4FF480511548FFF70C
:101A70004EFB604281B2144800F0D1FB20E0002C04
:101A80000DDB4FF400410F48FFF741FB01210D48EA
:101A9000FFF73BFBA1B20C4800F0C3FB0DE04FF495
:101AA00000410848FFF731FB01210648FFF72FFBF3
:101AB000604281B2044800F0B4FB01E0FFE700BFE0
:101AC00000BF70BD000801400004004010B500F0E8
:101AD00001F810BD0CB5002001900090334800685B
:101AE00040F480303149086000BF3048006800F49D
:101AF000003000900198401C0190009818B901989E
:101B0000B0F5A06FF1D12948006800F4003010B1A1
:101B10000120009001E0002000900098012843D1AE
:101B20002348006840F0100021490860084600681A
:101B300020F0030008600846006840F002000860DA
:101B40001A48406819494860084640684860084695
:101B5000406840F4806048600846406820F47C108B
:101B600048600846406840F4E8104860084600684D
:101B700040F08070086000BF0C48006800F0007002
:101B80000028F9D00948406820F003000749486060
:101B90000846406840F00200486000BF03484068C3
:101BA00000F00C000828F9D10CBD00000010024024
:101BB0000020024070B504460D4621460120FFF783
:101BC000F5FE21460220FFF7F1FE21460320FFF734
:101BD000EDFE21460420FFF7E9FE002603E00A207F
:101BE00002F076F9761CAE42F9DB70BD042808D10C
:101BF0004FF0E021096941F004014FF0E02211614A
:101C000007E04FF0E021096921F004014FF0E022E4
:101C10001161704710B56FF00400FFF7E7FF0A4845
:101C200000680A49B0FBF1F00949088008460088BD
:101C300000EB4001C1EBC0104FF6FF7101EAC0009C
:101C40000449088010BD00003C00002000127A000A
:101C5000340000203600002010B51348006840F022
:101C600001001149086008464068104908400E49C3
:101C70004860084600680E4908400B49086008465D
:101C8000006820F4802008600846406820F4FE00C8
:101C900048604FF41F008860FFF718FF4FF00060A6
:101CA0000449086010BD0000001002400000FFF869
:101CB000FFFFF6FE08ED00E02DE9FC5F0121794809
:101CC00000F033F9002877D077480068643076490F
:101CD00008604FF4617004286FD007DC78B10128E8
:101CE00043D0022855D0032868D168E0C8287DD0A9
:101CF000FA287CD0FB287BD0FC28F5D1B6E0002167
:101D00000846FFF757FF6948008868B3674840886E
:101D100050B36649B1F90010A1F11900FEF7E8FBD4
:101D200006460F466149B1F90210A1F18700FEF79E
:101D3000DFFB804632463B4602F00AF804465C4A26
:101D40005C4BFEF75DFB824600225B4BFEF7E6FA3A
:101D5000CDE90001FEF7F6FB00B25849088058486B
:101D60000078401C5649087095E05448B0F90000CE
:101D700000F0E2FA534909780844524908700846CD
:101D80000078032804DB4E480078401C4C4908705A
:101D900081E000210846FFF70DFF4348006840F648
:101DA000B831884207D146480078401C4449087041
:101DB00000203D4908606EE072E01AE06AE0002110
:101DC0004FF47A70FFF7F6FE3F480088401C3E490A
:101DD00008803548006841F28831884205D10020EA
:101DE0003149086004203649087054E006E018E0E4
:101DF0002FE064210020FFF7DDFE4CE02A48006858
:101E0000B0F5487F07D100210846FFF7D3FE002038
:101E10002549086004E02C480088401C2A490880B5
:101E200039E000212948FFF7C5FE00201E4908605F
:101E300025480088401E244908800846008800285C
:101E400006DC002008801E480078401C1C490870F1
:101E500021E000210846FFF7ADFE00201749088069
:101E600017480078401C1649087014E01348B0F970
:101E7000000000F061FA134909780844114908701C
:101E800008460078032804DB0D480078401C0C4904
:101E9000087000E000BF00BF0121024800F027F8F1
:101EA000BDE8FC9F002C01406C0000206600002073
:101EB000F1D4C853FB210940008066400400002093
:101EC00002000020080000200600002018FCFFFF90
:101ED00021B1028842F08002028004E002884FF6BD
:101EE0007F731A4002807047CA4302827047CA4318
:101EF0000282704721B1028842F00102028004E0B0
:101F000002884FF6FE731A400280704731B1B0F874
:101F1000442042F40042A0F8442005E0B0F84420F8
:101F2000C2F30E02A0F84420704730B502460020EC
:101F300000230024158A05EA0103958905EA0104B6
:101F400013B10CB1012000E0002030BD1AB183892B
:101F50000B43838102E083898B43838170470000B8
:101F600070B5002400220023058C4FF6FE76354024
:101F70000584028C8388048B4FF68F752C40B51E28
:101F80002C400D882C43751E2A400D892A434D880C
:101F90002A43144DA8420BD0134DA84208D0134D2C
:101FA000A84205D0124DA84202D0124DA84213D12A
:101FB0004FF6F7752A404D892A434FF6FB752A40A4
:101FC0008D882A434FF6FF652B404FF6FF552B4077
:101FD0008D892B43CD892B4383800483CD888586CF
:101FE000028470BD002C01400034014000400140DB
:101FF00000440140004801400A460021018B4FF691
:10200000F7731940114301837047000070B5002435
:1020100000220023058C4FF6EF7635400584028CB4
:102020008388048B48F6FF752C404FF6FF452C4003
:102030000D884FF6FF7606EA05252C434FF6DF752F
:102040002A400D8906EA05152A434D8806EA05153A
:102050002A43154DA84202D0144DA8421DD14FF677
:102060007F752A404D894FF6FF7606EA05152A430B
:102070004FF6BF752A408D8806EA05152A434FF6AC
:10208000FF352B404FF2FF752B408D8906EA850501
:102090002B43CD8906EA85052B4383800483CD88B5
:1020A0000587028470BD0000002C0140003401400F
:1020B0000A460021018B4FF2FF7319404FF6FF7360
:1020C00003EA0223194301837047000070B500241E
:1020D00000220023058C4FF6FF6635400584028CF4
:1020E0008388848B4FF68F752C404FF6FC752C40FF
:1020F0000D882C434FF6FF552A400D894FF6FF7689
:1021000006EA05252A434D8806EA05252A43154D8A
:10211000A84202D0144DA8421DD14FF2FF752A40AB
:102120004D894FF6FF7606EA05252A434FF6FF351F
:102130002A408D8806EA05252A434EF6FF752B4076
:102140004DF6FF752B408D8906EA05152B43CD8989
:1021500006EA05152B4383808483CD888587028416
:1021600070BD0000002C0140003401400A460021EF
:10217000818B4FF6F773194011438183704700003C
:1021800070B5002200230024058C4EF6FF76354002
:102190000584038C8488828B48F6FF752A404FF6AD
:1021A000FF452A400D884FF6FF7606EA05252A43AB
:1021B0004DF6FF752B400D8906EA05352B434D88FA
:1021C00006EA05352B430B4DA84202D00A4DA84222
:1021D00008D14BF6FF752C408D894FF6FF7606EA45
:1021E00085152C4384808283CD88A0F840500384D9
:1021F00070BD0000002C0140003401400A4600215F
:10220000818B4FF2FF7319404FF6FF7303EA0223ED
:1022100019438183704781867047018770478187A2
:102220007047A0F840107047002202881D4B98426A
:102230000ED01D4B98420BD0B0F1804F08D01B4BF5
:10224000984205D01A4B984202D01A4B984204D1BA
:102250004FF68F731A404B881A43174B984207D09A
:10226000164B984204D04FF6FF431A40CB881A43CE
:1022700002808B8883850B8803850A4B98420BD09C
:10228000094B984208D00E4B984205D00D4B98420E
:1022900002D00D4B984201D10B7A03860123838231
:1022A00070470000002C0140003401400004004051
:1022B00000080040000C00400010004000140040E6
:1022C0000040014000440140004801407FB5044601
:1022D0000D460121C802FFF76FFAADF80840681EED
:1022E00080B2ADF804000020ADF80A00ADF8060099
:1022F0008DF80C0001A90F48FFF796FF01210D484A
:10230000FFF7F2FD012241210A48FFF71FFE1920C5
:102310008DF8000000208DF801008DF802000120EA
:102320008DF803006846FEF78BFF01210148FFF797
:10233000E1FD7FBD002C01402DE9F0410546284616
:10234000FEF7CDF88046314881684046FDF770FFC2
:1023500007462F49FDF772FF0646FEF7DAF80446F6
:10236000B4F5AF6F02DD4FF4AF6403E014F5AF6F67
:1023700000DA284CB4F5487F0ADA14F5487F07DD07
:10238000002C02DB4FF4487402E0002C00DA224CEF
:1023900061420120FFF70AFB21460220FFF706FBFE
:1023A00021460320FFF702FB61420420FFF7FEFAFB
:1023B0002846FEF794F88046144881684046FDF7A9
:1023C00037FF07460021FEF7F9F809D22846FEF745
:1023D00086F807460D4881683846FDF729FF0AE070
:1023E0002846FEF77CF80746084881683846FDF71E
:1023F0001FFF80F0004006464FF08041FEF7D4F802
:1024000002D80120BDE8F0810020FBE79000002009
:102410000000604188FAFFFFE0FCFFFF10B540F2CA
:102420002551084800F0BBF858B1064800F072F991
:10243000C4B22046FEF720FC40F22551014800F0CE
:1024400038F810BD0038014010B540F22551084859
:1024500000F0A5F858B1064800F05CF9C4B2204677
:1024600000F064FB40F22551014800F022F810BD55
:102470000044004010B540F22551074800F08FF8A5
:1024800040B1054800F046F9C4B240F22551034876
:1024900000F00FF810BD000000480040004400406C
:1024A00001F40072B2F5007F00D100BFCA43028080
:1024B000704710B50022002340F66A14A14200D1F3
:1024C00000BF0A1201249440A3B2DC43048010BD73
:1024D00021B1828942F40052828104E082894DF662
:1024E000FF731A408281704710B504462048844229
:1024F00009D101218803FFF76FF900214FF48040D3
:10250000FFF76AF932E01B48844209D101214804EF
:10251000FFF742F900214FF40030FFF73DF925E0C5
:102520001548844209D101218804FFF735F90021BB
:102530004FF48020FFF730F918E01048844209D1A9
:102540000121C804FFF728F900214FF40020FFF70C
:1025500023F90BE00A48844208D101210805FFF75E
:102560001BF900214FF48010FFF716F910BD000091
:10257000003801400044004000480040004C00404A
:102580000050004002460020B1F5007F00D100BF9E
:1025900013880B400BB1012000E00020704770B59C
:1025A0000246002400230025002040F66A16B142AE
:1025B00000D100BFC1F3421501F01F03012606FA46
:1025C00003F3012D02D19689334006E0022D02D19A
:1025D000168A334001E0968A33400C12012606FA2F
:1025E00004F41688344013B10CB1012000E000203F
:1025F00070BDF0B50346002400260025002040F6FB
:102600006A17B94200D100BF1846C1F3421401F065
:102610001F06012707FA06F5012C01D10C3004E052
:10262000022C01D1103000E014301AB107682F439A
:10263000076002E00768AF430760F0BD2DE9F0478F
:1026400086B005460E460024A24600BFA1460027DC
:10265000B08900B100BF2F462C8A4CF6FF700440B1
:10266000F08804432C82AC894EF6F3100440B08805
:1026700031890843718908430443AC81AC8A4FF621
:10268000FF400440B0890443AC8201A8FFF7B4F8CE
:102690001F48874202D1DDF810A001E0DDF80CA050
:1026A000A88900F4004040B10AEBCA0000EB0A1010
:1026B00031684900B0FBF1F807E00AEBCA0000EB13
:1026C0000A1031688900B0FBF1F86420B8FBF0F023
:1026D00004012009642101FB1089A88900F400404D
:1026E00040B1322000EBC900B0FBF1F000F0070070
:1026F000044308E0322000EB09106421B0FBF1F044
:1027000000F00F0004432C8106B0BDE8F087000004
:102710000038014001468888C0F308007047C1F3C3
:10272000080282807047000070B504460D460026FE
:102730000CE000BF80210A48FFF724FF0028F9D0F1
:1027400014F8011B0648FFF7EAFF761CAE42F0D3EF
:1027500000BF40210248FFF715FF0028F9D070BDE7
:102760000044004000BFFEE710B586B004460121DA
:1027700044F20400FFF720F84FF40070ADF81400A5
:1027800018208DF8170003208DF8160005A9294898
:10279000FEF7DEFB4FF48060ADF8140004208DF8E6
:1027A000170005A92348FEF7D3FB25208DF800006C
:1027B00003208DF801008DF8020001208DF8030040
:1027C0006846FEF73DFD01940020ADF80800ADF825
:1027D0000A00ADF80C00ADF810000C20ADF80E00AA
:1027E00001A91548FFF72AFF002240F2277112487D
:1027F000FFF7FFFE012240F225510F48FFF7F9FED7
:1028000040210D48FFF74CFE01210B48FFF760FE09
:1028100025208DF8000001208DF8010007208DF89B
:10282000020001208DF803006846FEF709FD06B09E
:1028300010BD0000000801400038014010B586B00E
:10284000044601210420FEF7B7FF01214804FEF7EA
:1028500093FF0220ADF8140010208DF8170003201C
:102860008DF8160005A92548FEF772FB02212348C2
:10287000FEF74DFC0420ADF8140018208DF8170069
:1028800003208DF8160005A91C48FEF761FB0820FF
:10289000ADF8140004208DF8170005A91748FEF7BD
:1028A00057FB01940020ADF80800ADF80A00ADF820
:1028B0000C00ADF810000C20ADF80E0001A9104876
:1028C000FFF7BCFE012240F225510D48FFF791FEB3
:1028D00001210B48FFF7FCFD26208DF800000120A8
:1028E0008DF8010008208DF8020001208DF803000A
:1028F0006846FEF7A5FC06B010BD000000080140C8
:1029000000440040014611B96FF0050070470248CD
:1029100001600020FAE70000200000200246032AA0
:1029200002D96FF005007047044802600448017046
:102930000020044B186000BFF5E700002C000020C9
:1029400024000020280000202DE9FC4104460D460B
:102950006019902803D36FF00500BDE8FC8164483E
:10296000006830B1012824D0022857D0032877D13D
:1029700077E0042D02D96FF00500EEE75D480068AE
:1029800010B96FF00400E8E7FF208DF80000AA20DE
:102990008DF8010027208DF80200E0B28DF80300C9
:1029A000200A8DF8040005216846524A12689047B3
:1029B00099E05048006810B96FF00400CDE74FF679
:1029C000FF7000EA4506701DB0F5807F02DD6FF0F4
:1029D0000300C2E7484800788DF8000003208DF816
:1029E0000100200A8DF80200E0B28DF80300280AE9
:1029F0008DF80400E8B28DF805000621684600F065
:102A00009DFB064630128DF80600F0B28DF80700E7
:102A100008216846374A1268904764E0032D02D9BE
:102A20006FF0050099E73548006810B96FF00400B1
:102A300093E7FF208DF80000AA208DF801002720E1
:102A40008DF80200E0B28DF80300200A8DF8040032
:102A50000522694628480078284B1B68984742E0C1
:102A60003EE02748006810B96FF0040075E74FF6A4
:102A7000FF7000EA4506B6F5807F02DD6FF00300C7
:102A80006BE7E1B21C4A12785206100E33461D4A1B
:102A9000DFF86CC0DCF800C0E04701281FD11A48FD
:102AA000006810B96FF0040057E7002710E01548E0
:102AB00010F81700012101EB4701124A515C40EA6E
:102AC000012000B23919114A22F81100781C87B28E
:102AD000AF42ECD3294620460B4A1268904702E0E9
:102AE0006FF0050039E700BF09480460002034E7B3
:102AF0002C0000200C0000202400002018000020E2
:102B000014000020CE0000201C000020CE01002078
:102B100030000020014611B96FF0050070470248EF
:102B200001600020FAE700001C0000202DE9FC41B4
:102B300080467248006808B9BDE8FC8170480168A9
:102B40000068401C6E4A10606E4800F801806E48B4
:102B5000006830B1012859D0022874D0032854D11C
:102B6000BCE06848007855280CD065480068401ED5
:102B70006349086008466349491C0268481EFDF71E
:102B8000F3FAD9E75E4800680B283ED30A215D4876
:102B900000F0F0FA07465B48807AB8420CD05848FB
:102BA0000068401E5649086008465649491C02689C
:102BB000481EFDF7D9FABFE7524880785149C978D5
:102BC00040EA0120ADF800004E4800794D494979AE
:102BD00040EA0120ADF802004A4880794949C979A4
:102BE00040EA0120ADF804004648007A4549497A98
:102BF00040EA0120ADF806004249487804226946BF
:102C0000FDF794FF00203E4908606BE03C480068F7
:102C1000022861D93B48407803280CD03848006826
:102C2000401E3749086008463649491C0268481E5C
:102C3000FDF79AFA80E733488078401D30490968EB
:102C4000884201D978E748E02D480068401E2D49A8
:102C5000095C2B480068801E2A4A105C41EA002566
:102C600027480088801E81B2104600F067FA0646A9
:102C7000B5420CD022480068401E21490860084631
:102C80002049491C0268481EFDF76EFA54E71D48AA
:102C900080784510002414E0042000EB440019491A
:102CA000085C032101EB4401164A515C40EA012013
:102CB00000B2164909682144154A22F81100601C27
:102CC00084B2AC42E8DB2946104800680B4A12681F
:102CD000904700200A49086004E000BF002008492E
:102CE000086000BF00BF06480068B0F5807F02D1D1
:102CF00000200349086000BF1EE700001C00002000
:102D000028000020CE0000202C00002030000020F1
:102D1000CE010020014611B96FF00500704702484E
:102D200001600020FAE700000C00002010B5044606
:102D30000622002120B2FDF77DFE10B96FF00500DC
:102D400010BD4BF28851692000F032F910B16FF0DC
:102D50000200F5E70C480068012804D114200B4953
:102D60000968884706E00848006818B90120074943
:102D700009688847A1B21F2000F01AF910B16FF05E
:102D80000200DDE70020DBE72C000020200000200F
:102D900010B5044640F6FF72012120B2FDF74AFE4D
:102DA00010B96FF0050010BD4BF28851692000F09A
:102DB000FFF810B16FF00200F5E70D480068012838
:102DC00004D114200B490968884706E008480068C8
:102DD00018B90120074909688847A1B2022000F00C
:102DE000E7F810B16FF00200DDE70020DBE700003C
:102DF0002C0000202000002010B504460D220121E7
:102E000020B2FDF717FE10B96FF0050010BD4BF2B0
:102E10008851692000F0CCF810B16FF00200F5E79E
:102E20000C480068012804D114200B490968884720
:102E300006E00848006818B9012007490968884772
:102E4000A1B2032000F0B4F810B16FF00200DDE78A
:102E50000020DBE72C0000202000002010B50446F5
:102E60000722012120B2FDF7E5FD10B96FF0050042
:102E700010BD4BF28851692000F09AF810B16FF044
:102E80000200F5E70C480068012804D114200B4922
:102E90000968884706E00848006818B90120074912
:102EA00009688847A1B2042000F082F810B16FF0E1
:102EB0000200DDE70020DBE72C00002020000020DE
:102EC00010B54BF28851692000F072F810B16FF024
:102ED000020010BD0C480068012804D114200B49E1
:102EE0000968884706E00848006818B901200749C2
:102EF000096888470121084600F05AF810B16FF0C0
:102F00000200E6E70020E4E72C000020200000207B
:102F100010B54BF28851692000F04AF810B16FF0FB
:102F2000020010BD0C480068012804D114200B4990
:102F30000968884706E00848006818B90120074971
:102F4000096888470721012000F032F810B16FF0BE
:102F50000200E6E70020E4E72C000020200000202B
:102F600010B54BF28851692000F022F810B16FF0D3
:102F7000020010BD0C480068012804D114200B4940
:102F80000968884706E00848006818B90120074921
:102F9000096888470021012000F00AF810B16FF09D
:102FA0000200E6E70020E4E72C00002020000020DB
:102FB0002DE9FC4105460C46902D03D36FF005002A
:102FC000BDE8FC814448006830B101281FD00228C8
:102FD00047D003287AD161E04048006810B96FF00B
:102FE0000400EDE7FF208DF80000AA208DF8010015
:102FF000E8B28DF80200E0B28DF8030020128DF8DF
:10300000040005216846354A1268904761E033485C
:10301000006810B96FF00400D2E7314800788DF8ED
:10302000000006208DF80100280A8DF80200E8B2A1
:103030008DF8030020128DF80400E0B28DF8050031
:103040000621684600F07AF8064630128DF8060030
:10305000F0B28DF8070008216846204A12689047B0
:1030600037E02048006810B96FF00400A8E7FF209F
:103070008DF80000AA208DF80100E8B28DF802005A
:10308000E0B28DF8030020128DF804000522694695
:1030900013480078134B1B6898471AE012480068E1
:1030A00010B96FF004008BE7E0B28DF80000201239
:1030B0008DF80100E9B20A4A12785206100E022376
:1030C0006A46094F3F68B84703E0FFE76FF0050025
:1030D00076E700BF002073E72C0000200C000020E2
:1030E0002400002018000020100000200FB4084B1E
:1030F00010B504A902AA039800F07EF9044602A9BB
:10310000002000F010FD204610BC5DF814FB00000C
:10311000273B0008490050EAC12018BF04204A0D8F
:1031200018BF40F0010040F2FF72B2EB515F08BFE0
:1031300040F00200012808BF0520704770B5034623
:103140000C46FF25FF26002200BF00BF09E0985C67
:1031500080EA05010548405C80EA06050448465CB3
:10316000521CA242F3DB46EA052070BDC0420008B3
:10317000C043000810B502460B460020002103E0C2
:10318000545C0444E0B2491C9942F9D310BD2DE9C6
:10319000F0414F1E00EBC7010446D1E9000115467E
:1031A0001E4637F006020DD02A463346FDF7B6F824
:1031B0007F1E04EBC703D3E90023FDF7F4FA37F0D1
:1031C0000602F1D1022F25D0042F13D0062F18BFED
:1031D000BDE8F0812A463346FDF7A0F8D4E90A237A
:1031E000FDF7E1FA2A463346FDF798F8D4E90823BB
:1031F000FDF7D9FA2A463346FDF790F8D4E90623BD
:10320000FDF7D1FA2A463346FDF788F8D4E90423BE
:10321000FDF7C9FA2A463346FDF780F8D4E90223C0
:10322000FDF7C1FA2A463346FDF778F8D4E90023C2
:10323000BDE8F041FDF7B7BA0122FDF7BEBBFDF7CF
:10324000B2BA0000024A00201107FDF7B6BB000029
:1032500001FDFFFF02E008C8121F08C1002AFAD1D1
:1032600070477047002001E001C1121F002AFBD106
:10327000704700002DE9FF5F82B00021DDE90430D6
:10328000020DDDF840B0034318D044F61050A2F20E
:10329000FF3242431514119801281FD0A5EB0B00F3
:1032A000401C5FEA000A4FF000064E4FDFF83891ED
:1032B000B046504615D5CAF1000413E01198012418
:1032C0004AA3012801D16FEA0B010298119AC0E9C3
:1032D0000031C0E9024206B0BDE8F09FCBF100002A
:1032E000DFE704460021404A491842EB0450CDE98B
:1032F000001012E0E00707D032463B464046494600
:10330000FDF70CF88046894632463B461046194682
:10331000FDF704F806460F466410002CEAD1DDE9FB
:103320000401DDE90023BAF1000F06DAFCF7F6FF2D
:1033300042464B46FCF7F2FF05E0FDF761F84246D6
:103340004B46FDF75DF804460E460022284BFDF77C
:10335000E9FA03D84FF0FF30014607E00022254B81
:1033600020463146FDF71FFAFDF7C4FA102409E0A4
:10337000002C0ADB0A220023FDF740F9039B3032C0
:103380001A55641E50EA0102F2D1641C039AC4F17A
:1033900011031444119A012A03D0012208430DD1CC
:1033A0000AE0084304D000204FF0110B119072E79F
:1033B000A3EB0B056D1E0DE05B4504DD4FF0000235
:1033C00005F1010504E003DA4FF00002A5F1010563
:1033D000002AECD002981199C0E90231C0E90045F9
:1033E00079E70000000014400000F03F30000000CA
:1033F0000000F0430000E03F2DE9FF4F95B09B46F1
:103400008946064600250FE2252877D10024274665
:10341000F84A0121059400E0044316F8013F203BDF
:1034200001FA03F01042F7D130782A2811D06FF05A
:103430002F033078A0F13002092A16D8059A44F0FB
:10344000020402EB820203EB42021044761C059058
:10345000EFE759F8042B0592002A03DA504244F4AE
:103460000054059044F00204761C30782E2816D1C2
:1034700016F8010F44F004042A280DD06FF02F0233
:103480003078A0F13003092B09D807EB870302EB52
:103490004303C718761CF3E759F8047B761C307891
:1034A0006C280FD006DC4C2817D068280DD06A286D
:1034B00014D104E0742810D07A280FD10DE044F420
:1034C00000140AE044F4801401E044F440147278DB
:1034D000824202D104F58014761C761C307866286E
:1034E0000BD013DC582877D009DC002875D045288C
:1034F000F6D04628F4D047281AD19DE118E0632879
:1035000035D0642879D0652812D195E1702873D020
:1035100008DC6728F1D069286FD06E280DD06F289D
:1035200006D1B5E073282CD0752875D0782874D0D2
:103530005A46179990476D1C75E1C4F30250022852
:1035400009D003280DD0D9F8001004280DD00D6043
:1035500009F1040967E1D9F80010EA17C1E900523E
:10356000F6E7D9F800100D80F2E70D70F0E719F8D2
:10357000041B8DF8001000208DF80100EA460120A0
:1035800003E059F804AB4FF0FF3061074FF0000142
:1035900002D40DE008F101018846B9420FDA8045F6
:1035A000F8DB1AF808100029F4D108E008F101014D
:1035B00088468142FADB1AF808100029F6D10598EE
:1035C0005B46A0EB080721463846179A00F094FAAC
:1035D000284400EB080507E04DE029E10DE01AF86A
:1035E000010B5A4617999047B8F10108F7D25B468C
:1035F00021463846179A13E142E00A220092C4F3AA
:1036000002524FF0000A022A08D059F804CB032ACC
:103610004FEAEC710AD00DE029E02AE009F1070138
:1036200021F00702F2E802C1914609E00FFA8CFC92
:103630004FEAEC71042A03D14FFA8CFC4FEAEC718B
:10364000002907DA0A460021DCF1000C61EB0201D7
:103650002D2202E0220504D52B228DF80420012220
:1036600003E0E20701D02022F7E7904659E00A2163
:1036700002E010220DE010214FF0000A00910BE053
:1036800010224FF0000A44F004040827009203E0DF
:1036900008224FF0000A0092C4F30252022A05D019
:1036A00059F804CB0021032A08D009E009F10701E9
:1036B00021F00702F2E802C1914605E01FFA8CFCF6
:1036C000042A01D10CF0FF0C4FF00008220728D586
:1036D000702806D0009B83F0100353EA0A0305D03C
:1036E0000EE040228DF80420012208E05CEA01028D
:1036F00006D030228DF804208DF805000222904675
:10370000009B83F0080353EA0A030AD15CEA010232
:1037100001D1620705D530228DF804204FF0010851
:103720007F1E582804D034A003900EA802900DE00C
:1037300036A0F9E753466046009AFCF75FFF8446DF
:103740000398825C0298401E029002705CEA0100BD
:10375000F0D1029806A9081A00F1200A600702D5E4
:1037600024F4803400E00127574502DDA7EB0A006E
:1037700000E0002000EB0A01009005984144401A47
:103780000590E00306D45B462146179A059800F0A1
:10379000B3F90544002706E001A85A46C05D179911
:1037A00090476D1C7F1C4745F6DBE0030CD55B465C
:1037B0002146179A059800F09FF9054404E030204F
:1037C0005A46179990476D1C0099481E0090002991
:1037D000F5DC08E0029802995A460078491C0291EB
:1037E000179990476D1CBAF10001AAF1010AF1DCAA
:1037F00065E10000092801003031323334353637B5
:10380000383961626364656600000000303132332C
:1038100034353637383941424344454600000000CC
:1038200000F058F90544761C307800287FF4ECADA0
:1038300019B02846BDE8F08F620700D4062709F1C9
:10384000070222F0070CFCE80223E14603F00048DF
:103850005FEA080C02D00FF2702C0DE05FEA045C06
:1038600002D50FF2682C07E05FEAC47C02D00FF2A9
:10387000602C01E0AFF2700C4FF0FF3823F00043F2
:10388000CDF850C065280CD006DC452809D0462864
:103890001DD047283DD13DE0662818D067287ED14D
:1038A00038E00021112F01DB112000E0781CCDE968
:1038B000000106A90EA8FFF7DDFCDDE90F010E9A55
:1038C00003910021009207F1010A04914DE04FF0AD
:1038D00000400097CDE9011006A90EA8FFF7CAFC29
:1038E000DDE90F0203920E9B11990022DDF80CA076
:1038F0000093049211B9791C00EB010AB7EB0A009E
:1039000004D4C0F1FF3007F1010A0490AAEB0700CC
:10391000019044E0012F00DA01270021112F01DD81
:10392000112000E03846CDE9000106A90EA8FFF7F6
:10393000A1FCDDE90F010E9A039100210491009290
:10394000BA4621070CD40399514500DA8A46BAF1E8
:10395000010F05DD009AAAF10101515C302908D060
:10396000B84202DA10F1040F06DA0121CDE90110A4
:1039700015E0AAF10101E9E7002805DC04990144FA
:103980000491AAEB000102E0411C514500DD8A468A
:103990000499401A401C01904FF00040029020070B
:1039A00004D40198504501DBCDF8048000208DF847
:1039B0004F0002980DF14F07B0F1004F25D02B209A
:1039C0000E9002984FF0020800280CDA4042029054
:1039D0002D200E9007E00A210298FCF7F9FD303106
:1039E000029007F8011DB8F10001A8F10108F2DC0E
:1039F00002980028EFD1791E0E980870307800F0F8
:103A0000200040F0450007F8020D12A8C01B00F18D
:103A100007081498007800B1012000EB0A01019812
:103A200001EBE07105984144401A401E0590E00307
:103A300006D45B462146179A059800F05DF80544C8
:103A40001498007818B15A46179990476D1CE003F6
:103A500024D55B462146179A059800F04DF8054499
:103A60001CE00498002807DBDDE90301884203DD40
:103A70000098405C179901E0179930205A4690470A
:103A8000049805F10105401C04900198401E019026
:103A900004D12E205A46179990476D1CBAF10001A7
:103AA000AAF1010ADDDC05E017F8010B5A46179967
:103AB00090476D1CB8F10001A8F10108F4DC5B46E9
:103AC0002146179A0598ABE62D0000002B00000058
:103AD000200000002DE9F041044600251E4617464F
:103AE000880404D405E039462020B0476D1C641ECC
:103AF000F9D52846BDE8F0812DE9F04104460025BE
:103B00001E469046C80301D5302700E020278804D0
:103B100004D505E041463846B0476D1C641EF9D512
:103B20002846BDE8F0810A68531C0B60107070478E
:103B30002DE9F84F04460D4621F0004000917349ED
:103B4000814211DC7249884201DC06D12CB1204649
:103B50002946BDE8F84FFFF76FBB6E48002DCCBF7C
:103B60006D496E49BDE8F88F6D49814211DD6D499F
:103B70008142D8BF4FF0FF366DDD20462946FFF762
:103B8000C9FA042808BFFFF75DFB20462946BDE8B7
:103B9000F88F6549654F25F00045814233DD644962
:103BA000814219DD002632464FF0804320462946E7
:103BB000FCF7F9FD80468A46012220462946FCF79B
:103BC000FCFE00223B46FCF78FFE42465346FCF7C4
:103BD00017FC04460D463EE001260022BA463B464D
:103BE00020462946FCF7DFFD80460F46002253465B
:103BF00020462946FCF778FE42463B46FCF700FC8F
:103C000004460D4627E04B4981421BDDDFF828A121
:103C100002260022534620462946FCF77FFB00225D
:103C20003B46FCF7C0FD80460F4600225346204627
:103C30002946FCF759FE42463B46FCF7E1FB0446A9
:103C40000D4608E0032622462B4600203B49FCF7A0
:103C5000D7FB04460D4622462B4610461946FCF774
:103C60005DFB8B46824602460B46FCF757FB074638
:103C70000246334888460B4606217844FFF787FA08
:103C800052465B46FCF74AFB82462E488B463A4634
:103C9000434605217844FFF77AFA3A464346FCF753
:103CA0003DFB02460B46002E504659460CDAFCF707
:103CB0007AFD22462B46FCF731FB01B022462B460B
:103CC000BDE8F04FFCF713BEFCF76DFD22462B4616
:103CD000FCF724FB1C4A7A4402EBC603D3E9002319
:103CE000FCF702FE22462B46FCF7FEFD174A7A44FB
:103CF00002EBC603D3E90023FCF7F9FD009A002A82
:103D0000B8BF81F00041BDE8F88F0000000010440A
:103D10000000F07F182D4454FB21F93FFB21F9BF2F
:103D20000000DC3F0000203E0000F33F0000F03FB9
:103D30000000E63F008003400000F83F0000F0BFB5
:103D40002A210000E8200000862000004E2000000C
:103D50002DE9F04D9446CCF1000423F000464CEAE6
:103D60000404524F46EAD4749A46884621F0004231
:103D7000BC4206D8454240EA050442EAD474BC423B
:103D800004D9BDE8F04D6246FFF759BAAAF1405593
:103D9000A5F17F6555EA0C040BD0022404EAAA744D
:103DA000434DDFF810E144EAD87452EA000B04D026
:103DB0000CE0BDE8F04DFFF7BBBE002C14BF012C9A
:103DC000BDE8F08D022C30D0032C32D056EA0C0B1B
:103DD0000AD0BE4220D1BA4209D126F0804622F054
:103DE00080423346114617E000291ADB25E0DFF850
:103DF000C8B0FB44002C04BFDBE90001BDE8F08D36
:103E0000012C02BFDBE9000181F00041BDE8F08D2B
:103E1000022C0AD0032C0CD0BA4212D1B8F1000FF8
:103E20000BDA23482549BDE8F08D28462449BDE832
:103E3000F08D28467146BDE8F08D1D482149BDE84A
:103E4000F08D921B12153C2AC4BF19481D490EDC87
:103E5000BAF1000FBEBF12F13C0F0020014606DB95
:103E60006246FCF7CDFA21F00041FFF761FE002C1D
:103E700008BFBDE8F08D012C04BF81F00041BDE812
:103E8000F08D114A114B022C07D0FCF72DFD2A466C
:103E9000BDE8F04D0A4BFCF727BDFCF725FD2A468F
:103EA000BDE8F04D064BFCF722BD00000000F07F9E
:103EB000182D4454FB2109C0E21F0000FB21F9BF6B
:103EC000FB210940FB21F93F075C143326A6A13CE6
:103ED0000146114A12884A434FF0E0235A610022FA
:103EE0009A611A46126942F001021A6100BF4FF04E
:103EF000E022106900F001021AB100F48032002AB9
:103F0000F5D04FF0E022126922F001024FF0E023D9
:103F10001A6100229A6170473600002010B1144ADD
:103F2000904200D97047134A128842434FF0E02371
:103F30005A6100229A611A46126942F001021A611E
:103F400000BF4FF0E022116901F001021AB101F443
:103F50008032002AF5D04FF0E022126922F00102EF
:103F60004FF0E0231A6100229A6100BFDAE70000F7
:103F7000C7711C00340000201FB5002500264FF437
:103F8000A060FDF795F9FDF745FE4FF4E130FEF72F
:103F9000EBFB4FF41650FEF751FC4FF4E13000F00C
:103FA0001FF950210020FEF7B9FC7648FEF7B2FE5B
:103FB0007548FEF7AFFD7548FEF7A4FCFDF7E8F97C
:103FC000FDF7E4F840F2CF2140F2CF70FDF752FB4D
:103FD00043F63F0140F2F310FEF778F96C48FDF725
:103FE000BCFBFDF70FF90020019002900390814681
:103FF0008246FCF7F9FCC3E04FF480516548FDF7B9
:104000007BF865490870FCF71FFD4FF400516148CB
:10401000FDF772F805464FF480415E48FDF76CF8F5
:1040200006465D480078FCF7F9FD5C4800780028FA
:104030006ED000243AE004F13401594A32F91100FB
:10404000FCF74DFA80464FF08E41FCF729F9074600
:104050004FF08341FCF7F2F8524941F8240004F193
:1040600037014F4A32F91100FCF739FA80464FF018
:104070008E41FCF715F907464B49FCF7DFF84B4931
:1040800041F8240004F13D01454A32F91100FCF7E2
:1040900026FA80464FF08E41FCF702F90746444964
:1040A000FCF7CCF8434941F82400641C032CC2DB24
:1040B0003A48007800F0010030B1384890F900002B
:1040C00020F00100354908703448007800F0020003
:1040D00030B1324890F9000020F002002F490870FA
:1040E0002E48007800F0040030B12C4890F9000010
:1040F00020F00400294908702848007800F00800E2
:1041000030B1264890F9000020F0080023490870DB
:1041100028498868FCF735FA07462748B0F90000B7
:104120003A460B4625A1009001A8FEF7DFFF1023B9
:1041300001AA00210846FDF75FFA2448B0F90030D3
:104140001548027822A101A8FEF7D0FF102301AA8A
:1041500019460020FDF750FAFDF7AAF93DB9B9F16B
:10416000000F04D1C8201D4908704FF001093EB965
:10417000BAF1000F04D1FA20184908704FF0010A73
:104180003AE700009D190008251900086B0C00088B
:1041900004080020000C014009000020000000205D
:1041A000CE010020780000200000FA4484000020A6
:1041B0000000344390000020060000205A3A252ECB
:1041C000326620204355543A256400000400002044
:1041D00025642020416E676C652564000200002084
:1041E00010B586B0044601210820FDF7E5FA01214B
:1041F0008804FDF7C1FA2548FEF776F94FF4806090
:10420000ADF8100003208DF8120018208DF813006F
:1042100004A91F48FCF79CFE4FF40060ADF81000A5
:1042200004208DF8130004A91948FCF791FE0094AE
:104230000020ADF80400ADF80600ADF80800ADF8B8
:104240000C000C20ADF80A0069461048FEF7F6F99C
:1042500001210E48FEF73CF9012240F225510B489E
:10426000FEF7C7F927208DF8140000208DF81500FF
:1042700003208DF8160001208DF8170005A8FCF723
:10428000DFFF00200349088006B010BD0048004051
:10429000000C01407400002000000000C01200006B
:1042A00080250000004B00000096000000E10000A7
:1042B00000C20100008403000008070000100E0087
:1042C00000C1814001C0804101C0804100C18140E6
:1042D00001C0804100C1814000C1814001C08041D6
:1042E00001C0804100C1814000C1814001C08041C6
:1042F00000C1814001C0804101C0804100C18140B6
:1043000001C0804100C1814000C1814001C08041A5
:1043100000C1814001C0804101C0804100C1814095
:1043200000C1814001C0804101C0804100C1814085
:1043300001C0804100C1814000C1814001C0804175
:1043400001C0804100C1814000C1814001C0804165
:1043500000C1814001C0804101C0804100C1814055
:1043600000C1814001C0804101C0804100C1814045
:1043700001C0804100C1814000C1814001C0804135
:1043800000C1814001C0804101C0804100C1814025
:1043900001C0804100C1814000C1814001C0804115
:1043A00001C0804100C1814000C1814001C0804105
:1043B00000C1814001C0804101C0804100C18140F5
:1043C00000C0C101C30302C2C60607C705C5C404B5
:1043D000CC0C0DCD0FCFCE0E0ACACB0BC90908C825
:1043E000D81819D91BDBDA1A1EDEDF1FDD1D1CDC15
:1043F00014D4D515D71716D6D21213D311D1D01085
:10440000F03031F133F3F23236F6F737F53534F474
:104410003CFCFD3DFF3F3EFEFA3A3BFB39F9F838E4
:1044200028E8E929EB2B2AEAEE2E2FEF2DEDEC2CD4
:10443000E42425E527E7E62622E2E323E12120E044
:10444000A06061A163A3A26266A6A767A56564A434
:104450006CACAD6DAF6F6EAEAA6A6BAB69A9A868A4
:1044600078B8B979BB7B7ABABE7E7FBF7DBDBC7C94
:10447000B47475B577B7B67672B2B373B17170B004
:1044800050909151935352929656579755959454F4
:104490009C5C5D9D5F9F9E5E5A9A9B5B9959589864
:1044A000884849894B8B8A4A4E8E8F4F8D4D4C8C54
:1044B00044848545874746868242438341818040C4
:1044C00000000000000000000000000000000000EC
:1044D0003F400000000000000000300040003000BD
:1044E0004000000009000BC03D000BC03D0009006A
:1044F00018C024407FE0224031800000180024C012
:104500001B000D803240018003801C4027401C802E
:1045100007400040100060000000000000000000A4
:104520000000000000001F802040402000004020CC
:1045300020401F8000000000090006001F800600C8
:1045400009000000040004003F8004000400000093
:1045500000100060000000000000000004000400E3
:1045600004000400040000000000004000000000FF
:1045700000000000002001C00600380040000000DC
:104580001F802040204020401F800000000010407D
:104590003FC000400000000018C0214022402440DD
:1045A0001840000010802040244024401B80000060
:1045B00002000D0011003FC0014000003C8024407B
:1045C00024402440238000001F80244024403440A5
:1045D000038000003000200027C0380020000000C9
:1045E0001B802440244024401B8000001C0022C06B
:1045F000224022401F800000000000000840000010
:104600000000000000000000046000000000000046
:10461000000004000A001100208040400900090049
:10462000090009000900000000004040208011003E
:104630000A00040018002000234024001800000095
:104640001F802040274029401F400000004007C035
:1046500039000F0001C0004020403FC024402440EA
:104660001B8000001F802040204020403080000040
:1046700020403FC0204020401F80000020403FC01D
:1046800024402E4030C0000020403FC024402E0077
:10469000300000000F0010802040224033800200D4
:1046A00020403FC0040004003FC020402040204084
:1046B0003FC02040204000000060202020203FC05C
:1046C0002000200020403FC024400B0030C020408C
:1046D00020403FC020400040004000C03FC03C00A0
:1046E00003C03C003FC0000020403FC00C402300FE
:1046F0003FC020001F802040204020401F8000003D
:1047000020403FC024402400180000001F802140AA
:10471000214020E01FA0000020403FC02440260090
:1047200019C0004018C024402440224031800000BD
:10473000300020403FC020403000000020003F807B
:10474000004000403F80200020003E0001C00700E4
:1047500038002000380007C03C0007C038000000C7
:10476000204039C0060039C02040000020003840F9
:1047700007C0384020000000304021C026403840AB
:1047800020C00000000000007FE04020402000002A
:10479000000070000C00038000400000000040207A
:1047A00040207FE0000000000000200040002000CA
:1047B0000000000000100010001000100010001099
:1047C0000000000040000000000000000000028027
:1047D0000540054003C0004020003FC004400440A5
:1047E00003800000000003800440044006400000F5
:1047F00000000380044024403FC0004000000380CC
:104800000540054003400000000004401FC0244054
:1048100024402000000002E005500550065004200E
:1048200020403FC00440040003C00040000004409A
:1048300027C000400000000000100010041027E016
:104840000000000020403FC00140070004C00440B9
:10485000204020403FC000400040000007C004004E
:1048600007C0040003C00000044007C00440040067
:1048700003C00040000003800440044003800000A7
:10488000041007F00450044003800000000003807F
:104890000440045007F00010044007C00240040028
:1048A00004000000000006400540054004C0000070
:1048B000000004001F800440004000000400078046
:1048C0000040044007C000400400070004C001800D
:1048D00006000400060001C0070001C00600000039
:1048E000044006C0010006C0044000000410071088
:1048F00004E00180060004000000044005C00640FA
:10490000044000000000000004007BE040200000A4
:10491000000000000000FFF0000000000000402048
:104920007BE0040000000000400080004000200008
:104930002000400000000000000000000000000017
:10494000000000000000000000001FCC000C000070
:104950000000000000000800300060000800300087
:1049600060000000022003FC1E20022003FC1E2029
:104970000220000000000E1811043FFF10840C7884
:10498000000000000F0010840F3800C00778188462
:104990000078000000780F8410C411240E9800E401
:1049A000008400080800680070000000000000009B
:1049B0000000000000000000000007E018182004BC
:1049C00040020000000040022004181807E0000028
:1049D000000000000240024001800FF00180024010
:1049E000024000000080008000800FF800800080FE
:1049F000008000000001000D000E0000000000001B
:104A00000000000000000080008000800080008026
:104A1000008000800000000C000C0000000000007E
:104A20000000000000000006001800600180060081
:104A300018002000000007F00808100410040808FF
:104A400007F000000000080408041FFC0004000434
:104A50000000000000000E0C1014102410441184FB
:104A60000E0C000000000C18100411041104128830
:104A70000C700000000000E00320042408241FFC48
:104A80000024000000001F981084110411041088F5
:104A900010700000000007F0088811041104188845
:104AA0000070000000001C00100010FC13001C002F
:104AB0001000000000000E381144108410841144CE
:104AC0000E38000000000700088C104410440888CD
:104AD00007F00000000000000000030C030C0000C1
:104AE00000000000000000000001010600000000BE
:104AF00000000000000000800140022004100808AF
:104B000010040000022002200220022002200220C5
:104B100002200000000010040808041002200140D8
:104B20000080000000000E001200100C106C1080BD
:104B30000F00000003E00C1813E4142417C4082825
:104B400007D000000004003C03C41C40074000E400
:104B5000001C000410041FFC1104110411040E8831
:104B60000070000003E00C1810041004100410087A
:104B70001C10000010041FFC10041004100408088E
:104B800007F0000010041FFC1104110417C41004E6
:104B90000818000010041FFC1104110017C01000B9
:104BA0000800000003E00C181004100410441C78E6
:104BB0000040000010041FFC10840080008010845E
:104BC0001FFC10040000100410041FFC100410044B
:104BD0000000000000030001100110011FFE100082
:104BE0001000000010041FFC110403801464181C42
:104BF0001004000010041FFC100400040004000452
:104C0000000C000010041FFC1F0000FC1F001FFC14
:104C10001004000010041FFC0C04030000E0101836
:104C20001FFC100007F00808100410041004080806
:104C300007F0000010041FFC10841080108010800A
:104C40000F00000007F0081810241024101C080A98
:104C500007F2000010041FFC1104110011C01130F4
:104C60000E0C000400000E1C11041084108410446B
:104C70001C3800001800100010041FFC1004100065
:104C80001800000010001FF81004000400041004B5
:104C90001FF8100010001E0011E0001C00701380AF
:104CA0001C0010001FC0103C00E01F0000E0103C82
:104CB0001FC000001004180C163401C001C01634C7
:104CC000180C100410001C00130400FC13041C003A
:104CD000100000000804101C1064108413041C044D
:104CE000101800000000000000007FFE400240029B
:104CF00040020000000030000C0003800060001C37
:104D00000003000000004002400240027FFE00005D
:104D100000000000000000002000400040004000B3
:104D2000200000000001000100010001000100015D
:104D300000010001000040004000200000000000D1
:104D400000000000000000980124014401440144D7
:104D500000FC000410001FFC00880104010400880E
:104D600000700000000000700088010401040104CC
:104D70000088000000000070008801040104110890
:104D80001FFC0004000000F80144014401440144F8
:104D900000C800000000010401040FFC110411040C
:104DA00011001800000000D601290129012901C9BC
:104DB0000106000010041FFC008401000100010432
:104DC00000FC000400000104190419FC00040004A4
:104DD000000000000000000300010101190119FE9C
:104DE0000000000010041FFC0024004001B4010C6E
:104DF000010400000000100410041FFC0004000463
:104E000000000000010401FC0104010001FC010498
:104E1000010000FC010401FC008401000100010408
:104E200000FC0004000000F8010401040104010476
:104E300000F80000010101FF008501040104008861
:104E400000700000000000700088010401040105EA
:104E500001FF00010104010401FC008401040100C0
:104E600001800000000000CC012401240124012461
:104E70000198000000000100010007F8010401048E
:104E800000000000010001F8000400040004010813
:104E900001FC0004010001800170000C00100160A1
:104EA0000180010001F0010C003001C00030010C54
:104EB00001F0010000000104018C00740170018CFC
:104EC00001040000010101810171000E0018016060
:104ED0000180010000000184010C013401440184BF
:104EE000010C0000000000000000000001003EFC7A
:104EF000400240020000000000000000FFFF000030
:104F0000000000000000400240023EFC01000000E2
:104F100000000000000060008000800040004000B1
:104F20002000200000000000000000000000000041
:104F30000000000000000000000000000000000071
:104F40000000000000000000000000000000000061
:104F5000000000000000000F80380FFE380F80387E
:104F60000000000000000000000000000000000041
:104F700000000100000600000C00003800003100B5
:104F8000000600000C0000380000300000000000A7
:104F90000000000061800067F807F9800061800070
:104FA00061800061800061800067F807F98000611E
:104FB0008000000000000000000001C0E003E0F0FD
:104FC0000630080418081FFFFE040E080787F003C8
:104FD00081E000000000000001F000060C00040465
:104FE00008060C7001F9C0000E00003BE000EC1850
:104FF000070808040C180003E00000000001E000AE
:1050000007F003F818041C0804170807E1D003C0D0
:10501000E00023B0003C0800200800001000000061
:105020000000000100003100003200001C00000000
:105030000000000000000000000000000000000070
:105040000000000000000000000000000000000060
:10505000000000007F0001FFC00780F00C00181066
:1050600000042000020000000000002000021000E8
:10507000040C00180780F001FFC0007F0000000052
:105080000000000000000000000000000000000020
:105090004200006600006600003C0000180003FFAC
:1050A000C0001800003C00006600006600004200DE
:1050B00000000000080000080000080000080000D0
:1050C000080001FFC00008000008000008000008F8
:1050D0000000080000000000000100003100003264
:1050E00000001C00000000000000000000000000A4
:1050F00000000000000000000000000008000008A0
:105100000000080000080000080000080000080077
:105110000008000008000008000000000000000077
:1051200000000000380000380000380000000000D7
:10513000000000000000000000000000000000006F
:1051400000000000000600001C000070000180004C
:105150000E0000380000C0000700001C00003000F6
:1051600000000000000000007F8001FFE00380706D
:1051700006001804000804000806001803807001E7
:10518000FFE0007F80000000000000000000010040
:105190000801000801000803FFF807FFF8000008F5
:1051A00000000800000800000000000000000001EE
:1051B000C03802C0580400980401180402180404FE
:1051C00018061C1803F81801E0F8000000000000A1
:1051D00000000001C0E003C0F00400080408080457
:1051E000080806180803F41801E7F00001E00000C1
:1051F00000000000000000000300000D000011008E
:1052000000610000810803010807FFF80FFFF800A4
:1052100001080001080000000000000000E007FC99
:10522000D0060808061008061008061008061838E8
:10523000060FF00607C0000000000000000000009C
:105240003F8001FFE00384300208180410080410B6
:1052500008041008071810030FF00007C000000032
:1052600000000000000003C0000700000600000668
:1052700000F80607F806180006E000070000060020
:105280000000000000000001E1E003F7F006341028
:10529000041808041808040C08040C08061618035F
:1052A000F3F001C1E000000000000000F80003FC82
:1052B000300306380402080402080402080404103B
:1052C0000308F001FFC0007F0000000000000000A4
:1052D00000000000000000000000000070380070B6
:1052E00038007038000000000000000000000000DE
:1052F00000000000000000000000000000000000AE
:10530000301A00301C000000000000000000000007
:105310000000000000000000000000080000140071
:1053200000220000410000808001004002002004B3
:10533000001008000800000000000000210000210B
:1053400000002100002100002100002100002100B8
:1053500000210000210000210000000000000000EA
:105360000000080008040010020020010040008036
:10537000800041000022000014000008000000002E
:1053800000000003C00004C000040000080038084A
:105390000F380808380810000C300007E00003C080
:1053A00000000000000000003F8000FFE00380706C
:1053B000020F1006708804C088048308047F8802E6
:1053C000C09003012000FE4000000800001800010A
:1053D000F8003E0801C20007020007E20000FE00DC
:1053E000001FC80001F8000038000008040008078A
:1053F000FFF807FFF8040808040808040808040870
:105400000806180803F41801E7F00001E0000000A6
:10541000000000003F8001FFE003807002001804DC
:10542000000804000804000804001006002007809B
:10543000C000000004000807FFF807FFF804000898
:105440000400080400080400180200100380700122
:10545000FFE0007F8000000004000807FFF807FF5E
:10546000F8040808040808040808040808043E08AA
:10547000040008060018010060000000040008078E
:10548000FFF807FFF80408080408000408000408EF
:1054900000043E000600000600000180000000003D
:1054A000000000003F8001FFE00380700600180448
:1054B00000080402080402080203F00783F0000257
:1054C0000000020004000807FFF807FFF8040808BE
:1054D0000008000008000008000008000408080791
:1054E000FFF807FFF80400080000000000000400B7
:1054F0000804000804000807FFF807FFF804000884
:105500000400080400080000000000000000000083
:10551000000600000700000104000104000104006F
:105520000307FFFE07FFFC04000004000004000066
:1055300004000807FFF807FFF8040C080018000033
:105540003E0004C7800503C80600F80400380400C4
:105550001800000804000807FFF807FFF804000817
:105560000000080000080000080000080000080013
:10557000001800006000000004000807FFF8078022
:105580000807FC00007FC00003F80007C000780097
:1055900007800807FFF807FFF80400080400080761
:1055A000FFF807000803C00000E000003800001EFC
:1055B000000007000001C00400F007FFF80400002D
:1055C000000000007F8001FFE003807006001804E7
:1055D000000804000806001803003001FFE0007F07
:1055E0008000000004000807FFF807FFF804040823
:1055F000040400040400040400040400060C000376
:10560000F80001F000000000000000007F8001FFB2
:10561000E00380700600880400880400C806003C8F
:1056200003003E01FFE6007F84000000040008073D
:10563000FFF807FFF8040808040800040C00040F32
:1056400000040BC00610F003F03801E00800000869
:1056500000000001E0F803F03006301004180804E0
:105660001808040C08040C080206180207F0078149
:10567000E0000000018000060000040000040000BB
:1056800004000807FFF807FFF804000804000004FE
:10569000000006000001800004000007FFE007FF93
:1056A000F0040018000008000008000008000008CE
:1056B00000000804001007FFE004000004000006DA
:1056C000000007E00007FE00041FE00001F80000F2
:1056D000380001E0043E0007C0000600000400009E
:1056E00004000007E00007FFC0041FF80007C00720
:1056F000F80007FF80043FF80007C004F800070027
:105700000004000000000004000806001807C0782C
:1057100005F1C8003E00001F800463E80780F8061A
:1057200000180400080000000400000600000780C4
:105730000007E008047C08001FF80007F8001808BC
:1057400004E008070000060000040000000000015B
:1057500000080600380400F80403E8040F08047C7D
:105760000805F00807C008070018040060000000E2
:105770000000000000000000000000000000003FEA
:10578000FFFE200002200002200002200002200074
:1057900002000000000000000000080000070000F8
:1057A00000C0000038000006000001C0000030000A
:1057B000000E0000010000000000000000002000BA
:1057C000022000022000022000022000023FFFFE13
:1057D00000000000000000000000000000000000C9
:1057E0000000000000080000100000300000200051
:1057F0000030000010000008000000000000000061
:105800000000010000010000010000010000010093
:105810000001000001000001000001000001000083
:105820000100000100000000000000000020000056
:105830002000001000001000000000000000000028
:1058400000000000000000000000000000F000194F
:10585000F8001B1800220800260800240800241065
:10586000003FF8001FF800000800001800000004C6
:10587000000007FFF80FFFF00018180010080020C4
:1058800008002008003018001FF0000FC0000000C2
:105890000000000007C0001FF000183000200800C2
:1058A0002008002008003C08001C100000600000D8
:1058B000000000000000000007C0001FF0003818C2
:1058C00000200800200800200804101007FFF80F2F
:1058D000FFF00000100000000000000000000007C2
:1058E000C0001FF000123000221800220800220819
:1058F000003208001E10000E200000000000000012
:10590000200000200800200801FFF803FFF806200F
:1059100008042008042008072000030000000000FD
:1059200000000000000E000E6E001FF30031B100F9
:1059300020B10020B1003191001F13002E1E002065
:105940000E00300000000004000807FFF80FFFF809
:10595000001008002000002000002008003FF80090
:105960001FF80000080000000000000000000020F8
:1059700008002008002008063FF8063FF80000084D
:105980000000080000080000000000000000000007
:10599000000000000300000300200100200100209F
:1059A00003063FFE063FFC00000000000000000070
:1059B00000000004000807FFF80FFFF8000188004E
:1059C0000300002FC00038F8002038002008000035
:1059D00008000000000000000000040008040008A7
:1059E00004000807FFF80FFFF80000080000080097
:1059F0000008000000000000002008003FF8003F01
:105A0000F8001008002000003FF8003FF8001008E0
:105A1000002000003FF8003FF800000800000000F0
:105A20002008003FF8003FF8001008001000002098
:105A300000002008003FF8001FF8000008000000E8
:105A40000000000007C0000FF00018300030080010
:105A50002008002008003008001830000FF0000770
:105A6000C0000000000000002001003FFF003FFFD9
:105A70000010110020090020080020080030380024
:105A80001FF0000FC00000000000000007C0001F52
:105A9000F00038180020080020080020090010112C
:105AA000001FFF003FFF0000010000000020080071
:105AB0002008002008003FF8003FF8000808001008
:105AC0000800200800200000300000300000000026
:105AD000000000000000000C78001E1800330800D1
