:020000040000FA
:10000000F822002081020000890200008B0200001B
:100010008D0200008F02000091020000000000002D
:10002000000000000000000000000000930200003B
:10003000950200000000000097020000F542000059
:100040009B0200009D0200009F020000A102000030
:10005000A3020000A5020000A7020000A902000000
:10006000AB020000AD020000AF020000B1020000D0
:10007000B3020000B5020000B7020000B9020000A0
:10008000BB020000BD020000BF020000C102000070
:10009000C3020000C5020000C7020000C902000040
:1000A000CB020000CD020000CF020000D102000010
:1000B000D3020000D5020000D7020000D9020000E0
:1000C000DB020000DD020000DF020000E1020000B0
:1000D000E3020000E5020000E7020000E902000080
:1000E000EB020000ED02000000000000EF02000043
:1000F000F1020000F3020000F5020000F702000028
:10010000F9020000FB020000FD020000FF020000F7
:1001100000000000000000000103000003030000D5
:100120000503000007030000090300000B030000A3
:100130000D0300000F030000110300001303000073
:1001400000000000000000000000000000000000AF
:100150001503000017030000190300001B03000033
:10016000000000000000000000000000000000008F
:10017000000000000000000000000000000000007F
:10018000000000000000000000000000000000006F
:10019000000000000000000000000000000000005F
:1001A000000000000000000000000000000000004F
:1001B0001D0300001F0300002103000023030000B3
:1001C0002503000027030000290300002B03000083
:1001D0002D0300002F030000310300003303000053
:1001E0003503000037030000390300000000000061
:1001F000000000003B0300003D0300003F0300003F
:100200004103000043030000000000000000000064
:100210004503000047030000490300004B030000B2
:100220004D0300004F030000510300005303000082
:100230005503000057030000590300005B03000052
:100240005D0300005F030000610300006303000022
:100250006503000067030000690300006B030000F2
:100260006D0300006F03000071030000DFF80CD085
:1002700000F02AFB00480047C54F0000F82200208C
:100280003C4880473C480047FEE7FEE7FEE7FEE7C4
:10029000FEE7FEE7FEE7FEE7FEE7FEE7FEE7FEE736
:1002A000FEE7FEE7FEE7FEE7FEE7FEE7FEE7FEE726
:1002B000FEE7FEE7FEE7FEE7FEE7FEE7FEE7FEE716
:1002C000FEE7FEE7FEE7FEE7FEE7FEE7FEE7FEE706
:1002D000FEE7FEE7FEE7FEE7FEE7FEE7FEE7FEE7F6
:1002E000FEE7FEE7FEE7FEE7FEE7FEE7FEE7FEE7E6
:1002F000FEE7FEE7FEE7FEE7FEE7FEE7FEE7FEE7D6
:10030000FEE7FEE7FEE7FEE7FEE7FEE7FEE7FEE7C5
:10031000FEE7FEE7FEE7FEE7FEE7FEE7FEE7FEE7B5
:10032000FEE7FEE7FEE7FEE7FEE7FEE7FEE7FEE7A5
:10033000FEE7FEE7FEE7FEE7FEE7FEE7FEE7FEE795
:10034000FEE7FEE7FEE7FEE7FEE7FEE7FEE7FEE785
:10035000FEE7FEE7FEE7FEE7FEE7FEE7FEE7FEE775
:10036000FEE7FEE7FEE7FEE7FEE7FEE7FEE7FEE765
:10037000FEE70000454300006D0200002DE9FE4F3E
:10038000804681EA0300C00F0C46009021F0004136
:1003900023F00045B8EB0200A94105D240462146B2
:1003A00090461C460B46024623F00040104347D0BF
:1003B000270DC7F30A00C3F30A510290401A0190B7
:1003C00040286BDAC3F3130040F4801B0098924678
:1003D00020B10023D2EB030A63EB0B0B01985946C3
:1003E000C0F14002504600F0AAF906460D465046BC
:1003F0005946019A00F0C2F910EB0800614100244F
:1004000087EA115284EAE7731A4340D0009A62B334
:10041000019A012A4FEA075215DC001B61EB020129
:100420004FF0004202EA0752CDE90042001C41F5BC
:10043000801132462B4600F0F9F903B0BDE8F08F89
:1004400040462146F9E7001B61EB0201001C41F523
:10045000801300185B412018A2F5001747EB030139
:1004600040EAD570B6196D4111E06D084FEA3606C5
:1004700045EAC0754FEA0752001B61EB0201001C00
:1004800041F5801149084FEA3000001951413246C8
:100490002B4603B0BDE8F04F00F0B9B90098012237
:1004A00040000023D0EB020263EBE073009821468A
:1004B0004FEAE074B8EB000061EB0401E9E783F078
:1004C00000435BE781F0004158E72DE9FE4F81EAE8
:1004D000030404F0004421F0004100944FF0000BAD
:1004E00023F0004350EA01045ED052EA03045BD0DB
:1004F000C3F30A54C1F30A552C44A4F2F334019413
:10050000A0FB0254C1F3130141F48011C3F31303A0
:1005100043F4801301FB024400FB034E840A970A54
:1005200044EA815447EA8357A4FB076802958D0A81
:1005300005FB07854FEA932C04FB0C542705029D0D
:100540004FEA065847EA1637B5EB08056EEB070C7D
:10055000870E920E47EA811742EA8312A7FB020137
:10056000B6EB0B0164EB00042B0D43EA0C335E1871
:1005700044EB1C50DA465146E7FB0201C5F3130475
:100580004FEA0B3343EA14534FEA0432019C43EA27
:100590000603A4F10C040294009CCDE900B400F021
:1005A00045F903B0BDE8F08F00200146F9E72DE9D9
:1005B000F04D81EA030404F0004B21F0004514469D
:1005C0004FF0000A23F0004150EA050220D054EA1F
:1005D00001021DD0C5F30A570246C5F31303C1F348
:1005E0001300C1F30A5640F4801543F48013A7EBBF
:1005F0000608101BD64608F2FD3873EB050002D33F
:1006000008F1010801E092185B41B8F1000F03DA2C
:1006100000200146BDE8F08D00204FF48011064611
:1006200084460EE0171B73EB050705D3121B63EB23
:10063000050306434CEA010C49084FEA30009218C2
:100640005B4150EA0107EDD152EA030012D082EA81
:10065000040083EA0501084305D0101BAB4106D214
:100660000122002306E000224FF0004302E06FF079
:10067000010253101AEB06004CEB085110EB0A0074
:1006800041EB0B01BDE8F04D00F0C1B80EB5C10F54
:1006900080EAE0700844CA07002140F233438DE845
:1006A0000E000A460B4600F0C1F803B000BD0EB5BF
:1006B00040F2334102910021CDE900110A460B4678
:1006C00000F0B4F803B000BD70B5C1F30A5201F0F8
:1006D00000450024C1F3130140F2FF3341F48011BF
:1006E0009A4201DA002070BD40F233439A42A2F2EE
:1006F000334203DC524200F031F800E090402C43DA
:10070000F1D0404270BD01F0004330B421F000410F
:1007100050EA010206D00A0DA2F56072C1F313017E
:10072000002A02DC30BC00207047440F44EAC104B8
:10073000C100E01830BC00EBC25000F031B8202AF4
:1007400004DB203A00FA02F1002070479140C2F128
:10075000200320FA03F3194390407047202A04DB5A
:10076000203A21FA02F00021704721FA02F3D0402A
:10077000C2F120029140084319467047202A06DB47
:10078000CB17203A41FA02F043EAE07306E041FA5F
:1007900002F3D040C2F1200291400843194670474D
:1007A0000029A8BF7047401C490008BF20F0010085
:1007B000704710B4B0FA80FC00FA0CF050EA010463
:1007C00004BF10BC704749B1CCF1200421FA04F4F5
:1007D00011FA0CF118BF012121430843A3EB0C01CE
:1007E000CB1D4FEA00614FEA102042BF002010BC31
:1007F000704700EBC35010440029A4BF10BC7047E1
:10080000401C490008BF20F0010010BC704710B523
:10081000141E73F1000408DA401C41F10001921823
:100820005B411A4301D120F0010010BD2DE9F04DCC
:1008300092469B4611B1B1FA81F202E0B0FA80F221
:1008400020329046FFF77BFF04460F4640EA0A003D
:1008500041EA0B0153465A46084313D0114653EA66
:10086000010019D0C8F140025046FFF777FF054656
:100870000E46504659464246FFF761FF084305D0F1
:10088000012004E020463946BDE8F08D00200543F4
:1008900046EAE0762C4337430A986305E40AA0EB66
:1008A00008000022FD0A44EA47540A3002D500201D
:1008B0000146E9E7010510196941DDE9084500191C
:1008C0006941BDE8F04DA2E7064C074D06E0E0683F
:1008D00040F0010394E8070098471034AC42F6D387
:1008E000FFF7C8FC605500008055000070B58C18FB
:1008F00010F8015B15F0070301D110F8013B2A1134
:1009000006D110F8012B03E010F8016B01F8016B20
:100910005B1EF9D12B0705D40023521E0DD401F81C
:10092000013BFAE710F8013BCB1A921C03E013F8E5
:10093000015B01F8015B521EF9D5A142D8D300201A
:1009400070BD000010B54FF08070406A0021026950
:10095000054890474FF08070406A044A00210368C0
:100960000148984710BD000000800340E0010020CE
:1009700070B5164C2368DFF858C003EA0C05154B18
:10098000A5F18056B6F5A0260AD0246804EA0C0C1E
:10099000ACF18054B4F5202418BF002406D00CE03C
:1009A000984218BF01F1400407D104E0984218BFF3
:1009B00001F13E0401D101F11E041146204602F06E
:1009C000CFFB2046BDE8704002F098BB00E00F402E
:1009D0000000FF7000800340FF20394981F84E007D
:1009E00064213748A0F850100121A0F85210FF20D0
:1009F000334981F8800114213148A0F88211002187
:100A0000A0F88411FF202E4981F8200100212C48F4
:100A1000A0F82211A0F82411FF20294981F82C0107
:100A200000212748A0F82E11A0F83011FF202449FA
:100A300081F8320100212248A0F83411A0F83611C3
:100A4000FF201F4981F8380100211D48A0F83A1104
:100A5000A0F83C11FF201A4981F8860100211848AE
:100A6000A0F88811A0F88A11FF20154981F84005E7
:100A700000211348A0F84215A0F84415FF201049A2
:100A800081F84C0500210E48A0F84E15A0F850152D
:100A9000FF200B4981F8A60532210948A0F8A815C6
:100AA0000021A0F8AA15FF20054981F8AC056421B2
:100AB0000348A0F8AE150021A0F8B015704700005B
:100AC000040700202DE9F04104460D4600260027CA
:100AD000E178A81F814201D0BDE8F081002006E046
:100AE000215C3144CEB2B919CFB2411CC8B2A91EA3
:100AF0008142F5DC601910F8020CB04204D1601993
:100B000010F8010CB84200D0E6E72078AA2805D1F9
:100B10006078612803D06078FF2800D0DCE7A078F7
:100B2000202811D1A0886A490880E088488020895F
:100B300088806089C880A0890881E0894881208AEE
:100B40008881608AC881C0E0A0780F280DD1207903
:100B500040B260490870607940B24870A07940B2F4
:100B60008870E07940B2C870AFE0A07806280CD158
:100B70002079594948706079C870A0790871E17985
:100B800055484171217A81719FE0A07807280AD1E8
:100B9000002005E0211D095C504A1154411CC8B2D7
:100BA0000628F7DB91E0A078032824D1002005E097
:100BB000211D095C4A4A1154411CC8B20728F7DBC1
:100BC000002005E0211D095C464A1154411CC8B2B1
:100BD0000928F7DB207A617A40EA012000B2424915
:100BE00048820846B0F91200642190FBF1F000B28F
:100BF0003D49488269E0A078052805D1A068C82849
:100C000001DA3949486060E0A078E0281ED12079F7
:100C1000012806D0022805D0102804D0112804D1BC
:100C200002E003E002E001E000E000BF00BF207945
:100C30002E4981F80C06084680F80D6680F80E767D
:100C400000F20C61AF2000F073FD3EE0A078B0B977
:100C5000264890F80F062179884236D1234890F82B
:100C600010066179884230D1204890F81106A179A8
:100C700088422AD100201D4981F8000625E0A0788D
:100C8000E12811D12179607901EB00201FFA80F869
:100C90001648A0F814860021C0F8181600F2146156
:100CA000FF2002F095FD10E0A078E2280DD1207918
:100CB0000E4981F80C06084680F80D6680F80E761D
:100CC00000F20C61FF2000F033FD00BF04E70000DC
:100CD0002E0E0020E4010020880E0020B500002028
:100CE000AE0000203E0E0020940E002004070020DD
:100CF00010B504463F48007838B9AA2C05D1012028
:100D00003C4908703C48047072E03A480078012879
:100D100009D1612C01D0FF2C05D102203549087082
:100D20003548447064E033480078022805D1032038
:100D300030490870304884705AE02E480078032803
:100D40000CD1FA2C0ADA04202A4908702A48C47007
:100D50002A48047000202A49087049E02548007894
:100D6000042819D125480078002815DD234800788B
:100D7000401E224908702248007821490978491C00
:100D80001F4A1170001D1C490C541C48007858BBA8
:100D90000520184908702BE01648007805280DD169
:100DA0000620144908701648007815490978491C2E
:100DB000134A1170001D10490C5419E00D480078B9
:100DC000062812D100200B4908700D480078001D3C
:100DD00009490C540A480078401D0A490870084621
:100DE00001780548FFF76EFE02E000200149087017
:100DF00010BD0000A8000020200D0020A60000204B
:100E0000A7000020A400002070B504460D46294626
:100E1000204601F03BFD70BD10B52DED028BB0EE0C
:100E2000408A00F08DFC302000F0CCFC322000F035
:100E3000C9FC332000F0C6FC342000F0C3FC402085
:100E400000F0C0FC412000F0BDFCE02000F0BAFC46
:100E5000E22000F0B7FC0D2000F0B4FCF12000F01F
:100E6000B1FCF22000F0AEFCBDEC028B10BD000026
:100E700010B523480088401C214908800846008896
:100E80000A2190FBF1F201FB12001D49088008467F
:100E9000008810BB9FED1B0A00F0B2FF9FED190AFE
:100EA00002F0F2FF9FED170A02F050FA9FED150ACB
:100EB00000F04EFA12484088401C1149488008460C
:100EC00040880A2190FBF1F201FB12000C49488096
:100ED0000846408808B900F0E3FB01F013FD01204B
:100EE00001F0CEFF9FED080A02F000FA9FED060A1E
:100EF000FFF792FF012001F08BFD02F04BF910BDCE
:100F0000C40000200AD7233C6F12833A7CB5034605
:100F1000402B77D00DDC322B48D005DCB3B10D2B44
:100F20002AD0302B6DD134E0332B4DD0342BF9D176
:100F300058E0E22B73D004DC412B73D0E02BF1D1CD
:100F40007DE0F12B6DD0F22BECD153E1DD4890F830
:100F50000C460D78681C08705455DA4890F80D4618
:100F60000D78681C08705455D64890F80E460D78D8
:100F7000681C08705455A3E1002007E0D24C255CA2
:100F80000E78741C0C709555441CE0B20428F5DBF7
:100F900096E1002007E0CD4C255C0E78741C0C70A7
:100FA0009555441CE0B21728F5DB89E1002008E0E4
:100FB000C64C133C255C0E78741C0C709555441C73
:100FC000E0B20C28F4DB7BE1002008E0BF4C193CC8
:100FD000255C0E78741C0C709555441CE0B20628F4
:100FE000F4DB6DE1002008E0B84CE41F255C0E78CE
:100FF000741C0C709555441CE0B20728F4DB5FE1CB
:1010000000E05CE1002007E0B14C255C0E78741C28
:101010000C709555441CE0B21428F5DB50E122E039
:1010200000E04EE0002007E0AA4C255C0E78741C1E
:101030000C709555441CE0B20E28F5DB40E1A14848
:1010400090F801460D78681C08705455002007E0A0
:10105000A14C255C0E78741C0C709555441CE0B2B4
:101060000A28F5DB2CE19748B0F8140600B201908D
:101070009DF804400D78681C087054559DF8054093
:101080000D78681C087054558E48D0F818060090EA
:101090009DF800400D78681C087054559DF801407B
:1010A0000D78681C087054559DF802400D78681C36
:1010B000087054559DF803400D78681C087054550D
:1010C000FEE08648808901909DF804400D78681CF8
:1010D000087054559DF805400D78681C08705455EB
:1010E0007E48C08901909DF804400D78681C087006
:1010F00054559DF805400D78681C08705455784883
:1011000090F8590001909DF804400D78681C087013
:1011100054557448408901909DF804400D78681C2E
:10112000087054559DF805400D78681C087054559A
:101130006C48808901909DF804400D78681C087007
:1011400054559DF805400D78681C08705455644846
:10115000406800909DF800400D78681C0870545558
:101160009DF801400D78681C087054559DF80240A8
:101170000D78681C087054559DF803400D78681C64
:1011800008705455564890F8650001909DF8044049
:101190000D78681C087054555148408A01909DF89C
:1011A00004400D78681C087054559DF805400D7872
:1011B000681C087054554748008901909DF8044008
:1011C0000D78681C087054559DF805400D78681C12
:1011D000087054553F48408901909DF804400D78AF
:1011E000681C087054559DF805400D78681C0870FF
:1011F000545565E03A48B0F8500001909DF804401D
:101200000D78681C087054559DF805400D78681CD1
:1012100008705455324890F85A0001909DF80440E7
:101220000D78681C087054552D4890F8670001909F
:101230009DF804400D78681C087054552848B0F893
:10124000680001909DF804400D78681C08705455A2
:101250009DF805400D78681C087054552048B0F87A
:101260006A0001909DF804400D78681C0870545580
:101270009DF805400D78681C087054551848B0F862
:101280005C0001909DF804400D78681C087054556E
:101290009DF805400D78681C087054551048B0F84A
:1012A0005E0001909DF804400D78681C087054554C
:1012B0009DF805400D78681C0870545500E000BF8B
:1012C00000BF7CBD04070020AA000020710E002092
:1012D0003E100020200E0020060D0020040F0020EC
:1012E000940E00207010002010B500F0EFFF642075
:1012F00002F05CF901F04AFB00F00AFC642002F005
:1013000055F94FF4E13001F083F84FF4E13001F08A
:101310000DF90E4801F0B2F90C4801F03DFA6420D5
:1013200002F044F900F060FD00F094FA642002F04D
:101330003DF9FFF751FB4FF4487002F037F902F026
:1013400005FB00F0EBFF012010BD000020A107000D
:1013500008B52C48D0ED000A9FED2B1AF4EEC10A17
:10136000F1EE10FA0BD2D0ED000AB7EE001A70EED3
:10137000810AC0ED000A01202449887002E00020A3
:10138000224988701F48D0ED010A9FED1F1AF4EE24
:10139000C10AF1EE10FA0BD2D0ED010AB7EE001A35
:1013A00070EE810AC0ED010A01208DF8000002E014
:1013B00000208DF800001348D0ED020A9FED121AAC
:1013C000F4EEC10AF1EE10FA0BD2D0ED020AB7EE3C
:1013D000001A70EE810AC0ED020A01208DF80100AA
:1013E00002E000208DF801009DF8000030B19DF86A
:1013F000010018B101200549C87002E0002003492E
:10140000C87008BDE01000200000FA4370100020F2
:1014100070B500220024C5788B1F9D4200D070BD9E
:10142000002306E0C55C1544EAB2A518ECB25D1CC9
:10143000EBB28D1E9D42F5DC431813F8023C93423B
:1014400004D1431813F8013CA34200D0E7E78378A6
:10145000512B38D103795BB943794A4D6B7183794C
:101460005BB2AB71C3795BB2EB71037A2B7186E02F
:101470000379012B12D14379424D2B72C3886B81C2
:101480000389AB81837A2B719FED3F0A3F4B83ED3C
:10149000010A2B461B785B1C2B7070E00379022B32
:1014A0006DD14379374DAB73C3882B8203896B822F
:1014B0004389AB828389EB82C3892B83038A6B8345
:1014C000837C2B715BE08378342B10D1D0F807300C
:1014D000C82B01D22B4DEB619FED2B0A2B4D85EDD7
:1014E000020A284D6D786D1C264E757047E0837892
:1014F000012B0DD18388234D2B86C3886B860389EE
:10150000AB864389EB8683892B87C3896B8736E05B
:101510008378042B33D1B0F9043000EE103AB8EEE2
:10152000C00ADFED1B0A20EE200A164B83ED080AE5
:10153000B0F9063000EE103AB8EEC00ADFED140A3A
:1015400020EE200A0F4B83ED090AB0F9083000EEB7
:10155000103AB8EEC00ADFED0E0A20EE200A094B61
:1015600083ED0A0AB0F90A3000EE103AB8EEC00A6C
:10157000DFED070A20EE200A024B83ED0B0A00BFC5
:101580004DE700007010002000000000E010002077
:1015900017B7D13810B504463D48007838B9AA2CA1
:1015A00005D101203A4908703A4804706FE0384884
:1015B0000078012809D1612C01D0FF2C05D102202F
:1015C000334908703348447061E03148007802289C
:1015D00005D103202E4908702E48847057E02C480E
:1015E000007803280CD1FA2C0ADA04202849087064
:1015F0002848C4702848047000202849087046E034
:1016000023480078042819D123480078002815DDE4
:1016100021480078401E20490870204800781F4962
:101620000978491C1D4A1170001D1A490C541A48AA
:10163000007840BB05201649087028E0144800785F
:1016400005280DD106201249087014480078134966
:101650000978491C114A1170001D0E490C5416E0FE
:101660000B48007806280FD10020094908700B4864
:101670000078001D07490C5408480078401DC1B28D
:101680000448FFF7C5FE02E000200149087010BDC4
:1016900009010020AC1000200701002008010020F3
:1016A00010B501F03BF9DFED050A20EE200ABCEE93
:1016B000C00A10EE100A0249088010BD0000C8429E
:1016C000AA0000201749097831B101290CD002295C
:1016D00012D0032923D117E0672804D111490978D2
:1016E000491C104A11701BE0942804D10D49097857
:1016F000491C0C4A117013E00B490870094909781C
:10170000491C084A11700BE0E22804D10649097807
:10171000064A82F858100021024A117000E000BF0A
:1017200000BF7047C1010020C0010020940E0020BE
:10173000024A10700122014B5A70704704070020C2
:10174000164890F80006012821D115480078322863
:1017500005DA13480078401C114908701CE000208D
:101760000F4908700F480078401C0E490870084661
:101770000078052804DA0121084880F841150BE0BB
:10178000002008490870054981F8000604E000209F
:1017900003490870034908707047000004070020DF
:1017A000A9000020A5000020054A82F84005012379
:1017B00082F841350122024B83F800267047000071
:1017C0000407002010B5044604EB4400204901EB57
:1017D0004000408828B304EB440001EB40008088BF
:1017E00004EB44011A4A02EB4101498888420CDAB1
:1017F00004EB4400114601EB40008088401C04EBE0
:10180000440102EB410188800BE0012004EB44011C
:101810000F4A02EB4101888004EB440102EB4101D5
:10182000487004EB44000A4901EB4000407868B17D
:10183000002004EB4401064A02EB4101487004EB2E
:10184000440002EB4001204601F0B6FA10BD000052
:101850000407002010B54FF08070406C8169264865
:1018600088474FF08070406C81692448884700BFEA
:101870004FF08070406CD0F88C101F4888470028CB
:10188000F6D04FF08070006A0821C26D1C48904766
:101890004FF08070406A00231A461946C4691948FF
:1018A000A0474FF08070406A602300221146046A0E
:1018B0001448A047144A00211248FFF759F84FF086
:1018C0008070806CD02182691E2090474FF080701C
:1018D000406A002182680B4890474FF08070406A50
:1018E00000214269074890474FF08070406A00210C
:1018F00002690448904710BD003800F0040800F069
:1019000000400240008003404509000010B5044635
:1019100004F0010040B14FF08070006A02221146CD
:1019200003682548984707E04FF08070006A00225E
:10193000022103682048984704F0020040B14FF0AC
:101940008070006A0122114603681B48984707E02F
:101950004FF08070006A0022012103681648984702
:1019600004F0040048B14FF08070006A4022114634
:1019700003684FF04020984708E04FF08070006AFD
:101980000022402103684FF04020984704F00800EF
:1019900040B14FF08070006A0022102103680748B0
:1019A000984707E04FF08070006A102211460368E4
:1019B0000248984710BD00000070004000500240EF
:1019C0001FB5044600201DE034F91010B1F57A7FF0
:1019D00003DB40F2E73124F8101034F9101000EE68
:1019E000101AF8EEC00A9FED2E0AB7EE041A01EEA7
:1019F000200ABCEEC00A10EE101A89B22DF81010A1
:101A0000411CC8B20828DFDBBDF800204FF0807011
:101A1000006B4021036823489847BDF802204FF02F
:101A20008070006B412103681E489847BDF8042070
:101A30004FF08070006B822103681A489847BDF808
:101A400006204FF08070006B83210368154898478B
:101A5000BDF808204FF08070006BC4210368124865
:101A60009847BDF80A204FF08070006BC5210368CD
:101A70000D489847BDF80C204FF08070006B4FF474
:101A80008371036808489847BDF80E204FF08070B6
:101A9000006B40F207110368034898471FBD000020
:101AA00000409C44008002400090024040F6C41177
:101AB000884203DD14490978032903DC12490978B7
:101AC0000A290DD10021104A11701049B1F84E10A9
:101AD000491C0E4AA2F84E10012182F8501012E063
:101AE000B0F5967F0FDD40F6B83188420BDA02B2CE
:101AF0000649891C044B1B7821F8132002490978F8
:101B0000491C014A11707047F400002004100020A5
:101B10001FB54FF08070406C8169A44888474FF032
:101B20008070406C8169A148401C88474FF08070EC
:101B3000406C81699E4888474FF08070406C816995
:101B40009B48401C88474FF08070406C81699848E2
:101B5000401D88474FF08070406C416E4FF4D010AC
:101B600088474FF08070406CD0F88810022088477A
:101B70004FF08070006A816E8E4888474FF0807009
:101B8000006A816E8C4888474FF08070006A816ED1
:101B90008A4888474FF08070006A816E884888477D
:101BA0004FF08070006A4021426C864890474FF0A9
:101BB0008070006A8021426C824890474FF08070AC
:101BC000006A1021426C7F4890474FF08070006A95
:101BD0002021426C7B4890477B487C49086001206B
:101BE000091D08600020091F08604FF08070006A1E
:101BF000816E4FF0051088474FF08070006A816E4B
:101C0000734888474FF08070006A816E714888473A
:101C10004FF08070006A816E6F4888474FF0807087
:101C2000006A0121426C6D4890474FF08070006A55
:101C30000221426C694890474FF08070006A04218D
:101C4000426C664890474FF08070006A0821426CF1
:101C5000624890474FF08070006A816E41F60540FF
:101C600088474FF08070006A8021426C4FF040201E
:101C700090474FF08070006B002240214368584825
:101C800098474FF08070006B0022802143685448D1
:101C900098474FF08070006B0222802143685148C2
:101CA00098474FF08070006B0022C02143684D4878
:101CB00098474FF08070006B00224FF480714368AA
:101CC000484898474FF08070006B40F635424021FD
:101CD0008368434898474FF08070006B40F6354268
:101CE000802183683E4898474FF08070006B40F633
:101CF0003542802183683B4898474FF08070006BE5
:101D000040F63542C0218368364898474FF08070CE
:101D1000006B40F635424FF4807183683148984734
:101D20004FF08070006B402102692D4890474FF0C2
:101D30008070006B80210269294890474FF08070C5
:101D4000006B80210269274890474FF08070006B3C
:101D5000C0210269234890474FF08070006B4FF418
:101D6000807102691F4890474FF08070006B01221C
:101D70000F21C36A1A4898474FF08070006B012208
:101D8000F021C36A174898474FF08070006B01221A
:101D90000821C36A134898470020009001900290E0
:101DA00003906846FFF70CFE1FBD0000004000F0E6
:101DB000000800F004180100041C010004100100D8
:101DC00004140100005000404B434F4C205502408A
:101DD0000504050005080500050C0500005002403B
:101DE000008002400090024010B500F085F801200C
:101DF000024981F8380081F8390010BD0410002034
:101E000010B52DED020B684603F00EF9364890F838
:101E10003800002854D13448007801280DD1002022
:101E200008E03149891C31F81020383121F81020A0
:101E3000411CC8B20A28F4DB22E02B4800780228B3
:101E40001ED100201AE02849143131F91010A1F5F3
:101E5000806100EE101AF8EEC00A9FED240A9FED93
:101E6000241A01EE200ABDEEC00A10EE101A0AB2C2
:101E70001D493A3121F81020411CC8B20A28E2DB82
:101E80001948B0F94200B0F5966F05DD1648B0F973
:101E90004200B0F5AF6F0BDB1348B0F94200B0F56C
:101EA000C86F09DD1048B0F94200B0F5E16F03DA00
:101EB00001201049087011E000200E4908700DE063
:101EC00001200C490870002006E0002206493A3142
:101ED00021F81020411CC8B20A28F6DB054800781A
:101EE000014981F839001CBD041000200080BB446A
:101EF0002FDD243F0601002010B54FF08070406CAC
:101F000081692B4888474FF08070406C816929486F
:101F100088474FF08070006A4021026D2648904744
:101F20004FF08070006A816E244888474FF08070BF
:101F3000C06B2349C268234890474FF08070C06B44
:101F40000022FF2183691F4898474FF08070C06BC3
:101F50004FF6FF72FF21836B1A4898474FF080704D
:101F6000C06BFF221146836A16489847164AFF2124
:101F7000144802F081FC4FF08070806CD02182699F
:101F8000702090474FF08070C06B0421C26C0D48E8
:101F900090474FF08070C06BFF214268094890471E
:101FA0004FF08070806C01687020884710BD000081
:101FB000020800F0015C00F0006000400718020019
:101FC0001700000400700340B13B000070B54FF0F3
:101FD0008070406C8169244888474FF08070406C65
:101FE0008169224888474FF08070006A816E2048DE
:101FF00088474FF08070006A4021426D1D4890472D
:1020000002F0CEF805464FF0807040696E231A4A00
:10201000294644691948A0474FF080704069002262
:102020001146C368154898474FF080704069016EAB
:10203000124888474FF080704069C1690F4888474F
:102040000F490E4802F0FCFC4FF08070806CD021EC
:1020500082694B2090474FF0807040694FF4826155
:10206000426C0648904770BD020800F0031800F06B
:102070000118020000600040A086010000F000404E
:102080000141000038B504468AA0006800908A48E3
:1020900040688949086000F0E1FF874948600846C8
:1020A00040680968401A40F6C411884202D90020ED
:1020B00082490870814801780078401C7F4A10707E
:1020C0007F4844541046007819287CD118201146C6
:1020D00008707B4800780F2876D17948007E38B1A7
:1020E0007748007E774A12781DF802108842F3D1B3
:1020F000002072490870724840787149897801F06F
:10210000070140EA0120704988826D48C078800646
:10211000400D6B49897840EAE1006B49C882684804
:102120004079C007400D6649097940EA8100644959
:10213000C97840EAA11064490883614880790007A2
:10214000400D5F49497940EA61005F4948835C4836
:10215000C0794006400D5A49897940EA21105A4910
:1021600088835748407A8007400D5549097A40EAEC
:1021700041005349C97940EAE1105349C8835048A6
:10218000807AC006400D4E49497A40EAA1004E4986
:1021900008844B48C07AC0004949897A40EA6111F5
:1021A000494841844648007B4549497B01F0070185
:1021B00040EA0120444988844148807B8006400DE4
:1021C0003F49497B01E074E069E040EAE1003E49B3
:1021D000C8843B48007CC007400D3949C97B40EAB0
:1021E00081003749897B40EAA11037490885344886
:1021F000407C0007400D3249097C40EA61003249C9
:1022000048852F48807C4006400D2D49497C40EA96
:1022100021102D4988852A48007D8007400D2849D6
:10222000C97C40EA41002649897C40EAE110264900
:10223000C8852348407DC006400D2149097D40EAFC
:10224000A100214908861E48807DC0001C49497DA7
:1022500040EA61111C4841861948C07D1A4981F83D
:102260003400084690F8340000F0080040B90846F1
:10227000B0F84E00401CA1F84E00022081F850003A
:1022800010480078401C0F4908700878C11700EB0F
:1022900091718910A0EB81010A4A117009E00020B8
:1022A00005E0074A411C515C1154411CC8B2182872
:1022B000F7DB38BD04142434F800002000010020AE
:1022C00056100020010100200410002010B54FF02E
:1022D0008070406CC16D0E488847032002460D4B4C
:1022E00019684FF6FF0319400B4B0B4343EA0221D9
:1022F000084B196000BF4FF08071896F08698047F3
:102300004FF08071896F0868804701F0FFFF10BDB2
:10231000400500C10CED00E00000FA0510B54FF0DB
:102320008070406C8169194888474FF08070C06B9D
:102330002221C2681648904701F032FF4FF47A71AB
:10234000B0FBF1F44FF08070C06B2246FF21836B2D
:102350000F4898474FF08070806CE02182692320FD
:1023600090474FF08070C06B0121C26C08489047C5
:10237000084AFF21064802F07FFA4FF08070C06BD8
:10238000FF2142680248904710BD0000000400F0A1
:10239000000003406148000070B504460D4600206F
:1023A0000AE0225C07490B780978491C054E317018
:1023B0000549CA54411CC8B2A842F2DB00F006F835
:1023C00070BD0000FC010020F813002010B504E0EF
:1023D0000B480078401C0A490870094800780949F0
:1023E000097888420BD00848054B1B78C15C4FF038
:1023F00080704069C26B054890470028E8D110BD45
:10240000FD010020FC010020F813002000C0004066
:1024100070B504464FF08070406C81692B48884746
:102420004FF08070406C8169294888474FF0807078
:10243000006A816E274888474FF08070006A816E7D
:10244000254888474FF08070006A3021426D23484C
:1024500090474FF08071496C086E804706464FF0F8
:102460008070406960232246314645691C48A84770
:102470004FF08070406920220421C36818489847B3
:102480004FF080704069016E154888474FF08070AA
:102490004069C169124888471249114802F0D0FAD0
:1024A0004FF08070806C402182694C2090474FF043
:1024B000807040691021C26E094890474FF08070CB
:1024C00040697021426C0648904770BD041800F0C6
:1024D000020800F001100200011402000060004038
:1024E00000000140E148000010B504E00B4800780E
:1024F000401C0A490870094800780949097888424F
:102500000BD00848054B1B78C15C4FF080704069C8
:10251000C26B054890470028E8D110BDFF0100209C
:10252000FE010020F81400200000014070B50446B0
:102530004FF08070406C81692B4888474FF0807065
:10254000406C8169294888474FF08070006A816E2D
:10255000274888474FF08070006A816E2548884779
:102560004FF08070006A3021426D234890474FF051
:102570008071496C086E804706464FF08070406954
:1025800060232246314645691C48A8474FF08070B9
:10259000406920220421C368184898474FF0807092
:1025A0004069016E154888474FF080704069C169E5
:1025B000124888471249114802F042FA4FF08070E1
:1025C000806C402182694D2090474FF080704069B7
:1025D0001021C26E094890474FF080704069702109
:1025E000426C0648904770BD051800F0040800F0E2
:1025F00001100400011404000040024000100140DA
:102600003949000070B504460D4600200AE0225CFE
:1026100007490B780978491C054E31700549CA54A1
:10262000411CC8B2A842F2DB00F006F870BD000001
:1026300000020020F815002010B504E00B480078D7
:10264000401C0A49087009480078094909788842FD
:102650000BD00848054B1B78C15C4FF08070406977
:10266000C26B054890470028E8D110BD0102002048
:1026700000020020F81500200010014070B504464B
:102680004FF08070406C81692B4888474FF0807014
:10269000406C8169294888474FF08070006A816EDC
:1026A000274888474FF08070006A816E2548884728
:1026B0004FF08070006A0321426D234890474FF02D
:1026C0008071496C086E804706464FF08070406903
:1026D00060232246314645691C48A8474FF0807068
:1026E000406920220421C368184898474FF0807041
:1026F0004069016E154888474FF080704069C16994
:10270000124888471249114802F09AF94FF0807038
:10271000806C402182694F2090474FF08070406963
:102720001021C26E094890474FF0807040697021B7
:10273000426C0648904770BD071800F0040800F08E
:102740000100040001040400004002400030014088
:102750009149000010B504E00B480078401C0A497C
:102760000870094800780949097888420BD0084860
:10277000054B1B78C15C4FF080704069C26B054807
:1027800090470028E8D110BD03020020020200207B
:10279000F81600200030014070B504464FF08070FC
:1027A000406C8169304888474FF08070406C816987
:1027B0002E4888472E482F4908608020091D086050
:1027C0000020091F08604FF08070006A816E2A485F
:1027D00088474FF08070006A816E284888474FF024
:1027E0008070006AC021426D254890474FF080718B
:1027F000496C086E804706464FF080704069602340
:102800002246314645691F48A8474FF0807040690D
:1028100020220421C3681B4898474FF0807040690C
:10282000016E184888474FF080704069C1691548AB
:1028300088471549134802F003F94FF08070806C07
:1028400040218269312090474FF08070406910210B
:10285000C26E0C4890474FF0807040697021426C06
:102860000848904770BD0000021800F0030800F00F
:102870004B434F4C2075004001180300011C03001E
:102880000070004000E00040E949000070B50446D7
:102890000D4600200AE0225C07490B780978491CA4
:1028A000054E31700549CA54411CC8B2A842F2DB3A
:1028B00000F006F870BD000004020020F8170020A8
:1028C00010B504E00B480078401C0A49087009481C
:1028D00000780949097888420BD00848054B1B78D5
:1028E000C15C4FF080704069C26B0548904700287A
:1028F000E8D110BD0502002004020020F8170020D6
:1029000000E0004010B5FFF761FDFFF7EDFDFFF7B8
:1029100093FEFFF71FFFFFF7D3FF10BD10B52DED9E
:10292000088B02F043FB12480068FDF7C0FE41EC43
:102930001B0B9FED100B53EC102BFDF7C6FD41EC6C
:102940001A0B9FED0E0B53EC102BFDF730FE41ECF4
:10295000190B9FED0C0B53EC102BFDF7B6FD41EC62
:10296000180BFDF7D0FE00EE100ABDEC088B10BD71
:10297000E00100206666666666660A4000000000A8
:1029800000FEAF40000000000000264010B54FF0F0
:102990008070406C81691B4888474FF08070406CA4
:1029A0008169184888474FF08070406C81691548EC
:1029B000C01E88474FF08070406C81691148801CB0
:1029C00088474FF08070006A0121C26B0E48904723
:1029D0004FF08070006A0221C26B0B4890474FF0A5
:1029E0008070006A4021C26B4FF0402090474FF04A
:1029F0008070006A1021C26B044890470020FEF7E7
:102A000085FF10BD030800F0007000400050024038
:102A100010B504465948008800EE100AB8EE400A86
:102A2000DFED570A20EE200ABDEEC00A10EE100AB4
:102A300000B2544908805148408800EE100AB8EEB0
:102A4000400ADFED4F0A20EE200ABDEEC00A10EE6C
:102A5000100A00B248804948808800EE100AB8EE9B
:102A6000400ADFED470A20EE200ABDEEC00A10EE54
:102A7000100A00B288804148C08800EE100AB8EE03
:102A8000400ADFED3F0A20EE200ABDEEC00A10EE3C
:102A9000100A00B2C8803948008900EE100AB8EE6A
:102AA000400ADFED370A20EE200ABDEEC00A10EE24
:102AB000100A00B208813148408900EE100AB8EED1
:102AC000400ADFED2F0A20EE200ABDEEC00A10EE0C
:102AD000100A00B248812948808900EE100AB8EE39
:102AE000400ADFED270A20EE200ABDEEC00A10EEF4
:102AF000100A00B288812148C08900EE100AB8EEA1
:102B0000400ADFED1F0A20EE200ABDEEC00A10EEDB
:102B1000100A00B2C8811C48007818B901201A496F
:102B2000087027E0E4B1002017E0164931F91010D1
:102B3000002901DC00210BE0124931F91010B1F538
:102B40007A7F02DD4FF47A7102E00E4931F91010FC
:102B50000C4A22F81010411CC8B20828E5DB09E035
:102B6000002005E00021074A22F81010411CC8B2DD
:102B70000828F7DB0348FEF723FF10BD2E0E0020C8
:102B8000CDCCCC3D480E0020C200002070B50546DB
:102B90000C4666200649087001204870084685707A
:102BA000C470EE20087105210148FFF7F5FB70BDE8
:102BB000DA13002010B5044666200649087002208A
:102BC000487008468470EE20C87004210148FFF761
:102BD000E3FB10BDDA13002010B500200C4988700B
:102BE0000C4890F8000688B910200A4981F80106BF
:102BF0000021084880F80216022180F8031600F22E
:102C00000161FF20FEF7D0FD012010BD0020FCE790
:102C1000880E00200407002010B501200C498870A0
:102C20000C4890F8000688B910200A4981F801067E
:102C30000021084880F80216012180F8031600F2EE
:102C40000161FF20FEF7B0FD012010BD0020FCE770
:102C5000880E00200407002010B52DED088B4C488D
:102C600090F8640001287BD1494890F8650001285C
:102C700076D14748B0F95C00C0F5A070002805DDAA
:102C80004348B0F95C00C0F5A07004E04048B0F9DA
:102C90005C00A0F5A0700F2817DA3D48B0F95E007F
:102CA000C0F5A070002805DD3948B0F95E00C0F518
:102CB000A07004E03648B0F95E00A0F5A0700F28BF
:102CC00003DA0120BDEC088B10BD3149B1F9601069
:102CD0002F4AB2F95C20881AFDF7D8FC41EC1B0B97
:102CE0009FED2C0B53EC102BFDF7EFFB41EC190B78
:102CF0002749B1F95C10C1F5A070FDF7C7FC41ECA4
:102D00001B0B9FED260B53EC102BFDF7DEFB41EC6C
:102D10001A0B53EC192BFDF731FB41EC180BFDF7A7
:102D2000D3FC00B21F4908811949B1F96220B1F9F9
:102D30005E10501AFDF7AAFC41EC1B0B9FED1A0B1D
:102D400053EC102BFDF7C1FB41EC190B1049B1F905
:102D50005E10C1F1F000FDF799FC41EC1B0B00E0A7
:102D600014E09FED130B53EC102BFDF7AEFB41EC81
:102D70001A0B53EC192BFDF701FB41EC180BFDF777
:102D8000A3FC00B20749488100209BE7002099E797
:102D9000940E00209A9999999999A93F9A9999998D
:102DA0009999B93F200E00207B14AE47E17AA43FE9
:102DB000B81E85EB51B8BE3FF8B504460F4600205B
:102DC0000090AA219DF80020501CC0B200902A4813
:102DD000815439789DF80020501CC0B200902648DC
:102DE00081549DF80010481CC0B200902248445401
:102DF00000219DF80020501CC0B200901E48815454
:102E0000024669462046FEF781F89DF80000001F43
:102E10001949C87000250026002007E01649095C02
:102E20002944CDB27119CEB2411CC8B29DF8001030
:102E30008842F3DB9DF80010481CC0B200900E4899
:102E400045549DF80010481CC0B200900A484654F2
:102E50000A4890F8000640B1E02C06D1074880F8F7
:102E60000F4680F8105680F811669DF80010024851
:102E7000FDF7CAFFF8BD00006C0600200407002023
:102E800001464C48007800287ED00022494B1A7039
:102E9000494A1288C832484B1A80484A127D484B2A
:102EA0005A76464AD37D464A9376444A9369444AC1
:102EB000C2F81B30414AD369414AC2F81F303F4A29
:102EC000526A0A2392FBF3F33D4AC2F823303B4A8D
:102ED000126B0A2392FBF3F213B2394AA2F827309D
:102EE000364A526B0A2392FBF3F213B2344AA2F829
:102EF0002930324A926B0A2392FBF3F213B2304A22
:102F0000A2F82B302D4AB2F84C2000EE102AB8EE71
:102F1000400ADFED2C0A20EE200ABCEEC00A10EEBB
:102F2000100A08B9002204E0C82801D9C82200E02C
:102F300002461046224A82F82D00204A526C00EECA
:102F4000102AB8EE400ADFED1F0A20EE200ABCEE80
:102F5000C00A10EE100A08B9002204E0C82801D9FE
:102F6000C82200E002461046154A82F82E00134A95
:102F7000D26A00EE102AB8EE400ADFED120A20EE07
:102F8000200ABCEEC00A00E012E010EE100A08B9F8
:102F9000002204E0C82801D9C82200E002461046F9
:102FA000074A82F82F000123074A82F8213100BF27
:102FB000704700000A0100200C010020EC100020E6
:102FC000580E00200AD7233C040700201D48007833
:102FD000FF2804D01B480078401C1A4908701A4882
:102FE00000781A490978884216D01748007817499E
:102FF00008701548007A50B11348C07838B11248AB
:1030000040891349088010488089488004E04FF4C3
:1030100000400F49088048800B4840780D490978E6
:1030200088420ED0084840780A4908704FF40040A2
:10303000074988800121084880F8331100200149A0
:1030400008707047CA00002070100020C8000020DF
:10305000580E0020C9000020040700204FF0E02097
:1030600040694FF0E0218969401A4FF47A71484372
:103070004FF0E0214969B0FBF1F004490A684FF4D0
:103080007A71A2FB0112401870470000D80100209D
:103090000B4840680A498968401A002805DD08483D
:1030A000406807498968401A04E005488068044977
:1030B0004968401A042801DA012070470020FCE723
:1030C000940E002010B50C4890F8000688B9012035
:1030D000094981F801060021074880F802160321FA
:1030E00080F8031600F20161FF20FEF75DFB01206E
:1030F00010BD0020FCE7000004070020164904284A
:1031000004BF086840F4803018D0052804BF086860
:1031100040F4003012D0062812D00F2815D0102805
:1031200038BF7047103800F01F01012202FA01F188
:1031300042090A4850F82200016070470860704751
:10314000086840F48020086070474FF0E020016973
:1031500041F002010161704724ED00E010550000CC
:1031600030B40A4D2A680A4B9A421CBFD5F800C0F9
:10317000002207D05CF8224043F82240521C9B2AD0
:10318000F8D32B6043F8201030BC704708ED00E006
:103190000004002010B500201DE0124931F8101085
:1031A000114A1256914204DA0121814021438CB226
:1031B00002E0012181408C430A4931F81010491C7A
:1031C00089B2084A22F81010142902DB002122F8E3
:1031D0001010411CC8B20428DFDB2046FEF796FB26
:1031E00010BD0000E8010020E401002010B52548D2
:1031F000C078002844D12448B0F9400040F24C4146
:10320000884217DA2048B0F93C00884212DA1E489A
:10321000B0F93E0088420DDA1B48B0F93A00884206
:1032200008DA1A48007838BBFFF74CFF012017492D
:10323000087025E01448B0F9400040F26C718842F3
:103240001BDD1148B0F93C0040F24C41884214DAD1
:103250000D48B0F93E0088420FDA0B48B0F93A0049
:1032600040F26C71884208DD0848007820B900F00F
:1032700081F901200549087002E000200349087027
:1032800010BD0000880E002004100020D300002094
:1032900010B5044612480078A0421FD0114890F89B
:1032A0000006C8B9104804700D48047001200D498B
:1032B00081F8010601210B4880F8021680F80316F8
:1032C00009480178074880F8041600F20161FF20E0
:1032D000FEF76AFA012010BD0020FCE70120FAE7A2
:1032E000CC00002004070020880E002010B52DED32
:1032F000028BB0EE408AFFF769FE00BF0F484078AE
:103300000F490978884214D00C4840780C4908705D
:1033100000200C4988744FF487710A48A0F81310F4
:103320000648C1690748C0F815100121064880F811
:10333000391100BFBDEC028B10BD000070100020E1
:10334000CB000020580E00200407002010B52DED02
:10335000020B054890F8390020B9684600F006F8DD
:10336000FFF744FF1CBD00000410002010B5044608
:103370006C48B0F94000B0F5AF6F0BDD6948B0F9AB
:103380004000B0F5C86F05DA012067494870674909
:10339000087002E00020644948706248B0F93E00BD
:1033A000B0F5966F06DA6048407818B901205E499A
:1033B000087002E000205C4908705C480078012831
:1033C0004AD15B48C078002853D15648B0F93A003A
:1033D00040F26C71884210DD5248B0F93C0040F276
:1033E0004C41884209DA4F48B0F93E00884204DA7D
:1033F0004C48B0F94000884217DB4A48B0F9400019
:1034000040F26C71884230DD4648B0F93C0040F231
:103410004C41884229DA4348B0F93E00884224DA18
:103420004048B0F93A0088421FDA42480088B0F5B7
:103430007A7F12DAD4ED000A3E48008800EE100AC6
:10344000B8EE400A9FED3C1A00EE810ABCEEC00ABD
:1034500010EE100A3749088062E0FFF7DDFB00201C
:1034600034490880314908705AE000203149088009
:1034700056E02F48C078012852D12A48B0F93A00C6
:1034800040F26C71884210DD2648B0F93C0040F2F1
:103490004C41884209DA2348B0F93E00884204DAF8
:1034A0002048B0F94000884217DB1E48B0F94000C0
:1034B00040F26C71884230DD1A48B0F93C0040F2AD
:1034C0004C41884229DA1748B0F93E00884224DA94
:1034D0001448B0F93A0088421FDA16480088B0F55F
:1034E000967F12DAD4ED000A1248008800EE100A26
:1034F000B8EE400A9FED101A00EE810ABCEEC00A39
:1035000010EE100A0B4908800AE0FFF765FB002067
:10351000084908800549087002E000200549088034
:1035200010BD000004100020CE000020D2000020BA
:10353000880E0020D000002000007A44704710B5AB
:1035400000F018F910BD10B501F0A6FA10BD7047D3
:10355000704710B500F020FC10BD000010B5044A03
:10356000B2F90E10B2F90C0000F08EF810BD000098
:10357000040F002010B50C4890F8000688B901200F
:10358000094981F801060021074880F80216042144
:1035900080F8031600F20161FF20FEF705F9012013
:1035A00010BD0020FCE700000407002070B50446B1
:1035B000064860430321B0FBF1F54FF08070406C8A
:1035C000D0F888102846884770BD00008038010078
:1035D00010B50C4890F8000688B91020094981F808
:1035E00001060021074880F80216062180F803161C
:1035F00000F20161FF20FEF7D7F8012010BD002086
:10360000FCE700000407002010B50C4890F8000605
:1036100088B91020094981F801060021074880F87F
:103620000216072180F8031600F20161FF20FEF761
:10363000BBF8012010BD0020FCE7000004070020BB
:1036400001B5104890F80006C8B910200D4981F85E
:10365000010600210B4880F80216052180F80316A8
:103660009DF8001080F804169DF8011080F80516EA
:1036700000F20161FF20FEF797F8012008BD00204D
:10368000FCE700000407002038B504460D4667201B
:103690002E490870932048702D4804802D480580DD
:1036A0002D48008814302C49088008460088B0F561
:1036B0007A7F03D12948048029480580294890F859
:1036C0006C0001280AD128480078012806D1274833
:1036D0000480274805800020234908701D48B0F960
:1036E000000000901A4800781849887018484078FF
:1036F000C8709DF8000008719DF8010048711748D6
:103700000078887115484078C8711548B0F90000F4
:1037100000909DF8000008729DF80100487213485F
:103720000078887211484078C8721148B0F90000DA
:1037300000909DF8000008739DF801004873E22096
:1037400088730F210148FEF75DFF38BDE9130020A3
:10375000C6010020C8010020C4010020CA010020C9
:10376000CC010020940E0020C2010020CE010020D8
:10377000D001002000B51348007B012821D1114859
:10378000806810494968401A00EE100AB8EEC00A75
:103790000C4880ED0C0A90ED0C0ABDEEC00A10EE4C
:1037A000100A01B2084800F01DF8064880ED100A22
:1037B00090ED100ABDEEC00A10EE100A00B20349E7
:1037C000888100BD940E002090120020200E002061
:1037D000034A82F84C05012382F84D3570470000FA
:1037E00004070020D0ED0C1A01EE101AB8EEC11A31
:1037F00031EE611AD0ED021A81EE212AF0EE420A72
:1038000001EE101AB8EEC11A80ED0C1A90ED051AEF
:1038100021EE201AF0EE410A90ED0A1AB4EEE01AF9
:10382000F1EE10FA04D290ED0A1AF0EE410A0EE021
:1038300090ED0A1AB1EE411AB4EEE01AF1EE10FA68
:1038400005DD90ED0A1AB1EE411AF0EE410AD0ED15
:10385000031A01EE101AB8EEC12AB0EE601A02EE99
:10386000211AD0ED0B1A90ED112A01EE821AD0ED3B
:103870000D1A90ED002AB0EE410A01EE820A0029ED
:1038800017DD90ED071AB4EEC01AF1EE10FA10DD54
:10389000D0ED0B1A90ED042A01EE101AB8EEC11A01
:1038A00022EE011A90ED022A41EE021AC0ED0B1A27
:1038B00018E0002916DA90ED061AB4EEC01AF1EEFF
:1038C00010FA0FD2D0ED0B1A90ED042A01EE101A67
:1038D000B8EEC11A22EE011A90ED022A41EE021A48
:1038E000C0ED0B1A90ED0B1AD0ED081AB4EEE11AE8
:1038F000F1EE10FA04D290ED081A80ED0B1A0CE0EC
:1039000090ED0B1AD0ED091AB4EEE11AF1EE10FAAF
:1039100003DD90ED091A80ED0B1A90ED071AB4EE55
:10392000C01AF1EE10FA04D290ED071AB0EE410A77
:103930000AE090ED061AB4EEC01AF1EE10FA03DDBB
:1039400090ED061AB0EE410A704700009FED800A24
:10395000804880ED030A9FED800A80ED040A9FED08
:103960007F0A80ED050A9FED7A0A7D4880ED030A03
:103970009FED790A80ED040A9FED780A80ED050A33
:103980009FED780A784880ED030A9FED730A80ED79
:10399000040A9FED720A80ED050A9FED720A7348D2
:1039A00080ED030A9FED6C0A6F4880ED040A9FEDDD
:1039B0006B0A80ED050A9FED6E0A6E4880ED030AE2
:1039C0009FED650A80ED040A9FED6B0A80ED050A04
:1039D0009FED6A0A6A4880ED030A9FED6A0A80ED4E
:1039E000040A9FED5D0A80ED050A9FED640A6648B2
:1039F00080ED030A9FED630A80ED040A9FED560AED
:103A000080ED050AB1EE040A604880ED030A9FEDDF
:103A1000520A80ED040A9FED5E0A80ED050A9FEDD3
:103A20005D0A4C4880ED100A9FED5A0A4C4880ED23
:103A3000100A9FED580A4F4880ED100A9FED550A75
:103A4000524880ED100AB7EE080A424880ED0A0A93
:103A5000B7EE080A424880ED0A0AB7EE000A454868
:103A600080ED0A0AB7EE080A484880ED0A0AB7EE68
:103A7000000A384880ED110AB7EE000A384880ED98
:103A8000110AB7EE000A3B4880ED110AB7EE000AB2
:103A90003E4880ED110A9FED3F0A2E4880ED020A54
:103AA0009FED3C0A2E4880ED020A9FED3A0A31480C
:103AB00080ED020A9FED370A344880ED020ABFEE1E
:103AC000000A244880ED080AB7EE000A80ED090AD2
:103AD000BFEE000A224880ED080AB7EE000A80ED2A
:103AE000090ABFEE000A234880ED080AB7EE000A73
:103AF00080ED090ABFEE000A244880ED080AB7EEFF
:103B0000000A80ED090A9FED240A124880ED060A9A
:103B10009FED220A80ED070A9FED1F0A104880EDF5
:103B2000060A9FED1E0A80ED070A9FED1D0A114847
:103B300080ED060A9FED1B0A80ED070A9FED1A0A29
:103B4000124880ED060A9FED190A80ED070A7047BA
:103B5000CDCC0C3F5011002000000000CDCC4C3DDE
:103B6000F01100209A99193EA01100204012002067
:103B70006666E63E90120020CDCCCC3D9A99993FE6
:103B8000E01200206F12833A3013002080130020CF
:103B9000CDCC4C3F0AD7233C000034C20000344255
:103BA000000020C200002042000070C200007042ED
:103BB00010B54FF08070C06B04210268194890471F
:103BC0004FF08070C06BFF21026C16489047164979
:103BD0000860084600681549096888420AD91248F1
:103BE000006812490968401A5021B0FBF1F01049F1
:103BF00008600CE00C4800680C490968401A6FF036
:103C00007F4108445021B0FBF1F0094908600648A3
:103C10000068064908600649098888B2FDF746FF32
:103C200010BD000000700340F0010020F4010020EE
:103C3000F801002070B504460D464F48807B0128EE
:103C400055D14E4880894E490988401A00B24D49E5
:103C500008804A48C0894A494988401A00B24949FF
:103C6000488008460088201A01B24748FFF7BAFD8D
:103C7000BDEEC00A10EE100A00B244490880414867
:103C80004088281A01B24248FFF7ACFDBDEEC00AD9
:103C900010EE100A00B23D4948800846B0F9000015
:103CA00010F1190F02DC6FF0180009E03748B0F985
:103CB0000000192801DD192002E03448B0F90000A5
:103CC000344908813148B0F9020010F1190F02DCC3
:103CD0006FF0180009E02D48B0F90200192801DD45
:103CE000192002E02948B0F902002A4948812748F2
:103CF000B0F90000002803DD2448B0F9000003E01B
:103D00002248B0F9000040420A2832DA1F48B0F9D0
:103D10000200002803DD1D48B0F9020003E01B4843
:103D2000B0F9020040420A2823DA1448B0F90C0026
:103D3000001B002804DD1148B0F90C00001B03E053
:103D40000E48B0F90C00201A072812DA0B48B0F917
:103D50000E00401B002804DD0848B0F90E00401B8F
:103D600003E00648B0F90E00281A072801DA0120FE
:103D700070BD0020FCE70000940E0020040F00201E
:103D8000E8000020E000002050110020E4000020A6
:103D9000F0110020200E002010B5334890F8570095
:103DA00001285CD13148007850B9314880893149C7
:103DB00008802F48C089488001202C49087051E0B4
:103DC0002A48007801284DD12A480088284A92893B
:103DD000801A01B22848FFF705FDBDEEC00A10EEBB
:103DE000100A00B22549088022484088204AD2891A
:103DF000801A01B22248FFF7F5FCBDEEC00A10EEB2
:103E0000100A00B21D4948800846B0F9000010F1C0
:103E1000190F02DC6FF0180009E01848B0F9000033
:103E2000192801DD192002E01448B0F900001549F5
:103E300008811248B0F9020010F1190F02DC6FF08E
:103E4000180009E00D48B0F90200192801DD192019
:103E500002E00A48B0F902000A49488102E0002065
:103E600002490870012010BD940E0020F0000020CF
:103E7000040F0020EC000020A0110020E40000202E
:103E800040120020200E002000B52DED028B85B0E1
:103E9000B0EE408A884890F8390000287DD18648E5
:103EA000B0F94200B0F5966F06DA0120FFF7F0F99D
:103EB00001208249087013E07F48B0F9420040F2C7
:103EC000A461884206DA0220FFF7E2F902207B496A
:103ED000087005E00320FFF7DBF90320774908703D
:103EE000764840787549097888420BD07348007845
:103EF0007249487008460078032803D10846807844
:103F0000401C88706D48807810B36D480088B0F50B
:103F1000FA6F10DA6A48008800EE100AB8EE400A1C
:103F2000DFED680A00EE880ABCEEC00A10EE100A47
:103F3000634908800CE061498978032901DBFFF7B8
:103F400063FB20B100215E4A11805C4A917000BF82
:103F50005948B0F93A00A0F2DC5000EE900AF8EEB1
:103F6000E00AB0EE600A9FED581ADFED580A01F042
:103F70003FF88DED010A5048B0F93C00A0F2DC504A
:103F800000EE900AF8EEE00AB0EE600A9FED4E1ADD
:103F9000DFED4E0A01F02CF800E069E08DED020A39
:103FA0004548B0F93E00A0F2DC5000EE900AF8EE71
:103FB000E00AB0EE600A9FED461ADFED440A01F018
:103FC00017F88DED030A3C48B0F94000A0F2DC5030
:103FD00000EE900AF8EEE00AB0EE600A9FED3C1A9F
:103FE000DFED3A0A01F004F88DED040A3948007853
:103FF00058B19FED360A8DED010A9FED340A8DED23
:10400000020A9FED320A8DED040A9DED010ADFEDF3
:10401000320A20EE200ADFED310A20EE200ABDEE42
:10402000C00A10EE100A00B22D4908809DED020A68
:10403000B1EE400ADFED280A20EE200ADFED270A64
:1040400020EE200ABDEEC00A10EE100A00B2488031
:104050001948C08FA0F57A7000B2888001212148EC
:1040600080F88711002020490870204908701EE060
:104070001F48C07878B11C48007828B90320FFF7A2
:1040800007F91949087006E01848007818B9FFF7D1
:10409000BBFA1649087000201149088048804FF487
:1040A000AF7088800020C88088814881088105B071
:1040B000BDEC028B00BD000004100020BD000020FC
:1040C000C000002000007A440000204200000000F0
:1040D0000000A042CE0000208F360E3B00C05A45A3
:1040E000200E002004070020BB000020BC000020A0
:1040F000880E0020014A108051807047E80000209F
:1041000070B54FF0807040690121C26C0F48904734
:1041100005464FF0807040692946026D0B48904774
:104120004FF080704069816F0848884705E0074874
:104130000068C4B22046FDF7A5FF4FF080704069CB
:10414000C16A024888470028F1D170BD00F00040E4
:10415000002000BF1FE000EB4001104A02EB81018C
:1041600089884FF47A7292FBF1F100EB40020B4B1D
:1041700003EB8202D18000EB40011A4602EB810181
:10418000C988012905DA012100EB400203EB820214
:10419000D180411CC8B20728DDD37047040000203D
:1041A00070B44B4D2A6E296F11F0004F14BF01F00F
:1041B000700002F03000202808BF464818D005DC07
:1041C00088B1102808BF444812D009E0302808BF41
:1041D00047F230500CD0702808BF4FF4004007D091
:1041E00070BC002070477C203C4B00EA121018582D
:1041F0004FF0FF3311F0004F02D011F4006F06D0E2
:1042000001F0004C02F400645CEA040C36D1D5F8ED
:1042100060C1D5F8644104F01F06C4F30424641C93
:10422000761C16FB04F46400B0FBF4F0CCF3090434
:104230004443CCF3892C00FB0CF0D5F810C004EB00
:10424000902042F480020CF4704CBCF5804F08BF03
:10425000234B13D009DCBCF5005F08BF214B0DD008
:10426000BCF5405F08BF204B08E0BCF5E04F08BF3D
:104270001E4B03D0BCF5104F08BF1D4B12F4800F2E
:1042800021D011F0004F19D011F0804F09D011F456
:10429000006F0CD001F0004C02F400625CEA0202F4
:1042A00005D0C1F3C551491CB0FBF1F00BE0400053
:1042B000C1F38651491CB0FBF1F004E0C2F3C351D5
:1042C000491CB0FBF1F0834238BF184670BC704700
:1042D00000E00F4000093D000024F400E850000019
:1042E000005A620200B4C40480F0FA0240787D01F2
:1042F000002D31010448D0E900305A1C40F1000083
:104300000149C1E900207047D801002010B54FF0E5
:104310008071496C086E80474FF47A71B0FBF1F4FC
:104320004FF08070806B4169204688474FF0807164
:10433000896BC86880474FF08071896B48688047F7
:1043400010BD00001B49096841F47001194A116051
:1043500019491A4A11671A4911661A4911661A4908
:104360001167002000E0401CB0F57A7FFBD31749AD
:10437000124A116616491167002000E0401CB0F592
:104380007A7FFBD313490D4A116600BF0B49096DB3
:1043900001F040014029F9D10F49084A11664FF058
:1043A000C0711167002000E0401C42F21071884289
:1043B000FAD3704788ED00E01028800700E00F4036
:1043C000D13A8E07422D9E0100288001420D9E01A8
:1043D00000088001420DDE014205DE010146FE4873
:1043E0000078032838D005DC58B101281AD00228FB
:1043F0007ED11FE014287CD015287BD01628F7D159
:1044000070E10020F54A1070AA2905D1F248007821
:10441000401CF14A107004E0AB2902D11420EE4A8E
:10442000107015E2FF2904D1EB480078401CEA4ADD
:1044300010700DE2E94802780078401CE74B1870D4
:10444000E748815418460078182804D1E2480078DB
:10445000401CE14A1070FBE1EA297DD1002005E013
:10446000DF4A125CDF4B1A54421CD0B21828F7DB2B
:10447000002042E0DB4A02EB800292ED000ADA4AB9
:1044800002EB8002D2ED000A30EE600AB5EEC00AFF
:10449000F1EE10FA0CDDD34A02EB800292ED000A35
:1044A000D14A02EB8002D2ED000A30EE600A0DE044
:1044B000CC4A02EB800292ED000ACB4A02EB80026A
:1044C000D2ED000A30EE600AB1EE400ADFEDC70A15
:1044D000B4EEE00AF1EE10FA09DDC34A02EB800205
:1044E00092ED000ABF4A02EB800282ED000A02E070
:1044F000ADE1DDE0E4E0421CD0B20628BADBBC4806
:10450000B0F90C0000EE100AB8EEC00AB548D0EDC4
:10451000010AF1EE600A9FEDB71A10EE810AB44865
:10452000B0F90C0000EE900AF8EEE00AB6EE001AC0
:1045300041EE000ABDEEE00A10EE100A00B2AC4AED
:1045400090811046B0F90E0000EE100AB8EEC00AD5
:10455000A448D0ED000A00E0A6E09FEDA61A10EEF8
:10456000810A1046B0F90E0000EE900AF8EEE00A5B
:10457000B6EE001A41EE000ABDEEE00A10EE100A97
:1045800000B2D0811046B0F9100000EE100AB8EE6B
:10459000C00A9448D0ED020A9FED961A10EE810AE7
:1045A0001046B0F9100000EE900AF8EEE00AB6EE00
:1045B000001A41EE000ABDEEE00A10EE100A00B249
:1045C00010821046B0F9060000EE100AB8EEC00ADC
:1045D0008448D0ED040A9FED871A10EE810A104638
:1045E000B0F9060000EE900AF8EEE00AB6EE001A06
:1045F00041EE000ABDEEE00A10EE100A00B2D080D3
:104600001046B0F9080000EE100AB8EEC00A75486E
:10461000D0ED030AF1EE600A9FED761A10EE810AE2
:104620001046B0F9080000EE900AF8EEE00AB6EE87
:10463000001A41EE000ABDEEE00A10EE100A00B2C8
:1046400010811046B0F90A0000EE100AB8EEC00A58
:104650006448D0ED050A9FED671A10EE810A1046F6
:10466000B0F90A0000EE900AF8EEE00AB6EE001A81
:1046700041EE000ABDEEE00A10EE100A00B25081D1
:1046800000200BE0574A02EB800292ED000A564AE6
:1046900002EB800282ED000A421CD0B20628F1DB58
:1046A0000120554A82F85A0000204B4A1070CFE092
:1046B000FB2904D148480078401C474A1070C7E0E5
:1046C000464802780078401C444B18704448815496
:1046D00018460078042804D13F480078401C3E4A20
:1046E0001070B5E0EB2975D13D480078434A107051
:1046F0003B48407850703A48807890703848C0788D
:10470000D0701046B0F9000041F2707290420FD1A3
:10471000394890F85600401C374A82F85600104637
:1047200090F85600052802DD002082F8650086E03A
:1047300033480078401C324A107010460078052833
:1047400001DD0620107001202B4A82F865002B48FD
:10475000B0F902202848B0F95E00101A002807DDE1
:104760002648B0F902202448B0F95E00101A06E08D
:104770002148B0F95E00214AB2F90220801A8C2843
:1047800004DD1D4890F8590001281ED01B48B0F9DF
:104790000000194AB2F95C20801A002807DD17488A
:1047A000B0F90000144AB2F95C20801A06E0124801
:1047B000B0F95C00114AB2F90020801A8C2829DD7A
:1047C0000D4890F85900012824D10B48B0F860003A
:1047D000094A17E037E00000DD000020DE0000207D
:1047E000B00F0020340F0020EC0F0020CDCC4C3E49
:1047F000040F00200000C842940E0020D8000020C2
:10480000DC000020A2F85C001046B0F86220A0F89E
:104810005E2014E00F48B0F85C000E4AA2F8600079
:104820001046B0F85E20A0F862200B480088094AC4
:10483000A2F85C00084842880648A0F85E200120E3
:10484000044A82F859000020044A107000E000BFBA
:1048500000BF7047940E0020D8000020DD0000202B
:1048600010B50121024800F005F8FCF701FB10BD6E
:10487000000003404162704770B5164BDFF850C02E
:104880000C241B68144D2B40A3F18055B5F5202551
:1048900004BFDFF848C008240023002C0ED95CF8C0
:1048A0003350854207D10CEBC300B1F57F4F44680C
:1048B00008BF641C03E05B1CA342F0D30024114634
:1048C0002046FEF74DFC2046BDE87040FEF716BCC2
:1048D0003453000000E00F400000FF7094530000CC
:1048E00070B54FF0807040690121C26C114890474B
:1048F00005464FF0807040692946026D0D4890478B
:1049000009E04FF080704069816B0A488847C4B263
:104910002046FFF763FD4FF080704069C16A05488B
:1049200088470028EDD105F0200008B1FDF7DCFD37
:1049300070BD00000000014070B54FF0807040690C
:104940000121C26C1148904705464FF080704069C4
:104950002946026D0D48904709E04FF0807040698C
:10496000816B0A488847C4B22046FCF7ABFE4FF083
:1049700080704069C16A054888470028EDD105F07C
:10498000200008B1FDF758FE70BD00000010014086
:1049900070B54FF0807040690121C26C114890479A
:1049A00005464FF0807040692946026D0D489047DA
:1049B00009E04FF080704069816B0A488847C4B2B3
:1049C0002046FCF7E7FD4FF080704069C16A05485A
:1049D00088470028EDD105F0200008B1FDF7BAFEA8
:1049E00070BD00000030014070B54FF0807040692C
:1049F0000121C26C1148904705464FF08070406914
:104A00002946026D0D48904709E04FF080704069DB
:104A1000816B0A488847C4B22046FCF769F94FF019
:104A200080704069C16A054888470028EDD105F0CB
:104A3000200008B1FDF744FF70BD000000E0004019
:104A4000124A10B5104B12684FF0080C104C22405F
:104A5000A2F18054B4F5202408BF0E4B002253F875
:104A60003240844203D103EBC200446803E0521C8D
:104A70006245F4D300242046FEF772FB2046BDE8D1
:104A80001040FEF73BBB0000D453000000E00F4095
:104A90000000FF701454000010B5FE4890F8590053
:104AA000012823D1FC48007801281FD1FB48008849
:104AB0001430FA49088008460088B0F5FA7F15D10D
:104AC000F44890F85A0018B90020F34908700DE036
:104AD000F2480088B0F57A7F08D0F048008840F2AC
:104AE000DC51884202D10020EB490870EC4890F874
:104AF0003800002872D1EA48B0F94400B0F5487F88
:104B000018DDE748B0F94400B0F5966F12DAE548D1
:104B1000007890B90020DF4981F864004873E249C9
:104B20000881DC490873E0494881FEF751FDDD4901
:104B3000087002E00020DB490870D948B0F9440051
:104B400040F2A46188420FDDD548B0F9440040F638
:104B50009801884208DAD548007840B90120D34945
:104B60000870D349088002E00020D0490870CF487F
:104B70000078012871D1C74890F85A000128F9D16E
:104B8000CB48B0F90000C349A1F85000C848B0F9BB
:104B9000000009287ED008DC09287CD2DFE800F07C
:104BA0001A1F37406893A9B7F6000E2874D008DCA6
:104BB0000A2872D00B2871D00C2870D00D286AD129
:104BC000AAE111286CD012286BD0C8286AD0C92855
:104BD000F5D1C0E10020B7490880C9E1CCE1B54872
:104BE0000088B0F5FA6F05DAB24800881430B14990
:104BF00008800BE00020AF4908800220FEF748FB48
:104C0000AB490988084400B2A9490880B0E1FEF721
:104C100003F8A7490988084400B2A5490880A7E11C
:104C2000A54AB2F90E10B2F90C00FFF763FAA248D8
:104C30008089A2490880A048C08948809548408A58
:104C4000944988829B480088B0F57A7F06DA9948B3
:104C5000008814309749088009E08AE100209549CE
:104C6000088093480088401C00B2914908807FE189
:104C70000020884948738C49088148818549087318
:104C800081F867008849C8808C480088814908807D
:104C90008A4808E0B0E06AE13FE1DBE0EAE01BE1DE
:104CA0003CE149E149E140884880002088730120C7
:104CB0004873B420FEF7C4FC7D490988084400B25B
:104CC0007B49088054E17B48008840F2DC518842EF
:104CD00005DA7848008814307649088008E000201A
:104CE0007449088072480088401C00B270490880EE
:104CF0003EE1B4206749886001200873FEF7C8F9D7
:104D00006B490988084400B26949088030E10120F4
:104D1000604981F86400084690F86500A8BB01204E
:104D200088730A4692F86720654B03EB8202B2F95A
:104D30000210584A92F8672033F92200FEF77AFFF2
:104D400078B1544890F86700401C524981F86700D8
:104D5000084690F867000B2826D1C82054490880DF
:104D600022E04C4890F86700554931F82000494945
:104D7000A1F86800084690F86700514901EB8000EF
:104D800040884449A1F86A000EE000E00DE04A487E
:104D900080894C4908804848C08948804448008838
:104DA000401C00B242490880E2E0FDF755FF18B10F
:104DB0000120384981F85700364890F857000128FB
:104DC00019D13C48008814303A49088008460088C8
:104DD000B0F5FA7F0FDB64202E498860FEF758F9A2
:104DE000012808D132480088401C00B230490880B0
:104DF000002030490880BBE03348007810B1002023
:104E0000314908702B48008840F6B831884205DAED
:104E1000284800881430274908801AE02B48017878
:104E20000078401E294A107011B10120FDF7C2FE22
:104E3000184890F8660001280BD1164981F86C00DB
:104E400000201C4908801A480088401C00B21849FC
:104E500008808DE0B4200F498860FEF719F91449E5
:104E60000988084400B2124908800020094981F8E5
:104E700064007DE00020074981F85700114AB2F92B
:104E80000210B2F90000FEF7D5FE20B308480088F2
:104E9000401C1DE0940E002094000020960000208D
:104EA0000410002098000020200E0020990000200F
:104EB000580000209A000020040F00205A00002013
:104EC000620000205E00002092000020930000207D
:104ED00000B22A4908804BE0294A92F86720294B02
:104EE00003EB8202B2F90210254A92F8672033F9E7
:104EF0002200FEF79FFE70B1214890F86700401C29
:104F00001F4981F86700084690F867000B2802D116
:104F1000C8201A4908802BE02AE029E01A4AB2F991
:104F20000210B2F90000FEF785FE14490988084412
:104F300000B2124908801BE01AE0134AB2F90210CD
:104F4000B2F90000FEF776FE0C490988084400B269
:104F50000A4908800CE0002009490873FEF738FB75
:104F600006490988084400B20449088000E000BFEF
:104F700002E000200149088010BD00005800002018
:104F8000940E0020620000205A00002002E008C8B1
:104F9000121F08C1002AFAD170477047002001E0B3
:104FA00001C1121F002AFBD17047000010B54FF05D
:104FB0008070406A0021426B0148904710BD00009C
:104FC00000800340FCF790F900BFFFF7C1F80CE048
:104FD00001210846FDF7DAFD044890F86600012833
:104FE00003D101210846FDF7D1FDF1E7940E002021
:104FF000F0EE401AF4EEE01AF1EE10FA09DD31EEAF
:10500000C10AB4EEE00AF1EE10FA0BD2B0EE600A7B
:1050100008E031EE810AB4EEE00AF1EE10FA01DDAB
:10502000B0EE600A7047000010B50446D4ED000AE7
:105030002748008800EE100AB8EE400A9FED251AB6
:1050400000EE810ABCEEC00A10EE100A204908806A
:1050500008460088B0F57A7F39DD002008801E48B8
:10506000B0F84E001C49C8860846C08E052803DAF1
:10507000012081F8380003E00020174981F838004A
:10508000154890F83800C8B113480078D8B91348CB
:105090000078401C11490870087800EBD071491065
:1050A000A0EB41010D4A117010460078012802D191
:1050B000FCF78CFF07E0FCF71FFF04E0064890F8C0
:1050C00050000549087000200349A1F84E0010BDAA
:1050D0000401002000007A44041000200201002096
:1050E00000688909001C4E0E40420F0000201C0081
:1050F00080841E0000802500999E36000040380004
:1051000000093D0000803E0000004B00404B4C0079
:1051100000204E00808D5B0000C05D0000807000AC
:1051200000127A0000007D0080969800001BB700F6
:105130000080BB00C0E8CE00647ADA000024F400EE
:105140000000FA0080A81201002D310100366E0126
:1051500040787D01400000000000000000010000D8
:105160003E0008000000000000010000A000000058
:1051700002000000000100003454010000000000A3
:10518000000100002B70060000000000000100007C
:1051900028000000000000000001000027000100BE
:1051A00000000000000100002000000000000000DE
:1051B000000100005000000002000000000100009B
:1051C0001AAC000000000000000100001794090064
:1051D000000000000001000016980500000000001B
:1051E00000010000140000000000000000010000A9
:1051F000138008000000000000010000A000000073
:105200000800000000010000100000000000000085
:105210000001000028000000020000000001000062
:1052200040000000040000000001000060000000D9
:1052300000000000000100005D000C000000000004
:10524000000100005000000000000000000100000C
:105250004E000200000000000001000041AC01000F
:1052600000000000000100003C0000000000000001
:10527000000100003A800900000000000001000069
:1052800030000000000000000001000028000000C5
:1052900000000000000100002700010000000000E5
:1052A0000001000023600600000000000001000073
:1052B0002160080000000000000100001E00000046
:1052C00000000000000100001DC0040000000000FC
:1052D000000100005000000002000000000100007A
:1052E0001800000000000000000100001400000091
:1052F0000000000000010000600000000400000049
:10530000000100000024F40030003000005A620266
:105310009100910000879303D200D20000B4C4042E
:105320001301130100E1F50554015401000E270794
:105330009501950100000340230000000010034088
:10534000250000000020034027000000003003403B
:1053500033000000004003405600000000500340AE
:105360006C000000006003406E000000007003400D
:105370007000000000C004407200000000D0044033
:105380007400000000E004407600000000F00440DB
:1053900078000000000003402300000000100340DC
:1053A00025000000002003402700000000300340DB
:1053B00033000000004003404F0000000050034055
:1053C0005100000000000E407200000000100E406E
:1053D0007400000000C000401500000000D0004034
:1053E0001600000000E000403100000000F0004026
:1053F0004B000000000001404C0000000010014084
:105400004D000000002001404E000000003001402F
:105410004F00000000C000401500000000D0004018
:105420001600000000E000403100000000F00040E5
:105430004800000000000140490000000010014049
:105440004A000000002001404B00000000300140F5
:105450004C000000000700000006000000050000EE
:105460000004000000030000000200000001000032
:10547000000000000000000018ED00E01CED00E05E
:1054800020ED00E000E400E004E400E008E400E0D7
:105490000CE400E010E400E014E400E018E400E0B4
:1054A0001CE400E020E400E024E400E028E400E064
:1054B0002CE400E030E400E034E400E038E400E014
:1054C0003CE400E040E400E044E400E048E400E0C4
:1054D0004CE400E050E400E054E400E058E400E074
:1054E0005CE400E060E400E064E400E068E400E024
:1054F0006CE400E070E400E074E400E078E400E0D4
:105500007CE400E080E400E084E400E088E400E083
:1055100000E100E004E100E008E100E00CE100E06F
:1055200010E100E080E100E084E100E088E100E0DB
:105530008CE100E090E100E000E200E004E200E045
:1055400008E200E00CE200E010E200E080E200E0AF
:1055500084E200E088E200E08CE200E090E200E01B
:1055600080550000000000206C060000EC080000E0
:105570004C5600006C0600208C1C00009C4F000064
:1055800041233D3563E8031A530C63F4011A470CB9
:1055900072C81A3F0C72641A5D0C72321A4F0C7288
:1055A000141A510C0211021A404E25400170FE29B6
:1055B000043CC0FEF0042310FF29043C60FFF0040B
:1055C0001AB00C2904212B01017F3904490B016B0E
:1055D0001EB562060806E81A01024B7A120E3AC896
:1055E0000E1BDE6A0E13071414400D031BA0861257
:1055F000199A6334031BD1CA1C113A14B433D0086E
:105600002AC23249BB1BB8421C53090D3AFFE021A4
:105610001C031DAB151301031301025B0D460B1296
:10562000065B114E0B12125B1D660B12215B2C8464
:105630000B12045B0F4A0B950701135112015AD448
:0C5640008801FF01FF01FF01FF01A40031
:040000050000028174
:00000001FF
