:020000040800F2
:10000000B002002001010008090100080B010008EE
:100010000D0100080F010008110100080000000098
:1000200000000000000000000000000013010008B4
:100030001501000800000000170100081901000860
:100040001B0100081B0100081B0100081B01000820
:100050001B0100081B0100081B0100081B01000810
:100060001B0100081B0100081B0100081B01000800
:100070001B0100081B0100081B0100081B010008F0
:100080001B0100081B0100081B0100081B010008E0
:100090001B0100081B0100081B0100081B010008D0
:1000A0001B010008A10600081B0100081B01000835
:1000B0001B0100081B0100081B0100081B010008B0
:1000C0001B0100081B0100081B0100081B010008A0
:1000D0001B010008790A0008A50A00081B01000896
:1000E0001B0100081B0100081B010008DFF80CD0F1
:1000F00000F018F800480047D90D0008B0020020B1
:100100000648804706480047FEE7FEE7FEE7FEE7B1
:10011000FEE7FEE7FEE7FEE7FEE7FEE74106000832
:10012000ED000008064C074D06E0E06840F00103D2
:1001300094E8070098471034AC42F6D3FFF7DAFF93
:10014000040F0008240F00080149087070470000E0
:100150000500002010B504461448007830B101288D
:100160000CD0022812D006281DD116E0772C04D11D
:100170000E480078401C0D49087015E0992C04D1F8
:100180000A480078401C094908700DE0204600F03C
:1001900015FC06200549087006E0EE2C02D100206F
:1001A0000249087000E000BF00BF10BD150000202C
:1001B00070B5002466222146641C0F4842549822E0
:1001C0002146641C425401222146641C4254EE2202
:1001D0002146641C425400250AE00748415D074857
:1001E00000F09DFD611EC1EB011000F0C7FD6D1C0C
:1001F000A542F2DB70BD00007A000020003801400B
:100200002DE9F041024600250026002000230024AD
:10021000002791F803C00CF00F0591F803C00CF013
:10022000100CBCF1000F03D091F802C04CEA050598
:1002300091F800C0BCF1000F31D0146800202BE011
:100240004FF0010C0CFA00F3B1F800C00CEA030601
:100250009E4220D183004FF00F0C0CFA03F7BC43F1
:1002600005FA03FC4CEA040491F803C0BCF1280F22
:1002700006D14FF0010C0CFA00FCC2F814C00AE0E1
:1002800091F803C0BCF1480F05D14FF0010C0CFAF6
:1002900000FCC2F810C0401C0828D1D31460B1F88B
:1002A00000C0BCF1FF0F34DD546800202EE000F1E7
:1002B000080C4FF0010808FA0CF3B1F800C00CEA82
:1002C00003069E4221D183004FF00F0C0CFA03F776
:1002D000BC4305FA03FC4CEA040491F803C0BCF1EA
:1002E000280F05D100F1080C08FA0CF8C2F81480A8
:1002F00091F803C0BCF1480F07D100F1080C4FF092
:10030000010808FA0CF8C2F81080401C0828CED367
:100310005460BDE8F08141617047016170470000A1
:1003200008B50121042000F079F810208DF80300B1
:100330000320ADF800008DF8020069460548FFF77C
:100340005FFF02210348FFF7E6FF01210148FFF7A5
:10035000E2FF08BD0008014070B5002100230F2214
:10036000C47804B3154C246804F4E064C4F5E06474
:10037000210AC1F10403CA40447804FA03F18478E5
:100380001440214309010E4C0678A155047804F06D
:100390001F050124AC4005786D11AD0005F1E02585
:1003A000C5F8004109E0047804F01F050124AC40C1
:1003B000044D0678761145F8264070BD0CED00E03E
:1003C00000E400E080E100E002490143024A1160DC
:1003D000704700000000FA050CED00E029B1064A64
:1003E000D2690243044BDA6104E0034AD2698243D2
:1003F000014BDA61704700000010024029B1064A43
:1004000012690243044B1A6104E0034A12698243F1
:10041000014B1A61704700000010024029B1064AE2
:1004200092690243044B9A6104E0034A9269824351
:10043000014B9A61704700000010024029B1064A42
:10044000D2680243044BDA6004E0034AD268824374
:10045000014BDA60704700000010024030B5002107
:100460000022002400232D4D6D6805F00C0121B100
:10047000042905D0082923D105E0294D056022E093
:10048000274D05601FE0254D6D6805F47012234D62
:100490006D6805F48034022505EB92421CB9214DAC
:1004A000554305600BE01D4D6D6805F400351DB129
:1004B0001C4D5543056002E0194D5543056002E0AF
:1004C000174D056000BF00BF144D6D6805F0F001C9
:1004D0000909154D6B5C0568DD4045600F4D6D6881
:1004E00005F4E061090A104D6B5C4568DD408560EC
:1004F0000A4D6D6805F46051C90A0B4D6B5C456887
:10050000DD40C560054D6D6805F44041890B074D20
:100510006B5CC568B5FBF3F5056130BD00100240AA
:1005200000127A0000093D0016000020260000207D
:1005300010B500F001F810BD0CB50020019000903E
:100540003348006840F480303149086000BF3048CB
:10055000006800F4003000900198401C0190009861
:1005600018B90198B0F5A06FF1D12948006800F4DE
:10057000003010B10120009001E0002000900098B0
:10058000012843D12348006840F010002149086049
:100590000846006820F0030008600846006840F044
:1005A000020008601A4840681949486008464068D7
:1005B00048600846406840F48060486008464068EB
:1005C00020F47C1048600846406840F4E810486019
:1005D0000846006840F08070086000BF0C48006862
:1005E00000F000700028F9D00948406820F00300AE
:1005F000074948600846406840F00200486000BF74
:100600000348406800F00C000828F9D10CBD000038
:100610000010024000200240042808D14FF0E021E1
:10062000096941F004014FF0E022116107E04FF049
:10063000E021096921F004014FF0E02211617047C7
:1006400010B51348006840F00100114908600846E1
:100650004068104908400E494860084600680E4945
:1006600008400B4908600846006820F480200860B4
:100670000846406820F4FE0048604FF41F00886080
:10068000FFF756FF4FF000600449086010BD0000FE
:10069000001002400000FFF8FFFFF6FE08ED00E04A
:1006A00010B50121044800F065F818B10121024895
:1006B00000F051F810BD0000002C014030B589B0A9
:1006C00005460C4601210420FFF788FE0121082081
:1006D000FFF7A4FE18208DF82300C020ADF82000FD
:1006E00003208DF8220008A91748FFF789FDADF80F
:1006F0001850ADF814400020ADF81A00ADF81600FF
:1007000005A9124800F008F97020ADF80400012096
:10071000ADF806000020ADF80C0001A90B4800F070
:1007200043F801A9094800F095F80821074800F0AE
:1007300087F80821054800F0DFF80121034800F0A0
:100740000DF809B030BD0000000C01400008004069
:10075000CA4302827047CA430282704721B10288AD
:1007600042F00102028004E002884FF6FE731A4054
:100770000280704730B50246002000230024158A0D
:1007800005EA0103958905EA010413B10CB10120C2
:1007900000E0002030BD1AB183890B43838102E061
:1007A00083898B438381704770B500240022002326
:1007B000058C4FF6FE7635400584028C8388048BC9
:1007C0004FF68F752C40B51E2C400D882C43751E9E
:1007D0002A400D892A434D882A43144DA8420BD044
:1007E000134DA84208D0134DA84205D0124DA8427F
:1007F00002D0124DA84213D14FF6F7752A404D8909
:100800002A434FF6FB752A408D882A434FF6FF6531
:100810002B404FF6FF552B408D892B43CD892B4321
:1008200083800483CD888586028470BD002C0140BE
:1008300000340140004001400044014000480140B4
:100840000A460021018B4FF6F773194011430183CB
:100850007047000070B5002400220023058C4FF67D
:10086000EF7635400584028C8388048B48F6FF754B
:100870002C404FF6FF452C400D884FF6FF7606EAD8
:1008800005252C434FF6DF752A400D8906EA05152C
:100890002A434D8806EA05152A43154DA84202D081
:1008A000144DA8421DD14FF67F752A404D894FF651
:1008B000FF7606EA05152A434FF6BF752A408D8854
:1008C00006EA05152A434FF6FF352B404FF2FF7518
:1008D0002B408D8906EA85052B43CD8906EA8505DF
:1008E0002B4383800483CD880587028470BD00007C
:1008F000002C0140003401400A460021018B4FF2D8
:10090000FF7319404FF6FF7303EA02231943018373
:100910007047818670470000002202881D4B984274
:100920000ED01D4B98420BD0B0F1804F08D01B4B1E
:10093000984205D01A4B984202D01A4B984204D1E3
:100940004FF68F731A404B881A43174B984207D0C3
:10095000164B984204D04FF6FF431A40CB881A43F7
:1009600002808B8883850B8803850A4B98420BD0C5
:10097000094B984208D00E4B984205D00D4B984237
:1009800002D00D4B984201D10B7A0386012383825A
:1009900070470000002C014000340140000400407A
:1009A00000080040000C004000100040001400400F
:1009B00000400140004401400048014070B5064637
:1009C000002466222146641C0E484254012221461E
:1009D000641C42542146641C4654EE222146641C89
:1009E000425400250AE00748415D074800F097F9A6
:1009F000611EC1EB011000F0C1F96D1CA542F2DBD4
:100A000070BD00007A000020003801407FB5044628
:100A10000D460121C802FFF701FDADF80840681E30
:100A200080B2ADF804000020ADF80A00ADF8060071
:100A30008DF80C0001A90F48FFF76EFF01210D484A
:100A4000FFF786FE012241210A48FFF7A4FE192084
:100A50008DF8000000208DF801008DF802000120C3
:100A60008DF803006846FFF777FC01210148FFF786
:100A700075FE7FBD002C014010B540F2255108489D
:100A800000F08CF858B1064800F044F9C4B2204692
:100A9000FFF75AFB40F22551014800F015F810BD50
:100AA0000038014010B540F22551064800F076F8B4
:100AB00030B1044800F02EF9C4B22046FFF74AFBDB
:100AC00010BD00000044004010B50022002340F695
:100AD0006A14A14200D100BF0A1201249440A3B2BB
:100AE000DC43048010BD21B1828942F4005282812E
:100AF00004E082894DF6FF731A408281704700003E
:100B000010B504462048844209D101218803FFF72B
:100B100095FC00214FF48040FFF790FC32E01B4829
:100B2000844209D101214804FFF768FC00214FF4F9
:100B30000030FFF763FC25E01548844209D101210C
:100B40008804FFF75BFC00214FF48020FFF756FC80
:100B500018E01048844209D10121C804FFF74EFC77
:100B600000214FF40020FFF749FC0BE00A488442C3
:100B700008D101210805FFF741FC00214FF4801046
:100B8000FFF73CFC10BD000000380140004400406D
:100B900000480040004C00400050004070B5024644
:100BA000002400230025002040F66A16B14200D13F
:100BB00000BFC1F3421501F01F03012606FA03F33B
:100BC000012D02D19689334006E0022D02D1168A0A
:100BD000334001E0968A33400C12012606FA04F4F1
:100BE0001688344013B10CB1012000E0002070BD24
:100BF000F0B50346002400260025002040F66A17C1
:100C0000B94200D100BF1846C1F3421401F01F06DB
:100C1000012707FA06F5012C01D10C3004E0022C63
:100C200001D1103000E014301AB107682F4307607B
:100C300002E00768AF430760F0BD00002DE9F04710
:100C400086B005460E460024A24600BFA1460027F6
:100C5000B08900B100BF2F462C8A4CF6FF700440CB
:100C6000F08804432C82AC894EF6F3100440B0881F
:100C700031890843718908430443AC81AC8A4FF63B
:100C8000FF400440B0890443AC8201A8FFF7E6FBB3
:100C90001F48874202D1DDF810A001E0DDF80CA06A
:100CA000A88900F4004040B10AEBCA0000EB0A102A
:100CB00031684900B0FBF1F807E00AEBCA0000EB2D
:100CC0000A1031688900B0FBF1F86420B8FBF0F03D
:100CD00004012009642101FB1089A88900F4004067
:100CE00040B1322000EBC900B0FBF1F000F007008A
:100CF000044308E0322000EB09106421B0FBF1F05E
:100D000000F00F0004432C8106B0BDE8F08700001E
:100D10000038014001468888C0F308007047C1F3DD
:100D200008028280704702E008C8121F08C1002A2A
:100D3000FAD170477047002001E001C1121F002A5C
:100D4000FBD1704710B56FF00400FFF765FC074852
:100D500000680749B0FBF1F00649086008460068E2
:100D60004FF47A7148430449086010BD2C000020FC
:100D700000127A00400000204400002010B1144A04
:100D8000904200D97047134A126842434FF0E02363
:100D90005A6100229A611A46126942F001021A61F0
:100DA00000BF4FF0E022116901F001021AB101F415
:100DB0008032002AF5D04FF0E022126922F00102C1
:100DC0004FF0E0231A6100229A6100BFDAE70000C9
:100DD000C7711C00400000204FF4A060FFF7F4FA38
:100DE000FFF7B0FF4FF4E13000F03AF840F2CF21C6
:100DF00040F2CF70FFF762FC41F61F4140F2F31062
:100E0000FFF704FEFFF78CFA40F2D1611048FFF7BC
:100E100080FD00BF1BE00F480078012804D10221AB
:100E20000D48FFF77AFA03E002210B48FFF773FA47
:100E300001210948FFF771FA08480078012806D116
:100E400040F24E710248FFF764FDFFF7B1F9E2E7A7
:100E500000080040050000200008014007000020B5
:100E600010B586B00446012144F20400FFF7D6FA1B
:100E70004FF40070ADF8140003208DF81600182010
:100E80008DF8170005A91D48FFF7BAF94FF48060E7
:100E9000ADF8140004208DF8170005A91748FFF7D6
:100EA000AFF925208DF8000001208DF801008DF8A4
:100EB00002008DF803006846FFF74EFA0194002007
:100EC000ADF80800ADF80A00ADF80C00ADF8100060
:100ED0000C20ADF80E0001A90948FFF7AFFE012272
:100EE00040F225510648FFF783FE01210448FFF731
:100EF000FAFD0348FFF704FE06B010BD00080140EC
:100F000000380140240F00080000002048000000C5
:100F1000260D00086C0F0008480000206802000041
:100F2000360D000800000000000000000000000076
:100F300000000000000000000000000000000102AE
:100F4000030401020304060708090204060800005E
:100F500000A24A0400000000000000000102030497
:0C0F600006070809000000000000000067
:04000005080000ED02
:00000001FF
