:020000040800F2
:10000000700E0020490500084D0300084F0300084A
:1000100053030008570300085B03000800000000BA
:100020000000000000000000000000005F03000866
:100030006103000800000000630300086503000876
:1000400063050008630500086305000863050008F0
:1000500063050008630500086305000863050008E0
:1000600063050008630500086305000863050008D0
:1000700063050008630500086305000863050008C0
:1000800063050008630500086305000863050008B0
:10009000514800086305000863050008CB5B0008B1
:1000A0006305000863050008630500086305000890
:1000B000193C0008313C0008493C00086305000871
:1000C0006305000863050008630500086305000870
:1000D000630500086305000827280008EF420008B0
:1000E0006305000863050008630500086305000850
:1000F0006305000863050008630500086305000840
:100100006305000863050008613C000863050008FA
:10011000630500086305000863050008630500081F
:10012000630500086305000863050008630500080F
:1001300000F002F800F05FF80AA090E8000C82449A
:100140008344AAF10107DA4501D100F054F8AFF277
:10015000090EBAE80F0013F0010F18BFFB1A43F0A5
:100160000103184704DE000024DE00000A444FF0BB
:10017000000C10F8013B13F0070408BF10F8014B06
:100180001D1108BF10F8015B641E05D010F8016B4B
:10019000641E01F8016BF9D113F0080F1EBF10F8AF
:1001A000014BAD1C0C1B09D16D1E58BF01F801CBD2
:1001B000FAD505E014F8016B01F8016B6D1EF9D555
:1001C0009142D6D37047000000230024002500266A
:1001D000103A28BF78C1FBD8520728BF30C148BFAA
:1001E0000B607047642909F0E585002070471FB552
:1001F0001FBD10B510BD09F0ABFF1146FFF7F7FFAB
:1002000000F00EF809F0C9FF03B4FFF7F2FF03BCDA
:1002100002F0A2FA30BF72B662B680F30888704767
:1002200008B502F02FFA012002F082FD02F0EEFD87
:1002300002F01EFE022002F091FC002141F61F4058
:1002400003F0C8FA4FF4165002F0A0FA4FF4E13070
:1002500003F0F3FF03F0B4F803F06AFB03F0CCFB08
:1002600003F014FC03F05CFC3048007828B900BFB0
:1002700002F0A2FE0028FBD102E000202C49087009
:100280004FF4FA7002F03BFA03F002FD08F011FEA1
:1002900008F023FE00200623032202210090012003
:1002A00004F080F803F087F922480078012804D18F
:1002B00004F068FC04F058FE0CE01E4800780228A8
:1002C00002D103F0E1F905E01A480078032801D1D2
:1002D00003F029FA03F070FF26E0164800780128A1
:1002E00017D1072004F053FD13490860082004F0DB
:1002F0004EFD12490860052004F049FD10490860D0
:10030000062004F044FD0F49086004F01DFD0E496D
:1003100008600848007818B904F051FB02F06EFB41
:1003200009F098FB09F0A1F8D7E700005E00002073
:100330000600002003000020BC000020C0000020B8
:10034000C4000020C8000020CC000020704700BF7F
:10035000FEE700BFFEE700BFFEE700BFFEE7704715
:1003600070477047704700000CB500200190009066
:100370006C48006840F480306A49086000BF6948F2
:10038000006800F4003000900198401C0190009833
:1003900018B90198B0F5A06FF1D16248006800F477
:1003A000003010B10120009001E000200090009882
:1003B000012843D15C48006840F010005A490860A9
:1003C0000846006820F0030008600846006840F016
:1003D0000200086053484068524948600846406837
:1003E00048600846406840F48060486008464068BD
:1003F00020F47C1048600846406840F4E8104860EB
:100400000846006840F08070086000BF45480068FA
:1004100000F000700028F9D04248406820F0030046
:10042000404948600846406840F00200486000BF0C
:100430003C48406800F00C000828F9D10CBD10B50C
:10044000FFF792FF10BD10B53648006840F001007C
:1004500034490860084640683449084031494860DA
:1004600008460068324908402E490860084600687E
:1004700020F4802008600846406820F4FE004860B0
:100480004FF41F008860FFF7DAFF4FF00060294942
:10049000086010BD10B5002100200022214B5B68D0
:1004A00003F00C0121B1042906D0082928D107E066
:1004B000214B224C236027E01F4B204C236023E07C
:1004C000184B5B6803F47010164B5B6803F48032C2
:1004D000022303EB904022B9194B4343174C23608E
:1004E0000DE0104B5B6803F4003323B1144B43431E
:1004F000124C236003E0104B4343104C236003E095
:100500000D4B0E4C236000BF00BF064B5B68C3F36E
:1005100003130C4CE15C094B1B68CB40074C236078
:1005200010BD000000100240002002400000FFF853
:10053000FFFFF6FE08ED00E000127A00E400002064
:1005400000093D00E80000200948804709480047AD
:10055000FEE7FEE7FEE7FEE7FEE7FEE7FEE7FEE773
:10056000FEE7FEE704480549054A064B70470000D0
:10057000470400083101000870080020700E0020B8
:10058000700A0020700A002031490143314A11608D
:10059000704770B5002100230F22C47804B32D4C9E
:1005A000246804F4E064C4F5E064210AC1F10403A2
:1005B000CA40447804FA03F18478144021430901C5
:1005C000254C0678A155047804F01F050124AC40A1
:1005D00005786D11AD0005F1E025C5F8004109E091
:1005E000047804F01F050124AC401C4D06787611F8
:1005F00045F8264070BD1A4A0A400243154B1B1F9E
:100600001A60704739B1134A121D12680243114B28
:100610001B1D1A6006E00F4A121D126882430D4B23
:100620001B1D1A607047042808D14FF0E0210969AA
:1006300041F004014FF0E022116107E04FF0E021AA
:10064000096921F004014FF0E022116170470000B8
:100650000000FA050CED00E000E400E080E100E0BD
:1006600080FFFF1F10B50446FA48844208D10121DB
:10067000401500F0ABFE0021601500F0A7FE17E06A
:10068000F548844208D10121001500F09FFE0021A9
:10069000201500F09BFE0BE0F048844208D10121B8
:1006A000C80300F093FE00214FF4004000F08EFEDE
:1006B00010BD30B50246002000235068E84C2040B1
:1006C0000D790C6844EA0524204350609068E54C9D
:1006D0002040D1E902542C434D7944EA450420439B
:1006E0009060D06A20F470000C7C641EE4B2234356
:1006F00040EA0350D06230BD0021016001714171B8
:100700008160C16001210174704721B1826842F0AB
:100710000102826003E0826822F001028260704779
:1007200021B1826842F48072826003E0826822F420
:1007300080728260704710B50023CBB21AB1446852
:100740001C43446002E044689C43446010BD8168DF
:1007500041F0080181607047014600208A6802F07C
:1007600008020AB1012000E000207047816841F0D2
:10077000040181607047014600208A6802F004028B
:100780000AB1012000E00020704721B1826842F4E4
:10079000A002826003E0826822F4A00282607047B7
:1007A000014600208A6802F480020AB1012000E0BC
:1007B0000020704710B50A4600210023416821F44B
:1007C0006041531E41EA4331416010BD21B142688E
:1007D00042F40062426003E0426822F40062426038
:1007E0007047F0B504460D4600200021092D11DDAB
:1007F000E068A5F10A0606EB4607072606FA07F1A8
:100800008843A5F10A0606EB460603FA06F10843FB
:10081000E0600CE0206905EB4507072606FA07F1C2
:10082000884305EB450603FA06F108432061072AD1
:100830000FDA606B561E06EB86071F2606FA07F1D5
:100840008843561E06EB860605FA06F108436063E8
:1008500022E00D2A0FDA206BD61F06EB86071F2633
:1008600006FA07F18843D61F06EB860605FA06F15D
:100870000843206310E0E06AA2F10D0606EB86074C
:100880001F2606FA07F18843A2F10D0606EB86063D
:1008900005FA06F10843E062F0BD21B1826842F436
:1008A0008012826003E0826822F4801282607047C6
:1008B0000146C86C80B2704766484C30006870478B
:1008C00021B1426842F48062426003E0426822F44F
:1008D00080624260704721B1426842F480524260B7
:1008E00003E0426822F48052426070470A460021C9
:1008F000816821F4E04111438160704721B1826831
:1009000042F40042826003E0826822F40042826086
:10091000704721B1826842F40212826003E082686B
:1009200022F4021282607047014600208A6802F4B5
:1009300000120AB1012000E000207047F0B5044623
:100940001546002000220026092911DDE068A1F1EA
:100950000A0707EB470C072707FA0CF29043A1F1AF
:100960000A0707EB470703FA07F21043E0600CE0C1
:10097000206901EB410C072707FA0CF2904301EBC9
:10098000410703FA07F210432061A06BC0F3015640
:10099000EF1C06F1010CA7EB0C0707EB870C1F27D8
:1009A00007FA0CF29043EF1C06F1010CA7EB0C07C1
:1009B00007EB870701FA07F21043A063F0BD10B5FB
:1009C0000A4600210023816B21F44011531E41EAA5
:1009D0000351816310BD08B5002300930090009B74
:1009E0000B440093009B1A6008BD08B50246002026
:1009F0000090009201F12800009B1844009000989C
:100A0000006880B208BD0A4600214168164B1940B3
:100A10001143416070474162826270470A4600217B
:100A2000416821F01F0111434160704740B10949FD
:100A30000831096841F40001064A0832116007E0F4
:100A400004490831096821F40001024A08321160A2
:100A5000704700000024014000280140003C014094
:100A6000FFFEF0FFFDF7F1FFFFFD3FFF0246002014
:100A700013680B400BB1012000E000207047CA430F
:100A80000260704770B502460020002300240B125C
:100A90005568CEB205EA060415681D4015B10CB1C3
:100AA000012000E0002070BD00220A12D343036041
:100AB0007047000010B5012000F0A2FC002000F0FB
:100AC0009FFC10BD2A49086070472949091F08602A
:100AD0007047274984310860704701460020254A45
:100AE00010884FF67F4210400843224A108070471A
:100AF000014600201F4A10884FF6807210400843BC
:100B00001C4A1080704708B500220092194A2C3AFE
:100B10000092009A02440092009A116008BD08B544
:100B200001460020009013482C380090009808449B
:100B300000900098008808BD0D489C300068C0B245
:100B400070470C480830008840F00100094908311E
:100B5000088070470648A0300068C0B2704705485A
:100B60000830008840F002000249083108807047D0
:100B700004860D422C6C0040002044490860091D89
:100B80000860091D0860091D086041483F4914318B
:100B90000860704700213D498279002A3AD00A4610
:100BA000126803689A430B461A600A1D12680368AC
:100BB0009A430B1D1A60027911440A6803681A43AC
:100BC0000A60324A0832126803689A432F4B08338E
:100BD0001A601A1D126803689A432C4B0C331A6072
:100BE0004279102A0ED11A1F126803681A43274B44
:100BF00008331A601A1D126803681A43234B0C331A
:100C00001A600DE02149427911440A6803681A43C9
:100C10000A6005E0027911440A6803689A430A6091
:100C200070470021016001710C2141710021817127
:100C300070471649103109680143144A1032116097
:100C4000704701460020114A143212680A400AB166
:100C5000012000E0002070470C4914310860704703
:100C6000014600200022094B1B6803EA0102074BE2
:100C700014331B680B4013B10AB1012000E00020BF
:100C800070470249143108607047000000040140B9
:100C9000FFFF0F0010B50446CC48844208D1012163
:100CA000042000F093FB0021042000F08FFB46E0BD
:100CB000C748844208D10121082000F087FB0021A9
:100CC000082000F083FB3AE0C248844208D10121A9
:100CD000102000F07BFB0021102000F077FB2EE0BD
:100CE000BD48844208D10121202000F06FFB002183
:100CF000202000F06BFB22E0B848844208D101219B
:100D0000402000F063FB0021402000F05FFB16E074
:100D1000B348844208D10121802000F057FB002114
:100D2000802000F053FB0AE0AE48844207D1012145
:100D3000801500F04BFB0021A01500F047FB10BD13
:100D400010B50121084600F041FB0021012000F010
:100D50003DFB10BD2DE9F041024600250026002094
:100D600000230024002791F803C00CF00F0591F830
:100D700003C00CF0100CBCF1000F03D091F802C0BE
:100D80004CEA050591F800C0BCF1000F31D01468A1
:100D900000202BE04FF0010C0CFA00F3B1F800C07A
:100DA0000CEA03069E4220D183004FF00F0C0CFA90
:100DB00003F7BC4305FA03FC4CEA040491F803C0B2
:100DC000BCF1280F06D14FF0010C0CFA00FCC2F860
:100DD00014C00AE091F803C0BCF1480F05D14FF0F0
:100DE000010C0CFA00FCC2F810C0401C0828D1D33A
:100DF0001460B1F800C0BCF1FF0F34DD546800206E
:100E00002EE000F1080C4FF0010808FA0CF3B1F8DD
:100E100000C00CEA03069E4221D183004FF00F0C64
:100E20000CFA03F7BC4305FA03FC4CEA040491F8FE
:100E300003C0BCF1280F05D100F1080C08FA0CF82A
:100E4000C2F8148091F803C0BCF1480F07D100F13B
:100E5000080C4FF0010808FA0CF8C2F81080401C8A
:100E60000828CED35460BDE8F0814FF6FF710180B1
:100E7000022181700421C1707047024600209368EE
:100E80000B400BB1012000E000207047014688684C
:100E900080B2704702460020D3680B400BB101209E
:100EA00000E0002070470146C86880B270470161C9
:100EB0007047416170470AB1016100E041617047CC
:100EC000C16070474FF480320A4382618161826160
:100ED00082698269704702460020434B18684FF6CA
:100EE0008073184040EA021008433F4B1860704777
:100EF0003E49C8617047F0B50A460023002400212E
:100F0000002500F00046B6F1004F02D1364EF169DF
:100F100001E0354E7168C0F3034583B200F440161A
:100F2000B6F5401F08D121F070612F4E766826F08B
:100F300070662D4F7E6012E000F48016B6F5801FBB
:100F400006D1032606FA05F4A14341F0706106E0DC
:100F5000460D360103FA06F6B14341F0706122B145
:100F6000460D360103FA06F6314300F00046B6F1AD
:100F7000004F02D11C4EF16101E01B4E7160F0BDCB
:100F800030B500228B071C0F0F2303FA04F2164B17
:100F900008338C1053F824309343134C08348D10CD
:100FA00044F8253023468C1053F824308C07240F46
:100FB00000FA04F423430C4C08348D1044F8253017
:100FC00030BD0A49DC31086070470000000801406C
:100FD000000C0140001001400014014000180140C5
:100FE000001C0140002001400000014000002042A0
:100FF00010B50121080700F0F6F900214FF08050EC
:1010000000F0F1F910BD2A490862704728490861CB
:10101000704701460020274A106820F0E00008438E
:10102000106070472249A0310860704710B5024631
:101030000020204B186820F00300104318601E4B5E
:101040001B6843F004031C4C2360012901D130BF0D
:1010500000E020BF184B1B6823F00403164C2360EC
:1010600010BD1448006840F00400124908600846AA
:10107000006840F0020008600F48006840F004007B
:101080000D49086000BF00BF30BF70470146002017
:10109000084A52680A400AB1012000E00020704767
:1010A0000449096841EA8001024A11607047000062
:1010B00000000E420070004010ED00E0DF480068C4
:1010C00040F00100DD49086008464068DC490840FE
:1010D000DA49486008460068DA490840D74908609C
:1010E0000846006820F4802008600846406820F424
:1010F000FE0048604FF41F0088607047CF490968C0
:1011000021F48031CD4A11601146096821F4802113
:101110001160B0F5803F03D0B0F5802F0ED106E00E
:10112000C649096841F48031C44A116007E0C349E7
:10113000096841F4A021C14A116000E000BF00BF6E
:10114000704710B501460022002300204A11012AF1
:1011500002D1BA4C236806E0022A02D1B74C236AB6
:1011600001E0B64C636A01F01F02012494401C4068
:101170000CB1012000E0002010BD38B50020009027
:101180000024002500BF3120FFF7DBFF0546009853
:10119000401C00900098B0F5A06F01D0002DF2D057
:1011A0003120FFF7CEFF08B1012400E000242046E3
:1011B00038BD01460020A14A106820F0F80040EA3E
:1011C000C10010607047A0490860704702460020C7
:1011D0009A4B586820F47C1042EA01031843974B5D
:1011E0005860704798490866704701460020934A46
:1011F000506820F003000843506070478F484068F3
:1012000000F00C007047014600208C4A506820F026
:10121000F00008435060704701460020874A50683C
:1012200020F4E06008435060704701460020834A84
:10123000506820F4605040EAC1005060704729B106
:101240007E4A527A02437D4B5A7204E07B4A527ABC
:1012500082437A4B5A7270477B49D8310860704795
:1012600001460020754A506820F440400843506011
:1012700070470021714A20321170704A82F82010A4
:10128000012802D004280AD104E001216B4A20324F
:10129000117005E00521694A2032117000E000BF9D
:1012A00000BF70476949086070476449096A014393
:1012B000624A11627047654944390860704730B529
:1012C00000210022002400235C4D6D6805F00C0114
:1012D00021B1042905D0082923D105E05C4D056022
:1012E00022E05B4D05601FE0544D6D6805F47012FF
:1012F000524D6D6805F48034022505EB92421CB90D
:10130000544D554305600BE04C4D6D6805F40035B8
:101310001DB1504D5543056002E04D4D55430560EC
:1013200002E04B4D056000BF00BF444D6D6805F005
:10133000F0010909484D6B5C0568DD4045603F4D93
:101340006D6805F4E061090A434D6B5C4568DD405A
:1013500085603A4D6D6805F46051C90A3E4D6B5C7D
:101360004568DD40C560354D6D6805F44041890B29
:101370003A4D6B5CC568B5FBF3F5056130BD29B12D
:101380002E4A526902432D4B5A6104E02B4A52699E
:1013900082432A4B5A61704729B1284A9269024315
:1013A000264B9A6104E0254A92698243234B9A6155
:1013B000704729B1214AD2690243204BDA6104E027
:1013C0001E4AD26982431D4BDA61704729B11B4A1C
:1013D000D2680243194BDA6004E0184AD2688243AB
:1013E000164BDA60704729B1144A12690243134B55
:1013F0001A6104E0114A12698243104B1A61704766
:1014000012494039086070470F49C86470470B495A
:10141000C87170470948406A40F0807007494862C7
:10142000704701460020054A92680A400AB101202F
:1014300000E00020704701498872704700100240A8
:101440000000FFF8FFFFF6FE000042428004424227
:1014500000127A0000093D00F80000200801002079
:1014600010B50446FE48844208D10121C014FFF79C
:10147000ADFF0021E014FFF7A9FFC4E0B4F1804FF5
:1014800008D101210846FFF7AEFF00210120FFF738
:10149000AAFFB8E0F348844208D101210220FFF7F7
:1014A000A2FF00210220FFF79EFFACE0EE4884423D
:1014B00008D101210420FFF796FF00210420FFF747
:1014C00092FFA0E0E948844208D101210820FFF7FB
:1014D0008AFF00210820FFF786FF94E0E448844259
:1014E00008D101211020FFF77EFF00211020FFF717
:1014F0007AFF88E0DF48844208D101212020FFF7ED
:1015000072FF00212020FFF76EFF7CE0DA48844262
:1015100008D101214014FFF759FF00216014FFF7A3
:1015200055FF70E0D548844209D10121C804FFF776
:101530004DFF00214FF40020FFF748FF63E0D04843
:10154000844209D101210805FFF740FF00214FF433
:101550008010FFF73BFF56E0CA48844209D10121C1
:101560004805FFF733FF00214FF40010FFF72EFF6F
:1015700049E0C548844208D101214020FFF733FFEC
:1015800000214020FFF72FFF3DE0C048844208D1F2
:1015900001218020FFF727FF00218020FFF723FF94
:1015A00031E0BB48844208D101218015FFF71BFFC1
:1015B0000021A015FFF717FF25E0B648844209D1A6
:1015C00001210804FFF702FF00214FF48030FFF7EC
:1015D000FDFE18E0B048844209D101214804FFF71C
:1015E000F5FE00214FF40030FFF7F0FE0BE0AB48B2
:1015F000844208D101218804FFF7E8FE00214FF45E
:101600008020FFF7E3FE10BD00220288944B984231
:101610000ED0994B98420BD0B0F1804F08D0914B2F
:10162000984205D0904B984202D0904B984204D1FA
:101630004FF68F731A404B881A438D4B984207D050
:101640008C4B984204D04FF6FF431A40CB881A4384
:1016500002808B8883850B880385814B98420BD051
:10166000854B984208D08B4B984205D08A4B9842C4
:1016700002D08A4B984201D10B7A038601238382E0
:10168000704770B5002400220023058C4FF6FE76CB
:1016900035400584028C8388048B4FF68F752C406F
:1016A000B51E2C400D882C43751E2A400D892A43F7
:1016B0004D882A436A4DA8420BD06F4DA84208D0EE
:1016C000744DA84205D0744DA84202D0734DA84273
:1016D00013D14FF6F7752A404D892A434FF6FB7513
:1016E0002A408D882A434FF6FF652B404FF6FF5561
:1016F0002B408D892B43CD892B4383800483CD8858
:101700008586028470BD70B5002400220023058CFC
:101710004FF6EF7635400584028C8388048B48F6BB
:10172000FF752C404FF6FF452C400D884FF6FF7695
:1017300006EA05252C434FF6DF752A400D8906EA97
:1017400005152A434D8806EA05152A43444DA8424B
:1017500002D0494DA8421DD14FF67F752A404D89D0
:101760004FF6FF7606EA05152A434FF6BF752A4065
:101770008D8806EA05152A434FF6FF352B404FF2B8
:10178000FF752B408D8906EA85052B43CD8906EA36
:1017900085052B4383800483CD880587028470BD33
:1017A00070B5002400220023058C4FF6FF663540FB
:1017B0000584028C8388848B4FF68F752C404FF6FE
:1017C000FC752C400D882C434FF6FF552A400D899F
:1017D0004FF6FF7606EA05252A434D8806EA0525D9
:1017E0002A431F4DA84202D0234DA8421DD14FF2DB
:1017F000FF752A404D894FF6FF7606EA05252A43F4
:101800004FF6FF352A408D8806EA05252A434EF615
:10181000FF752B404DF6FF752B408D8906EA0515A7
:101820002B43CD8906EA05152B4383808483CD881D
:101830008587028470BD70B5002200230024058CCA
:101840004EF6FF7635400584038C8488828B48F6FB
:10185000FF752A404FF6FF452A400D8820E0000022
:10186000002C01400004004000080040000C004033
:10187000001000400014004000340140004C0140C2
:10188000005001400054014000180040001C00407E
:101890000020004000400140004401400048014059
:1018A0004FF6FF7606EA05252A434DF6FF752B40D5
:1018B0000D8906EA05352B434D8806EA05352B438D
:1018C000FA4DA84202D0FA4DA84208D14BF6FF7556
:1018D0002C408D894FF6FF7606EA85152C438480CF
:1018E0008283CD88A0F84050038470BD828B4FF274
:1018F000FF331A408283828B4FF6FF7303EA012382
:101900001A4382837047F0B50C4615460022002129
:101910000026078C4EF6FF7C07EA0C070784828BB3
:10192000018C4FF6FF7707EA043640F6FF473A404E
:101930004FF6FF7707EA05273A434FF6FF7707EAA6
:1019400003373A43D94FB8420ED0D94FB8420BD0E3
:10195000B0F1804F08D0D74FB84205D0D64FB8422B
:1019600002D0D64FB84206D14DF6FF77394046F443
:101970008057394305E047F6FF57394044F4805714
:10198000394382830184F0BD828B4FF6F3731A4092
:101990008283828B0A4382837047F0B50C461546DA
:1019A000002200210026078C4FF6FF6C07EA0C0787
:1019B0000784828B018C4FF6FF7707EA04264FF6E7
:1019C0000C773A404FF6FF7707EA03172F433A4365
:1019D000B64FB8420ED0B64FB8420BD0B0F1804FE0
:1019E00008D0B44FB84205D0B34FB84202D0B34F7D
:1019F000B84206D14FF6FF57394046F48077394355
:101A000005E04FF2FF57394044F480773943828331
:101A10000184F0BD028B4FF2FF331A400283028B28
:101A20004FF6FF7303EA01231A4302837047F0B5B0
:101A30000C461546002200210026078C4FF6EF7C4D
:101A400007EA0C070784028B018C4FF6FF7707EA41
:101A5000041640F6FF473A404FF6FF7707EA033790
:101A60003A434FF6FF7707EA05273A438F4FB842CC
:101A70000ED08F4FB8420BD0B0F1804F08D08D4FB1
:101A8000B84205D08C4FB84202D08C4FB84206D134
:101A90004FF6DF77394046F01007394305E04FF63F
:101AA0005F77394044F01007394302830184F0BD69
:101AB000028B4FF6F3731A400283028B0A430283B0
:101AC0007047F0B50C46154600220021068C4FF6F3
:101AD000FE773E400684028B018C4FF60C76324036
:101AE0007E1C06EA03162E433243704EB0420ED0DF
:101AF0006F4EB0420BD0B0F1804F08D06D4EB04267
:101B000005D06D4EB04202D06C4EB04206D14FF6B9
:101B1000FD76314044F00106314305E04FF6F5769D
:101B2000314044F00106314302830184F0BD70B5B9
:101B300005460C465D4885420ED05D4885420BD077
:101B4000B5F1804F08D05B48854205D05A488542A0
:101B500002D05A48854200D100E000BF208850B929
:101B60002389A28861882846FFF7ABFFE1882846D1
:101B7000FFF79EFF25E0208804280AD12389A28848
:101B800061882846FFF753FFE1882846FFF742FFA8
:101B900017E0208808280AD12389A288618828466E
:101BA000FFF7FBFEE1882846FFF7EEFE09E02389F8
:101BB000A28861882846FFF7A6FEE1882846FFF73D
:101BC00095FE70BD2DE9F04105460C460026012723
:101BD000608808B9022600E00026A088012801D10B
:101BE000022700E001272088A0B92389A288618804
:101BF0002846FFF766FFE1882846FFF759FF23894B
:101C00003A4631462846FFF712FFE1882846FFF79B
:101C100001FF13E02389A28861882846FFF707FFA8
:101C2000E1882846FFF7F6FE23893A4631462846E2
:101C3000FFF747FFE1882846FFF73AFFBDE8F0814C
:101C40000A884B881A438B881A43CB881A430B891E
:101C50001A434B891A438B891A43A0F844207047D2
:101C60004FF6FF71818000210180C18041800172A7
:101C700070470021018041808180C18001814181C4
:101C80008181C181704700210180418001218180D3
:101C90000021C18001817047002101804180818045
:101CA000C18001814181818170470000002C014089
:101CB000003401400004004000080040000C0040D7
:101CC00021B1028842F00102028004E002884FF64E
:101CD000FE731A400280704731B1B0F8442042F4DC
:101CE0000042A0F8442005E0B0F84420C2F30E0200
:101CF000A0F8442070471AB183890B43838102E026
:101D000083898B43838170478182704741EA020354
:101D1000A0F8483070471AB183890B43838102E0F1
:101D200083898B438381704701894FF6F872114094
:101D3000018170470A46002101894FF68F731940CF
:101D400011430181704730B504460D4629462046AF
:101D5000FFF7F0FF208940F00700208130BD2DE91A
:101D6000F04104460D4616461F46602D06D13B46FF
:101D7000012231462046FFF75AFE05E03B4601228C
:101D800031462046FFF79DFE29462046FFF7D2FF49
:101D9000208940F007002081BDE8F08130B50C4675
:101DA00000210189C9B24FF6FF7505EA03251543E5
:101DB00025432943018130BD2DE9F04105460E46FA
:101DC00017469846002443463A4631462846FFF7D0
:101DD000E5FF2C894FF6F870044044F007044FF6F5
:101DE0008F70044044F070042C81BDE8F081F0B5A0
:101DF00004460D4616461F463B46324629462046B7
:101E0000FFF7CCFF208940F480402081F0BD0185A0
:101E1000828270470A46002101884FF68F7319406D
:101E2000114301807047F0B50C4615461E4600214F
:101E3000002200230189028B038C4FF6F87739408A
:101E400021434FF6FC473A4040F201173A434FF620
:101E5000DD773B404FF6FF7707EA06172F433B43FA
:101E6000018102830384F0BD0A460021018B4FF6F5
:101E70008F7319401143018370470A460021018B7B
:101E800048F6FF7319404FF6FF7303EA0223194324
:101E9000018370470A460021818B4FF68F731940EA
:101EA0001143818370470A460021818B48F6FF73F6
:101EB00019404FF6FF7303EA0223194381837047E9
:101EC00021B1028842F08002028004E002884FF6CD
:101ED0007F731A400280704721B1828842F0040269
:101EE000828004E082884FF6FB731A40828070473C
:101EF00021B1828842F00802828004E082884FF695
:101F0000F7731A408280704721B1828842F0010243
:101F1000828004E082884FF6FE731A408280704708
:101F20000A460021018B4FF6F773194011430183D4
:101F300070470A460021018B4FF2FF7319404FF69C
:101F4000FF7303EA02231943018370470A46002105
:101F5000818B4FF6F77319401143818370470A460E
:101F60000021818B4FF2FF7319404FF6FF7303EA94
:101F700002231943818370470A460021018B4FF6E3
:101F8000FB7319401143018370470A460021018BFE
:101F90004FF6FF3319404FF6FF7303EA022319434C
:101FA000018370470A460021818B4FF6FB7319406D
:101FB0001143818370470A460021818B4FF6FF331E
:101FC00019404FF6FF7303EA0223194381837047D8
:101FD0000A460021018B4FF67F731940114301839C
:101FE00070470A460021018BC1F30E014FF6FF73C3
:101FF00003EA02231943018370470A460021818BBB
:102000004FF67F7319401143818370470A460021C0
:10201000818BC1F30E014FF6FF7303EA02231943CC
:10202000818370470A460021018C4FF6FD731940E9
:102030001143018470470A460021018C4FF6F77363
:1020400019401143018470470A460021018C4FF664
:10205000DF7319404FF6FF7303EA0213194301843B
:1020600070470A460021018C4FF67F7319404FF6E6
:10207000FF7303EA02131943018470470A460021E3
:10208000018C4FF6FF5319404FF6FF7303EA02230A
:102090001943018470470A460021018C4FF2FF73F7
:1020A00019404FF6FF7303EA022319430184704776
:1020B0000A460021018C4DF6FF7319404FF6FF735D
:1020C00003EA023319430184704730B50023012429
:1020D0008C40A3B2048C9C430484048C02FA01F566
:1020E000ADB22C43048430BD30B5002304248C40B1
:1020F000A3B2048C9C430484048C02FA01F5ADB2B3
:102100002C43048430BD70B50346002000241846DB
:10211000183001258D40ACB21D8CA5431D8409B13A
:10212000082909D100EB6100056825F070050560FC
:102130000568154305600EE00D1FC5F34E052844E4
:10214000056825F4E045056005684FF6FF7606EA68
:1021500002263543056070BD21B1028842F00202BB
:10216000028004E002884FF6FD731A400280704737
:1021700021B1028842F00402028004E002884FF696
:10218000FB731A400280704721B1828842F08002BE
:10219000828004E082884FF67F731A408280704705
:1021A00002884FF6F7731A40028002880A430280C1
:1021B000704782884FF68F731A40828082880A4364
:1021C0008280704702894FF6F8731A4002810289B3
:1021D0000A430281704702894FF67F731A400281D9
:1021E00002890A4302817047818470478185704764
:1021F000818670470187704781877047A0F840103B
:10220000704702884FF6FF431A40028002880A4353
:10221000028070470146888E70470146088F7047DC
:102220000146888F70470146B1F84000704701466B
:10223000888C70470146088D704702460020138A3B
:102240000B400BB1012000E000207047CA4302821E
:10225000704730B50246002000230024158A05EAA5
:102260000103958905EA010413B10CB1012000E0D6
:10227000002030BDCA4302827047000010B50446FA
:10228000FB48844209D101218803FFF79FF8002110
:102290004FF48040FFF79AF832E0F648844209D1C3
:1022A00001214804FFF79FF800214FF40030FFF7A9
:1022B0009AF825E0F048844209D101218804FFF70B
:1022C00092F800214FF48020FFF78DF818E0EB48DA
:1022D000844209D10121C804FFF785F800214FF499
:1022E0000020FFF780F80BE0E548844208D1012187
:1022F0000805FFF778F800214FF48010FFF773F816
:1023000010BD2DE9F04786B005460E460024A246D2
:1023100000BFA1460027B08900B100BF2F462C8A1C
:102320004CF6FF700440F08804432C82AC894EF6D2
:10233000F3100440B088318908437189084304438D
:10234000AC81AC8A4FF6FF400440B0890443AC82B4
:1023500001A8FEF7B4FFC648874202D1DDF810A0FD
:1023600001E0DDF80CA0A88900F4004040B10AEBC0
:10237000CA0000EB0A1031684900B0FBF1F807E031
:102380000AEBCA0000EB0A1031688900B0FBF1F8D3
:102390006420B8FBF0F004012009642101FB1089DE
:1023A000A88900F4004040B1322000EBC900B0FB26
:1023B000F1F000F00700044308E0322000EB0910C0
:1023C0006421B0FBF1F000F00F0004432C8106B053
:1023D000BDE8F0874FF41651016000218180C18073
:1023E00001810C21418100218181704710B5024695
:1023F0000020108A4FF2FF0318400B884C882343BB
:102400008C882343CC8823431843108210BD0021BD
:10241000018041808180C180704721B1828942F46E
:102420000052828104E082894DF6FF731A40828156
:102430007047F0B50346002400260025002040F632
:102440006A17B94200D100BF1846C1F3421401F027
:102450001F06012707FA06F5012C01D10C3004E014
:10246000022C01D1103000E014301AB107682F435C
:10247000076002E00768AF430760F0BD1AB1838AC6
:102480000B43838202E0838A8B4383827047028AF4
:102490004FF6F0731A400282028A0A4302827047A2
:1024A00082894FF2FF731A40828182890A438281B6
:1024B000704721B1828942F00202828104E0828960
:1024C0004FF6FD731A4082817047028A4FF6DF7320
:1024D0001A400282028A0A430282704721B1028AAC
:1024E00042F48042028204E0028A4BF6FF731A40F3
:1024F00002827047C1F308028280704701468888D3
:10250000C0F308007047818941F001018181704763
:10251000028BD2B20283028B42EA0122028370470D
:10252000028B02F47F420283028B0A4302837047CC
:1025300021B1828A42F02002828204E0828A4FF630
:10254000DF731A408282704721B1828A42F0100202
:10255000828204E0828A4FF6EF731A4082827047CB
:1025600021B1828A42F00802828204E0828A4FF618
:10257000F7731A408282704721B1828942F4004287
:10258000828103E08289C2F30E028281704721B109
:10259000828A42F40062828204E0828A4FF2FF73F0
:1025A0001A4082827047828A4FF6FB731A408282F9
:1025B000828A0A438282704721B1828A42F00202F3
:1025C000828204E0828A4FF6FD731A40828270474D
:1025D00002460020B1F5007F00D100BF13880B40F8
:1025E0000BB1012000E00020704701F40072B2F549
:1025F000007F00D100BFCA430280704770B5024619
:10260000002400230025002040F66A16B14200D1C4
:1026100000BFC1F3421501F01F03012606FA03F3C0
:10262000012D02D19689334006E0022D02D1168A8F
:10263000334001E0968A33400C12012606FA04F476
:102640001688344013B10CB1012000E0002070BDA9
:1026500010B50022002340F66A14A14200D100BF49
:102660000A1201249440A3B2DC43048010BD000090
:10267000003801400044004000480040004C004049
:102680000050004010B56FF00400FDF7CCFF2E485D
:1026900000682E49B0FBF1F02D490870084600781B
:1026A00000EB4001C1EBC0104FF6FF7101EAC00022
:1026B0002849088010BD0146254A12784A434FF048
:1026C000E0235A6100229A611A46126942F001021F
:1026D0001A6100BF4FF0E022106900F001021AB148
:1026E00000F48032002AF5D04FF0E022126922F087
:1026F00001024FF0E0231A6100229A6170470146FF
:10270000144A12884A434FF0E0235A6100229A612A
:102710001A46126942F001021A6100BF4FF0E0222E
:10272000106900F001021AB100F48032002AF5D0DD
:102730004FF0E022126922F001024FF0E0231A610B
:1027400000229A6170470000E400002000127A0025
:102750000C0100200E010020014600BF704700BFA1
:10276000E74A128802F04002002AF9D0C2B2E44BD4
:102770001B1D1A807047E249091D088000BFE0490F
:10278000098801F040010029F9D0704710B586B0E2
:10279000044601210420FEF7FFFD01214804FEF755
:1027A00008FE0420ADF8140003208DF81600182050
:1027B0008DF8170005A9D348FEF7CCFA0820ADF82C
:1027C000140004208DF8170005A9CE48FEF7C2FAC0
:1027D00026208DF8000000208DF8010001208DF8E2
:1027E00002008DF803006846FDF7D3FE0194002037
:1027F000ADF80800ADF80A00ADF80C00ADF8100017
:102800000C20ADF80E0001A9BD48FFF77AFD0122AA
:1028100040F22551BA48FFF70CFE0121B848FFF7F6
:10282000FCFD06B010BD2DE9FF5F40F22551B44814
:10283000FFF7E4FE00287DD0B148001D0088B249B2
:10284000086008460068412809DB084600684828F7
:1028500005DC084600784038AC49087002E00020EA
:10286000AA490870A84800687B2802D10120A8491D
:102870000870A54800687D2802D10220A44908708C
:10288000A348007801280AD19F480078A149A24AAC
:1028900012788854A0480078401C9F4908709C48D2
:1028A000007802287CD19B48C078502803D10120B1
:1028B0009A49087067E097484078232863D0964883
:1028C00000789749087034E093490978944A12785F
:1028D000881A08F074FF804642460B460020914952
:1028E00007F0E2FF04460D468D490978491E894AE2
:1028F000515CA1F1300008F062FF064622462B46EB
:1029000008F0C4FF82468B468748006809F0CEFA7B
:1029100052465B46CDE9000108F00EFDCDE902010B
:1029200008F0D8FC804908607D480078401E7C494A
:10293000087000E034E07A4800780428C4DA75486A
:102940004078303809281DD2DFE800F0050C111658
:102950001718191A1B007448006809F037FC7349EE
:1029600008600FE070480068714908600AE06E482E
:1029700000687049086005E004E003E002E001E05F
:1029800000E000BF00BF0020614908706249087084
:10299000634908706449086032215E4807F078FA9C
:1029A000BDE8FF9F64480078F8B1574800685A288E
:1029B0001BD00020604A107053480068012806DBD5
:1029C00051480068082802DC4F4801780BE04E4867
:1029D0000068412807DB4C480068482803DC4A4867
:1029E00000784038C1B208467047474800685A2806
:1029F00002D10120504A10700020F5E72DE9F04186
:102A00004E480068002801DD002406E04B480068BD
:102A1000002801DA022400E0012449480068002867
:102A200001DD002506E046480068002801DA02259D
:102A300000E0012543480068002801DD002606E08B
:102A400040480068002801DA022600E001264FF025
:102A50008E413D48006809F055FA804609F0D2FBE6
:102A600087B2FF2001F0DEFBFE2001F0DBFB3349E3
:102A7000D1F80080B8F1000F01DB414601E0C8F158
:102A80000001C8B201F0CEFB204601F0CBFB2C497F
:102A9000D1F80080B8F1000F01DB414601E0C8F138
:102AA0000001C8B201F0BEFB284601F0BBFB25497E
:102AB000D1F80080B8F1000F01DB414601E0C8F118
:102AC0000001C8B201F0AEFB304601F0ABFB1F497C
:102AD000D1F80080B8F1000F01DB414601E0C8F1F8
:102AE0000001C8B201F09EFB484601F09BFB381282
:102AF00001F098FBF8B201F095FBBDE8F081000011
:102B000000440040000801401401002002000020A1
:102B1000180100202C030020190100207200002061
:102B20001A010020000024401C010020B4000020F5
:102B3000AC000020B0000020200100200800002090
:102B40000C00002010000020900000201400002045
:102B5000A34A0A400243A34B1A6070470146072369
:102B600023EA010212029F4B1B1D18684FF6FF0358
:102B700018409D4B184310439A4B1B1D186070471B
:102B80002DE9F0410746884614461D462846FFF7C2
:102B9000E5FFC5F1040007FA00F60F20284100EA1E
:102BA0000800064306F00F06E21704EBD26252114A
:102BB000920002F1E022D2F800212146E31704EB53
:102BC000D3635B11A4EB431C012303FA0CF31A43F8
:102BD0002046E31704EBD3635B119B0003F1E02372
:102BE000C3F800218148005D40EA06107F4908557E
:102BF000BDE8F08170B504460B46CE1701EB967622
:102C0000C6F38700CE1701EB9676B610A1EB8606C9
:102C1000B606350E764B9B6943F00103744EB361E3
:102C20004FEAB63353F820300F26AE40B343714E0F
:102C300046F82030334653F8203004FA05F61E4398
:102C40006C4B43F820606C4B1B6801268E4033436D
:102C5000694E336002F0010343B1674B0C331B68CC
:102C600001268E403343644E0C36336002F002037B
:102C700043B1614B08331E6801238B401E435E4BFA
:102C800008331E6070BD00B5002059490861C86056
:102C90001420486100208861C8610846006840F03F
:102CA000010008600846406854490840504948609F
:102CB00008460068524908404D49086008460068C7
:102CC00020F4802008600846406820F4FE00486038
:102CD0000020886000214FF00060FFF739FF00BD41
:102CE00010B540480830006840F004003D49083104
:102CF00008603F48C06940F080503D49C861414884
:102D0000406840F480703F4948600846006840F0E1
:102D1000040008600846006840F002000860FDF703
:102D200079FA10BD3048001D2E49091D0860704712
:102D3000014649062E4A926942F001022C4B9A61E3
:102D40002C4A083A526822F0E0622A4B083B5A604B
:102D50001A4652680A435A60704730B50446002547
:102D6000FFF791FF2248006840F480302049086056
:102D700000BF1F480068400C0028FAD04FF4806064
:102D80001B494860A01EC4B20846406840EA84401F
:102D900048600846406840F4803048601A4800683F
:102DA00040F03200184908601148006840F0807017
:102DB0000F49086000BF0E480068400E0028FAD096
:102DC0000B48406840F002000949486005E00848A7
:102DD0004068C0F3870505F00305022DF7D130BD2B
:102DE00080FFFF1F08ED00E00000FA0500E400E0AE
:102DF0000010024008000140000401400000FFF8FC
:102E0000FFFFF6FE007000400020024008B50121DF
:102E10000820FEF7C1FA4FF40050ADF80000102072
:102E20008DF8030003208DF8020069460C48FDF779
:102E300091FF08BD18B900210A4A11600FE00A4944
:102E40000968491C084A1160814208D1054909688E
:102E5000C943064AC2F8B4110021034A1160704701
:102E6000000C0140B4812142240100200080214255
:102E700008B501210820FEF78FFA4FF4A040ADF805
:102E8000000048208DF8030069468148FDF762FF85
:102E900008BD01467F48006828B97F480088401C6B
:102EA0007D4A108002E000207B4A1080794800684B
:102EB00028B97A48007810B90120784A107078480B
:102EC0000078B0B975480078012807D175480078B6
:102ED000401C744A10700120714A107071480078CB
:102EE000022806D100206F4A10706F4A108002201D
:102EF000704768480068012804D10020674A1070B4
:102F0000674A10706748007801281CD1664800881D
:102F1000401C654A10801046008888420ADD5E48E1
:102F20000088884206DA00205E4A10705E4A1080EF
:102F30000120DDE758480088884204DD0020594A16
:102F40001070594A10800020D2E75848007838B1F4
:102F50005048006820B9002054490870012070478B
:102F60004C480068012801D1504908700020F6E75C
:102F70004F48008840B94748006828B94D48008844
:102F8000401C4C49088002E000204A49088049481A
:102F90000088C82807DD01204549088000204549F0
:102FA00008800120704742480088012802D1002093
:102FB0003F4908800020F5E770B54FF4827506F0B0
:102FC000D3FD3D49098808B2002801DB014600E035
:102FD00041420E46344639490968701A002801DB1F
:102FE000014600E0414229B935480068401C344997
:102FF000086002E0002032490860AC4205DC002095
:10300000304908703049087029E0AC4208DD68009A
:10301000A04205DB01202B4908702B4908701EE0F7
:103020006800A0420ADA05EB4500A04206DB022058
:103030002449087001202449087010E005EB450080
:10304000A04209DAA800A04206DB03201D4908704F
:1030500001201D49087002E00020174908800D4832
:10306000006820B116480068B0F5167F02DD012027
:103070001649087015480078012804D100F093F82B
:103080000020134908700D4806601148007870BD93
:10309000000C0140388121422E010020280100202F
:1030A000290100202A0100202C01002030010020ED
:1030B0003401002032010020240C0040380100209F
:1030C0003C01002003000020060000200400002036
:1030D0003601002010B50A461AB10123FE4C2360C8
:1030E00002E00023FC4C2360002117E00023FA4C8F
:1030F000343C236000F0800323B10123F64C0834F4
:10310000236003E00023F44C083423600123F24CD5
:10311000343C23604306180E4B1CD9B20829E5DB6A
:103120000123ED4C236010BD30B500241CE004F1F8
:10313000B001C8B20021FFF7CDFF00210846FFF71C
:10314000C9FF00211020FFF7C5FF002508E0E34973
:1031500001EBC501085D0121FFF7BCFF681CC5B28A
:10316000802DF4DB601CC4B2082CE0DB30BD00B560
:1031700000218D20FFF7AEFF00211420FFF7AAFFEA
:103180000021AF20FFF7A6FF00BD00B500218D2074
:10319000FFF7A0FF00211020FFF79CFF0021AE20C9
:1031A000FFF798FF00BD30B500240CE0002506E0D5
:1031B0000020CA4901EBC5010855681CC5B2802D25
:1031C000F6DB601CC4B2082CF0DBFFF7ADFF30BDAE
:1031D000F0B5144600267F2801DC3F2900DDF0BD54
:1031E0000B46CF1701EB5777FF10C7F10707FAB26D
:1031F000CF1701EB5777FF10A1EBC707FDB2C5F161
:1032000007070123BB40DEB24CB1B44B03EBC00354
:103210009B5C3343B14F07EBC007BB5408E0AF4B97
:1032200003EBC0039B5CB343AC4F07EBC007BB543D
:1032300000BFD4E72DE9F04F80460C4615461E46E8
:10324000A346A5F12000C5B200273EE00C2E07D111
:1032500005EB4500A24901EB800010F8079004E05F
:10326000A04800EB051010F807904FF0000A26E088
:1032700009F0800028B121464046099AFFF7A8FFCF
:1032800009E0099808B9012000E000200246214623
:103290004046FFF79DFF4FEA49604FEA1069601C06
:1032A000C4B2A4EB0B00B04205D15C4608F10100AA
:1032B00000F0FF0806E00AF1010000F0FF0ABAF191
:1032C000080FD5DB00BF781CC7B2B742BEDBBDE834
:1032D000F08F10B50246012000E050430B00A1F131
:1032E0000104E1B2F9D110BD2DE9FF4F81B00746CD
:1032F00091461E460E9D4FF0000A002439E0301B17
:10330000401EC1B20A20FFF7E4FFB9FBF0F00A212A
:10331000B0FBF1F201FB1208BAF1000F16D1701EDA
:10332000A04213DDB8F1000F0ED10120AB4605EB32
:10333000DB71491001FB04710090C8B22B462022BA
:103340000299FFF777FF12E04FF0010A0120AB4628
:1033500005EBDB71491001FB04710090C8B208F164
:103360003001CAB22B460299FFF764FF00BF601C10
:10337000C4B2B442C3DB05B0BDE8F08F78B50546F2
:103380000E46144618E07A2D03DD002506F11000E4
:10339000C6B23A2E04DD002005460646FFF703FFBD
:1033A0000120009022780C2331462846FFF742FF87
:1033B00005F10800C5B2641C20780028E3D178BD6F
:1033C00008B501211020FDF7E7FF01210846FDF7B0
:1033D000E3FF4EF20100ADF8000010208DF803006D
:1033E00002208DF8020069463F48FDF7B3FC01203A
:1033F000FDF709FE0020FDF73CFF0020FDF765FB0F
:103400000020FDF700FE00203349091D08606420FC
:10341000FFF775F901203549C1F8B8010021AE2048
:10342000FFF758FE0021D520FFF754FE0021502061
:10343000FFF750FE0021A820FFF74CFE00213F209F
:10344000FFF748FE0021D320FFF744FE0021084685
:10345000FFF740FE00214020FFF73CFE00218D20B9
:10346000FFF738FE00211420FFF734FE0021202052
:10347000FFF730FE00210220FFF72CFE0021A120E3
:10348000FFF728FE0021C020FFF724FE0021DA20EC
:10349000FFF720FE00211220FFF71CFE00218120F3
:1034A000FFF718FE0021EF20FFF714FE0021D920BE
:1034B000FFF710FE0021F120FFF70CFE0021DB20BA
:1034C000FFF708FE00213020FFF704FE0021A420B2
:1034D000FFF700FE00210BE0B40122425E03002052
:1034E000EEC6000862CB0008001001400000224236
:1034F000A620FFF7EFFD0021AF20FFF7EBFDFFF760
:1035000052FE08BD002000E0401C0A28FCDB70478A
:1035100010B50446072301222146A448FDF761F9AE
:103520000121A248FDF731F900BF02219F48FDF7B4
:103530009DFA0028F9D09D48FDF7BAF910BD70B585
:103540000024002501209A49086000209949C1F80B
:103550008C01FFF7D7FF01209549091D0860002065
:103560009449C1F88801FFF7CDFF01209049086018
:1035700000209049C1F88C01FFF7C4FF00BF17E09D
:1035800000208B490860FFF7BDFFFFF7BBFF0B2052
:10359000FFF7BEFF0011884921F81500681CC5B26D
:1035A00001208449C1F88801FFF7ACFF601CC4B258
:1035B000802CE5DB70BD00B587B001214FF40470AD
:1035C000FDF7EAFE4FF40040FDF74AFE1020ADF88B
:1035D000040000208DF8070001A97848FDF7BAFB28
:1035E0007248FDF73FF8002002908DF80C008DF82E
:1035F0000D004FF4602004900020059001208DF80C
:10360000180002A96948FDF754F801216748FDF741
:103610007CF86648FDF79BF800BF6448FDF79CF80E
:103620000028FAD16148FDF7A1F800BF5F48FDF717
:10363000A2F80028FAD107B000BD2DE9F04F85B0FF
:103640000E20FFF765FF019008F0D0F84FF06632CA
:103650005B4BCDE9020108F019F980460022594B75
:1036600008F014F906460022574B08F00FF90446FB
:103670000022564B07F01CFF824608F071F80490B8
:10368000049805B0BDE8F08F00B587B001214FF474
:103690000470FDF781FE4FF40040FDF7E1FD0220CC
:1036A000ADF8040000208DF8070001A94848FDF797
:1036B00051FB0C20ADF8040010208DF8070002200B
:1036C0008DF8060001A94248FDF744FB3748FCF796
:1036D000C9FF002002908DF80C008DF80D004FF40A
:1036E000602004900020059001208DF8180002A9A8
:1036F0002E48FCF7DEFF01212C48FDF706F82B4889
:10370000FDF725F800BF2948FDF726F80028FAD173
:103710002648FDF72BF800BF2448FDF72CF80028B9
:10372000FAD107B000BD00B587B001214FF4047095
:10373000FDF732FE4FF40040FDF792FD0E20ADF88C
:10374000040000208DF8070001A92148FDF702FBC5
:103750001648FCF787FF002002908DF80C008DF8CA
:103760000D004FF4602004900020059001208DF89A
:10377000180002A90D48FCF79CFF01210B48FCF73B
:10378000C4FF0A48FCF7E3FF00BF0848FCF7E4FF6A
:103790000028FAD10548FCF7E9FF00BF0348FCF711
:1037A000EAFF0028FAD107B000BD00000024014064
:1037B00088012242000022422C020020000C01401D
:1037C00066660A4000002640000059400000B040F4
:1037D0000010014030B589B005460C460121C802F1
:1037E000FDF7DAFD01214803FDF7D6FD0121042094
:1037F000FDF7D2FD01211020FDF7CEFD4FF47060E2
:10380000ADF8200018208DF8230003208DF8220049
:1038100008A94348FDF79EFA4FF47070ADF82000F8
:1038200018208DF8230003208DF8220008A93D48B8
:10383000FDF790FAADF81850ADF814400020ADF83F
:103840001A00ADF8160005A93748FDF7DDFE05A9F9
:103850003648FDF7D9FE6020ADF804000120ADF830
:1038600006000020ADF80A00ADF80C0001A92E48B2
:10387000FDF707FF01A92C48FDF745FF01A92A48DC
:10388000FDF78EFF01A92848FDF7D5FF01A92748BC
:10389000FDF7F7FE01A92548FDF735FF01A92348EB
:1038A000FDF77EFF01A92148FDF7C5FF01211E4854
:1038B000FEF712FA01211D48FEF70EFA08211A48F8
:1038C000FEF72EFB08211848FEF733FB08211648A7
:1038D000FEF73CFB08211448FEF741FB0821134882
:1038E000FEF71EFB08211148FEF723FB08210F48B5
:1038F000FEF72CFB08210D48FEF731FB01210A4899
:10390000FEF7DEFA01210948FEF7DAFA012106483E
:10391000FEF7D6F901210548FEF7D2F909B030BD0E
:103920000008014000100140002C0140003401401B
:1039300000B587B001210846FDF72EFD012108469C
:10394000FDF737FD01210420FDF726FD01210820A8
:10395000FDF722FD0121C848FDF7CDFA4FF40040E4
:10396000ADF8000004208DF803006946C348FDF758
:10397000F1F90820ADF8000004208DF80300694635
:10398000BF48FDF7E7F904A8FEF76AF90020ADF893
:1039900010004FF6FF70ADF814000020ADF81600CF
:1039A000ADF8120004A94FF08040FDF72DFE002372
:1039B0001A4603214FF08040FEF735FA01A8FEF7C2
:1039C00062F90A20ADF80C0001A94007FEF7AFF834
:1039D00001218807FEF73AFC012211469007FEF705
:1039E0008AF900214FF08040FEF7FEFB0121880795
:1039F000FEF766F907B000BD00B587B001210220CF
:103A0000FDF7D7FC01210420FDF7C6FCC020ADF86E
:103A1000000004208DF8030069469848FDF79AF9E4
:103A200004A8FEF71DF90020ADF810004FF6FF7056
:103A3000ADF814000020ADF81600ADF8120004A98E
:103A40009048FDF7E1FD00231A4603218D48FEF75B
:103A5000EAF901A8FEF717F90A20ADF80C0001A950
:103A60008848FEF764F801218648FEF7EFFB012243
:103A700011468448FEF73FF900218248FEF7B4FB67
:103A800001218048FEF71CF907B000BD00B587B0E2
:103A900001210420FDF78DFC01210820FDF77CFCAD
:103AA000C020ADF8000004208DF80300694674487A
:103AB000FDF750F904A8FEF7D3F80020ADF8100088
:103AC0004FF6FF70ADF814000020ADF81600ADF809
:103AD000120004A96C48FDF797FD00231A46032144
:103AE0006948FEF7A0F901A8FEF7CDF80A20ADF865
:103AF0000C0001A96448FEF71AF801216248FEF79C
:103B0000A5FB012211466048FEF7F5F800215E484A
:103B1000FEF76AFB01215C48FEF7D2F807B000BD52
:103B200000B587B001210820FDF743FC01210420E6
:103B3000FDF732FC0320ADF8000004208DF80300EF
:103B400069464E48FDF706F904A8FEF789F80020FB
:103B5000ADF810004FF6FF70ADF814000020ADF87E
:103B60001600ADF8120004A94848FDF74DFD0023EA
:103B70001A4603214548FEF756F901A8FEF783F8D7
:103B80000A20ADF80C0001A94048FDF7D0FF012143
:103B90003E48FEF75BFB012211463C48FEF7ABF8BE
:103BA00000213A48FEF720FB01213848FEF788F84B
:103BB00007B000BD0146022906D003290DD0042913
:103BC00014D0052924D11AE04FF08042928C10B213
:103BD00000224FF080439A841CE02A4A2432128843
:103BE00010B20022274B24331A8013E0264A2432D5
:103BF000128810B20022244B24331A800AE0234A90
:103C00002432128810B20022204B24331A8001E0A3
:103C1000002000BF00BF70474FF08040008A4FF087
:103C20008040008A20F001004FF0804108827047F8
:103C300014481030008813481030008820F001002C
:103C400010491031088070470F48103000880E4826
:103C50001030008820F001000B49103108807047B7
:103C60000A481030008809481030008820F0010010
:103C70000649103108807047000318000008014011
:103C8000000C01400004004000080040000C00400F
:103C900008B501210820FDF77FFB4FF44060ADF827
:103CA000000010208DF8030002208DF80200694604
:103CB000F748FDF74FF808BD10B5F548001D00683E
:103CC00020F47040F249091D08600846006840F47D
:103CD000405008600120EF490860EF48D0F82C01FF
:103CE00008B9002010BD0120EA49091F0860FEF74D
:103CF000E2FC0020E849C1F8AC01E64880380068E1
:103D000008B10020EEE70120FEF7D5FC0020E149D4
:103D1000091F08600120E5E710B5DD48001D0068B7
:103D200020F47040DA49091D08600846006840F434
:103D3000405008600020D749091F0860D649C1F8E3
:103D4000AC010120FEF7B7FC0120D249091F086031
:103D5000D149C1F8AC01FEF7AEFC10BD10B500248E
:103D6000CB48001D006820F47040C949091D086057
:103D70000846006840F4004008600120C54908601A
:103D8000FEF799FC0120C449C1F8A801FEF793FC95
:103D90000AE0601CC4B2322C03DDFFF7BDFF002037
:103DA00010BD0120FEF787FCBA4880380068002863
:103DB000EFD1B849091F08600120F1E710B50020D4
:103DC000B449091F0860B248001D006820F4704023
:103DD000AF49091D08600846006840F4405008607B
:103DE0000020AD49C1F8AC010120FEF764FC0120C0
:103DF000A849091F0860FEF75EFC0020A649C1F82B
:103E0000A80110BD10B50020A249091F0860A048F4
:103E1000001D006820F470409D49091D0860084697
:103E2000006840F44050086001209B49C1F8AC0193
:103E3000FEF741FC01209749091F0860FEF73BFC93
:103E400000209549C1F8A80110BD70B504469048FE
:103E5000001D006820F470408D49091D0860084667
:103E6000006840F44050086000208A49091F08603B
:103E7000002516E0E009874908606006040E01206D
:103E8000FEF719FC01208449C1F8A801FEF713FCD4
:103E900000208049091F08600120FEF70CFC681C07
:103EA000C5B2082DE6DB70BD2DE9F04105460E4692
:103EB00017469846FFF700FF10B90120BDE8F081D2
:103EC0006906080EFFF7C1FFFFF748FF18B9FFF7B3
:103ED00023FF0120F2E73046FFF7B7FFFFF73EFF71
:103EE00000240BE018F80400FFF7AFFFFFF736FFE0
:103EF00018B9FFF711FF0020E0E7641CBC42F1DBBA
:103F0000FFF70AFF0020D9E770B505460024604896
:103F1000001D006820F470405D49091D08600846D6
:103F2000006840F400400860002617E0002059496E
:103F3000091F08600220FEF7BEFB01205649C1F8A8
:103F4000A8016006040E53488038006808B1601C60
:103F5000C4B20220FEF7AFFB701CC6B2082EE5DB30
:103F600015B1FFF72BFF01E0FFF74CFF204670BDB6
:103F70002DE9F04106460F4614461D46FFF79CFE0C
:103F800010B90120BDE8F0817106080EFFF75DFF52
:103F9000FFF7E4FE18B9FFF7BFFE0120F2E738464D
:103FA000FFF753FFFFF7DAFEFFF786FE012101EB73
:103FB0004601C8B2FFF749FFFFF7D0FE0DE0012C24
:103FC00004D10020FFF7A0FF287003E00120FFF7D5
:103FD0009BFF28706D1C601EC4B2002CEFD1FFF750
:103FE0009BFE0020CEE770B505460E460024FFF785
:103FF00063FE2846FFF729FF641CFFF7AFFE30463B
:10400000FFF723FF641CFFF7A9FEFFF755FE691CAD
:10401000C8B2FFF71AFF641CFFF7A0FE0020FFF7ED
:1040200073FF0446FFF778FE204670BD2DE9F0418E
:104030000746884615461E460024FFF73DFE3846D3
:10404000FFF703FFFFF78AFE4046FFF7FEFEFFF78C
:1040500085FEFFF731FE791CC8B2FFF7F6FEFFF7C9
:104060007DFE00BF0DE0681EA04204D00120FFF7D6
:104070004BFF305503E00020FFF746FF3055601C32
:10408000C4B2AC42EFDBFFF747FE2046BDE8F0814B
:10409000000C0140AC812142008021422DE9F04119
:1040A00080460D4616461F460024FFF705FE404693
:1040B000FFF7CBFEFFF752FE2846FFF7C6FEFFF7DD
:1040C0004DFE00BF06E0385DFFF7BFFEFFF746FE7E
:1040D000601CC4B2B442F6DBFFF71EFE0120BDE84F
:1040E000F08170B505460E46144631462846FFF766
:1040F0007AFF2070012070BD37B504460D4602AB33
:10410000012229462046FFF7C9FF3EBD2DE9F843AD
:104110000746884614461D46089E6A46414638466C
:10412000FFF7DFFF28B3601CFF2101FA00F0C4F1A4
:1041300008012944491EFF220A41104300F0FF09EB
:10414000C5F1080006FA00F0C6B2C4F10700064146
:104150009DF8000000EA090000909DF8000030433F
:1041600000909DF8002041463846FFF7C5FFBDE8A6
:10417000F8830020FBE7F8B506460F4614461D46B7
:104180006A4639463046FFF7ACFF2DB10120A0400A
:104190009DF80010084305E00120A0409DF80010A4
:1041A00021EA0000C0B200909DF800203946304658
:1041B000FFF7A2FFF8BD00001FB501210846FDF77B
:1041C000EBF801211020FDF7E7F82020ADF80C00F6
:1041D00048208DF80F0003A91148FCF7BBFD05210D
:1041E0000220FCF7CDFE2020019000208DF8080071
:1041F0000C208DF8090001208DF80A0001A8FCF7B9
:10420000C9FC17208DF8000001208DF801008DF801
:1042100002008DF803006846FCF7BBF91FBD0000E3
:10422000001001405549088000BF5449091F098802
:1042300001F040010029F8D0704710B586B004465F
:1042400001210846FDF7A8F801211020FDF7A4F888
:1042500001218804FDF7ADF801214948FCF74BFE28
:104260004FF48060ADF8140003208DF8160018207C
:104270008DF8170005A94348FCF76CFD4FF400606A
:10428000ADF8140004208DF8170005A93D48FCF78F
:1042900061FD27208DF8000000208DF8010001202D
:1042A0008DF802008DF803006846FCF772F901945E
:1042B0000020ADF80800ADF80A00ADF80C00ADF82C
:1042C00010000C20ADF80E0001A92C48001FFEF7CD
:1042D00018F8012240F225512848001FFEF7A9F8DE
:1042E00001212648001FFEF798F806B010BD10B552
:1042F00040F225512148001FFEF780F900283CD0EC
:104300002149097851B921490978491CC9B21F4A84
:1043100011700A2902DD01211B4A11701749098811
:10432000C8B21B49097869B91A490978FE2909D127
:1043300019490978FF2905D10121154A1170002179
:10434000164A11701249097801290FD11449134AEC
:104350001278885411490978491C104A1170114685
:104360000978082902D10021094A11700949097800
:10437000094A11700749087000BF10BD0448004089
:1043800010001400001001407000002044010020C3
:104390007100002042010020430100204101002063
:1043A000670000202DE9F84304460D4616461F46D7
:1043B000DDF820904FF0000814B10DB106B117B927
:1043C0000120BDE8F883601EC4B2681EC5B2701E2D
:1043D000C6B2781E87B201210846FCF7DDFF012135
:1043E0000820FCF7D9FF01214806FCF7E2FF012174
:1043F0004FF4EA10FCF77FFD4FF40070ADF80000B9
:1044000003208DF8020018208DF803006946FE484D
:10441000FCF7A0FC4FF48070ADF8000048208DF848
:1044200003006946F848FCF795FC0020F74908604E
:104430000846006840F00100086008E008F101004B
:104440001FFA80F8B8F1640F01DD0220B9E7EF48E8
:10445000001D006800F001000028EFD0EB48006864
:10446000EA49086008460068086008460068086075
:104470000846006840F010000860084600680860C0
:104480000846006808600020E0491C3108600846C2
:10449000006840EA897008600846006840EA0460E5
:1044A00008600846006840EA055008600846006851
:1044B00040EA064008600846006838430860D34870
:1044C000006820F00100D149086009E008F101000E
:1044D0001FFA80F84FF6F070804501DD032070E789
:1044E000CA48001D006800F001000028EED1C8484D
:1044F000006840F00100C6490860C5481C300068EB
:1045000020F00100C2491C310860C1480C3000682D
:1045100040F00100BE490C310860BD48001D006834
:10452000BB49091D0860BA4814300068B849143105
:1045300008600020B649403108600021B44844308A
:104540000160B3481C30006840F00100B0491C31E4
:104550000860AF4800680020AD490860AB481430DF
:10456000006840F00200A9491431086002231422B7
:1045700000210120FEF704FB002022E7F0B50546EC
:104580000E46059CA1480830006800F0806008B124
:10459000002111E09D480830006800F0006008B17B
:1045A000012109E099480830006800F0805008B106
:1045B000022101E0FF20F0BD00279548803800EB84
:1045C000011007601EB9C5F30A056D0502E025F06C
:1045D0006045ED008E48803800EB011000682843EC
:1045E0008B4F803F07EB011738608948803800EB1C
:1045F0000110006840EA86078548803800EB01100A
:1046000007608348803800EB0110006840EA4207E9
:104610007F48803800EB0110076003F00F037C48EF
:10462000803800EB0110406820F00F077848803890
:1046300000EB011047607648803800EB01104068BD
:104640001843734F803F07EB01177860E07900064D
:10465000A77940EA0740677940EA072720790743AE
:104660006B48803800EB0110C760E0780006A7783F
:1046700040EA0740677840EA072027783843644FCC
:10468000803F07EB0117B8606148803800EB0110EC
:10469000006840F001075E48803800EB01100760B9
:1046A000084688E70146002021B1012916D00229D9
:1046B0003CD127E0554A0832126802F0010210434B
:1046C000524A0832126802F0020210434F4A08327E
:1046D000126802F0806240EA126029E04B4A083218
:1046E000126802F001021043484A0832126802F0D0
:1046F00002021043454A0832126802F0006240EAA2
:10470000526015E0414A0832126802F0010210437B
:104710003E4A0832126802F0020210433B4A083255
:10472000126802F0805240EA926001E0052000BF6A
:1047300000BF7047014629B934480C30006800F0CA
:1047400003007047012905D130481030006800F09F
:104750000300F6E70020F4E7F0B5DDE905542C4E40
:10476000503E06EB0016366806F004061670167802
:104770003EB9274E503E06EB00163668760D0E60A9
:1047800006E0234E503E06EB00163668F6080E6033
:104790001F4E503E06EB0016366806F002061E70ED
:1047A0001B4E503E06EB0016766806F00F062E7084
:1047B000174E503E06EB0016B6682670144E503E5B
:1047C00006EB0016B668360A6670114E503E06EBD0
:1047D0000016B668360CA6700D4E503E06EB00165D
:1047E000B668360EE6700A4E503E06EB0016F668C6
:1047F0002671074E503E06EB0016F668360A6671C3
:10480000034E503E06E00000000C014000640040F2
:104810000066004006EB0016F668360CA671C74E1F
:1048200006EB0016F668360EE67130B9C44E3668EF
:1048300046F02006C24F3E6009E0012807D1C04E75
:10484000361D366846F02006BD4F3F1D3E60F0BD68
:1048500010B58AB0BBA103C9CDE9040102A806A91D
:1048600007AB08AACDE9001009A90020FFF774FFE3
:1048700000240FE0072C04D102A8005DB3490870A2
:104880000AE002A8005D04A9095D884200D003E0A7
:10489000601CC4B2072CEDDD00BF40F22111099865
:1048A000884207D1A948007820B1A948029901603F
:1048B000039941600AB010BDF8B505460E460024C4
:1048C00033460022114640F201600095FFF756FE84
:1048D000074601E0601C84B23846FFF7E3FE072874
:1048E00003D040F6FF708442F4DB40F6FF70844250
:1048F00001DB0120F8BD0020FCE710B586B00446BE
:104900000020FFF717FF10B9002006B010BD02A865
:1049100003AB04AA05A9CDE900040020FFF71CFFA2
:104920000598122805D19DF8100010B99DF80C00CB
:1049300008B1002002909DF80800E6E7F8B50546AA
:104940000E46002433460022114640F201700095C5
:10495000FFF714FE074601E0601C84B23846FFF7FB
:10496000A1FE072803D040F6FF708442F4DB40F636
:10497000FF70844201DB0120F8BD0020FCE7F8B5A0
:1049800006460D46002408230022114630460095B5
:10499000FFF7F4FD074601E0601C84B23846FFF7DC
:1049A00081FE072803D040F6FF708442F4DB40F616
:1049B000FF70844201DB0120F8BD0020FCE72DE9F7
:1049C000FC5F64480068002801DD002406E06148BF
:1049D0000068002801DA022400E001245E48006833
:1049E000002801DD002506E05B480068002801DAA8
:1049F000022500E0012559480068002801DD002655
:104A000006E056480068002801DA022600E0012688
:104A100053480068002801DD002706E05048006880
:104A2000002801DA022700E001274E494E480068BD
:104A300007F068FC4D49009007F064FA019007F018
:104A4000E1FB1FFA80F847494948006807F05AFC23
:104A50004649009007F056FA019007F0D3FB1FFA81
:104A600080F940494348006807F04CFC3F490090FA
:104A700007F048FA019007F0C5FB1FFA80FA3E489C
:104A8000808800F500401FFA80FB3C48007808B998
:104A9000012000E000203949087008460078C8B9B4
:104AA0004FEA28203649087081F801804FEA292012
:104AB000887081F803904FEA2A20087181F805A0D8
:104AC0004FEA2B20887181F807B04FF48070FFF710
:104AD00056FF30E01F490868002801DB014600E06E
:104AE0004142274A1170104644701B49086800284B
:104AF00001DB014600E04142214A91701046C57039
:104B000016490868002801DB014600E041421C4AC2
:104B100011711046467112490868002801DB0146F0
:104B200000E04142164A91711046C771014640F2B9
:104B30000110FFF724FFBDE8FC9F0000B0650040B6
:104B40000C6400400A0C0F13181E25006F00002093
:104B50005F000020080000200C0000201000002052
:104B6000140000200000C842840000200060EA46D3
:104B7000880000208C000020F80100204501002062
:104B80007300002008B501210C20FCF705FC4FF450
:104B90000040ADF8000048208DF803006946F94850
:104BA000FCF7D8F83020ADF8000010208DF8030095
:104BB00002208DF802006946F248FCF7CBF84FF46A
:104BC0008050ADF8000010208DF8030002208DF811
:104BD00002006946EC48FCF7BDF808BD38B504464C
:104BE000012000900020E9494870012000902DE04C
:104BF000BDF80000204018B10120E549086002E03E
:104C00000020E34908600120E24908600520FDF723
:104C100052FD0020E049C1F894010520FDF74BFD4D
:104C20000120DD49C1F894010846D0F83C0130B1BB
:104C3000D6484078BDF800100843D4494870BDF804
:104C400000004FF6FF7101EA40000090BDF800003F
:104C5000FF28CDDD1020FDF72EFD38BD10B500205A
:104C6000CC49091F0860CD490878FFF7B7FFCB4949
:104C70004878FFF7B3FF0120C749C1F89001C34846
:104C80004078732801D1002010BD0120FCE71CB53D
:104C900000200190012000900020BE49091F0860FB
:104CA000BE490878FFF79AFFBC494878FFF796FF9E
:104CB0000220019035E00120009026E00120B54956
:104CC00008600520FDF7F7FC0020B349C1F8940106
:104CD0000520FDF7F0FC0120AF49C1F8940108461A
:104CE000D0F83C0150B1A9489DF80410405CBDF8D3
:104CF00000100843A5499DF804208854BDF8000021
:104D00004FF6FF7101EA40000090BDF80000FF2857
:104D1000D4DD1020FDF7CFFC9DF80400401CC0B28C
:104D200001909DF804000928C5DB01209949091F5D
:104D300008601CBD002004E00021944A1154411C6D
:104D4000C8B20928F8DB704710B5FFF7F3FFFFF78B
:104D50009EFF8E48C0788D49097940EA012090492C
:104D6000088000240FE08F4810F81400401E012135
:104D700001FA00F08A490988084010B9601CC0B2E5
:104D800010BD601CC4B2102CEDDB0020F8E701461A
:104D90007E48405C704770B505460C4600207D4952
:104DA000091F08601020FDF786FC0120FFF716FFA1
:104DB0004220FFF713FF0020FFF710FF2846FFF700
:104DC0000DFF2046FFF70AFF0020FFF707FF002036
:104DD000FFF704FF0020FFF701FF0020FFF7FEFEB2
:104DE00001206D49C1F890011020FDF764FC70BDF1
:104DF00010B500206749091F08601020FDF75BFC13
:104E00000120FFF7EBFE4220FFF7E8FE0020FFF74E
:104E1000E5FE0020FFF7E2FE0020FFF7DFFE0120A5
:104E20005D49C1F890011020FDF745FC10BD10B59B
:104E300000205849091F08601020FDF73CFC0120A4
:104E4000FFF7CCFE4320FFF7C9FE0020FFF7C6FEA8
:104E50000120FFF7C3FE0020FFF7C0FE0020FFF790
:104E6000BDFE0020FFF7BAFE0020FFF7B7FE0020CE
:104E7000FFF7B4FE01204849C1F890011020FDF76A
:104E80001AFC10BD10B500204249091F086001201E
:104E9000FFF7A4FE4420FFF7A1FE0020FFF79EFECF
:104EA0000120FFF79BFE0320FFF798FE0020FFF78D
:104EB00095FE0020FFF792FE0020FFF78FFE0020F6
:104EC000FFF78CFE01203449C1F890011020FDF756
:104ED000F2FB10BD10B500202E49091F08601020FC
:104EE000FDF7E9FB0120FFF779FE4D20FFF776FE85
:104EF0000020FFF773FE0020FFF770FE0120FFF790
:104F00006DFE01202449C1F890011020FDF7D3FB6C
:104F100010BD10B500201F49091F08601020FDF7C3
:104F2000CAFB0120FFF75AFE4320FFF757FE00207F
:104F3000FFF754FE0020FFF751FE5A20FFF74EFE08
:104F40005A20FFF74BFE5A20FFF748FE5A20FFF782
:104F500045FE5A20FFF742FE01200F49C1F890019B
:104F60001020FDF7A8FB10BD10B5FFF741FFFFF7BC
:104F70003FFFFFF73DFFFFF75AFFFFF783FFFFF704
:104F8000C8FF10BD000C0140000801405E07002072
:104F9000B001214294812142008021424801002039
:104FA000460100204A0100202DE9F04104460D464B
:104FB0004FF07C51284607F0A5F90746214607F037
:104FC0009EFA064607F002F9FE4908604FF07C5150
:104FD000284607F097F90746214607F090FA06465B
:104FE00007F0F4F8F84908604FF07C51284607F0C4
:104FF00089F90746214606F085FF064607F0E6F8E0
:10500000F24908604FF07C51284607F07BF90746CB
:10501000214606F077FF064607F0D8F8EC4908600D
:10502000BDE8F0812DE9F04104460D464FF07C517A
:10503000284607F067F98046E64907F063F9074616
:10504000214607F05CFA064607F0C0F8E24908601E
:105050004FF07C51284607F055F98046DD4907F0AE
:1050600051F90746214607F04AFA064607F0AEF81E
:10507000DA4908604FF07C51284607F043F9804632
:10508000D44907F03FF90746214606F03BFF0646A4
:1050900007F09CF8D24908604FF07C51284607F091
:1050A00031F98046CB4907F02DF90746214606F035
:1050B00029FF064607F08AF8CA490860BDE8F08172
:1050C00030B5002808DD4FF4E154C74D2C80C0F501
:1050D000E154C64D2C8007E04FF4E154C34D2C80C1
:1050E00000F5E154C04D2C8000290ADD4FF4E15455
:1050F000BD4D2D1D2C80C1F5E154BC4D2D1D2C80C6
:1051000009E04FF4E154B94D2D1D2C8001F5E15417
:10511000B54D2D1D2C80002A0ADD4FF4E154B34D0E
:1051200008352C80C2F5E154AF4D08352C8009E0DC
:105130004FF4E154AC4D08352C8002F5E154AB4DF1
:1051400008352C80002B0ADD4FF4E154A74D0C35B7
:105150002C80C3F5E154A44D0C352C8009E04FF4AC
:10516000E154A14D0C352C8003F5E1549F4D0C35D5
:105170002C8030BD9E4909684242914202DA414288
:105180009B4A11609A490968814201DD984908608B
:10519000984909684242914202DA4142954A1160B7
:1051A00094490968814201DD924908609249096881
:1051B0004242914202DA41428F4A11608E490968A7
:1051C000814201DD8C4908608C4909684242914264
:1051D00002DA4142894A116088490968814201DD49
:1051E0008649086070472DE9F05F04460D46601B54
:1051F000834908600846006807F024F88346814820
:105200000168584607F07EF880467D4909687E4A65
:105210001268881A07F016F883467C4801685846D9
:1052200007F070F88146414606F06CFE0746784864
:10523000006807F007F88246394606F063FE064626
:1052400006F0C4FF7249086008460068B0F5E15FE7
:1052500002DD4FF4E15008606D48006810F5E15F31
:1052600002DA6C486A490860654800686649086067
:1052700067480068BDE8F09F2DE9F05F04460D46E1
:10528000601B654908600846006806F0DBFF83463E
:105290005C480168584607F035F880465E49096861
:1052A0005E4A1268881A06F0CDFF834657480168A7
:1052B000584607F027F88146414606F023FE074688
:1052C0005748006806F0BEFF8246394606F01AFECF
:1052D000064606F07BFF5249086008460068B0F5B4
:1052E000E15F02DD4FF4E15008604D48006810F5C1
:1052F000E15F02DA47484A49086047480068474981
:10530000086047480068BDE8F09F2DE9F05F04465B
:105310000D46601B434908600846006806F092FF8E
:10532000834638480168584606F0ECFF80463D4900
:1053300009683D4A1268881A06F084FF834633489C
:105340000168584606F0DEFF8146414606F0DAFD68
:1053500007463648006806F075FF8246394606F073
:10536000D1FD064606F032FF304908600846006865
:10537000B0F5E15F02DD4FF4E15008602B480068B2
:1053800010F5E15F02DA23482849086025480068E3
:105390002549086025480068BDE8F09F2DE9F05FC9
:1053A00004460D46601B224908600846006806F066
:1053B00049FF834613480168584606F0A3FF80461C
:1053C0001B4937E0480000204C000020500000201E
:1053D0005400002000002041280000202C00002064
:1053E0003000002034000020342C014034340140CF
:1053F000380000203C000020400000204400002035
:10540000A8010020B0000020B0010020AC00002066
:10541000AC010020E0E3FFFF9C010020A40100207C
:10542000A00100209001002098010020940100209C
:10543000840100200968FA4A1268881A06F002FFFF
:105440008346F8480168584606F05CFF81464146AD
:1054500006F058FD0746F448006806F0F3FE824661
:10546000394606F04FFD064606F0B0FEEE490860EC
:1054700008460068B0F5E15F02DD4FF4E1500860D6
:10548000E948006810F5E15F02DAE848E64908609B
:10549000E7480068E2490860E3480068BDE8F09F1B
:1054A0002DE9F04F8DB04FF07C500B904FF0020A79
:1054B000E0480078002871D1DF48007800286ED1DC
:1054C000DE4800780028FAD1DD480078092877D234
:1054D000DFE800F0050B1625303F4A596700002031
:1054E000D8490860D84908606BE0D6480B99006835
:1054F00006F008FDD34908600020D349086060E049
:10550000D0480B99006806F0FDFCCE490860CE48F3
:105510000B99006806F0FEFFCB49086051E00020BF
:10552000C8490860C8480B99006806F0F3FFC649EF
:10553000086046E0C3480B99006806F0EBFFC149DC
:105540000860C1480B99006806F0DCFCBE490860A1
:1055500037E0BC480B99006806F0DCFFB9490860E9
:105560000020B94908602CE0B6480B99006806F0A5
:10557000D1FFB4490860B4480B99006806F0CAFF2F
:10558000B14908601DE00020AE490860AE480B99A3
:10559000006806F0B7FCAC49086012E07EE05AE013
:1055A0000EE0A8480B99006806F0ACFCA54908601D
:1055B000A5480B99006806F0A5FCA349086000E027
:1055C00000BF00BFA1480068404206F03BFE044611
:1055D0009C480168204606F061FF06D29B4800689F
:1055E000404206F02FFE974908609848006806F090
:1055F00029FE044693480168204606F04FFE05D276
:105600009248006806F01EFE8E4908608F480068C8
:10561000404206F017FE04468B480168204606F01B
:105620003DFF06D289480068404206F00BFE8649DD
:1056300008608648006806F005FE04468248016856
:10564000204606F02BFE05D28048006806F0FAFDE1
:105650007D49086072E17E48407830B97C4908781D
:1056600006F008FE7749086006E079490978484263
:1056700006F0E8FD734908607548C07830B9744990
:10568000887806F0F7FD7049086057E1704989781D
:10569000484206F0D7FD6C4908604FE16548007844
:1056A00001287CD16B490968A1F1800006F0CAFD90
:1056B000099069490968A1F1800006F0C3FD83469D
:1056C00066490968A1F1800006F0BCFD0A90CAF1A4
:1056D000000006F0B7FD0446099906F0DFFD09D287
:1056E000504606F0AFFD0446099906F0D7FE01D2F8
:1056F00000200990CAF1000006F0A4FD04465946B6
:1057000006F0CCFD09D2504606F09CFD04465946F1
:1057100006F0C4FE01D24FF0000BCAF1000006F003
:1057200091FD04460A9906F0B9FD09D2504606F0EB
:1057300089FD04460A9906F0B1FE01D200200A90C4
:105740004FF08141099806F04BFC07463F4800683E
:1057500006F078FD80468BF000464146304606F064
:10576000D1FD05463E4906F03BFC0446394606F0AD
:10577000D1FE344908603548006806F063FD0646EE
:105780000A9880F000453146284606F0BBFD0446E5
:10579000334906F025FC2C490860CFE0FFE7254897
:1057A000007802286AD12D20284908600846006840
:1057B00006F048FD234908602A490988A1F1400004
:1057C00006F040FD2849086028480168264800681E
:1057D00006F0A0FE0546264906F094FD044606F0B4
:1057E00065FBCDE904012048006880F00048404690
:1057F00006F05CFB04461F4A1F4B06F047F80646BE
:10580000DDE9042306F068FACDE9060105F062FD42
:105810000D49086014480068144908608EE02DE0C6
:105820008C010020AC00002088010020E0E3FFFF95
:1058300084010020030000206F0000207000002081
:1058400002000020980000209C000020B4000020EE
:105850005F000020C8000020C0000020C40000201D
:1058600000004843D0000020B4010020B80100200F
:105870000000A0409A9999999999E93FFE480078CB
:1058800003285BD12D20FD4908600846006806F01A
:10589000D9FCFB490860FB490968C1F1640006F0C6
:1058A000D1FCF9490860F9480168F748006806F03A
:1058B00031FE8146F64906F025FD804606F0F6FAEF
:1058C000CDE90601F048006806F0F0FAF14AF24B23
:1058D000CDE9020105F0DAFFCDE90401EA480068EC
:1058E00006F074FC0890002801DB089901E0089993
:1058F0004942084606F0A6FC0090E348016800987B
:1059000006F000FD019006F0D1FAE44AE44BCDE93F
:10591000020105F0BBFF8046DDE9042305F00CFD24
:105920000646DDE9062305F007FD044605F0D2FC36
:10593000DC490860D4480068D4490860D948016847
:10594000CF480068FFF730FB0DB0BDE8F08F01468F
:1059500040F25642914203DBD34A1278012A14D115
:1059600001200022D14B1A801B1D1A80D04B1A80B7
:105970001B1D1A80CE4B083B1A801B1D1A80CB4B77
:1059800008331A801B1D1A8000E00020704710B5F4
:105990003220FDF77EFA0446012C07D1C248007878
:1059A00008B9012000E00020BF49087010BD014681
:1059B000002901DA484200E00846704700B5BD48BA
:1059C0000088BD4908800520BC49088014E0B9481A
:1059D000BA49098830F81100B7490988884206DBBE
:1059E000B448B649098830F81100B3490880B34873
:1059F0000088401CB1490880B04800887B28E6DB5D
:105A0000AC480088AE4908800520AC49088014E005
:105A1000A848AA49098830F81100A949098888428C
:105A200006DCA448A549098830F81100A44908807B
:105A3000A2480088401CA1490880A04800887B2813
:105A4000E6DB9D4909889E4A1288881800EBD071D0
:105A5000C1F34F019B4A118005209849088044E01A
:105A600094489649098830F8110096490988884277
:105A700036DD904991480088401C31F8100091496A
:105A8000098888422CDD8B498C480088801C31F8BD
:105A900010008C490988884222DD864987480088A1
:105AA000C01C31F8100087490988884218DA8149FA
:105AB00082480088001D31F8100082490988884218
:105AC0000EDA7C497D480088401D31F810007D4980
:105AD0000988884204DA794800887B49088008E010
