:020000040800F2
:10000000A00900202902000805620008DD1D000883
:1000100001620008131B000867720008000000005E
:10002000000000000000000000000000C5630008A0
:10003000171B0008000000008D620008D96400084A
:10004000430200084302000843020008430200087C
:10005000430200084302000843020008430200086C
:10006000430200084302000843020008430200085C
:10007000430200084302000843020008430200084C
:10008000430200084302000843020008430200083C
:10009000430200084302000843020008430200082C
:1000A000430200084302000843020008430200081C
:1000B0003D6500081166000843020008430200087D
:1000C00043020008430200084302000843020008FC
:1000D00043020008896A0008FD6C0008E56E00080C
:1000E00043020008430200084302000843020008DC
:1000F00043020008430200084302000843020008CC
:1001000043020008430200084302000843020008BB
:10011000AD680008430200084302000843020008DB
:10012000430200084302000843020008430200089B
:1001300000F002F800F068F80AA090E8000C824491
:100140008344AAF10107DA4501D100F05DF8AFF26E
:10015000090EBAE80F0013F0010F18BFFB1A43F0A5
:100160000103184730C3020050C302000A444FF095
:10017000000C10F8013B13F0070408BF10F8014B06
:100180001D1108BF10F8015B641E05D010F8016B4B
:10019000641E01F8016BF9D113F0080F1EBF10F8AF
:1001A000014BAD1C0C1B09D16D1E58BF01F801CBD2
:1001B000FAD505E014F8016B01F8016B6D1EF9D555
:1001C0009142D6D37047000000230024002500266A
:1001D000103A28BF78C1FBD8520728BF30C148BFAA
:1001E0000B6070471FB500F0DFFB0400002000210A
:1001F00008F032F9401C60600020002108F016F978
:10020000E0601FBD10B510BD00F020FE1146FFF7E5
:10021000E9FF07F0A7FA01F079F803B4FFF7F2FF5E
:1002200003BC07F08FF800000948804709480047E1
:10023000FEE7FEE7FEE7FEE7FEE7FEE7FEE7FEE796
:10024000FEE7FEE704480549054A064B70470000F3
:10025000DD64000831010008A0030020A00900208F
:10026000A0050020A0050020704700000FB41CB5B9
:10027000074B06AA7B4469460090059800F0F3F806
:100280000020694600F002F91CBC5DF814FB000078
:10029000150200000FB400B58DB010A909900091AF
:1002A0000B904FF0FF300A9000200C9006487844E5
:1002B0000690064878446A4607900F9909A800F00E
:1002C00043FB0DB05DF814FBB7060000CF0600003D
:1002D0002DE9FF5F4FF000089946144646469169A4
:1002E000D2E901A7DDF838B001988847054659EAF8
:1002F0000B0005D009E0A1690198761C88470546E6
:10030000216A284688470028F5D1681C03D05FEA97
:10031000CA7005D015E04FF0FF3004B0BDE8F09F83
:100320002068011D2160D0F800800AE05FEACA70F1
:1003300001D108F8015BA169761C01987F1E8847EE
:100340000546002F1ADD681C18D0B9F1000F0DD03A
:10035000E81705EBD060421120F01F0059F8221079
:100360002A1A012090400142E0D107E0BBF1000FC2
:10037000DCD12846216A88470028D7D0E169019856
:100380008847BBF1000F07D1002E05DD5FEACA7078
:1003900002D1002188F80010A068B84203DDBBF14B
:1003A000000F03D017B16FF00100B6E73046B4E795
:1003B00010B5431C02E010F8011B71B18107FAD19E
:1003C0004FF0013202C88C1A8C4314EAC211F9D0E2
:1003D000C01A0A0603D0C01E10BDC01A10BD0A0400
:1003E00001D0801E10BD0902FCD0401E10BD10B50A
:1003F000203AC0F00B80B1E81850203AA0E818501D
:10040000B1E81850A0E81850BFF4F5AF5FEA027CDD
:1004100024BFB1E81850A0E8185044BF18C918C04C
:10042000BDE810405FEA827C24BF51F8043B40F8ED
:10043000043B08BF7047D20728BF31F8023B48BFD2
:1004400011F8012B28BF20F8023B48BF00F8012B10
:1004500070477047704770477047000001694A1C39
:1004600002610878704700B58FB0CDE901310021F5
:10047000059105497944CDE903101146684600F01D
:10048000A4FA0FB000BD0000E5FFFFFF0A6802F804
:10049000010B0A60704700002DE9FF4F064689B046
:1004A0000878FF2806D0491C2D2805D000244FF0DD
:1004B000000908E000200CE00124F8E709EB8903BB
:1004C000491C00EB43090878FF28F7D114B1C9F1A2
:1004D00000008146107800252C46AA4629462D2882
:1004E00001D02B2804D1521C2D2813D00020824685
:1004F0008B461078FF280FD04FF0000C0A21521CB9
:10050000A5FB017804FB018105FB0C11C5194BEB20
:100510000104EEE70120EAE7002108464FF0000061
:10052000BAF1000F02D000EB80004008C0F3815800
:10053000B8F1010F01DD4FF0FF380C9809EB00070F
:1005400055EA040009D04FF0020917F5FA7F0BDADB
:100550004FEACA70C6E900B012E04FEACA70C6E9B5
:1005600000B00DB0BDE8F08FB7F5FA7F0DDDF048B3
:100570007844D0E90010C6E9001040EACA70706003
:1005800000F016FAC0F80090EBE7391E02DAC8F165
:10059000000200E0424600DA794206A800F0E4FBDF
:1005A00006AB93E8070003AB83E8070044F23E0084
:1005B0005BEA04010090584604D144F21E012C4627
:1005C0005D460091210C0904014306D100992404E1
:1005D00044EA15442D041039009104F07F41014391
:1005E00006D10099240244EA15642D0208390091CD
:1005F00004F07041014306D10099240144EA1574C6
:100600002D01091F009104F04041014306D10099DA
:10061000A40044EA9574AD00891E009104F00041E5
:10062000084304D100986D196441401E0090424671
:100630006846002FCDE9014503A902DD01F033F939
:1006400001E001F008F9BAF1000F04460D4601D0AF
:1006500084F0004440F2FF7724F00040284303D0A8
:10066000C4F30A50B84212D100F0A2F9C0F80090C9
:10067000C4F30A50B8420AD1AE487844D0E9001019
:10068000C6E9001004F000410843706069E7C6E95C
:10069000005466E72DE9FF4F1F464FF0000A4FF068
:1006A000FF38454691B0D7E90146CDF83CA000F0AF
:1006B0007BF9C0680168405C1090B96912986D1CA4
:1006C0008847396A814688470028F6D1B9F1FF3F4B
:1006D0000AD0002E24F4D06411DDB9F12B0F08D01C
:1006E000B9F12D0F0BD102E0404615B03AE744F4C2
:1006F0008064B96912986D1C8847761E8146600532
:1007000004A901D52D2000E02B20002E01F1010BC2
:100710000DF130088DF810003FDDB9F1690F08D0F8
:10072000B9F1490F05D0B9F16E0F02D0B9F14E0FF2
:100730001CD13B4601A8009580E85002DDE9121269
:100740006FF0020008F021FDC11CCED10EE0B969A6
:1007500012986D1C884781461398761E44F40074E5
:1007600005600F98401C002E0F9016DDB9F1300F78
:10077000EDD0B9F1780F02D0B9F1580F0DD10F9823
:1007800001280AD13B46CDE90054DDE91212001FD1
:10079000029608F0F8FCC11CA7D1109989453ED1FA
:1007A00044F0800406E01399681CAAF1010A44F49D
:1007B00000740860B9696D1C1298761E884730284D
:1007C0008146F0D02BE01099894505D1200603D44D
:1007D000761E44F0800418E0484606F0ACFD08B3ED
:1007E000761E0DF123018B4544F4007408D2A9F163
:1007F00030000BF8010B200607D5AAF1010003E039
:10080000200602D40AF101008246A00502D5139900
:10081000681C0860B96912986D1C88478146002ED3
:10082000D1DC53E0002E51DDB9F1650F02D0B9F1F2
:10083000450F4BD1A00549D5B9696D1C1298761E9C
:1008400024F440748847002E81460CDD2B2804D008
:10085000B9F12D0F07D144F48074B96912986D1C59
:100860008847761E8146E00501D52D2100E02B2129
:1008700008F8011BCDF8008021E0761E0DF139014A
:10088000884544F400740CD2A9F1300010F0FF0048
:1008900088F8000002D10099884509D908F10108BB
:1008A00006E0E00501D5244801E042F20F708246DF
:1008B000B96912986D1C8847814613980560002E0F
:1008C00004DD484606F037FD0028D6D1F9691298B4
:1008D0008847FF2053468BF8000088F8000000206E
:1008E0000A900B9004AA0CA90AA8FFF7D5FDA00551
:1008F00002D46FF00100F8E614F0240F0AD0E007EC
:1009000014D13868DDE90A12031D3B600068C0E9B4
:1009100000120BE00AA9684606F0B6FCE00705D114
:100920003868009A011D3960006802602846DCE6DC
:1009300040BF020036BE0200F1D8FFFF026811443A
:100940001378016018467047D160054979445161B8
:1009500004497944116200211161114600F04AB83E
:10096000EDFFFFFF63000000426842B1016811F82B
:10097000013B23B1521EC0E9001218467047012105
:10098000C160881E704742685AB1C368016843B9A4
:1009900083688B4205D0491E521CC0E9001200201A
:1009A00070474FF0FF3070470048704760030020E9
:1009B000004870474003002010B5044600F06CFA70
:1009C0000068005D00F0010010BD2DE9F041064611
:1009D0000024D6E90170F5688046304603E04146C0
:1009E000B847641C3046A8470028F8D12046BDE827
:1009F000F08100002DE9F34F4FF0000A0C465646F7
:100A00008DB001200C9001F10C000B9062690B98E5
:100A10000121904705002DD0252D2CD0216A884733
:100A2000C0B162690B9801219047216A884700286C
:100A3000F7D16269411E0B98904700E0761CA169CE
:100A40000D988847216A88470028F7D1E1690D98F9
:100A50008847DBE7A1690D988847A842074601D17E
:100A6000761CD3E7E1690D9888477F1C02D1BAF163
:100A7000000F6FD06BE162690B9800273D46394645
:100A800090472A2804D162690B98012190470125DB
:100A9000DFF8D08262690B9801219047A0F1300104
:100AA0000A290AD24745E5DC07EB870100EB41073D
:100AB000303FDFD445F01005ECE7E90601D46FF0D4
:100AC00000476C280AD04C2814D0682815D06A2812
:100AD0000DD074281CD07A281AD01DE062690B98BA
:100AE000012190476C2802D045F0040514E045F040
:100AF00002050DE045F020050AE062690B9801212E
:100B00009047682802D045F0080505E045F40065E7
:100B100062690B9801219047C4E9015765283DD0CF
:100B200019DC58287AD00CDC452837D004DC25287D
:100B300026D041289ED131E046282FD0472899D190
:100B40002CE05B2877D0612828D063287CD06428EB
:100B500023D15AE0F6E06F2848D008DC66281DD083
:100B600067281BD0692821D06E2816D127E070286D
:100B700045D0732868D0752847D078280DD14DE02E
:100B8000A1690D988847252805463FF469AFE169BA
:100B90000D9888476D1C3FF46AAFD8E00D99234645
:100BA0006A466FF0010008F0ECFAC5E045F040003D
:100BB00023464FF000026060A80736D43EE0E80705
:100BC0007FF447AF2068011D21600068290501D529
:100BD00006701BE7290701D5068017E7A90703D58B
:100BE000F117C0E9006111E706600FE745F040002A
:100BF00023464FF008026060A80716D41EE040F6B6
:100C00000E0125EA0100606016E045F04000234631
:100C10004FF00A026060A80707D40FE045F04000DB
:100C20006060A80708D5234610220D996FF00100D7
:100C3000AFF3008080E007E0102223460D996FF0AB
:100C40000100AFF3008077E04FF0000963284F46C2
:100C5000C8464B46CB4602D05B2806D038E0E806B3
:100C600001D40120A060012732E06269D4F80CB001
:100C70000B98012190475E2807D14FF001094946A2
:100C80006269D4F80CB00B989047216939B90021FA
:100C90000A4603AB43F82120491C0829FADBD8B3E4
:100CA000216949B308F1010862690B980121904755
:100CB0005D28F4D1B9F1000F09D0002003A951F843
:100CC0002020D24341F82020401C0828F7DB03AB4A
:100CD0002069002820794FEA40701ED05B462246EA
:100CE000CDF80080CDE901970D9900286FF0010043
:100CF00020DAAFF300801FE0C11703AA00EBD16137
:100D00004B1121F01F0102EB8302411A13680120ED
:100D1000884003431360C7E719E00D992246002875
:100D20006FF00100009702DAAFF3008004E0FFF7F4
:100D3000CFFA01E0AFF3008000280ADA401C06D1A8
:100D40000C9820B14FF0FF300FB0BDE8F08F504647
:100D5000FAE7E90701D10AF1010A064400200C90E4
:100D600054E60000CCCCCC0C2DE9F0478146164669
:100D70008AB0334878440DC88DE80D003048784477
:100D8000801C03AC0DC884E80D0041F69B3008447C
:100D9000372190FBF1F290FBF1F5A5F1800501FB05
:100DA00012041B3C02D56442012000E00020DFF861
:100DB00090A080460027FA44AAF1BE0A0DE0E007A1
:100DC00009D03246684607EB47010AEB810100F083
:100DD00056FD8DE8070064107F1C002CEFD1184FE2
:100DE0007F44AC3F18E0E80714D007EB04100DF186
:100DF000180A90E80E008AE80E00C068F04201D19F
:100E000098190890324606A903A800F038FD03ABF4
:100E100083E807006D10641C002DE4D1324669465A
:100E2000B8F1000F03A802D000F001FD01E000F0CE
:100E300026FDC9E90001C9F808200AB0BDE8F0871D
:100E400004B7020000487047400300207546FFF7D2
:100E5000F9FFAE4605006946534620F00700854677
:100E600018B020B5FFF7EEF9BDE820404FF00006BE
:100E70004FF000074FF000084FF0000B21F0070182
:100E8000AC46ACE8C009ACE8C009ACE8C009ACE8C5
:100E9000C0098D467047000010B5FFF785FD001DA5
:100EA00010BD00BFB575000010B5FFF781FD0068EB
:100EB00010BD10B50446FFF77BFD046010BD0000B7
:100EC0002DE9FF4F1F464FF03C0987B04FF000421D
:100ED000DDE9141001F10108DDF858A002EA4050E4
:100EE0000390002004908346054604460590B969A6
:100EF000461E08988847AAF1010A0290BAF1000F2D
:100F000037DD02982E2815D0102100F058FA00285D
:100F10002ADB4FF0010B0499014316D0B9F1000F01
:100F20000BDB4A46C11700F037FA05430C43A9F121
:100F3000040905E00120059007E008B145F001052E
:100F400001200490059800B9361DB969089808F188
:100F500001088847BBF1000FAAF1010A0290CDD029
:100F60000999C1F80080C9E70298702808D0502874
:100F700006D0F96908988847BBF1000F14D04FE0FC
:100F8000002002900120BBF1000F049009D0B96944
:100F9000089808F101088847AAF10109B9F1000F82
:100FA00007DCF969089888476FF001000BB0BDE8CD
:100FB000F08F2B2804D02D280CD14FF0FF30049057
:100FC000B969089808F101088847A9F10109B9F140
:100FD000000FE6DD411CE4D00A2100F0F0F9002802
:100FE000DFDB029908F1010801EB810100EB410010
:100FF0000290B969089888470A2100F0E0F9099A37
:10100000A9F10109B9F1000FC2F8008001DD002843
:10101000E7DAF969089888470499029800FB0166A5
:1010200055EA040004D004F04041090002D006E073
:10103000039898E0A40044EA9574AD00B61E04F04D
:101040000041080002D16D196441761E159810F018
:10105000240F03D04FF00B095C4803E04FF0280940
:101060006FF07D008246564507DAAAEB06018944F7
:10107000B9F1410F01DD4FF0410901200021A9F133
:10108000010200F089F9024628400B46214008433E
:1010900001D0012100E00021501E029143F1FF31F7
:1010A00028402140084301D0012000E0002002999F
:1010B000834651EA0B014FD0002108464FF0000053
:1010C000039900F4400039B100EB80004FF4400177
:1010D00000EBD07001EA60008015012802DD4FF0BE
:1010E000FF3000E013D0401C36D0029860B3BBF153
:1010F000000F0CD14A460120002100F04DF9284094
:101100002140084301D0012000E00020E0B101208F
:101110004A46002100F040F9034640190A46614161
:101120002D1A8C4111D3B9F1400F09DD159810F03B
:10113000240F02D0AAF1340603E0AAF1170600E05A
:10114000761C00254FF0004406E05B1E42F1FF32A2
:1011500020EA030521EA0204CAF10100B04206DADE
:101160001B49039808430190002000900EE0039A69
:10117000C4F3D321E80A0A43164940EA44500A431B
:101180003146CDE90002684606F0CAF8159810F01D
:10119000240F0BD01598C00715D13868DDE900126F
:1011A000031D3B600068C0E900120CE002A869461C
:1011B00006F06AF81598C00705D13868029A011D33
:1011C0003960006802604046F0E6000002FCFFFF64
:1011D0000000F07F0000F03F2DE9FF4F92461D46D2
:1011E00085B04FF00041DDE9124BDDE914727F1E3E
:1011F00001EA4B50414940F0FF4940EA0108002113
:1012000022F020004928049102D04E2828D04CE03A
:101210003BA0012607C88DE80700A9690698641C51
:1012200088477F1E014606D41DF8060018B121F03C
:10123000200181420BD0E96906988847032E34D0FB
:10124000082E32D06FF0010009B0BDE8F08F761C97
:10125000032E01D0082EE0D1601CCAF80000DCE7A4
:10126000A9690698641C88477F1E2AD420F02000B4
:10127000412826D1A9690698641C88477F1E20D47E
:1012800020F020004E281CD1A9690698641C8847CC
:101290007F1E48F4002849F48009CAF8004001D4B0
:1012A000282806D0E969069888475FEACB7012D0F3
:1012B00022E0A9690698641C88477F1E01D4002893
:1012C00003DAE96906988847BCE72928F1D1641C4C
:1012D000CAF80040E9E71BF0240F07D028680499FA
:1012E000031D2B600068C0E9001805E02868021D96
:1012F0002A600068C0F800902046A5E70000F07F53
:10130000494E46494E495459000000000446AFF387
:1013100000802046FEF781FF4FF0013C50F8042B7F
:1013200051F8043B9A4221D1A2EB0C03934313EAF8
:10133000CC1317D150F8042B51F8043B9A4215D125
:10134000A2EB0C03934313EACC130BD150F8042BFC
:1013500051F8043B9A4209D1A2EB0C03934313EAE0
:10136000CC13DBD04FF00000704700BFD01A01BA99
:10137000B1FA81F101F0180122FA01F0CB40C1F17C
:101380002001DBB2C0B2C01A2CFA01F3D11A91438A
:1013900011EAC311E6D17047B2F120030AD5C2F1B8
:1013A000200301FA02F120FA03F300FA02F041EA05
:1013B0000301704700FA03F14FF0000070473A282C
:1013C00000D2303820F02002412A01D3A2F13700A8
:1013D000884201D34FF0FF30704720F07F4C80EA05
:1013E000030023F07F47ACEB070303F57C5300F0C9
:1013F000004003F1FF032DE980494FEA154B09B482
:101400004FEA144325EA0B4E24EA03480FF2042660
:1014100006EB132749083E785FEA320203FB0667B2
:10142000C7F5000707FB06F64FEA54374FEAD646E2
:1014300006F1020607FB066CCCF1005C4FEA1C4784
:101440002CEA074C07FB06F40CFB06F504EB1546EB
:101450004FEA961634BF00204FF000404FEAD137D4
:1014600006FB07FC4FEA1C4C0CFB0BF7D21B03FBE3
:101470000CF761EB07010CFB0EF7B0EB074072EBCA
:1014800017420CFB08F734BFA2EB0742B2EB07424E
:1014900061EB17414FEA0C444FEA910706FB07FC4A
:1014A0004FEA1C4C0CFB0BF7B0EBC74072EB57320A
:1014B00003FB0CF734BFA2EBC742B2EBC74261EBB0
:1014C00057310CFB0EF7B0EBC70072EB57720CFBF9
:1014D00008F734BFA2EBC702B2EBC70261EB57714A
:1014E000039F4FEA816141EA921104EBCC044FEA79
:1014F000D1374FEA826206FB07FC42EA90124FEABC
:1015000080604FEA1C4C0CFB0BF7D21B03FB0CF763
:1015100061EB07010CFB0EF7B0EB074072EB1742D3
:101520000CFB08F734BFA2EB0742B2EB074261EBBA
:1015300017414FEA8C554FEA910704EB9C2406FBB8
:1015400007FC4FEA1C4C0CFB0BF7B0EBC74072EBEF
:10155000573203FB0CF734BFA2EBC742B2EBC742D2
:1015600061EB57310CFB0EF7B0EBC70072EB577213
:101570000CFB08F734BFA2EBC702B2EBC70261EB6A
:10158000577115EB4C254FEA816141EA92114FEA00
:1015900082624FEAD13742EA901206FB07FC44F11F
:1015A00000044FEA80604FEA1C4C0CFB0BF7D21B87
:1015B00003FB0CF761EB07010CFB0EF7B0EB0740E8
:1015C00072EB17420CFB08F734BFA2EB0742B2EBF9
:1015D000074261EB174115EB1C154FEA813141EAD7
:1015E00092414FEA823242EA90424FEA80304FEA1B
:1015F0000C7644F1000448EA03434EEA0B484FF0EE
:10160000000EB2EB080C71EB030724BF62463946AB
:101610004EEB0E0E4FF0000B0018524149414BEBC0
:101620000B0BB2EB080C71EB03077BF1000B24BF33
:10163000624639464EEB0E0E4FF0000B0018524139
:1016400049414BEB0B0BB2EB080C71EB03077BF141
:10165000000B24BF624639464EEB0E0E51EA0207DC
:1016600018BF46F0010616EB0E7655F1000254F154
:10167000000103D5BDE88901BDE80088BDE8890106
:10168000BDE80048B619524141EB0101A3F1010345
:10169000704780807F7E7D7C7B7A797877767675DF
:1016A0007473727171706F6E6E6D6C6C6B6A6A6957
:1016B0006868676666656464636362616160605FF1
:1016C0005F5E5E5D5D5C5C5B5B5A5A59595858576A
:1016D00057565655555554545353525252515150D2
:1016E00050504F4F4F4E4E4D4D4D4C4C4C4B4B4B25
:1016F0004A4A4A494949484848474747474646466B
:1017000045454544444444434343434242424241A5
:101710004141000046EA0646A3F570534FEA1646DB
:1017200046EA42564FEAD22242EA415210B54FEA07
:10173000D121A3F1010300F017F820F0004000F1DF
:10174000010C00F0004701EB00501146BCF5006FA2
:1017500040EA070000D210BD02484FF0000140EA05
:10176000070010BD0000F07F002B26D4770021D0A9
:101770001CB54FEA370703B44FF010004FF01001CB
:101780004FF000000FBCBDE810400BF1010BBBF1A6
:10179000010F08BF5FEA170722BF12F1010211F122
:1017A00001014FF0004143F1000300F0004043EA23
:1017B00000007047F9D35708DAE746EA064613F106
:1017C000400F4FEA16461FDD13F1200FDFBF16430F
:1017D0000A46002120335B42C8D0C3F1200746EA05
:1017E000064602FA07F74FEA164646EA0706C3F12D
:1017F000200722FA03F201FA07F721FA03F14FF06A
:10180000000342EA0702B1E746EA020646EA064654
:101810004FEA164646EA0106BCBF46EA0646360CC3
:101820004FF000034FF000024FF000019EE72DE95A
:10183000C048934630B491E8380007C831EA400CFC
:1018400048BF34EA430C03D5FFF7C7FDFFF78CFF11
:10185000F0BCBDE800882DE9C048934630B491E85B
:10186000380007C831EA400C48BF34EA430C03D5BE
:10187000FFF7B3FDFFF74EFFF0BCBDE800882DE990
:10188000C048934630B491E8380007C810F0804F44
:1018900008BF13F0804F03D100F019F8FFF764FF81
:1018A000F0BCBDE800882DE9C048934630B491E80B
:1018B000380007C810F0804F08BF13F0804F03D1E5
:1018C00000F005F8FFF726FFF0BCBDE8008820F027
:1018D0007F4780EA030023F07F4C07EB0C03A3F55E
:1018E0007C5300F00040A3F1FE0392F0000F00F0E3
:1018F000B38095F0000F00F077802DE901494FEAA1
:1019000011404FEA144621EA004800FB06FC24EA95
:10191000064708FB06F607FB08F800FB07F718EB7D
:1019200006484CEB164C4FEA124B18EB07484FEAAF
:1019300015464CEB174022EA0B4E0BFB06FC25EA42
:1019400006470EFB06F607FB0EFE0BFB07F71EEB2A
:10195000064E4CEB164C4FF000061EEB074E4CEBC0
:10196000174B18EB0B0840F1000018EB0E0B58EB6F
:10197000000840F100008F1A4FF000013CBFC9433E
:10198000661B14BFB5EB040C00213CBFC943F61B1A
:101990004FEA17444EEA8E0E27EA04454FEA1C47E9
:1019A00004FB07622CEA074C05FB07F70CFB05F666
:1019B00004FB0CFC16EB074642EB174216EB0C46F9
:1019C00042EB1C421BEB060658EB0202414146EA81
:1019D0009E0601D5BDE80189B619524141EB0101CE
:1019E000A3F10103BDE801894FEA14454FEA11470D
:1019F00024EA054621EA074C05FB07F406FB07F736
:101A00000CFB06F105FB0CFC11EB074144EB174402
:101A10004FEA124711EB0C4144EB1C4422EA074CFD
:101A200005FB07F206FB07F70CFB06F605FB0CFCB3
:101A300016EB074642EB174216EB0C4642EB1C45F1
:101A40006A1854F1000148BF7047B619524141EB82
:101A50000101A3F10103704795F0000F37D04FEA61
:101A600011424FEA144721EA024624EA074C02FBDE
:101A700007F106FB07F70CFB06F402FB0CFC14EB6A
:101A8000074441EB17414FEA154714EB0C4441EB77
:101A90001C4125EA074C02FB07F506FB07F70CFB88
:101AA00006F602FB0CFC16EB074645EB174516EB5A
:101AB0000C4645EB1C42121951F1000148BF70471A
:101AC000B619524141EB0101A3F1010370474FEAFE
:101AD00014454FEA114724EA054621EA074C05FB65
:101AE00007F106FB07F70CFB06F24FF0000605FBBB
:101AF0000CFC12EB074241EB174112EB0C4251EB8D
:101B00001C4148BF7047921841EB0101A3F101034A
:101B1000704700BFFEE7704751B18200A2F1C0429A
:101B2000126842F001038200A2F1C042136009E092
:101B30008200A2F1C0421268034B1A408300A3F155
:101B4000C0431A6070470000FEFF0F00D0E9011289
:101B50001143C2681143026911434269114382690A
:101B60001143C2691143026A1143426A1143826AF6
:101B70001143C26A1143026B114302689200A2F141
:101B8000C0421160816808290BD101688900A1F168
:101B9000C041096841F0400201688900A1F1C041DB
:101BA0000A60416B0968426B526841EA0211426B5C
:101BB000926841EA0221426B928941EA0241426BFA
:101BC000128A41EA0251426B127D41EA0261426B84
:101BD000926911430268521C9200A2F1C042116046
:101BE000C16AB1F5804F1BD1816B0968826B526865
:101BF00041EA0211826B926841EA0221826B128AE9
:101C000041EA0251826B127D41EA0261826B926964
:101C1000114302689200A2F1C042C2F8041107E029
:101C20006FF0704201688900A1F1C041C1F8042140
:101C300070472DE9F04102460025002600200023D0
:101C40000024002791F803C00CF00F0591F803C0A1
:101C50000CF0100CBCF1000F03D091F802C04CEA5C
:101C6000050591F800C0BCF1000F31D014680020C8
:101C70002BE04FF0010C0CFA00F3B1F800C00CEAB5
:101C800003069E4220D183004FF00F0C0CFA03F79D
:101C9000BC4305FA03FC4CEA040491F803C0BCF110
:101CA000280F06D14FF0010C0CFA00FCC2F814C04A
:101CB0000AE091F803C0BCF1480F05D14FF0010CC8
:101CC0000CFA00FCC2F810C0401C0828D1D31460E4
:101CD000B1F800C0BCF1FF0F34DD546800202EE0E5
:101CE00000F1080C4FF0010808FA0CF3B1F800C03D
:101CF0000CEA03069E4221D183004FF00F0C0CFA30
:101D000003F7BC4305FA03FC4CEA040491F803C052
:101D1000BCF1280F05D100F1080C08FA0CF8C2F844
:101D2000148091F803C0BCF1480F07D100F1080CF2
:101D30004FF0010808FA0CF8C2F81080401C08287F
:101D4000CED35460BDE8F081F0B50A4600230024EC
:101D50000021002500F00046B6F1004F02D11D4ED3
:101D6000F16901E01B4E7168C0F3034583B200F4D2
:101D70004016B6F5401F08D121F07061154E766807
:101D800026F07066134F7E6012E000F48016B6F500
:101D9000801F06D1032606FA05F4A14341F07061C5
:101DA00006E0460D360103FA06F6B14341F07061D4
:101DB00022B1460D360103FA06F6314300F0004623
:101DC000B6F1004F02D1034EF16101E0014E7160A6
:101DD000F0BD0000000001400161704700BFFEE758
:101DE00070B50446002617480588408845431548C5
:101DF000808846F60401884216D11248807901286D
:101E000012D100200F4988712A2048812B20888117
:101E10000021084603F08EFF01200A4988712B201B
:101E200048812A20888103E00021084603F082FFD0
:101E300004F092F9002602E003480480761CAE42CA
:101E4000FAD370BDF60100200008006C10B50446FE
:101E5000002C66D16C498871F02008804FF4A07086
:101E600048800846808849F2413188420BD0664854
:101E7000808846F60401884205D06348808845F290
:101E8000103188421AD12C205F4908812A204881CC
:101E90002B2088810846808846F60401884205D0B8
:101EA0005948808845F21031884206D14FF4A0701D
:101EB000554908804FF4F0704880A1E0524880886E
:101EC00045F21051884210D14FF430504E490881EC
:101ED0004FF4285048814FF42C5088814FF4F07013
:101EE00008804FF4487048808AE04748808841F66F
:101EF000631188420DD12C20434908812B20488151
:101F00002A2088814FF4F07008804FF44870488090
:101F100076E022203C4908812020488121208881C8
:101F20006EE00120384988714FF4A0700880F020DD
:101F300048800846808849F24131884205D03248BD
:101F4000808845F21031884207D12C202E49088123
:101F50002A2048812B2088813FE02B48808846F644
:101F60000401884207D12C20274908812B20488171
:101F70002A20888131E02448808845F21051884227
:101F800010D14FF43050204908814FF42850488137
:101F90004FF42C5088814FF4487008804FF4F07053
:101FA00048801AE01848808841F6631188420DD1B4
:101FB0002C20154908812A2048812B2088814FF444
:101FC000487008804FF4F070488006E022200E49E7
:101FD000088121204881202088810B48808846F68E
:101FE0000401884205D00848808845F210318842B3
:101FF00006D14FF4F070044908804FF4A070488077
:10200000002003F021FD10BDF60100202DE9FF4F57
:1020100084B081468A460020039002900698A0EB87
:1020200009050798A0EB0A06CDF80490CDF800A0AA
:10203000002D01DD012705E00DB9002702E04FF07A
:10204000FF376D42002E02DD4FF0010806E016B9A1
:102050004FF0000802E04FF0FF387642B54201DD54
:102060002C4600E034464FF0000B21E0009A91B27C
:10207000019A90B200F022F8039828440390029845
:10208000304402900398A04205DD0398001B0390A2
:102090000198384401900298A04205DD0298001B87
:1020A00002900098404400900BF101001FFA80FB61
:1020B000601C8345DADD08B0BDE8F08F30B504461A
:1020C0000D462946204603F035FE04F045F8024847
:1020D00000880249088030BD520100200008006CD1
:1020E00030B503460C4615465A48808849F24131BE
:1020F000884205D05748808845F21031884214D173
:102100005449488904F022F8181204F019F8D8B29A
:1021100004F016F84F49888904F018F8201204F0EA
:102120000FF8E0B204F00CF88CE04A48808845F2E1
:102130001051884220D14749488904F007F8181205
:1021400003F0FEFF43494989491C88B203F0FEFFB2
:10215000D8B203F0F5FF3F49888903F0F7FF20125A
:1021600003F0EEFF3B498989491C88B203F0EEFF7A
:10217000E0B203F0E5FF65E03648808841F6631180
:10218000884228D13348807920B932480088401EDF
:10219000C01A83B22F49488903F0D8FF181203F000
:1021A000CFFFD8B203F0CCFF181203F0C9FFD8B2AA
:1021B00003F0C6FF2749888903F0C8FF201203F007
:1021C000BFFFE0B203F0BCFF201203F0B9FFE0B2A2
:1021D00003F0B6FF36E01F48808846F604018842C7
:1021E0001DD11C488079012804D11A480088401E5E
:1021F000C01A83B21749488903F0A8FF181203F0E8
:102200009FFFD8B203F09CFF1249888903F09EFF1C
:10221000201203F095FFE0B203F092FF12E00D48A8
:102220008079012804D10B480088401EC01A83B26F
:1022300008494889194603F099FF064988892146CB
:1022400003F094FF0348008903490880881C058037
:1022500030BD0000F6010020FE07006C00B59FB005
:102260000121080204F014F801214FF4B47004F0C5
:102270002FF80120ADF8780010208DF87B000320A6
:102280008DF87A001EA9FE48FFF7D3FC4CF233709C
:10229000ADF8780018208DF87B0003208DF87A00C7
:1022A0001EA9F848FFF7C5FC4FF68070ADF878001E
:1022B00018208DF87B0003208DF87A001EA9F248C3
:1022C000FFF7B7FC41F20100ADF8780018208DF857
:1022D0007B0003208DF87A001EA9EC48FFF7A9FCCB
:1022E00001200890002009900F200A9000200B90F8
:1022F0000C900D900E90019002900320039000200E
:10230000049005900690079006200F9000201090F2
:102310001190102012900020139015901490169098
:1023200017904FF480501890002019904FF480407F
:102330001A9000201B9008A81C9001A81D900FA8BF
:10234000FFF704FC01210620FFF7E6FB322005F031
:10235000BBF8002003F042FBCD4988800846808806
:10236000FF280ADB084680884FF6FF71884204D0B8
:10237000C7488088B0F5134F7ED1D32003F0E6FE26
:1023800003F022FBC249888003F01EFBC04988800D
:1023900003F01AFBBE498880084680884FF6FF711B
:1023A00001EA0020BA49888003F00EFBB849898809
:1023B0000843B74988800846808849F241318842FD
:1023C0005AD0BF2003F0C2FE03F0FEFAB049888065
:1023D00003F0FAFAAE49888003F0F6FAAC49888037
:1023E00003F0F2FAAA498880084680884FF6FF7108
:1023F00001EA0020A649888003F0E6FAA44989880A
:102400000843A34988800846808846F6040188422C
:102410007AD0D42003F09AFE03F0D6FA9C49888043
:1024200003F0D2FA9A49888003F0CEFA984988805E
:10243000084680884FF6FF7101EA002094498880A1
:1024400003F0C2FA92498988084391498880084676
:10245000808845F21031884256D04FF45A4003F03C
:1024600075FE03F0B1FA8A4988804FF45B4003F0AF
:102470006DFE03F0A9FA00E046E085498880084631
:1024800080884FF6FF7101EA0020814988804FF46F
:102490005C4003F05BFE03F097FA7D4989880843AE
:1024A0007B49888008468088B0F5004F02D145F20C
:1024B000105088807648808845F21051884223D099
:1024C000A12003F043FE03F07FFA7149888003F0F6
:1024D0007BFA6F498880084680884FF6FF7101EAD1
:1024E00000206B49888003F06FFA694989880843A6
:1024F000674988800846808845F26171884203D127
:1025000041F66310624988806148808849F2413110
:1025100088427CD1CF2003F019FE002003F010FE8A
:10252000C12003F00DFE302003F00AFEED2003F081
:102530000DFE642003F004FE032003F001FE1220D0
:1025400003F0FEFD812003F0FBFDE82003F0FEFD1B
:10255000852003F0F5FD102003F0F2FD7A2003F052
:10256000EFFDCB2003F0F2FD392003F0E9FD2C2034
:1025700003F0E6FD002003F0E3FD342003F0E0FD6E
:10258000022003F0DDFDF72003F0E0FD202003F042
:10259000D7FDEA2003F0DAFD002003F0D1FD002092
:1025A00003F0CEFDC02003F0D1FD1B2003F0C8FDD9
:1025B000C12003F0CBFD012003F0C2FDC52003F0D4
:1025C000C5FD302003F0BCFD302003F0B9FDC7206D
:1025D00003F0BCFDB72003F0B3FD362003F0B6FDD9
:1025E000482003F0ADFD3A2003F0B0FD552003F084
:1025F000A7FDB12003F0AAFD002003F0A1FD1A20E1
:1026000003F09EFDB62003F0A1FD0A2000E0A5E046
:1026100003F096FDA22003F093FDF22003F096FD57
:10262000002003F08DFD262003F090FD012003F033
:1026300087FDE02003F08AFD0F2003F081FD2A20B2
:1026400003F07EFD282003F07BFD082003F078FDD9
:102650000E2003F075FD082003F072FD542003F0F6
:102660006FFDA92003F06CFD432003F069FD0A20F3
:1026700003F066FD0F2003F063FD00200AE0000078
:10268000000C0140001401400018014000200140EE
:10269000F601002003F054FD002003F051FD00205E
:1026A00003F04EFD002003F04BFDE12003F04EFD52
:1026B000002003F045FD152003F042FD172003F034
:1026C0003FFD072003F03CFD112003F039FD0620FB
:1026D00003F036FD2B2003F033FD562003F030FDD0
:1026E0003C2003F02DFD052003F02AFD102003F00F
:1026F00027FD0F2003F024FD3F2003F021FD3F20A4
:1027000003F01EFD0F2003F01BFD2B2003F01EFD28
:10271000002003F015FD002003F012FD012003F05E
:102720000FFD3F2003F00CFD2A2003F00FFD0020D9
:1027300003F006FD002003F003FD002003F000FD80
:10274000EF2003F0FDFC112003F000FD782004F0E1
:10275000BBFE292003F0FAFC03F01AB9FE4880887A
:1027600046F6040188427CD1112003F0EFFC1420CE
:1027700004F0AAFED02003F0E9FC072003F0E0FCFF
:10278000422003F0DDFC1D2003F0DAFCD12003F031
:10279000DDFC002003F0D4FC1A2003F0D1FC09205A
:1027A00003F0CEFCD22003F0D1FC012003F0C8FCE2
:1027B000222003F0C5FCC02003F0C8FC102003F069
:1027C000BFFC3B2003F0BCFC002003F0B9FC02205E
:1027D00003F0B6FC112003F0B3FCC52003F0B6FCF7
:1027E000032003F0ADFCC82003F0B0FC002003F090
:1027F000A7FC252003F0A4FC212003F0A1FC052068
:1028000003F09EFC002003F09BFC0A2003F098FCE0
:10281000652003F095FC252003F092FC772003F05F
:102820008FFC502003F08CFC0F2003F089FC00206B
:1028300003F086FCF82003F089FC012003F080FC03
:10284000FE2003F083FC002003F07AFC022003F05A
:1028500077FC202003F07AFC362003F077FC082078
:1028600000E02CE003F06CFC3A2003F06FFC5520F4
:1028700003F066FC2B2003F069FC002003F060FCF1
:10288000002003F05DFC012003F05AFC3F2003F020
:1028900057FC2A2003F05AFC002003F051FC0020D2
:1028A00003F04EFC012003F04BFCDF2003F048FC5A
:1028B000782004F009FE292003F048FC4CE7A648E4
:1028C000808845F21031884240F07C87ED2003F08B
:1028D0003DFC012003F034FCFE2003F031FCEE202F
:1028E00003F034FCDE2003F02BFC212003F028FC55
:1028F000F12003F02BFC012003F022FCDF2003F089
:1029000025FC102003F01CFCC42003F01FFC8F20CA
:1029100003F016FCC62003F019FC002003F010FCA5
:10292000E22003F00DFCE22003F00AFCE22003F0B9
:1029300007FCBF2003F00AFCAA2003F001FCB02032
:1029400003F004FC0D2003F0FBFB002003F0F8FB78
:102950000D2003F0F5FB002003F0F2FB112003F043
:10296000EFFB002003F0ECFB192003F0E9FB002053
:1029700003F0E6FB212003F0E3FB002003F0E0FB83
:102980002D2003F0DDFB002003F0DAFB3D2003F0F7
:10299000D7FB002003F0D4FB5D2003F0D1FB002027
:1029A00003F0CEFB5D2003F0CBFB002003F0C8FB5F
:1029B000B12003F0CBFB802003F0C2FB002003F02A
:1029C000BFFB8B2003F0BCFB002003F0B9FB96207B
:1029D00003F0B6FB002003F0B3FBB22003F0B6FB1C
:1029E000002003F0ADFB002003F0AAFB022003F05F
:1029F000A7FB002003F0A4FB032003F0A1FB0020B1
:102A000003F09EFBB32003F0A1FB002003F098FB32
:102A1000002003F095FB002003F092FB002003F060
:102A20008FFB002003F08CFB002003F089FB0020CB
:102A300003F086FB002003F083FB002003F080FB03
:102A4000002003F07DFB002003F07AFB002003F060
:102A500077FB002003F074FB002003F071FB0020E3
:102A600003F06EFB002003F06BFB002003F068FB1B
:102A7000002003F065FB002003F062FB002003F060
:102A80005FFB002003F05CFB002003F059FB0020FB
:102A900003F056FB002003F053FBB42003F056FB79
:102AA0008B2003F04DFB002003F04AFB962003F03F
:102AB00047FB002003F044FBA12003F041FB002072
:102AC00003F03EFBB52003F041FB022003F038FB8E
:102AD000002003F035FB032003F032FB002003F05D
:102AE0002FFB042003F02CFB002003F029FBB62071
:102AF00003F02CFB002003F023FB002003F020FB5D
:102B0000B72003F023FB002003F01AFB002003F0A2
:102B100017FB3F2003F014FB002003F011FB5E20A5
:102B200003F00EFB002003F00BFB642003F008FB16
:102B3000002003F005FB8C2003F002FB002003F0D3
:102B4000FFFAAC2003F0FCFA002003F0F9FADC20D5
:102B500003F0F6FA002001E0F601002003F0F0FA9D
:102B6000702003F0EDFA002003F0EAFA902003F061
:102B7000E7FA002003F0E4FAEB2003F0E1FA00208A
:102B800003F0DEFADC2003F0DBFA002003F0D8FAD1
:102B9000B82003F0DBFA002003F0D2FA002003F0A3
:102BA000CFFA002003F0CCFA002003F0C9FA00208D
:102BB00003F0C6FA002003F0C3FA002003F0C0FAC5
:102BC000002003F0BDFABA2003F0C0FA242003F07D
:102BD000B7FA002003F0B4FA002003F0B1FA0020A5
:102BE00003F0AEFAC12003F0B1FA202003F0A8FAF6
:102BF000002003F0A5FA542003F0A2FA002003F00D
:102C00009FFAFF2003F09CFA002003F099FAC220FB
:102C100003F09CFA0A2003F093FA002003F090FAE4
:102C2000042003F08DFA002003F08AFAC32003F099
:102C30008DFA3C2003F084FA002003F081FA3A2058
:102C400003F07EFA002003F07BFA392003F078FAD3
:102C5000002003F075FA372003F072FA002003F029
:102C60006FFA3C2003F06CFA002003F069FA36207A
:102C700003F066FA002003F063FA322003F060FAF2
:102C8000002003F05DFA2F2003F05AFA002003F031
:102C900057FA2C2003F054FA002003F051FA2920AF
:102CA00003F04EFA002003F04BFA262003F048FA16
:102CB000002003F045FA242003F042FA002003F03C
:102CC0003FFA242003F03CFA002003F039FA2320D5
:102CD00003F036FA002003F033FA3C2003F030FA18
:102CE000002003F02DFA362003F02AFA002003F02A
:102CF00027FA322003F024FA002003F021FA2F20D3
:102D000003F01EFA002003F01BFA2C2003F018FA3F
:102D1000002003F015FA292003F012FA002003F036
:102D20000FFA262003F00CFA002003F009FA242001
:102D300003F006FA002003F003FA242003F000FA5F
:102D4000002003F0FDF9232003F0FAF9002003F03E
:102D5000F7F9C42003F0FAF9622003F0F1F900203A
:102D600003F0EEF9052003F0EBF9002003F0E8F999
:102D7000842003F0E5F9002003F0E2F9F02003F0ED
:102D8000DFF9002003F0DCF9182003F0D9F9002066
:102D900003F0D6F9A42003F0D3F9002003F0D0F912
:102DA000182003F0CDF9002003F0CAF9502003F0F9
:102DB000C7F9002003F0C4F90C2003F0C1F900208A
:102DC00003F0BEF9172003F0BBF9002003F0B8F9B7
:102DD000952003F0B5F9002003F0B2F9F32003F0D9
:102DE000AFF9002003F0ACF9E62003F0A9F90020C8
:102DF00003F0A6F9C52003F0A9F9322003F0A0F9E9
:102E0000002003F09DF9442003F09AF9002003F01C
:102E100097F9652003F094F9002003F091F97620EA
:102E200003F08EF9002003F08BF9882003F088F975
:102E3000002003F085F9C62003F088F9202003F074
:102E40007FF9002003F07CF9172003F079F90020C6
:102E500003F076F9012003F073F9002003F070F914
:102E6000C72003F073F9002003F06AF9002003F093
:102E700067F9002003F064F9002003F061F9C8202D
:102E800003F064F9002003F05BF9002003F058F927
:102E9000002003F055F9002003F052F9C92003F097
:102EA00055F9002003F04CF9002003F049F9002007
:102EB00003F046F9002003F043F9002003F040F945
:102EC000002003F03DF9002003F03AF9002003F060
:102ED00037F9002003F034F9002003F031F9002025
:102EE00003F02EF9002003F02BF9002003F028F95D
:102EF000002003F025F9002003F022F9002003F060
:102F00001FF9E02003F022F9162003F019F9002040
:102F100003F016F91C2003F013F9002003F010F958
:102F2000212003F00DF9002003F00AF9362003F008
:102F300007F9002003F004F9462003F001F900200E
:102F400003F0FEF8522003F0FBF8002003F0F8F83D
:102F5000642003F0F5F8002003F0F2F87A2003F083
:102F6000EFF8002003F0ECF88B2003F0E9F80020E4
:102F700003F0E6F8992003F0E3F8002003F0E0F80E
:102F8000A82003F0DDF8002003F0DAF8B92003F000
:102F9000D7F8002003F0D4F8C42003F0D1F80020C3
:102FA00003F0CEF8CA2003F0CBF8002003F0C8F8F5
:102FB000D22003F0C5F8002003F0C2F8D92003F0B6
:102FC000BFF8002003F0BCF8E02003F0B9F80020BF
:102FD00003F0B6F8F32003F0B3F8002003F0B0F8E4
:102FE000E12003F0B3F8162003F0AAF8002003F064
:102FF000A7F81C2003F0A4F8002003F0A1F8222079
:1030000003F09EF8002003F09BF8362003F098F8B8
:10301000002003F095F8452003F092F8002003F01B
:103020008FF8522003F08CF8002003F089F8642018
:1030300003F086F8002003F083F87A2003F080F88C
:10304000002003F07DF88B2003F07AF8002003F0D5
:1030500077F8992003F074F8002003F071F8A820A5
:1030600003F06EF8002003F06BF8B92003F068F865
:10307000002003F065F8C42003F062F8002003F09C
:103080005FF8CA2003F05CF8002003F059F8D22062
:1030900003F056F8002003F053F8D82003F050F85E
:1030A000002003F04DF8E02003F04AF8002003F080
:1030B00047F8F32003F044F8002003F041F8E22041
:1030C00003F044F8052003F03BF8002003F038F843
:1030D0000B2003F035F8002003F032F81B2003F03A
:1030E0002FF8002003F02CF8342003F029F80020FA
:1030F00003F026F8442003F023F8002003F020F822
:103100004F2003F01DF8002003F01AF8612003F0AF
:1031100017F8002003F014F8792003F011F80020CC
:1031200003F00EF8882003F00BF8002003F008F8F5
:10313000972003F005F8002003F002F8A62002F023
:10314000FFFF002002F0FCFFB72002F0F9FF002093
:1031500002F0F6FFC22002F0F3FF002002F0F0FFC1
:10316000C72002F0EDFF002002F0EAFFD12002F0BC
:10317000E7FF002002F0E4FFD62002F0E1FF00208C
:1031800002F0DEFFDD2002F0DBFF002002F0D8FFBE
:10319000F32002F0D5FF002002F0D2FFE32002F07E
:1031A000D5FF052002F0CCFF002002F0C9FF0A2065
:1031B00002F0C6FF002002F0C3FF1C2002F0C0FF97
:1031C000002002F0BDFF332002F0BAFF002002F021
:1031D000B7FF442002F0B4FF002002F0B1FF5020FE
:1031E00002F0AEFF002002F0ABFF622002F0A8FF69
:1031F000002002F0A5FF782002F0A2FF002002F0DC
:103200009FFF882002F09CFF002002F099FF97208A
:1032100002F096FF002002F093FFA62002F090FF3C
:10322000002002F08DFFB72002F08AFF002002F09C
:1032300087FFC22002F084FF002002F081FFC72038
:1032400002F07EFF002002F07BFFD12002F078FF29
:10325000002002F075FFD52002F072FF002002F07E
:103260006FFFDD2002F06CFF002002F069FFF32009
:1032700002F066FF002002F063FFE42002F066FF28
:10328000012002F05DFF002002F05AFF012002F051
:1032900057FF002002F054FF022002F051FF0020EF
:1032A00002F04EFF2A2002F04BFF002002F048FF00
:1032B0003C2002F045FF002002F042FF4B2002F0CC
:1032C0003FFF002002F03CFF5D2002F039FF0020AC
:1032D00002F036FF742002F033FF002002F030FFCE
:1032E000842002F02DFF002002F02AFF932002F03C
:1032F00027FF002002F024FFA22002F021FF00207F
:1033000002F01EFFB32002F01BFF002002F018FFA6
:10331000BE2002F015FF002002F012FFC42002F0D0
:103320000FFF002002F00CFFCD2002F009FF00206B
:1033300002F006FFD32002F003FF002002F000FF9E
:10334000DD2002F0FDFE002002F0FAFEF32002F084
:10335000F7FE002002F0F4FEE52002F0F7FE002068
:1033600002F0EEFE002002F0EBFE002002F0E8FE8C
:10337000002002F0E5FE022002F0E2FE002002F052
:10338000DFFE292002F0DCFE002002F0D9FE3C2006
:1033900002F0D6FE002002F0D3FE4B2002F0D0FE59
:1033A000002002F0CDFE5D2002F0CAFE002002F0F7
:1033B000C7FE742002F0C4FE002002F0C1FE84208B
:1033C00002F0BEFE002002F0BBFE932002F0B8FE29
:1033D000002002F0B5FEA22002F0B2FE002002F0B2
:1033E000AFFEB32002F0ACFE002002F0A9FEBE202A
:1033F00002F0A6FE002002F0A3FEC42002F0A0FE10
:10340000002002F09DFECD2002F09AFE002002F086
:1034100097FED32002F094FE002002F091FEDC2003
:1034200002F08EFE002002F08BFEF32002F088FEF8
:10343000002002F085FEE62002F088FE112002F056
:103440007FFE002002F07CFE342002F079FE002096
:1034500002F076FE562002F073FE002002F070FEAD
:10346000762002F06DFE002002F06AFE772002F066
:1034700067FE002002F064FE662002F061FE00207C
:1034800002F05EFE882002F05BFE002002F058FE93
:10349000992002F055FE002002F052FEBB2002F0FF
:1034A0004FFE002002F04CFE992002F049FE002061
:1034B00002F046FE662002F043FE002002F040FECD
:1034C000552002F03DFE002002F03AFE552002F0A9
:1034D00037FE002002F034FE452002F031FE0020CD
:1034E00002F02EFE432002F02BFE002002F028FE08
:1034F000442002F025FE002002F022FEE72002F028
:1035000025FE322002F01CFE002002F019FE55209C
:1035100002F016FE002002F013FE762002F010FEEC
:10352000002002F00DFE662002F00AFE002002F0EC
:1035300007FE672002F004FE002002F001FE672073
:1035400002F0FEFD002002F0FBFD872002F0F8FDF6
:10355000002002F0F5FD992002F0F2FD002002F0BB
:10356000EFFDBB2002F0ECFD002002F0E9FD992008
:1035700002F0E6FD002002F0E3FD772002F0E0FD1E
:10358000002002F0DDFD442002F0DAFD002002F010
:10359000D7FD562002F0D4FD002002F0D1FD2320FB
:1035A00002F0CEFD002002F0CBFD332002F0C8FD7A
:1035B000002002F0C5FD452002F0C2FD002002F00F
:1035C000BFFDE82002F0C2FD002002F0B9FD00209E
:1035D00002F0B6FD992002F0B3FD002002F0B0FD2C
:1035E000872002F0ADFD002002F0AAFD882002F045
:1035F000A7FD002002F0A4FD772002F0A1FD00202D
:1036000002F09EFD662002F09BFD002002F098FD76
:10361000882002F095FD002002F092FDAA2002F021
:103620008FFD002002F08CFDBB2002F089FD002000
:1036300002F086FD992002F083FD002002F080FD5B
:10364000662002F07DFD002002F07AFD552002F098
:1036500077FD002002F074FD552002F071FD00207E
:1036600002F06EFD442002F06BFD002002F068FDC8
:10367000442002F065FD002002F062FD552002F0BA
:103680005FFD002002F05CFDE92002F05FFDAA2052
:1036900002F056FD002002F053FD002002F050FD24
:1036A000002002F04DFD002002F050FDAA2002F0A3
:1036B00047FDCF2002F04AFD002002F041FD00202E
:1036C00002F03EFD002002F03BFD002002F038FD3C
:1036D000002002F035FD002002F032FD002002F053
:1036E0002FFD002002F02CFD002002F029FD00201B
:1036F00002F026FD002002F023FD002002F020FD54
:10370000002002F01DFD002002F01AFD002002F052
:1037100017FD002002F014FD002002F011FDF02042
:1037200002F014FD002002F00BFD502002F008FD15
:10373000002002F005FD002002F002FD002002F052
:10374000FFFCF32002F002FD002002F0F9FCF9205A
:1037500002F0FCFC062002F0F3FC102002F0F0FC6A
:10376000292002F0EDFC002002F0EAFC3A2002F0F1
:10377000EDFC552002F0E4FC112002F0E7FC64208F
:1037800003F0A2FE292002F0E1FC352002F0DEFC6D
:10379000002002F0D5FC512002F0D8FCFF2002F0FE
:1037A000CFFC532002F0D2FC2C2002F0C9FC5520A3
:1037B00002F0CCFC822002F0C3FC2C2002F0C6FCFC
:1037C00002F0E6B8FE48808845F2105188427DD16B
:1037D00055214FF4704002F0C9FCAA214FF20100BC
:1037E00002F0C4FC52214FF2020002F0BFFC08219B
:1037F0004FF2030002F0BAFC01214FF2040002F084
:10380000B5FC0D214FF4304002F0B0FC0D214BF21D
:10381000010002F0ABFC0D214BF2020002F0A6FC0D
:1038200034214FF4364002F0A1FC34214BF2016008
:1038300002F09CFC34214BF2026002F097FC0D2157
:103840004FF4314002F092FC0D214BF2011002F0D6
:103850008DFC0D214BF2021002F088FC34214FF454
:10386000374002F083FC34214BF2017002F07EFC01
:1038700034214BF2027002F079FC00214FF4324007
:1038800002F074FC00214BF2012002F06FFC0021D9
:103890004BF2022002F06AFC24214FF4384002F07F
:1038A00065FC24214BF6010002F060FC24214BF65C
:1038B000020002F05BFC01214FF43F4002F056FC95
:1038C0000F214FF4334002F051FC00E0FDE30F21E3
:1038D0004BF2013002F04AFC0F214BF2023002F0B1
:1038E00045FC34214FF4394002F040FC34214BF6C2
:1038F000011002F03BFC34214BF6021002F036FCC2
:1039000008214FF4354002F031FC08214BF2015000
:1039100002F02CFC08214BF2025002F027FC03219C
:103920004FF4424002F022FC24214FF43A4002F0CE
:103930001DFC24214BF6012002F018FC24214BF63B
:10394000022002F013FC00214FF43C4002F00EFC78
:1039500078214BF6014002F009FC00214BF60240B1
:1039600002F004FC00214FF43D4002F0FFFB7821FF
:103970004BF6015002F0FAFB00214BF6025002F028
:10398000F5FB00214FF43E4002F0F0FB64214BF6C2
:10399000016002F0EBFB00214FF4514002F0E6FB26
:1039A00033214DF2011002F0E1FB00214DF2021033
:1039B00002F0DCFB34214DF2031002F0D7FB0021B2
:1039C0004DF2041002F0D2FB3A214DF2051002F044
:1039D000CDFB00214DF2061002F0C8FB4A214DF24A
:1039E000071002F0C3FB00214DF2081002F0BEFBED
:1039F0005C214DF2091002F0B9FB00214DF20A10D2
:103A000002F0B4FB81214DF20B1002F0AFFB00215C
:103A10004DF20C1002F0AAFBA6214DF20D1002F09F
:103A2000A5FB00214DF20E1002F0A0FBE5214DF2A6
:103A30000F1002F09BFB01214DF2101002F096FBDB
:103A400013214DF2111002F091FB01214DF21210E1
:103A500002F08CFB54214DF2131002F087FB012180
:103A60004DF2141002F082FB82214DF2151002F08B
:103A70007DFB01214DF2161002F078FBCA214DF2B8
:103A8000171002F073FB02214DF2181002F06EFBCA
:103A900000214DF2191002F069FB02214DF21A10BB
:103AA00002F064FB01214DF21B1002F05FFB0221CA
:103AB0004DF21C1002F05AFB34214DF21D1002F0A1
:103AC00055FB02214DF21E1002F050FB67214DF212
:103AD0001F1002F04BFB02214DF2201002F046FBBA
:103AE00084214DF2211002F041FB02214DF22210FF
:103AF00002F03CFBA4214DF2231002F037FB02211F
:103B00004DF2241002F032FBB7214DF2251002F0E5
:103B10002DFB02214DF2261002F028FBCF214DF2A1
:103B2000271002F023FB02214DF2281002F01EFBA9
:103B3000DE214DF2291002F019FB02214DF22A106C
:103B400002F014FBF2214DF22B1002F00FFB0221C8
:103B50004DF22C1002F00AFBFE214DF22D1002F066
:103B600005FB03214DF22E1002F000FB10214DF257
:103B70002F1002F0FBFA03214DF2301002F0F6FA9A
:103B800033214DF2311002F0F1FA03214DF23210DF
:103B900002F0ECFA6D214DF2331002F0E7FA002149
:103BA0004FF4524002F0E2FA33214DF2012002F0CC
:103BB000DDFA00214DF2022002F0D8FA342101E0B2
:103BC000F60100204DF2032002F0D0FA00214DF260
:103BD000042002F0CBFA3A214DF2052002F0C6FA99
:103BE00000214DF2062002F0C1FA4A214DF20720D1
:103BF00002F0BCFA00214DF2082002F0B7FA5C2175
:103C00004DF2092002F0B2FA00214DF20A2002F032
:103C1000ADFA81214DF20B2002F0A8FA00214DF2FD
:103C20000C2002F0A3FAA6214DF20D2002F09EFA1C
:103C300000214DF20E2002F099FAE5214DF20F20FD
:103C400002F094FA01214DF2102002F08FFA1321B4
:103C50004DF2112002F08AFA01214DF2122002F0F9
:103C600085FA54214DF2132002F080FA01214DF221
:103C7000142002F07BFA82214DF2152002F076FA30
:103C800001214DF2162002F071FACA214DF21720DF
:103C900002F06CFA02214DF2182002F067FA0021BE
:103CA0004DF2192002F062FA02214DF21A2002F0C0
:103CB0005DFA01214DF21B2002F058FA02214DF26B
:103CC0001C2002F053FA34214DF21D2002F04EFA6E
:103CD00002214DF21E2002F049FA67214DF21F2009
:103CE00002F044FA02214DF2202002F03FFA842132
:103CF0004DF2212002F03AFA02214DF2222002F088
:103D000035FAA4214DF2232002F030FA02214DF2BF
:103D1000242002F02BFAB7214DF2252002F026FADA
:103D200002214DF2262002F021FACF214DF2272068
:103D300002F01CFA02214DF2282002F017FADE21CF
:103D40004DF2292002F012FA02214DF22A2002F04F
:103D50000DFAF2214DF22B2002F008FA02214DF269
:103D60002C2002F003FAFE214DF22D2002F0FEF984
:103D700003214DF22E2002F0F9F910214DF22F20EF
:103D800002F0F4F903214DF2302002F0EFF9332173
:103D90004DF2312002F0EAF903214DF2322002F017
:103DA000E5F96D214DF2332002F0E0F900214FF4E6
:103DB000534002F0DBF933214DF2013002F0D6F925
:103DC00000214DF2023002F0D1F934214DF20330DE
:103DD00002F0CCF900214DF2043002F0C7F93A218B
:103DE0004DF2053002F0C2F900214DF2063002F02A
:103DF000BDF94A214DF2073002F0B8F900214DF229
:103E0000083002F0B3F95C214DF2093002F0AEF94E
:103E100000214DF20A3002F0A9F981214DF20B3058
:103E200002F0A4F900214DF20C3002F09FF9A62116
:103E30004DF20D3002F09AF900214DF20E3002F0F1
:103E400095F9E5214DF20F3002F090F901214DF284
:103E5000103002F08BF913214DF2113002F086F987
:103E600001214DF2123002F081F954214DF213304C
:103E700002F07CF901214DF2143002F077F9822131
:103E80004DF2153002F072F901214DF2163002F0B8
:103E90006DF9CA214DF2173002F068F902214DF296
:103EA000183002F063F900214DF2193002F05EF98A
:103EB00002214DF21A3002F059F901214DF21B3066
:103EC00002F054F902214DF21C3002F04FF9342176
:103ED0004DF21D3002F04AF902214DF21E3002F07F
:103EE00045F967214DF21F3002F040F902214DF2F1
:103EF000203002F03BF984214DF2213002F036F9F6
:103F000002214DF2223002F031F9A4214DF223308A
:103F100002F02CF902214DF2243002F027F9B721EA
:103F20004DF2253002F022F902214DF2263002F046
:103F30001DF9CF214DF2273002F018F902214DF280
:103F4000283002F013F9DE214DF2293002F00EF98B
:103F500002214DF22A3002F009F9F2214DF22B3004
:103F600002F004F902214DF22C3002F0FFF8FE219C
:103F70004DF22D3002F0FAF803214DF22E3002F00E
:103F8000F5F810214DF22F3002F0F0F803214DF238
:103F9000303002F0EBF833214DF2313002F0E6F828
:103FA00003214DF2323002F0E1F86D214DF2333051
:103FB00002F0DCF800214FF4544002F0D7F833212E
:103FC0004DF2014002F0D2F800214DF2024002F021
:103FD000CDF834214DF2034002F0C8F800214DF233
:103FE000044002F0C3F83A214DF2054002F0BEF859
:103FF00000214DF2064002F0B9F84A214DF2074087
:1040000002F0B4F800214DF2084002F0AFF85C2154
:104010004DF2094002F0AAF800214DF20A4002F0E8
:10402000A5F881214DF20B4002F0A0F800214DF2DD
:104030000C4002F09BF8A6214DF20D4002F096F8DC
:1040400000214DF20E4002F091F8E5214DF20F40B3
:1040500002F08CF801214DF2104002F087F8132194
:104060004DF2114002F082F801214DF2124002F0AF
:104070007DF854214DF2134002F078F801214DF201
:10408000144002F073F882214DF2154002F06EF8F0
:1040900001214DF2164002F069F8CA214DF2174095
:1040A00002F064F802214DF2184002F05FF800219E
:1040B0004DF2194002F05AF802214DF21A4002F076
:1040C00055F801214DF21B4000E006E302F04EF8E6
:1040D00002214DF21C4002F049F834214DF21D40FE
:1040E00002F044F802214DF21E4002F03FF8672131
:1040F0004DF21F4002F03AF802214DF2204002F04A
:1041000035F884214DF2214002F030F802214DF2C1
:10411000224002F02BF8A4214DF2234002F026F8B1
:1041200002214DF2244002F021F8B7214DF2254042
:1041300002F01CF802214DF2264002F017F8CF21C0
:104140004DF2274002F012F802214DF2284002F011
:104150000DF8DE214DF2294002F008F802214DF25F
:104160002A4002F003F8F2214DF22B4001F0FEFF4D
:1041700002214DF22C4001F0F9FFFE214DF22D40BD
:1041800001F0F4FF03214DF22E4001F0EFFF10216A
:104190004DF22F4001F0EAFF03214DF2304001F0D3
:1041A000E5FF33214DF2314001F0E0FF03214DF2F4
:1041B000324001F0DBFF6D214DF2334001F0D6FFBC
:1041C00000214FF4554001F0D1FF33214DF2015051
:1041D00001F0CCFF00214DF2025001F0C7FF342165
:1041E0004DF2035001F0C2FF00214DF2045001F0E6
:1041F000BDFF3A214DF2055001F0B8FF00214DF20C
:10420000065001F0B3FF4A214DF2075001F0AEFF16
:1042100000214DF2085001F0A9FF5C214DF2095038
:1042200001F0A4FF00214DF20A5001F09FFF81210F
:104230004DF20B5001F09AFF00214DF20C5001F0AD
:1042400095FFA6214DF20D5001F090FF00214DF297
:104250000E5001F08BFFE5214DF20F5001F086FF6B
:1042600001214DF2105001F081FF13214DF2115048
:1042700001F07CFF01214DF2125001F077FF542133
:104280004DF2135001F072FF01214DF2145001F074
:104290006DFF82214DF2155001F068FF01214DF2B2
:1042A000165001F063FFCA214DF2175001F05EFF76
:1042B00002214DF2185001F059FF00214DF2195022
:1042C00001F054FF02214DF21A5001F04FFF01217D
:1042D0004DF21B5001F04AFF02214DF21C5001F03B
:1042E00045FF34214DF21D5001F040FF02214DF2F7
:1042F0001E5001F03BFF67214DF21F5001F036FFC9
:1043000002214DF2205001F031FF84214DF2215065
:1043100001F02CFF02214DF2225001F027FFA421D1
:104320004DF2235001F022FF02214DF2245001F002
:104330001DFFB7214DF2255001F018FF02214DF26B
:10434000265001F013FFCF214DF2275001F00EFF50
:1043500002214DF2285001F009FFDE214DF22950D3
:1043600001F004FF02214DF22A5001F0FFFEF2217C
:104370004DF22B5001F0FAFE02214DF22C5001F0CB
:10438000F5FEFE214DF22D5001F0F0FE03214DF21D
:104390002E5001F0EBFE10214DF22F5001F0E6FE01
:1043A00003214DF2305001F0E1FE33214DF2315046
:1043B00001F0DCFE03214DF2325001F0D7FE6D21F9
:1043C0004DF2335001F0D2FE00214FF4564001F07F
:1043D000CDFE33214DF2016001F0C8FE00214DF207
:1043E000026001F0C3FE34214DF2036001F0BEFE15
:1043F00000214DF2046001F0B9FE3A214DF2056052
:1044000001F0B4FE00214DF2066001F0AFFE4A213A
:104410004DF2076001F0AAFE00214DF2086001F0A4
:10442000A5FE5C214DF2096001F0A0FE00214DF2D5
:104430000A6001F09BFE81214DF20B6001F096FEB7
:1044400000214DF20C6001F091FEA6214DF20D60AD
:1044500001F08CFE00214DF20E6001F087FEE52197
:104460004DF20F6001F082FE01214DF2106001F06B
:104470007DFE13214DF2116001F078FE01214DF215
:10448000126001F073FE54214DF2136001F06EFED4
:1044900001214DF2146001F069FE82214DF2156098
:1044A00001F064FE01214DF2166001F05FFECA21A9
:1044B0004DF2176001F05AFE02214DF2186001F032
:1044C00055FE00214DF2196001F050FE02214DF21F
:1044D0001A6001F04BFE01214DF21B6001F046FE17
:1044E00002214DF21C6001F041FE34214DF21D60AD
:1044F00001F03CFE02214DF21E6001F037FE672103
:104500004DF21F6001F032FE02214DF2206001F0F9
:104510002DFE84214DF2216001F028FE02214DF292
:10452000226001F023FEA4214DF2236001F01EFE63
:1045300002214DF2246001F019FEB7214DF22560F1
:1045400001F014FE02214DF2266001F00FFECF2192
:104550004DF2276001F00AFE02214DF2286001F0C1
:1045600005FEDE214DF2296001F000FE02214DF230
:104570002A6001F0FBFDF2214DF22B6001F0F6FD07
:1045800002214DF22C6001F0F1FDFE214DF22D6073
:1045900001F0ECFD03214DF22E6001F0E7FD10214A
:1045A0004DF22F6001F0E2FD03214DF2306001F089
:1045B000DDFD33214DF2316001F0D8FD03214DF2D4
:1045C000326001F0D3FD6D214DF2336001F0CEFD7C
:1045D00055214FF4704001F0C9FDAA214FF20100AE
:1045E00001F0C4FD52214FF2020001F0BFFD08218D
:1045F0004FF2030001F0BAFD00214FF2040001F078
:10460000B5FDCC214FF4314001F0B0FD00214BF25B
:10461000011001F0ABFD05214FF4364001F0A6FD7D
:1046200070214FF4374001F0A1FD70214BF2017071
:1046300001F09CFD01214FF4384001F097FD03216A
:104640004BF6010001F092FD03214BF6020001F050
:104650008DFD03214BF6030001F088FD02214FF48C
:104660003C4001F083FD00214BF6014001F07EFD4E
:1046700000214BF6024001F079FDD0214FF4494072
:1046800001F074FD02214CF6011001F06FFD502184
:104690004CF6021001F06AFD50214CF6031001F0B7
:1046A00065FD50214CF6041001F060FD00214FF42F
:1046B000545001F05BFD55214FF4685001F056FD58
:1046C0004FF4885001F042FD782002F023FF4FF4B0
:1046D000245001F03BFD01F05BB9FE48808849F2AF
:1046E000253188427ED147F6F001E52001F03EFDFC
:1046F0004FF48071012001F039FD4FF4E061022098
:1047000001F034FD41F23001032001F02FFD0021C2
:10471000042001F02BFD40F20221082001F026FDCB
:104720000021092001F022FD00210A2001F01EFDD8
:1047300000210C2001F01AFD00210D2001F016FDD2
:1047400000210F2001F012FD0021102001F00EFDCC
:104750000721112001F00AFD0021122001F006FDC1
:104760000021132001F002FD0021072001F0FEFCD2
:1047700041F29061102001F0F9FC40F22721112054
:1047800001F0F4FC9D21122001F0F0FC4FF4C8511F
:10479000132001F0EBFC2521292001F0E7FC0D217D
:1047A0002B2001F0E3FC0721302001F0DFFC40F278
:1047B0000331312001F0DAFC0321322001F0D6FC74
:1047C00040F20621352001F0D1FC0821362001F00D
:1047D000CDFC40F20641372001F0C8FC4FF4417196
:1047E000382000E057E001F0C1FC0721392001F03A
:1047F000BDFC40F202613C2001F0B8FC08213D20E4
:1048000001F0B4FC0021502001F0B0FCEF21512058
:1048100001F0ACFC0021522001F0A8FC40F23F1155
:10482000532001F0A3FC4FF42741602001F09EFCCF
:104830000121612001F09AFC00216A2001F096FC20
:104840000021802001F092FC0021812001F08EFCEB
:104850000021822001F08AFC0021832001F086FCE7
:104860000021842001F082FC0021852001F07EFCE3
:104870001021902001F07AFC4FF4C061922001F0E9
:1048800075FC40F23311072001F070FC222100205A
:1048900001F06CFC1FE78F48808849F2283188427C
:1048A0007ED141F28F01EC2001F060FC41F2342115
:1048B000EF2001F05BFC4FF48071012001F056FC09
:1048C0004FF4E061022001F051FC41F2300103207D
:1048D00001F04CFC0021042001F048FC40F20221D0
:1048E000082001F043FC0021092001F03FFC0021D9
:1048F0000A2001F03BFC01210C2001F037FC0021D3
:104900000D2001F033FC00210F2001F02FFC0021CD
:10491000102001F02BFC0721112001F027FC0021C1
:10492000122001F023FC0021132001F01FFC0121C3
:10493000072001F01BFC322002F0C6FD41F290413D
:10494000102001F013FC40F22721112001F00EFC91
:10495000322002F0B9FD8A21122001F007FC32203A
:1049600002F0B2FD4FF4D051132001F0FFFB0621FD
:10497000292001F0FBFB0D212B2001F0F7FB322059
:1049800002F0A2FD0021202001F0F0FB00212120F7
:1049900001F0ECFB322002F097FD0021302000E016
:1049A00074E001F0E3FB40F20461312001F0DEFB32
:1049B00040F20531322001F0D9FB0021352001F011
:1049C000D5FB40F60941362001F0D0FB4FF40171D0
:1049D000372001F0CBFB40F20131382001F0C6FB5B
:1049E00040F20771392001F0C1FB00213C2001F0A9
:1049F000BDFB40F60A213D2001F0B8FB322002F059
:104A000063FD0021502001F0B1FBEF21512001F0A6
:104A1000ADFB0021522001F0A9FB40F23F115320D1
:104A200001F0A4FB4FF42741602001F09FFB01211E
:104A3000612001F09BFB00216A2001F097FB00211F
:104A4000802001F093FB0021812001F08FFB0021E9
:104A5000822001F08BFB0021832001F087FB0021E5
:104A6000842001F083FB0021852001F07FFB1021D1
:104A7000902001F07BFB4FF4C061922001F076FBA7
:104A800040F23311072001F071FB24E611488088C1
:104A900049F2203188427DD10021084601F066FBB1
:104AA0004FF48071012001F061FB4FF4E0610220BE
:104AB00001F05CFB41F23001032001F057FB0021C3
:104AC000042001F053FB40F20221082001F04EFBCC
:104AD000002101E0F6010020092001F047FB002140
:104AE0000A2001F043FB01210C2001F03FFB0021D3
:104AF0000D2001F03BFB00210F2001F037FB32209D
:104B000002F0E2FC40F20111072001F02FFB3220FD
:104B100002F0DAFC4FF48651102001F027FB072148
:104B2000112001F023FB4FF48871122001F01EFBCD
:104B30004FF43061132001F019FB0021292001F00E
:104B400015FB44F210012B2001F010FB0021502036
:104B500001F00CFBEF21512001F008FB0021522055
:104B600001F004FB40F23F11532001F0FFFA4FF433
:104B70001C51602001F0FAFA0121612001F0F6FADF
:104B800000216A2001F0F2FA0021802001F0EEFA03
:104B9000002100E031E0812001F0E8FA00218220CC
:104BA00001F0E4FA0021832001F0E0FA00218420E2
:104BB00001F0DCFA0021852001F0D8FA10219020C4
:104BC00001F0D4FA0021922001F0D0FA01219320C3
:104BD00001F0CCFA4FF48871952001F0C7FA00215A
:104BE000972001F0C3FA0021982001F0BFFA40F2AB
:104BF0007311072001F0BAFA6DE5FE48808849F28A
:104C0000313188427DD141F21401E72001F0AEFA42
:104C10004FF48071012001F0A9FA4FF400710220D5
:104C200001F0A4FA41F23801032001F09FFA40F2AA
:104C30000221082001F09AFA0021092001F096FAD9
:104C400000210A2001F092FA00210C2001F08EFAD6
:104C500000210D2001F08AFA00210F2001F086FAD0
:104C60000021102001F082FA0721112001F07EFAC4
:104C70000021122001F07AFA0021132001F076FAC7
:104C8000C82002F021FC41F29061102001F06EFA80
:104C900040F22721112001F069FA322002F014FCC1
:104CA0000C21122001F062FA322002F00DFC4FF4C8
:104CB0000061132001F05AFA1121292001F056FA5F
:104CC0000B212B2001F052FA322002F0FDFB0021D3
:104CD000202001F04BFA40F23F11212001F046FA6A
:104CE0000021302001F042FA4FF48371312001F0AD
:104CF0003DFA0021322001F039FA4FF401713520DC
:104D000000E064E001F032FA41F20A61362001F07D
:104D10002DFA40F20771372001F028FA4FF4837121
:104D2000382001F023FA40F20771392001F01EFA11
:104D300040F202413C2001F019FA40F60F413D20BB
:104D400001F014FA0021502001F010FAEF21512057
:104D500001F00CFA0021522001F008FA40F23F1154
:104D6000532001F003FA4FF41C51602001F0FEF9CA
:104D70000121612001F0FAF900216A2001F0F6F921
:104D80000021802001F0F2F90021812001F0EEF9EC
:104D90000021822001F0EAF90021832001F0E6F9E8
:104DA0000021842001F0E2F90021852001F0DEF9E4
:104DB0001021902001F0DAF94FF4C061922001F047
:104DC000D5F940F23311072001F0D0F983E4894886
:104DD000808845F2084188427ED14FF480710120DD
:104DE00001F0C4F94FF4E061022001F0BFF941F293
:104DF0003001032001F0BAF90021042001F0B6F9D6
:104E000040F20721082001F0B1F90021092001F04A
:104E1000ADF900210A2001F0A9F900210C2001F0D0
:104E2000A5F900210D2001F0A1F900210F2001F0CA
:104E30009DF9142002F048FB41F2B061102001F00E
:104E400095F90121112001F091F90121172001F0BC
:104E50008DF94FF49C71122001F088F94FF4006134
:104E6000132001F083F90921292001F07FF909219C
:104E70002A2001F07BF90021A42001F077F900211C
:104E8000502001F073F9EF21512001F06FF900215A
:104E9000522001F06BF940F23F11532001F066F906
:104EA0004FF41C51602001F061F90121612001F0F3
:104EB0005DF900216A2001F059F90021802001F0FC
:104EC00055F90021812001F051F90021822001F0E3
:104ED0004DF90021832000E023E001F047F9002193
:104EE000842001F043F90021852001F03FF91321CE
:104EF000902001F03BF90021922001F037F90321C5
:104F0000932001F033F94FF48871952001F02EF9C8
:104F100040F27311072001F029F9322002F0D4FA8F
:104F2000B8E43448808841F2055188427ED100219E
:104F3000072001F01BF9322002F0C6FA4FF48E71FF
:104F4000122001F013F90121A42001F00FF90F2123
:104F5000082001F00BF908210A2001F007F90821C7
:104F60000D2001F003F940F20771302001F0FEF846
:104F70000721312001F0FAF840F20361322001F0FC
:104F8000F5F84FF4E061332001F0F0F840F202212F
:104F9000342001F0EBF80221352001F0E7F841F66A
:104FA0000F71362001F0E2F840F20771372001F06E
:104FB000DDF80021382001F0D9F80021392001F076
:104FC000D5F840F207713A2001F0D0F800213B20DB
:104FD00001F0CCF807213C2001F0C8F800213D2069
:104FE00001F0C4F8322002F06FFA0121072001F02D
:104FF000BDF801E0F60100200121172001F0B6F80C
:10500000322002F061FA4FF4BD51102001F0AEF8E9
:1050100040F21721112001F0A9F84FF48F711220EE
:1050200001F0A4F84FF47061132000E097E001F064
:105030009DF800212A2001F099F80A21292001F089
:1050400095F84FF49F71122001F090F80021502044
:1050500001F08CF8EF21512001F088F80021522056
:1050600001F084F840F23F11532001F07FF84FF433
:105070001C51602001F07AF80121612001F076F8DE
:1050800000216A2001F072F80021802001F06EF802
:105090000021812001F06AF80021822001F066F8E9
:1050A0000021832001F062F80021842001F05EF8E5
:1050B0000021852001F05AF81321902001F056F8C4
:1050C0004FF44071922001F051F80521932001F036
:1050D0004DF80021952001F049F80021972001F0BA
:1050E00045F80021982001F041F84FF4807101202B
:1050F00001F03CF84FF4E061022001F037F841F292
:105100003801032001F032F80021042001F02EF8CC
:1051100000210C2001F02AF800210F2001F026F8D0
:105120000021202001F022F80021212001F01EF8AA
:105130002121072001F01AF8142002F0C5F961219D
:10514000072001F013F8142002F0BEF940F27311A9
:10515000072001F00BF8142002F0B6F995E4FE48A0
:1051600080884BF2055188427ED10021084600F02C
:10517000FDFF0021084600F0F9FF0021084600F07D
:10518000F5FF0021084600F0F1FF0121A42000F006
:10519000EDFF142002F098F94FF41C51602000F04C
:1051A000E5FF40F20221082000F0E0FF4FF4057116
:1051B000302000F0DBFF43F21571312000F0D6FF04
:1051C00040F20461322000F0D1FF40F61661332036
:1051D00000F0CCFF42F21121342000F0C7FF4FF461
:1051E000A851352000F0C2FF48F20751362000F0E8
:1051F000BDFF41F20741372000F0B8FF41F2034103
:10520000382000F0B3FF2021392000F0AFFF1A2131
:10521000902000F0ABFF0021102000F0A7FF072135
:10522000112000F0A3FF0021122000F09FFF0021B9
:10523000132000F09BFF142002F046F94FF4E661C2
:10524000102000F093FF40F23711112000F08EFF84
:10525000142002F039F94FF4DC71122000F086FFBF
:10526000142002F031F900E083E04FF47061132064
:1052700000F07CFF80212A2000F078FF48212920BF
:1052800000F074FF142002F01FF94FF48071012028
:1052900000F06CFF4FF4E061022000F067FF41F284
:1052A0003801032000F062FF40F20221082000F0E4
:1052B0005DFF00210A2000F059FF00210C2000F0C2
:1052C00055FF00210D2000F051FF30210E2000F08D
:1052D0004DFF0021502000F049FFEF21512000F048
:1052E00045FF0021522000F041FF40F23F115320C2
:1052F00000F03CFF4FF41C51602000F037FF01210B
:10530000612000F033FF00216A2000F02FFF1121FF
:10531000902000F02BFF4FF4C061922000F026FF98
:1053200040F20241932000F021FF0221942000F07E
:105330001DFF142002F0C8F80121072000F016FF1D
:10534000142002F0C1F86121072000F00FFF40F2A5
:105350007311072000F00AFF0021202000F006FF53
:105360000021212000F002FF2221002000F0FEFE9B
:105370000EE3794880884CF2055188427ED10021A5
:10538000084600F0F3FE0021084600F0EFFE14206E
:1053900002F09AF80021084600F0E8FE00210846D5
:1053A00000F0E4FE0021084600F0E0FE002108467F
:1053B00000F0DCFE0121A42000F0D8FE142002F051
:1053C00083F84FF41C51602000F0D0FE40F6060137
:1053D000082000F0CBFE40F20371302000F0C6FE42
:1053E0000121312000F0C2FE0421322000F0BEFE77
:1053F0004FF48171332000F0B9FE4FF44071342036
:1054000000F0B4FE40F20311352000F0AFFE1F2182
:10541000362000F0ABFE40F20371372000F0A6FE0C
:105420000121382000F0A2FE0421392000F09EFE68
:105430001521902000F09AFE4FF48261102000F0B8
:1054400095FE40F24721112000F090FE4FF4DE71EE
:10545000122000F08BFE4FF46061132000F086FEF6
:10546000782002F031F84FF48071012000F07EFEC8
:105470004FF40071022000F079FE00E050E041F2AC
:105480003001032000F072FE08210A2000F06EFEB9
:1054900000210C2000F06AFE20210E2000F066FEA4
:1054A00000210F2000F062FE0021202000F05EFEAF
:1054B0000021212000F05AFE3D212A2000F056FE56
:1054C000142002F001F82D21292000F04FFE0021C8
:1054D000502000F04BFE4DF2EF01512000F046FE4F
:1054E0000021522000F042FE40F23F11532000F014
:1054F0003DFE0021612000F039FE00216A2000F00D
:1055000035FE4FF44071922000F030FE05219320CB
:1055100000F02CFE4FF48071072000F027FE37E2E8
:105520000D48808844F2315188427CD1012100200D
:1055300000F01CFE0A2001F0C7FF41F22861102094
:1055400000F014FE0E21122000F010FE40F639216A
:10555000132000F00BFE01E0F60100200A2001F00C
:10556000B3FF4021112000F001FE5021152000F072
:10557000FDFD0A2001F0A8FF1E21122000F0F6FD1B
:105580000A2001F0A1FF4FF4B151102000F0EEFD10
:1055900042F63921132000F0E9FD0A2001F094FFC2
:1055A0004FF48071012000F0E1FD4FF440710220C2
:1055B00000F0DCFD41F23801032000F0D7FD40F29D
:1055C0000221082000F0D2FD08210A2000F0CEFDC3
:1055D0000021302000F0CAFD40F20241312000F0ED
:1055E000C5FD4FF48371322000F0C0FD40F203513D
:1055F000332000F0BBFD4FF48271342000F0B6FD83
:1056000040F20131352000F0B1FD40F20771362043
:1056100000F0ACFD40F20531372000F0A7FD4FF45B
:105620000271382000E040E000F0A0FD40F60B7170
:10563000392000F09BFD0221412000F097FD4FF43E
:105640001C51602000F092FD0121612000F08EFDD0
:105650004FF40471902000F089FD4FF48571922081
:1056600000F084FD0421932000F080FD4FF4807150
:10567000A02000F07BFD0121072000F077FD212113
:10568000072000F073FD2321072000F06FFD332178
:10569000072000F06BFD40F23311072000F066FD9B
:1056A0000021A02000F062FD72E1BF48808844F232
:1056B000355188427ED13021152000F057FD102150
:1056C0009A2000F053FD2021112000F04FFD43F2FD
:1056D0002841102000F04AFD0221122000F046FD72
:1056E00041F23801132000F041FD282001F0ECFECA
:1056F0001221084600F03AFD282001F0E5FE43F2B1
:105700002041102000F032FD43F23801132000F058
:105710002DFD462001F0D8FE0021302000F026FDAE
:1057200040F20241312000F021FD40F207313220E9
:1057300000F01CFD4FF44171332000F017FD0421EF
:10574000342000F013FD40F20141352000F00EFD41
:1057500040F20771362000F009FD40F20531372094
:1057600000F004FD4FF4C261382000F0FFFC4FF45C
:10577000C261392000F0FAFC4FF48071012000F082
:10578000F5FC4FF44071022000F0F0FC41F23001D2
:10579000032000F0EBFC40F60801082000F0E6FCD6
:1057A00008210A2000F0E2FC4FF41C51602000F0B8
:1057B000DDFC00E031E00121612000F0D7FC4FF476
:1057C0009F71902000F0D2FC4FF48071922000F085
:1057D000CDFC4FF48071932000F0C8FC4FF4405191
:1057E000A02000F0C3FC1021A32000F0BFFC012189
:1057F000072000F0BBFC2121072000F0B7FC23218B
:10580000072000F0B3FC3321072000F0AFFC40F28A
:105810003311072000F0AAFCBAE06348808841F603
:1058200063118842F8D1E22000F090FC232000F0C0
:1058300087FC022000F084FC042000F081FC64203E
:1058400001F068FEE02000F081FC012000F078FC0F
:105850000A2001F039FEE02000F078FC032000F07F
:105860006FFC0C2001F030FE012000F06FFC0A20DC
:1058700001F02AFEE62000F069FC032000F060FC45
:10588000FF2000F05DFCFF2000F05AFCB02000F08B
:105890005DFC202000F054FC002000F051FC0320AF
:1058A00000F04EFC40F21F3000F04AFC012000F0F6
:1058B00047FC40F2DF1000F043FC002000F040FC09
:1058C000B42000F043FC042000F03AFC40F21F40FA
:1058D00000F036FC002000F033FCD22000F030FC59
:1058E000002000F02DFC002000F02AFC002000F039
:1058F00027FC002000F024FCB62000F027FC02204A
:1059000000F01EFC4FF4037000F01AFC002000F0C1
:1059100017FC222000F014FC092000F011FC0020EC
:1059200000F00EFC002000F00BFCF02000F00EFC5C
:10593000032000F005FC292000F008FCD02000F036
:1059400005FC002000F0FCFBBE2000F0FFFB052062
:1059500000F0F6FBFE2000F0F3FB012000F0F0FB6E
:10596000FF2000F0EDFB002000F0EAFBB82000F083
:10597000EDFB0F2000F0E4FB012000F0E1FBBA207A
:1059800000F0E4FB012000F0DBFB642000F032F8C3
:105990000120FCF75BFA0120044908604FF6FF7014
:1059A000FCF71EFA1FB000BDF601002080812142E5
:1059B00010B50246012000E050430B00A1F10104A4
:1059C000E1B2F9D110BD000008B50348008800908D
:1059D000BDF8000008BD00000008006C10B50446CA
:1059E000204600F0B3FB052001F094FDFFF7ECFF2B
:1059F00010BD00002DE9F0470446BE2000F0A6FBD4
:105A0000052000F09DFB204603F032F807464FF0DA
:105A100066320C4B03F07CF8054602F0E5FF1FFAF6
:105A200080F9484600F08CFB012000F089FBFF2044
:105A300000F086FB002000F083FB002000F080FBDC
:105A4000BDE8F0876666044070B504460023002672
:105A5000B748807901280BD1B548808846F6040103
:105A6000884205D0B248808841F66311884208D147
:105A7000AF488079F0B9AE48808841F6631188421A
:105A800018D1082C15D2DFE804F00406080A0C0E21
:105A9000101206240DE007240BE0042409E005247D
:105AA00007E0012405E0002403E0032401E00224D0
:105AB00000BF00BF9E48808849F24131884217D01C
:105AC0009B48808846F60401884211D09848808817
:105AD00045F2103188420BD09548808845F210512C
