:020000040800F2
:10000000D01D00209D7B000805580008A77B000834
:10001000075800080B5800080F580008000000009F
:10002000000000000000000000000000135800085D
:100030001558000800000000B37B0008E5580008D0
:10004000B77B0008B77B0008B77B0008B77B0008C8
:10005000B77B0008B77B0008B77B0008B77B0008B8
:10006000B77B0008B77B0008B77B0008B77B0008A8
:10007000B77B0008B77B0008B77B0008B77B000898
:10008000B77B0008B77B0008B77B0008B77B000888
:10009000B77B0008B77B0008B77B0008175800083B
:1000A000B77B0008B77B0008B77B0008B77B000868
:1000B000B77B00082958000831580008B77B0008B2
:1000C000B77B0008B77B0008B77B0008B77B000848
:1000D000B77B00084D580008555800085D580008C7
:1000E000B77B0008B77B0008B77B0008B77B000828
:1000F000B77B0008B77B0008B77B0008B77B000818
:10010000B77B0008B77B0008B77B0008B77B000807
:10011000655800086D580008B77B00083358000880
:10012000B77B0008B77B0008B77B0008B77B0008E7
:10013000B77B0008B77B0008B77B0008B77B0008D7
:10014000B77B0008B77B0008B77B0008B77B0008C7
:10015000B77B0008B77B0008B77B0008755800081C
:10016000B77B0008B77B0008B77B0008B77B0008A7
:10017000B77B0008B77B0008B77B0008B77B000897
:10018000B77B0008B77B0008DFF80CD010F052FAFC
:10019000004800474D020008D01D002010B54A1D40
:1001A000354B1A60FD22354B1A7000225A708A1C9A
:1001B00052B29A700122DA7000221A71304B1A6022
:1001C0000DE02F4A1268825C53B22C4C2C4A126804
:1001D000521DA3542A4A1268521C294B1A60284AFD
:1001E00012688A42EDDB0022254B1A6012E000BF44
:1001F000244A128802F04002002AF9D01F4A204BFC
:100200001B68D2561F4B1B1D1A801D4A1268521CB8
:100210001B4B1A601A4A1268174B1B689A42E6DB9E
:1002200010BD00B589B0202217A101A80FF0A6FCCF
:1002300001A80FF0B5FC1C4908600846016801A838
:10024000FFF7ACFF09B000BD00BFFEE703F0ECFE16
:10025000FFF7E7FF4FF47A7005F07CFB4FF47A70FC
:1002600005F078FB4FF47A7005F074FB00F028F885
:1002700001E000F04BF8FCE70000002070040020D3
:1002800004000020004800405B76395DBBB6D3AD6A
:10029000B2CEBCD332303233C4EACEDEC8CBBBFAE6
:1002A000B5E7C8FC00000000080000207047704758
:1002B0007047704710B502F04AFA10BD704770479A
:1002C000002000BF1FE000EB4001234A02EB810148
:1002D00089884FF47A7292FBF1F100EB40021E4BD9
:1002E00003EB8202D18000EB40011A4602EB810150
:1002F000C988012905DA012100EB400203EB8202E3
:10030000D180411CC8B20728DDD3704770B50024E6
:1003100000BF1EE005F0F0FA054604EB44000E496C
:1003200001EB80008068281A04EB44010A4A02EBC2
:100330008101C98888420AD304EB4400114601EBCD
:100340008000856004EB440152F821008047601C66
:10035000C4B2072CDED370BDB400002030B5002439
:10036000FE4D2C806C80AC802C46E3802081618126
:10037000A2810125FA4C84F8875130BD0020F9494B
:100380000860F949C1F8B40270470120F5490860D6
:100390000020F549C1F8B40270470020F149086017
:1003A0000120F149C1F8B402704710B54FF4004183
:1003B000EE480AF08EFB0120ED49087010BDED48B3
:1003C0000078012842D1EC484078F0281AD1EA4858
:1003D0000079E949C97840EA012000B2E74908807C
:1003E000E5488079E449497940EA012000B2E449CE
:1003F0000880E148007AE049C97940EA012000B26A
:10040000E0490880DC484078F1281AD1DA480079C0
:10041000D949C97840EA012000B2DB490880D648B2
:100420008079D549497940EA012000B2D74908804E
:10043000D148007AD049C97940EA012000B2D449B4
:1004400008800020CB490870D2490870704710B569
:100450002DED0C8BB0EE408AF0EE608AB0EE419A42
:100460009FEDCD0A38EE400A10EE101A08460FF044
:1004700005FF41EC1A0BC94890ED000B53EC102B13
:1004800051EC1A0B0FF00EFF77D89FEDC30A38EE30
:10049000000A10EE101A08460FF0F0FE41EC1A0B9D
:1004A000BE4890ED000B53EC102B51EC1A0B0FF0E3
:1004B00011FFE9D89FEDB80A38EEC00A10EE101A05
:1004C00008460FF0DBFE41EC1A0BB54890ED000B2F
:1004D00053EC102B51EC1A0B0FF0E4FE4DD29FEDB4
:1004E000AE0A38EE800A10EE101A08460FF0C6FE6B
:1004F00041EC1A0BAA4890ED000B53EC102B51EC79
:100500001A0B0FF0E7FEBFD8FFF74FFF0020A549F9
:100510000870FFF754FF99480088002873D0984866
:1005200000880028FAD09548B0F900009B2825DB08
:100530009248B0F90000A52820DC9148B0F90000ED
:1005400073281BDB8E48B0F900007D2816DC96A1CD
:100550009A4810F06DFA99480FF022FB984908600C
:10056000084601689548FFF719FE96A1012002F0A0
:100570000EFE0120BDEC0C8B10BD7AE18048B0F975
:100580000000783800EE100AB8EEC00A954880EDF9
:10059000000A90ED000AF2EE040AB4EEE00AF1EE71
:1005A00010FA04DBB1EE040A80ED000A1CE08D486D
:1005B00090ED000AF1EE040AB4EEE00AF1EE10FA52
:1005C0000DDD90ED000AF2EE040AB4EEE00AF1EE61
:1005D00010FA04D2B7EE000A80ED000A04E0B7EE8C
:1005E000000A804880ED000A7E4890ED000AFAEE8D
:1005F000040AB4EEE00AF1EE10FA05D8B9EE040AE6
:1006000080ED000A1DE0B4E2764890ED000AFAEEB3
:10061000040AB4EEE00AF1EE10FA0DDD90ED000AE6
:10062000F9EE040AB4EEE00AF1EE10FA04D8BFEED7
:10063000000A80ED000A04E0BFEE000A694880ED80
:10064000000A684890ED000ABDEEC00A10EE100ADC
:1006500000B2654908804948B0F90000C0F1A00027
:1006600000EE100AB8EEC00A604880ED000A90ED76
:10067000000AF2EE040AB4EEE00AF1EE10FA04DB2E
:10068000B1EE040A80ED000A1CE0584890ED000A23
:10069000F1EE040AB4EEE00AF1EE10FA0DDD90ED91
:1006A000000AF2EE040AB4EEE00AF1EE10FA04D207
:1006B000B0EE000A80ED000A04E0B7EE000A4B48F5
:1006C00080ED000A494890ED000AFAEE040AB4EE03
:1006D000E00AF1EE10FA04D8B9EE040A80ED000A3F
:1006E0001CE0424890ED000AFAEE040AB4EEE00A7B
:1006F000F1EE10FA0DDD90ED000AF9EE040AB4EE09
:10070000E00AF1EE10FA04D8B8EE000A80ED000A13
:1007100004E0BFEE000A354880ED000A334890ED52
:10072000000ABDEEC00A10EE100A00B2304908807F
:100730003048B0F90000304909684843002861DDBD
:100740002C48B0F900002C490968401A2B49086070
:100750000846008800B22A49088062E0240C002084
:10076000B8040020B082414200804142000C0240A7
:1007700096020020000400209C0E0020E8010020CA
:10078000EA010020EC010020F0010020F20100202D
:10079000F401002007040020CDCC4C3E30020020A4
:1007A00038020020990200205B73395DB5BDB4EFBB
:1007B000B5DAD2BBB8F6C7F8D3F2000010000020BB
:1007C00008000020B5BDB4EFB5DAD2BBB8F6C7F863
:1007D000D3F2A3ACD7BCB1B8CFC2BDB5B8DFB6C8F1
:1007E0000000000058020020680200205C02002087
:1007F0006A020020EC020020E0010020E401002059
:100800006E020020FD48B0F90000FD4909688842E9
:1008100003DA0520FB49088003E06FF00400F94982
:100820000880F94890ED000AB8EEC00A39EE400A97
:10083000F648D0ED000A20EE200AF54880ED000AC7
:1008400090ED000ABDEEC00A10EE100A00B2F149A8
:100850000880EC48B0F900300846B0F90020EE48B6
:10086000B0F90010ED48B0F90000FFF777FD002067
:1008700080E6EB4890ED000AEA4880ED000A18EEA9
:10088000100A0FF0FBFC41EC1D0BE74890ED000B4C
:1008900053EC102B51EC1D0B0FF067FC41EC1B0BC4
:1008A000E24800680FF0EAFC41EC1C0B53EC1B2BF8
:1008B0000FF061FC41EC1A0B0FF024FDDC490860DD
:1008C000084690ED000ABDEEC00A10EE100A00B214
:1008D000D24908800846B0F90000142801DD0A203A
:1008E0000880CE48B0F9000010F1140F03DA6FF061
:1008F0000E00CA490880C948B0F90000052807DA87
:10090000C648B0F90000002802DD0420C349088071
:10091000C248B0F90000002809DAC048B0F9000068
:1009200010F1050F03DD6FF00300BC49088018EEDD
:10093000900A0FF0A3FC41EC1D0BBE4890ED000B9C
:1009400053EC102B51EC1D0B0FF012FC41EC1B0B68
:10095000B64800680FF092FC41EC1C0B53EC1B2BCB
:100960000FF009FC41EC1A0B0FF0CCFCB249086007
:10097000084690ED000ABDEEC00A10EE100A00B263
:10098000A54908800846B0F90000142801DD0A20B6
:100990000880A148B0F9000010F1140F03DA6FF0DD
:1009A0000E009D4908809C48B0F90000052807DA30
:1009B0009948B0F90000002802DD0420964908801B
:1009C0009548B0F90000002809DA9348B0F9000012
:1009D00010F1050F03DD6FF003008F4908808A488E
:1009E00090ED000AB8EEC00A39EE400A8748D0ED13
:1009F000000A20EE200A864880ED000A90ED000AE9
:100A0000BDEEC00A10EE100A00B2824908807B4891
:100A1000B0F900007A490968484300280DDD77489D
:100A2000B0F9000076490968401A84490860084610
:100A3000008800B2734908800EE07048B0F90000E9
:100A40006F490968884203DA05206E49088003E08F
:100A50006FF004006B4908806A48B0F900306D48B7
:100A6000B0F900206C48B0F900106C48B0F90000F3
:100A7000FFF774FC724800684FF4967190FBF1F236
:100A800001FB1200002872D16448B0F90000002870
:100A900017DD6148B0F90000002812DD69A10120CE
:100AA00002F075FB6BA16E480FF0C2FF6C480FF0AF
:100AB00077F86C490860084601686948FFF76EFBE3
:100AC00055E05648B0F90000002817DD5248B0F94B
:100AD0000000002812DA64A1012002F058FB66A190
:100AE0005F480FF0A5FF5E480FF05AF85D490860B7
:100AF000084601685A48FFF751FB38E04748B0F90B
:100B00000000002817DA4448B0F90000002812DD80
:100B10005CA1012002F03BFB5EA151480FF088FF71
:100B20004F480FF03DF84F490860084601684C48AF
:100B3000FFF734FB1BE03948B0F90000002816DA53
:100B40003548B0F90000002811DA55A1012002F063
:100B50001EFB57A142480FF06BFF41480FF020F8F1
:100B600040490860084601683D48FFF717FB002030
:100B700000E500BFFEE41CB550480078012810D104
:100B80004F485049504B514ACDE9001050A15648AA
:100B90000FF00EF8044600204849087053490870C9
:100BA00000BF1CBD10B52DED088B514890F83800E2
:100BB000002841F0C6854E48B0F94400B0F5487FA2
:100BC00019DD4B48B0F94400B0F5966F13DA494887
:100BD000007818B902F04BFF4649087001204649D9
:100BE0000870464800780978884205D04248007865
:100BF0004249087084E096E098E00000EC02002092
:100C0000E00100206E020020D802002050020020E7
:100C1000540200206C0200206A02002068020020BA
:100C200040040020A00200203002002060020020CA
:100C300058020020380200205C020020E40100205D
:100C4000F8010020C7B0BDF82B312CCFF2D7F32B21
:100C5000310000005B73395DC7B0D7F300000000BE
:100C60001000002008000020C7B0BDF82B312CCFA9
:100C7000F2D3D22B310000005B73395DC7B0D3D201
:100C800000000000BAF3CDCB2B312CCFF2D7F32BE1
:100C9000310000005B73395DBAF3D7F30000000048
:100CA000BAF3CDCB2B312CCFF2D3D22B31000000B5
:100CB0005B73395DBAF3D3D200000000000400205A
:100CC0001802002010020020080200200702002065
:100CD000244B5425632C20256C662C256C662C2017
:100CE000256C6620000000009C0E002007040020F8
:100CF0008E0C0020CA020020CD020020CC02002071
:100D0000FAA1FE480FF094FEFC480EF049FFFC49A2
:100D1000086008460168F948FFF740FAF9A1012088
:100D200002F035FA02E00020F7490870F748B0F900
:100D3000440040F2145188423EDDF448B0F94400CA
:100D400040F2A461884237DAF1480078002836D1B1
:100D5000F04908700120F04908700220EF4908703E
:100D6000EF4800780978884229D0EC480078EC49AF
:100D70000870ECA1E1480FF05BFEE0480EF010FFB8
:100D8000DF49086008460168DC48FFF707FAE9A177
:100D9000012002F0FCF90120E74908700020E74932
:100DA0000870E7490870E749087000231A46194699
:100DB0001846FFF7D3FA02E00020D5490870D3485F
:100DC000B0F9440040F2A461884214DDCF48B0F984
:100DD000440040F6980188420DDACE48007820B9E8
:100DE0000120CC490870CC4908700320CB49087019
:100DF000CB49087002E00020C6490870C548007859
:100E0000012841F0A184C4480078152881F0978416
:100E1000DFE810F015001D002C00500076009E0049
:100E2000C400E600D8012802170387047A05CA0522
:100E300054076708B109F60B620C860C8F0C002072
:100E4000C14908600120BC49087001F079BCB24872
:100E50000078401CB04908700120B7490870002391
:100E60001A4619461846FFF779FAEEE702F04CFDEC
:100E7000A94909780844A8490870AF4800780128B2
:100E800014D1B2A19D480FF0D3FD9C480EF088FE0E
:100E90009B490860084601689848FFF77FF9ACA1B4
:100EA000012002F074F90020A34908700120A24932
:100EB0000870CAE7A4480068B0F5FA6F14DAA248CF
:100EC00000681430A049086008460068B0F57A7FD1
:100ED00015DA08460068642811DD00231A46194611
:100EE0001846FFF73BFA0AE00020974908608A4855
:100EF0000078401C8849087001208F490870A4E7D9
:100F0000022002F039FD84490978084482490870BA
:100F100000208D49086088480078012814D18EA1EE
:100F200076480FF085FD75480EF03AFE744908606A
:100F3000084601687148FFF731F988A1012002F0E5
:100F400026F900207C49087001207B4908707CE765
:100F50007D480068B0F5FA6F14DA7B4800681430F9
:100F60007949086008460068B0F57A7F15DA0846C6
:100F70000068642811DD00231A4619461846FFF759
:100F8000EDF90AE000207049086063480078401CD1
:100F90006149087001206849087056E7642002F032
:100FA0002CFD5D49097808445B49087000206649BA
:100FB000086061480078012811D16CA14F480FF0FA
:100FC00037FD4E480EF0ECFD4D49086008460168BB
:100FD0004A48FFF7E3F866A1012002F0D8F834E7A9
:100FE00059480068B0F5FA6F67DA5748006814305E
:100FF0005549086008460068642190FBF1F201FB46
:101000001200002858D16FF009005C4908800020C8
:101010005B4908805B48B0F900005B4908605948AB
:10102000B0F900000968484300280DDD5548B0F9C3
:10103000000055490968401A54490860084600886C
:1010400000B2534908800EE04E48B0F900004E4906
:101050000968884203DA05204D49088003E06FF0F3
:1010600004004B4908804B48D0ED000A4A4890EDF7
:10107000000AB8EEC00A30EEC00A4848D0ED000AB7
:1010800020EE200A464880ED000A90ED000ABDEEF1
:10109000C00A10EE100A00B2424908803C48B0F97C
:1010A00000300846B0F900203448B0F90010344848
:1010B000B0F90000FFF752F983E03BA10F480FF0B1
:1010C000B7FC0E480EF06CFD0D490860084601683B
:1010D0000A48FFF763F835A1012002F058F8002014
:1010E000194908600C480078401C65E05B78315D68
:1010F00020736F756E6432303120000010000020C4
:101100000800002031B5B500CA0200208E0C002076
:10111000C9020020CB02002076020020CD02002070
:10112000CC0200205B78315D20736F756E643230C5
:101130003320000032B5B5007B02002009040020F6
:101140000704002008040020D00200205B73385DF3
:10115000BDE2CBF8000000005B73395DC4A3CABDDB
:1011600032A3AC7AD6E1C1E3CBD900005B73395D21
:10117000D2BBBCFCC6F0B7C9000000006A02002068
:1011800068020020EC020020E0010020E4010020C1
:101190006E0200204C020020D802002050020020E5
:1011A000540200206C0200205B73395DC0EBBFAAC3
:1011B000C6F0B7C9B5E30000F04908700120F04956
:1011C000087042E6EF4800681430EE490860EE48C7
:1011D00000681430EC4908600846006842F210715B
:1011E000884202DB0020E8490860FFF7C4FCE748BA
:1011F000E749097800EBC10090ED011AF0EE410AD1
:10120000E248E349097800EBC10090ED001AB0EE26
:10121000410AE04890ED001AFFF719F9DE4908602D
:101220000846006810B90020D6490860DA4800680E
:10123000012816D1D3480068B0F57A7F11DB002071
:10124000D6490860CD480078401CCC490870012080
:10125000CB4908700020CC490860CA490860D049D1
:101260000860F2E5C84800681430C74908600846BD
:101270000068642190FBF1F201FB120000287CD190
:10128000C848D0ED000AC84890ED000AB8EEC00A80
:1012900030EEC00A10EE101A08460EF0EFFF41ECD7
:1012A000190BB0EE490AF0EE690A0FF0D5FBB0EE6B
:1012B000408AF0EE608A9FEDBD0B53EC102B51EC91
:1012C000180B0FF007F86DD80020BA490880BA490A
:1012D0000880B448D0ED000AB34890ED000AB8EE9B
:1012E000C00A30EEC00AB548D0ED000A20EE200A50
:1012F000B34880ED000AB348B0F90000B24909686C
:10130000484300280DDDAF48B0F90000AE49096838
:10131000401AAE4908600846008800B2AC4908800F
:101320000EE0A848B0F90000A7490968884203DA2E
:101330000520A749088003E06FF00400A449088055
:101340009F4890ED000ABDEEC00A10EE100A00B2F0
:10135000A04908809E48B0F900300846B0F9002046
:101360009548B0F900109348B0F90000FEF7F6FF79
:101370008C48D0ED000A8C4800E025E090ED000A92
:10138000B8EEC00AF4EEC00AF1EE10FA04DD92A144
:10139000012001F0FCFE17E0AFF6C431012001F09E
:1013A000F6FE11E08FA1012001F0F1FE00207B4943
:1013B000086093490870744908609249086092492E
:1013C000086001207649086075480068C0B36D4820
:1013D000006814306B490860FFF7CDFB6B486C491F
:1013E000097800EBC10090ED011AF0EE410A674860
:1013F0006749097800EBC10090ED001AB0EE410A90
:10140000684890ED001AFFF722F863490860084623
:10141000006810B900205B4908605F480068012837
:101420000ED158480068B0F57A7F09DB5348007840
:10143000401C524908700020524908605849086011
:1014400003E571480068401C6F4908604E48006819
:10145000401C4D49086000BF00205649088056498D
:1014600008805048D0ED000A4F4890ED000AB8EED1
:10147000C00A30EEC00A5148D0ED000A20EE200A22
:101480004F4880ED000A90ED000ABDEEC00A10EE54
:10149000100A00B24F4908804A48B0F900004A4992
:1014A0000968484300280DDD4648B0F90000464968
:1014B0000968401A454908600846008800B2444956
:1014C00008800EE03F48B0F900003F4909688842B3
:1014D00003DA05203E49088003E06FF004003C4930
:1014E00008803B48B0F900303A48B0F90020324853
:1014F000B0F900102F48B0F90000FEF72FFFFFF7FA
:101500003AFB22482249097800EBC10090ED011A0C
:10151000F0EE410A1D481E49097800EBC10090ED2C
:10152000001AB0EE410A1F4890ED001AFEF78FFF37
:101530001949086000BF3348006848B901203149A3
:101540000860FEF72AFF31A1012001F020FEE7E04C
:101550002D480068B0F5917F70DB2B480068B0F52E
:10156000077F7FDA28480068B0F5917F77D1FEF7D2
:1015700005FF2BA1012001F00AFE61E076020020A8
:101580007B020020DC010020F8010020080100207F
:10159000A40200204C020020B4020020D00200204F
:1015A000C402002064020020D802002000000000D5
:1015B00000002440680200206A020020500200203F
:1015C00054020020EC020020E0010020E401002091
:1015D0006E0200206C020020C9CFC9FDB8DFB6C87A
:1015E00000000000B5BDB4EFD6B8B6A8B8DFB6C8E5
:1015F000A3ACD7BCB1B8CFC2B7C5B5F5C0BA00006F
:1016000095020020AC020020B0020020CFC2B7C576
:10161000B5F5C0BAA3ACBCC6CAB1BFAACABC00006B
:10162000CDA3D6B9CFC2B7C5B5F5C0BAA3ACD7BCA8
:10163000B1B8D0FCCDA335C3EB00000012E00EE042
:10164000F6A1FE480FF0F4F9FC480EF0A9FAFC49A7
:10165000086008460168F948FEF7A0FD60E0FEF763
:101660008DFE5DE0F7480068B0F5077F1FDBF548A9
:10167000006840F23E31884219DAFEF786FEF148F2
:101680000068B0F5077F4BD1EFA1012001F07FFD8D
:10169000F4A1EA480FF0CCF9E8480EF081FAE849E5
:1016A000086008460168E548FEF778FD38E0E5483F
:1016B000006840F23E31884232DBFEF75FFEF1A166
:1016C000012001F064FDF6A1DC480FF0B1F9DB4820
:1016D0000EF066FADA49086008460168D748FEF756
:1016E0005DFDF7480078401CF54908704FF4004153
:1016F000F44809F01DFA0020F3490870D149086048
:10170000F2490860EE480078401CED49087000205E
:10171000EF490870EF490860EF490860C94908605F
:1017200015E4EC4800681430EA490860084600688F
:10173000642190FBF1F201FB120000287BD1E74805
:10174000D0ED000AE64890ED000AB8EEC00A30EE8F
:10175000C00A10EE101A08460EF090FD41EC190B6D
:10176000B0EE490AF0EE690A0FF076F9B0EE408A61
:10177000F0EE608A1FED730B53EC102B51EC180B3D
:101780000EF0A8FD58D80020D6490880D649088018
:10179000D248D0ED000AD24890ED000AB8EEC00A57
:1017A00030EEC00AD148D0ED000A20EE200AD04821
:1017B00080ED000A90ED000ABDEEC00A10EE100A9E
:1017C00000B2CC490880CC48B0F90000CB49096888
:1017D000484300280DDDC848B0F90000C749096832
:1017E000401AC74908600846008800B2C549088009
:1017F0000EE0C148B0F90000C0490968884203DA28
:101800000520C049088003E06FF00400BD4908804E
:10181000BC48B0F90030B748B0F90020B248B0F980
:101820000010B048B0F90000FEF798FDAFF2582163
:10183000012001F0ACFC66E0B3A1012001F0A7FC9F
:101840000020A24908609E480078401C9C4908700E
:1018500000209F4908709F4908609F4908607949A6
:101860000860A0490880A04908809C48D0ED000A83
:101870009B4890ED000AB8EEC00A30EEC00A9B48C3
:10188000D0ED000A20EE200A994880ED000A90ED84
:10189000000ABDEEC00A10EE100A00B29549088099
:1018A0009548B0F9000095490968484300280DDDC6
:1018B0009148B0F9000091490968401A90490860C0
:1018C0000846008800B28F4908800EE08A48B0F9C7
:1018D00000008A490968884203DA0520894908809E
:1018E00003E06FF00400874908808648B0F90030B3
:1018F0008048B0F900207C48B0F900107948B0F970
:101900000000FEF72BFD5CE488480068143087492E
:1019100008607048006814306E4908600846006826
:1019200042F21071884202DB00206A490860FFF72A
:1019300022F97F487F49097800EBC10090ED011A38
:10194000F0EE410A7A487B49097800EBC10090ED3E
:10195000001AB0EE410A614890ED001AFEF777FDDB
:10196000754908600846006810B900206F49086092
:1019700071480068012816D16C480068B0F5FA6F0C
:1019800011DB0020514908604D480078401C4C494B
:10199000087001206949087000204E4908606349B9
:1019A0000860674908600CE44A48006814304949F7
:1019B000086008460068C82190FBF1F201FB1200A4
:1019C000002829D15F48D0ED000A454890ED000A73
:1019D000B8EEC00A30EEC00A10EE101A08460EF03B
:1019E0004DFC41EC190BB0EE490AF0EE690A0FF01C
:1019F00033F8B0EE408AF0EE608A9FED530B53EC63
:101A0000102B51EC180B0EF065FC06D80020354960
:101A10000880354908809BE013E1FFE05B73395D86
:101A2000CDA3D6B9CFC2B7C5B5F5C0BAA3ACD7BCA4
:101A3000B1B8D0FCCDA335C3EB00000010000020EE
:101A400008000020B0020020D0FCCDA335C3EBCAB3
:101A5000B1BCE4B5BDA3ACD7BCB1B8C9CFC9FDB565
:101A6000F5C0BA005B73395DD0FCCDA335C3EBCABA
:101A7000B1BCE4B5BDA3ACD7BCB1B8C9CFC9FDB545
:101A8000F5C0BA00C9CFC9FD352E38C3EBB5BDA32B
:101A9000ACD7BCB1B8BBD8B8B4B8DFB6C80000008A
:101AA0005B73395DC9CFC9FD352E38C3EBB5BDA316
:101AB000ACD7BCB1B8BBD8B8B4B8DFB6C80000006A
:101AC00076020020000C024096020020D002002086
:101AD00095020020F8010020AC0200204C020020FA
:101AE000D8020020680200206A0200205002002074
:101AF000540200206C020020EC020020E0010020D3
:101B0000E40100206E020020B5BDB4EF312E35C3D4
:101B1000D7B8DFB6C8A3ACD7BCB1B8C8A5CFC2D2BE
:101B2000BBB8F6BFECB5DDB5E3000000DC0100207A
:101B300008010020A5020020B40200207B02002042
:101B4000C4020020640200200000000000002440C5
:101B5000FE48D0ED000AFE4890ED000AB8EEC00A3B
:101B600030EEC00AFB48D0ED000A20EE200AFA4809
:101B700080ED000A90ED000ABDEEC00A10EE100ADA
:101B800000B2F6490880F648B0F90000F549096846
:101B9000484300280DDDF248B0F90000F14909681A
:101BA000401AF14908600846008800B2EF490880F1
:101BB0000EE0EB48B0F90000EA490968884203DA10
:101BC0000520EA49088003E06FF00400E749088037
:101BD000E648B0F90030E148B0F90020E448B0F937
:101BE0000010E448B0F90000FEF7B8FBD748D0ED8C
:101BF000000AD74890ED000AB8EEC00AF4EEC00A19
:101C0000F1EE10FA05DDAFF23061012001F0BFFA0C
:101C100017E0D949012001F0BAFA12E0AFF23C61B5
:101C2000012001F0B4FA0020D4490860D4490870BA
:101C3000D4490860D4490860D44908600120D449D7
:101C40000860D3480068C0B3D24800681430D14956
:101C50000860FEF790FFD048D049097800EBC1003A
:101C600090ED011AF0EE410ACB48CC49097800EB1F
:101C7000C10090ED001AB0EE410AB44890ED001A90
:101C8000FEF7E5FBC64908600846006810B9002069
:101C9000C0490860C248006801280ED1BD480068EC
:101CA000B0F57A7F09DBBF480078401CBD49087059
:101CB0000020B8490860B649086031E5B3480068BB
:101CC000401CB2490860AF480068401CAD4908603C
:101CD00000BF0020A7490880A54908809B48D0ED97
:101CE000000A9B4890ED000AB8EEC00A30EEC00A28
:101CF0009848D0ED000A20EE200A974880ED000AAF
:101D000090ED000ABDEEC00A10EE100A00B2934931
:101D100008809348B0F900009249096848430028B8
:101D20000DDD8F48B0F900008E490968401A8E49D0
:101D300008600846008800B28C4908800EE0884898
:101D4000B0F9000087490968884203DA052087490D
:101D5000088003E06FF00400844908808348B0F9EC
:101D600000307E48B0F900208148B0F90010814869
:101D7000B0F90000FEF7F2FAFEF7FDFE86488A4948
:101D8000097800EBC10090ED011AF0EE410A82489B
:101D90008549097800EBC10090ED001AB0EE410AC8
:101DA0006A4890ED001AFEF752FB7D4908607648BC
:101DB000006850B9012074490860FEF7EEFAAFF2EE
:101DC000B471012001F0E3F98AE070480068B0F5D1
:101DD000917F23DB6D480068B0F5077F1EDA6B4802
:101DE0000068B0F5917F16D1FEF7C8FAAFF2D03196
:101DF000012001F0CCF9AFF2DC316C480EF018FE96
:101E00006A480DF0CDFE6A490860084601686748D7
:101E1000FEF7C4F964E0FEF7B1FA61E05B480068E0
:101E2000B0F5077F21DB5948006840F23E31884217
:101E30001BDAFEF7AAFA55480068B0F5077F4FD1C4
:101E4000AFF2FC31012001F0A2F9AFF2E8315748BE
:101E50000EF0EEFD55480DF0A3FE5549086008460A
:101E600001685248FEF79AF93AE04848006840F2A3
:101E70003E31884234DBFEF781FAAFF2F8310120BF
:101E800001F085F9AFF2E83148480EF0D1FD47483E
:101E90000DF086FE46490860084601684348FEF793
:101EA0007DF940480078401C3E4908704FF40041DD
:101EB000404808F03DFE00203F4908703349086063
:101EC0002E49086037480078401C364908700020C9
:101ED0002B4908702B4908602B4908602B49086082
:101EE0008DE32848006814302649086008460068D9
:101EF000642190FBF1F201FB120000287ED12F48F3
:101F0000D0ED000A124890ED000AB8EEC00A30EE9B
:101F1000C00A10EE101A08460EF0B0F941EC190B89
:101F2000B0EE490AF0EE690A0EF096FDB0EE408A76
:101F3000F0EE608A1FEDFC0B53EC102B51EC180BEC
:101F40000EF0C8F972D800200A4939E06402002076
:101F5000D802002050020020540200206C02002011
:101F6000EC020020E0010020E40100206E020020CD
:101F70006A02002068020020D8070008D002002072
:101F800095020020F8010020AC020020B0020020E1
:101F9000C4020020DC01002008010020A40200206F
:101FA000B402002076020020A502002010000020CC
:101FB00008000020000C0240960200204C02002085
:101FC0000880FE490880FE48D0ED000AFD4890EDEB
:101FD000000AB8EEC00A30EEC00AFB48D0ED000A95
:101FE00020EE200AF94880ED000A90ED000ABDEECF
:101FF000C00A10EE100A00B2F54900E0BAE008800D
:10200000F448B0F90000F4490968484300280EDD9F
:10201000F048B0F90000F0490968401AEF4908603B
:102020000846008800B2EE4908800FE034E0E94835
:10203000B0F90000E8490968884203DA0520E84958
:10204000088003E06FF00400E5490880E448B0F937
:102050000030DF48B0F90020D848B0F90010E1485E
:10206000B0F90000FEF77AF9DF48D0ED000AD54854
:1020700090ED000AB8EEC00AF4EEC00AF1EE10FAD4
:1020800005DDAFF6AC21012001F081F872E0D749FF
:10209000012001F07CF86DE0D5A1012001F077F876
:1020A0000020DA490860DA480078401CD8490870F6
:1020B0004FF40041D74808F03BFD0020D649087096
:1020C000D6490870D6490860D6490860D6490860E4
:1020D000C4490880B9490880B948D0ED000AB94818
:1020E00090ED000AB8EEC00A30EEC00AB648D0ED56
:1020F000000A20EE200AB54880ED000A90ED000AA3
:10210000BDEEC00A10EE100A00B2B1490880B14815
:10211000B0F90000B0490968484300280DDDAD481A
:10212000B0F90000AC490968401AAC49086008469B
:10213000008800B2AA4908800EE0A648B0F9000065
:10214000A5490968884203DA0520A549088003E00B
:102150006FF00400A2490880A148B0F900309C4803
:10216000B0F900209548B0F900109E48B0F9000081
:10217000FEF7F4F8E4E2AA4800681430A8490860C1
:102180000846006842F21071884202DB0020A44930
:102190000860FEF7F0FCA54890ED000ADFEDA40A08
:1021A00030EE600A10EE101A08460EF067F841ECA7
:1021B000180BA04890ED000B53EC102B51EC180BB2
:1021C0000EF070F86DD8994890ED000ADFED980A8E
:1021D00030EE200A10EE101A08460EF04FF841ECCF
:1021E000180B944890ED000B53EC102B51EC180B8E
:1021F0000EF070F855D8904890ED000ADFED8C0A8B
:1022000030EE600A10EE101A08460EF037F841EC76
:10221000180B8A4890ED000B53EC102B51EC180B67
:102220000EF040F83DD2844890ED000ADFED800AC0
:1022300030EE200A10EE101A08460EF01FF841EC9E
:10224000180B7E4890ED000B53EC102B51EC180B43
:102250000EF040F825D8FEF7A8F80020784908705D
:1022600078A17F480EF0E4FB7D480DF099FC7D4994
:102270000860084601687A48FDF790FF72A10120C6
:1022800000F085FF00206149086061480078401C2B
:102290005F49087001207449087000206049086097
:1022A000ADE1724890ED000A714880ED000A5F4888
:1022B00000680DF0E3FF41EC1B0B5E4890ED000B56
:1022C00053EC102B51EC1B0B0DF04FFF41EC190B95
:1022D000684800680DF0D2FF41EC1A0B53EC192B43
:1022E0000DF049FF41EC180B0EF00CF86249086044
:1022F000084690ED000ABDEEC00A10EE100A00B2CA
:10230000384908800846B0F90000142801DD0F2084
:1023100008803448B0F9000010F1140F03DA6FF0B0
:102320000E00304908802F48B0F90000052807DA70
:102330002C48B0F90000002802DD0520294908805A
:102340002848B0F90000002809DA2648B0F9000052
:1023500010F1050F03DD6FF00400224908803648B4
:1023600000680DF08BFF41EC1B0B344890ED000B27
:1023700053EC102B51EC1B0B0DF0FAFE41EC190B3A
:102380003C4800680DF07AFF41EC1A0B53EC192B16
:102390000DF0F1FE41EC180B0DF0B4FF3749086069
:1023A000084690ED000ABDEEC00A10EE100A00B219
:1023B000024908800846B0F9000061E06A02002086
:1023C0004C020020D80200205002002054020020BD
:1023D0006C020020EC020020E0010020E40100205B
:1023E0006E0200206802002064020020D807000866
:1023F000B5BDB4EF312E35C3D7B8DFB6C8A3ACD75F
:10240000BCB1B8BBD8BCD2BDB5C2E400D00200207C
:1024100076020020000C0240960200209502002067
:10242000F8010020AC020020B0020020D4010020FE
:102430009A99193E30020020D8010020380200206D
:10244000990200205B73395DB5BDB4EFC6F0BDB530
:10245000B5E3A3ACD7BCB1B87AD6E130CBD9000094
:1024600010000020080000207B0200204004002013
:10247000A002002060020020580200205C02002020
:10248000142801DD0F200880D348B0F9000010F1B6
:10249000140F03DA6FF00E00CF490880CE48B0F970
:1024A0000000052807DACC48B0F90000002802DD5A
:1024B0000520C9490880C848B0F90000002809DA99
:1024C000C548B0F9000010F1050F03DD6FF00400FE
:1024D000C1490880C148B0F90000C14909684843B2
:1024E00000280DDDBD48B0F90000BD490968401A5B
:1024F000BC4908600846008800B2BB4908800EE06D
:10250000B648B0F90000B6490968884203DA0520E8
:10251000B549088003E06FF00400B3490880B34870
:10252000D0ED000AB24890ED000AB8EEC00A30EED5
:10253000C00AB048D0ED000A20EE200AAE4880ED77
:10254000000A90ED000ABDEEC00A10EE100A00B2BB
:10255000AA490880A448B0F900300846B0F9002024
:102560009D48B0F90010A648B0F90000FDF7F6FE4E
:10257000A44800684FF4967190FBF1F201FB120041
:1025800068BB9F48B0F90000002809DD9248B0F907
:102590000000002804DD9C49012000F0F8FD2EE039
:1025A0009748B0F9000000280ADD8B48B0F9000018
:1025B000002805DA94492431012000F0E8FD1EE0EE
:1025C0008F48B0F9000000280ADA8348B0F900000B
:1025D000002805DD8C494031012000F0D8FD0EE0D7
:1025E0008748B0F90000002809DA7B48B0F90000FC
:1025F000002804DA84495C31012000F0C8FD9FE026
:102600008048006814307F490860084600686421EB
:1026100090FBF1F201FB120098BB00207849088082
:102620006D4908809FED790A734880ED000A90EDAE
:10263000000ABDEEC00A10EE100A00B26F49088011
:102640006648B0F9000066490968484300280DDD76
:102650006248B0F9000062490968401A614908609F
:102660000846008800B2604908800FE05B48B0F976
:1026700000005B490968884204DA05205A4908804D
:1026800004E011E06FF00400574908805648B0F9A3
:1026900000305A48B0F900204F48B0F900105848AF
:1026A000B0F90000FDF75AFE56480068B0F57A7F91
:1026B00011DB57A1012000F06AFD00205949086094
:1026C00059480078401C5849087001205749087043
:1026D00000204C49086033E001F0C9F9002051495D
:1026E000086051480078401C4F4908704F480078F6
:1026F000012814D14EA151480EF09AF94F480DF01F
:102700004FFA4F490860084601684C48FDF746FDFE
:1027100048A1012000F03BFD0020444908700FE073
:102720004048006814303F49086000203F49087065
:1027300006E03C48006814303A49086000E000BFF9
:1027400002E0002038490870BDEC088B10BD10B5C0
:1027500001203C4908700846007810B1012837D1A3
:1027600033E03948007800282ED000203649087020
:102770003648C078364908703448007935490870C1
:10278000A520354908705A20487003208870002021
:10279000C870FD20087105212F4803F0EBFD0120D2
:1027A000284908702B480378294802782BA1234830
:1027B0000EF03EF921480DF0F3F921490860084672
:1027C00001681E48FDF7EAFC03E0FEF7EBF900E0C4
:1027D00000BF00BF10BD00006A020020EC02002014
:1027E000E0010020E40100206E0200204C020020E5
:1027F000D802002050020020540200206C02002069
:1028000068020020F8010020440C000800000000CD
:102810007AD6E130CBD92CD7BCB1B8D2BBBCFCBD89
:10282000B5C2E400D0020020760200207B02002026
:102830005B73395DBDB5C2E40000000010000020EC
:1028400008000020B00000200A040020C80E00206C
:10285000A4020020A5020020A60200205B73385DC0
:10286000CAD5B5BDCAFDBEDDA3ACD7BCB1B8C7B033
:10287000CDF92564BACD2564CBCDBBF5B5E3000019
:10288000FF20FA4981F8C0030021F848A0F8C213DC
:10289000A0F8C413FF20F54981F8C6030021F348CE
:1028A000A0F8C813A0F8CA13FF20F04981F84E0021
:1028B0006421EE48A0F850100121A0F85210FF202A
:1028C000EA4981F880011421E848A0F8821100212A
:1028D000A0F88411FF20E54981F820010021E34898
:1028E000A0F82211A0F82411FF20E04981F832015C
:1028F0000021DE48A0F83411A0F83611FF20DB4992
:1029000081F838010021D948A0F83A11A0F83C110B
:10291000FF20D64981F886010021D448A0F888110B
:10292000A0F88A11FF20D14981F840050021CF4845
:10293000A0F84215A0F84415FF20CC4981F84C05B9
:102940000021CA48A0F84E15A0F85015FF20C7492D
:1029500081F8A6050021C548A0F8A815A0F8AA1579
:10296000704770B504460D462946204604F0C5FD63
:1029700070BDBE4A10700122BC4B5A707047BB4AF2
:1029800082F84C05012382F84D3570472DE9F0415E
:1029900004460D4600260027E178A81F814201D099
:1029A000BDE8F081002006E0215C3144CEB2B919C7
:1029B000CFB2411CC8B2A91E8142F5DC601910F8E3
:1029C000020CB04204D1601910F8010CB84200D0DA
:1029D000E6E72078AA2805D16078612803D06078DE
:1029E000FF2800D0DCE7A078202811D1A088A049DA
:1029F0000880E0884880208988806089C880A08914
:102A00000881E0894881208A8881608AC881AEE097
:102A1000A0780F280DD1207940B2964908706079CE
:102A200040B24870A07940B28870E07940B2C87076
:102A30009DE0A07806280CD120798F4948706079F4
:102A4000C870A0790871E1798B484171217A817150
:102A50008DE0A0780728DAD0A078E0281ED1207970
:102A6000012806D0022805D0102804D0112804D14E
:102A700002E003E002E001E000E000BF00BF2079D7
:102A80007A4981F80C06084680F80D6680F80E76C3
:102A900000F20C61AF20FFF76CFF68E0A078B0B9DE
:102AA000724890F80F062179884260D16F4890F8FB
:102AB0001006617988425AD16C4890F81106A179C4
:102AC000884254D10020694981F800064FE0A0787F
:102AD000E12811D12179607901EB00201FFA80F8FB
:102AE0006248A0F814860021C0F8181600F214619C
:102AF000FF20FFF744FF3AE0A078E2280ED12079CA
:102B00005A4981F80C06084680F80D6680F80E7662
:102B100000F20C61FF20FFF72CFF28E0A0780528C9
:102B200006D15649606808605549A06808601EE0F3
:102B3000A078082806D15349606808605249A06807
:102B4000086014E0A078032811D1A0884F490880BC
:102B5000E0884F49088020894E4908800846B0F92E
:102B60000000642190FBF1F000B24A49088000BFE8
:102B700016E710B504464848007838B9AA2C05D1A4
:102B80000120454908704548047092E042480078A9
:102B9000012809D1612C01D0FF2C05D102203E492A
:102BA00008703E48447084E03B480078022805D114
:102BB000032039490870394884707AE03648007833
:102BC00003280CD1FA2C0ADA042033490870334860
:102BD000C4703348047000203249087069E02E4800
:102BE0000078042819D12E480078002815DD2C48DB
:102BF0000078401E2A4908702A4800782949097837
:102C0000491C284A1170001D24490C54244800789E
:102C100058BB0520204908704BE01F480078052864
:102C20000DD106201C4908701E4800781D490978FE
:102C3000491C1C4A1170001D18490C5439E01648F3
:102C40000078062832D10020134908701548007812
:102C5000001D12490C5413480078401D1249087099
:102C6000084601780D48FFF791FE22E0B8040020E5
:102C7000320C0020F0030020820C0020D40200203F
:102C8000D8020020E0020020E4020020E802002038
:102C9000EA020020EC020020F5020020D40A002005
:102CA000F3020020F4020020EE0200200020FE4982
:102CB000087010BD7CB506460C461546402E70D0F7
:102CC0000BDC302E52D003DC6EB30D2E6AD140E007
:102CD000332E58D0342EF9D165E0E02E71D004DCCB
:102CE000412E7ED0A02EF1D104E0E22E6BD0F12E49
:102CF000ECD1C5E002212278501C2070A954EB4889
:102D00000CF04EFFEA490860002007E0E7490A5C42
:102D10002378591C2170EA54411CC8B2E44909685F
:102D20008842F3DBBAE0E34890F80C162278501C96
:102D30002070A954DF4890F80D162278501C20709E
:102D4000A954DC4890F80E162278501C2070A95423
:102D5000A4E0002007E0D8490A5C2378591C2170C0
:102D6000EA54411CC8B20428F5DB97E0002007E0D4
:102D7000D2490A5C2378591C2170EA54411CC8B21C
:102D80001728F5DB8AE0002008E0CC4919390A5CF5
:102D90002378591C2170EA54411CC8B20628F4DB80
:102DA0007CE011E079E0002008E0C449C91F0A5C1A
:102DB0002378591C2170EA54411CC8B20728F4DB5F
:102DC0006CE01BE00DE02DE0002007E0BC490A5C50
:102DD0002378591C2170EA54411CC8B21428F5DB31
:102DE0005CE0002007E0B7490A5C2378591C217099
:102DF000EA54411CC8B20E28F5DB4FE0AD4890F80C
:102E000001162278501C2070A954002007E0AE491A
:102E10000A5C2378591C2170EA54411CC8B20A2864
:102E2000F5DB3BE0A348B0F8140600B201909DF832
:102E300004102278501C2070A9549DF805102278A7
:102E4000501C2070A9549B48D0F8180600909DF89B
:102E500000102278501C2070A9549DF8011022788F
:102E6000501C2070A9549DF802102278501C20702C
:102E7000A9549DF803102278501C2070A9540DE02D
:102E8000002007E08F490A5C2378591C2170EA541E
:102E9000411CC8B20E28F5DB00E000BF00BF7CBDBE
:102EA000F8B504460F4600200090AA219DF80020A6
:102EB000501CC0B200908548815439789DF800209C
:102EC000501CC0B20090814881549DF80010481CED
:102ED000C0B200907D48445400219DF80020501C51
:102EE000C0B2009079488154024669462046FFF7F7
:102EF000E1FE9DF80000001F7449C87000250026FF
:102F0000002007E07149095C2944CDB27119CEB2A5
:102F1000411CC8B29DF800108842F3DB9DF80010F8
:102F2000481CC0B20090694845549DF80010481CE8
:102F3000C0B20090654846545E4890F8000640B123
:102F4000E02C06D15B4880F80F4680F8105680F8D8
:102F500011669DF800105D48FFF703FDF8BD10B540
:102F6000044604EB4400534901EB4000408828B379
:102F700004EB440001EB4000808804EB44014D4A1F
:102F800002EB4101498888420CDA04EB4400114607
:102F900001EB40008088401C04EB440102EB41013E
:102FA00088800BE0012004EB4401424A02EB41011E
:102FB000888004EB440102EB4101487004EB4400BB
:102FC0003C4901EB4000407868B1002004EB44012B
:102FD000384A02EB4101487004EB440002EB400127
:102FE0002046FFF75DFF10BD324A82F840050123FD
:102FF00082F8413501222F4B83F8002670471FB518
:10300000044600200246401C31498C549DF804308F
:103010000246401C8B549DF805300246401C8B54E0
:103020009DF808300246401C8B549DF8093002463A
:10303000401C8B549DF80C300246401C8B549DF86C
:103040000D300246401C8B549DF818300146421C3E
:10305000D0B21F4A53549DF819300146421CD0B2D9
:103060001B4A53549DF81C300146421CD0B2184AEA
:1030700053549DF81D300146421CD0B2144A53549B
:103080009DF820300146421CD0B2114A53549DF89D
:1030900021300146421CD0B20D4A53549DF82430D1
:1030A0000146421CD0B215E0F50200207400002059
:1030B000DC020020B8040020F80200206B0C002085
:1030C000C80C0020240C0020BA0A00208404002030
:1030D000D40B0020914A53549DF825300146421CE0
:1030E000D0B28E4A53548E4908701FBD70B500246B
:1030F0008B480078002849D0AA222046611CCCB217
:1031000088490A54FF222146601CC4B285484254B3
:10311000F1222146601CC4B282484254002220465B
:10312000611CCCB27F490A54002008E07B490B5C4B
:103130002146621CD4B27B4A5354411CC8B2784920
:1031400009788842F2DB201F7649C87000250026E6
:10315000002007E07349095C2944CDB27119CEB251
:10316000411CC8B2A042F5DB2046611CCCB26D49BF
:103170000D542046611CCCB26A490E542146694860
:10318000FFF7EFFB00206649087000BF70BD10B567
:103190000246002007E00B5C634C2354431CD8B26A
:1031A000282800DB02E00B5C002BF4D100BF022AD0
:1031B00000DD00225D4B1A705D4B187010BD70B5BC
:1031C00000245B480078002850D0AA222046611CC9
:1031D000CCB254490A54FF222046611CCCB251495A
:1031E0000A54A0222046611CCCB24E490A54002247
:1031F0002046611CCCB24B490A544C480278204608
:10320000611CCCB247490A54002008E046490B5CD7
:103210002146621CD4B2434A5354411CC8B24449AB
:1032200009788842F2DB201F3E49C870002500263D
:10323000002007E03B49095C2944CDB27119CEB2A8
:10324000411CC8B2A042F5DB2046611CCCB2354916
:103250000D542046611CCCB232490E5421463148EF
:10326000FFF77FFB00203249087000BF70BD10B52A
:103270002DED028BB0EE408A00F022F83020FFF7EF
:103280006EFE3320FFF76BFE3420FFF768FE402010
:10329000FFF765FE4120FFF762FEE020FFF75FFECB
:1032A000E220FFF75CFE0D20FFF759FEFFF787FFD6
:1032B000FFF71CFFA120FFF752FEBDEC028B10BDF3
:1032C0001C4890F80006012821D11B4800783228BC
:1032D00005DA19480078401C174908701CE00020E6
:1032E0001549087015480078401C144908700846B4
:1032F0000078052804DA01210E4880F841150BE01A
:1033000000200E4908700B4981F8000604E00020F7
:10331000094908700949087070470000D40B002063
:10332000F002002084040020FC0B0020F1020020A9
:10333000F2020020B8040020F6020020EF02002074
:1033400000B52DED028B85B0B0EE408AF74890F8BD
:10335000380000287CD1F54890F839000028F9D1D0
:10336000F248B0F94200B0F5966F06DA012000F09D
:1033700003FB0120EE49087013E0EC48B0F942006D
:1033800040F2A461884206DA022000F0F5FA022039
:10339000E749087005E0032000F0EEFA0320E44955
:1033A0000870E3484078E249097888420BD0E04849
:1033B0000078DF49487008460078032803D10846A2
:1033C0008078401C8870DA48807810B3D94800882B
:1033D000B0F5FA6F10DAD748008800EE100AB8EEA0
:1033E000400ADFEDD50A00EE880ABCEEC00A10EEF6
:1033F000100AD04908800CE0CD498978032901DB07
:1034000000F0E2FA20B10021CA4A1180C84A917046
:1034100000BFC648B0F93A00A0F2DC5000EE900AB6
:10342000F8EEE00AB0EE600A9FEDC41ADFEDC40AC0
:1034300001F076FA8DED010ABC48B0F93C00A0F22B
:10344000DC5000EE900AF8EEE00AB0EE600A00E010
:1034500085E09FEDBA1ADFEDBA0A01F061FA8DED51
:10346000020AB248B0F93E00A0F2DC5000EE900A29
:10347000F8EEE00AB0EE600A9FEDB21ADFEDB00A96
:1034800001F04EFA8DED030AA848B0F94000A0F211
:10349000DC5000EE900AF8EEE00AB0EE600A9FED14
:1034A000A91ADFEDA70A01F03BFA8DED040AA64840
:1034B000007858B19FEDA20A8DED010A9FEDA00A98
:1034C0008DED020A9FED9E0A8DED040A9848007862
:1034D00002283ADA9DED010ADFED9C0A20EE200A6F
:1034E000DFED9B0A20EE200ABDEEC00A10EE100AA6
:1034F00000B2984908809DED020AB1EE400ADFED66
:10350000930A20EE200ADFED920A20EE200ABDEE9B
:10351000C00A10EE100A00B248808448C08FA0F59F
:103520007A7000B288809DED040AB1EE400ADFEDAA
:103530008A0A20EE200ADFED890A20EE200ABDEE7D
:10354000C00A10EE100A00B2C8800121844880F839
:103550008711002083490870834908701EE0834862
:10356000C07878B17F48007828B9032000F004FAC9
:103570007C49087006E07C48007818B900F024FA0D
:103580007949087000207349088048804FF4AF7073
:1035900088800020C88088814881088105B0BDEC02
:1035A000028B00BD10B504467148008800EE100A79
:1035B000B8EE400ADFED6F0A20EE200ABDEEC00A29
:1035C00010EE100A00B26C4908806948408800EE8D
:1035D000100AB8EE400ADFED670A20EE200ABDEEC1
:1035E000C00A10EE100A00B248806148808800EEE0
:1035F000100AB8EE400ADFED5F0A20EE200ABDEEA9
:10360000C00A10EE100A00B288805948C08800EE47
:10361000100AB8EE400ADFED570A20EE200ABDEE90
:10362000C00A10EE100A00B2C8805148008900EEAE
:10363000100AB8EE400ADFED4F0A20EE200ABDEE78
:10364000C00A10EE100A00B208814948408900EE15
:10365000100AB8EE400ADFED470A20EE200ABDEE60
:10366000C00A10EE100A00B248814148808900EE7D
:10367000100AB8EE400ADFED3F0A20EE200ABDEE48
:10368000C00A10EE100A00B288813948C08900EEE5
:10369000100AB8EE400ADFED370A20EE200ABDEE30
:1036A000C00A10EE100A00B2C8813448007818B978
:1036B00001203249087027E0E4B1002017E02E49CC
:1036C00031F91010002901DC00210BE02A4931F901
:1036D0001010B1F57A7F02DD4FF47A7102E02649CD
:1036E00031F91010244A22F81010411CC8B20828E1
:1036F000E5DB09E0002005E000211F4A22F8101058
:10370000411CC8B20828F7DB1B4802F02CFC10BD96
:1037100010B502F0C3F9DFED1A0A20EE200ABCEE64
:10372000C00A10EE100A1749088010BD8E0C002048
:10373000FE0200200203002000007A440000204224
:10374000000000000000A042100300208F360E3B56
:1037500000C05A45240C0020C6F91B3B000048431A
:10376000B8040020FC020020FD020020820C002092
:10377000320C0020CDCCCC3D420C002004030020B4
:103780000000C842F802002010B523480088401C01
:1037900021490880084600880A2190FBF1F201FBCC
:1037A00012001D4908800846008810BB9FED1B0AC7
:1037B00000F016FE9FED190AFFF7C2FD9FED170AF4
:1037C00000F00EFC9FED150A01F0E4FA1248408863
:1037D000401C11494880084640880A2190FBF1F2BC
:1037E00001FB12000C4948800846408808B9FFF7E1
:1037F0008FFF03F001FF012001F06CFC9FED080A30
:1038000000F010F89FED060AFFF731FD0120FFF7E9
:10381000C9FE02F005FA10BD060300200AD7233CBA
:103820006F12833A10B52DED028BB0EE408A00F096
:1038300020F800BF2D4840782D490978884214D0DF
:103840002A4840782A49087000202A4988744FF491
:1038500087712848A0F813102448C1692548C0F88A
:1038600015100121244880F8391100BFBDEC028BEE
:1038700010BD22480078FF2804D020480078401C62
:103880001E490870194800781D490978884216D0E9
:10389000164800781A4908701448007A50B1134845
:1038A000C07838B111484089124908800F48808992
:1038B000488004E04FF400400E49088048800B48DF
:1038C00040781049097888420ED0084840780D4960
:1038D00008704FF40040074988800121064880F8AD
:1038E000331100200549087070470000FC0C0020CF
:1038F0000D030020520C0020B80400200C0300200F
:103900000A0300200B03002010B50120F74988703E
:10391000F74890F8000688B91020F54981F80106AB
:103920000021F34880F80216012180F8031600F206
:103930000161FF20FFF758FB012010BD0020FCE7CC
:1039400010B50020E9498870E94890F8000688B968
:103950001020E74981F801060021E54880F80216A9
:10396000022180F8031600F20161FF20FFF73CFB03
:10397000012010BD0020FCE710B50446DD480078AA
:10398000A0421FD0DA4890F80006C8B9D7480470A2
:10399000D84804700120D64981F801060121D44895
:1039A00080F8021680F80316D0480178D04880F8D5
:1039B000041600F20161FF20FFF716FB012010BD85
:1039C0000020FCE70120FAE710B5C94890F800068E
:1039D00088B91020C64981F801060021C44880F842
:1039E0000216072180F8031600F20161FF20FFF79D
:1039F000FBFA012010BD0020FCE701B5BC4890F89F
:103A00000006C8B91020BA4981F801060021B8485B
:103A100080F80216052180F803169DF8001080F842
:103A200004169DF8011080F8051600F20161FF20D0
:103A3000FFF7DAFA012008BD0020FCE710B5AC481A
:103A400090F8000688B91020A94981F801060021E4
:103A5000A74880F80216042180F8031600F20161DD
:103A6000FF20FFF7C1FA012010BD0020FCE710B5D0
:103A70009F4890F8000688B910209D4981F80106FA
:103A800000219B4880F80216062180F8031600F2F8
:103A90000161FF20FFF7A8FA012010BD0020FCE71C
:103AA00001B5934890F8000608BB1020904981F8B2
:103AB000010601218E4880F80216022180F80316C3
:103AC0009DF8001080F804169DF8011080F8051686
:103AD0009DF8021080F806169DF8031080F807166E
:103AE00000F20161FF20FFF77FFA012008BD0020EE
:103AF000FCE713B57E4890F8000680BB10207C4997
:103B000081F8010601217A4880F8021680F8031630
:103B10009DF8001080F804169DF8011080F8051635
:103B20009DF8021080F806169DF8031080F807161D
:103B30009DF8041080F808169DF8051080F8091605
:103B40009DF8061080F80A169DF8071080F80B16ED
:103B500000F20161FF20FFF747FA01201CBDFFE7DB
:103B60000020FBE707B5624890F8000648BB10202C
:103B70005F4981F8010602215D4880F802160321A1
:103B800080F803169DF8001080F804169DF80110C7
:103B900080F805169DF8041080F806169DF80510AB
:103BA00080F807169DF8081080F808169DF809108F
:103BB00080F8091600F20161FF20FFF715FA0120D5
:103BC0000EBD0020FCE713B5494890F8000608BB7D
:103BD0001020474981F801060221454880F8021665
:103BE000012180F803169DF8001080F804169DF856
:103BF000011080F805169DF8041080F806169DF84F
:103C0000051080F8071600F20161FF20FFF7ECF9BC
:103C100001201CBD0020FCE713B5354890F80006D4
:103C200000BB1020324981F801060221304880F89B
:103C3000021680F803169DF8001080F804169DF80F
:103C4000011080F805169DF8041080F806169DF8FE
:103C5000051080F8071600F20161FF20FFF7C4F994
:103C600001201CBD0020FCE737B50446204890F831
:103C7000000600BB10201E4981F8010602211C48E5
:103C800080F8021680F803469DF8041080F80416A8
:103C90009DF8051080F805169DF8081080F80616A6
:103CA0009DF8091080F8071600F20161FF20FFF768
:103CB0009BF901203EBD0020FCE710B50C4890F8B0
:103CC000000688B901200A4981F801060021084848
:103CD00080F80216032180F8031600F20161FF202C
:103CE000FFF782F9012010BD0020FCE7820C0020C4
:103CF000B80400200E03002010B5254890F80006F7
:103D000088B90120224981F801060021204880F865
:103D10000216042180F8031600F20161FF20FFF76C
:103D200063F9012010BD0020FCE710B5184890F899
:103D3000000688B90120164981F8010600211448BF
:103D400080F80216052180F8031600F20161FF20B9
:103D5000FFF74AF9012010BD0020FCE710B50C4820
:103D600090F8000688B90120094981F80106002170
:103D7000074880F80216022180F8031600F201615C
:103D8000FF20FFF731F9012010BD0020FCE7000003
:103D9000B804002010B504469848B0F94000B0F5CA
:103DA000AF6F0BDD9548B0F94000B0F5C86F05DA8C
:103DB0000120934948709349087002E0002090491F
:103DC00048708E48B0F93E00B0F5966F06DA8C4820
:103DD000407818B901208A49087002E0002088491B
:103DE00008708848007801284AD18748C0780028A0
:103DF00053D18248B0F93A0040F26C71884210DD2C
:103E00007E48B0F93C0040F24C41884209DA7B48D8
:103E1000B0F93E00884204DA7848B0F940008842A0
:103E200017DB7648B0F9400040F26C71884230DD13
:103E30007248B0F93C0040F24C41884229DA6F48A0
:103E4000B0F93E00884224DA6C48B0F93A00884262
:103E50001FDA6E480088B0F57A7F12DAD4ED000AD6
:103E60006A48008800EE100AB8EE400A9FED681A12
:103E700000EE810ABCEEC00A10EE100A6349088009
:103E800062E0FFF741FD0020604908805D4908704D
:103E90005AE000205D49088056E05B48C078012860
:103EA00052D15648B0F93A0040F26C71884210DDA8
:103EB0005248B0F93C0040F24C41884209DA4F4880
:103EC000B0F93E00884204DA4C48B0F9400088421C
:103ED00017DB4A48B0F9400040F26C71884230DD8F
:103EE0004648B0F93C0040F24C41884229DA434848
:103EF000B0F93E00884224DA4048B0F93A008842DE
:103F00001FDA42480088B0F5967F12DAD4ED000A35
:103F10003E48008800EE100AB8EE400A9FED3C1AB9
:103F200000EE810ABCEEC00A10EE100A3749088084
:103F30000AE0FFF705FD0020344908803149087088
:103F400002E000203149088010BD10B52E48C0782D
:103F5000002844D12948B0F9400040F24C41884241
:103F600017DA2648B0F93C00884212DA2348B0F943
:103F70003E0088420DDA2148B0F93A00884208DA5A
:103F80002448007838BBFFF798FE012021490870CB
:103F900025E01A48B0F9400040F26C7188421BDD00
:103FA0001648B0F93C0040F24C41884214DA1348FC
:103FB000B0F93E0088420FDA1048B0F93A0040F2FA
:103FC0006C71884208DD1348007820B9FFF794FE31
:103FD00001201049087002E000200E49087010BD51
:103FE00010B52DED020B054890F8380020B9684651
:103FF000FFF7D0FEFFF7A9FF1CBD00008E0C0020CC
:104000001003002014030020820C00201203002063
:1040100000007A441503002010B501F0EFFF0120E5
:10402000F84981F8380010BD10B501F09FFC6420FC
:1040300001F090FC01F072FD01F022FE642001F01D
:1040400089FC03F021FB0020EF490860EF49C1F82B
:10405000B40275220221E82003F05EFC4FF4E13047
:1040600002F005F94FF4E13002F06EFA4FF4E1305E
:1040700002F07AFDE64803F0BFF8E54803F0D2F914
:10408000642001F067FCFFF7C7FF01F0B3FC642078
:1040900001F060FCFEF7F4FB4FF4487001F05AFCAD
:1040A00002F0D6F8FFF74CFC012010BD40F6C41119
:1040B000884203DDD7490978032903DCD54909780B
:1040C0000A290DD10021D34A1170CE49B1F84E1002
:1040D000491CCC4AA2F84E10012182F8501012E07F
:1040E000B0F5967F0FDD40F6B83188420BDA02B2A8
:1040F000C449891CC74B1B7821F81320C54909788E
:10410000491CC44A1170704738B50446C2A0006803
:104110000090C2484068C149086001F0F0FBBF4907
:104120004860084640680968401A40F6C411884251
:1041300002D90020BA490870B94801780078401CBB
:10414000B74A1070B74844541046007819287CD1FB
:10415000182011460870B34800780F2876D1B1486E
:10416000007E38B1AF48007EAF4A12781DF80210C9
:104170008842F3D10020AA490870AA484078A9498A
:10418000897801F0070140EA01209E498882A5480C
:10419000C0788006400DA349897840EAE10099493A
:1041A000C882A0484079C007400D9E49097940EA7D
:1041B00081009C49C97840EAA11092490883994836
:1041C00080790007400D9749497940EA61008D499F
:1041D00048839448C0794006400D9249897940EA65
:1041E0002110884988838F48407A8007400D8D4987
:1041F000097A40EA41008B49C97940EAE1108149D6
:10420000C8838848807AC006400D8649497A40EACA
:10421000A1007C4908848348C07AC0008149897A1A
:1042200040EA6111774841847E48007B7D49497BA3
:1042300001F0070140EA0120724988847948807BB7
:104240008006400D7749497B01E074E069E040EA6F
:10425000E1006C49C8847348007CC007400D714977
:10426000C97B40EA81006F49897B40EAA11065491A
:1042700008856C48407C0007400D6A49097C40EA8B
:104280006100604948856748807C4006400D65496B
:10429000497C40EA21105B4988856248007D80079F
:1042A000400D6049C97C40EA41005E49897C40EA92
:1042B000E1105449C8855B48407DC006400D59490E
:1042C000097D40EAA1004F4908865648807DC0001C
:1042D0005449497D40EA61114A4841865148C07DB0
:1042E000484981F83400084690F8340000F008008E
:1042F00040B90846B0F84E00401CA1F84E0002201C
:1043000081F8500048480078401C474908700878F8
:10431000C11700EB91718910A0EB8101424A117025
:1043200009E0002005E03F4A411C515C1154411C4A
:10433000C8B21828F7DB38BD10B50446D4ED000A22
:104340003A48008800EE100AB8EE400A9FED381A8D
:1043500000EE810ABCEEC00A10EE100A3349088054
:1043600008460088B0F57A7F39DD002008802548AE
:10437000B0F84E002349C8860846C08E052803DAE7
:10438000012081F8380003E000201E4981F8380040
:104390001C4890F83800C8B11A480078D8B92548A8
:1043A0000078401C23490870087800EBD071491050
:1043B000A0EB41011F4A117010460078012802D17C
:1043C00001F09DFE07E001F019FE04E00D4890F8B1
:1043D00050000C49087000200A49A1F84E0010BD99
:1043E00010B52DED020B6846FFF7A6FF054890F8C3
:1043F0003800002878D103480078012827D1002010
:1044000022E000008E0C0020B08241420080414238
:1044100020A1070019030020041424341C030020E9
:1044200024030020E00C00202503002028030020A6
:1044300000007A4426030020344931F81020383136
:1044400021F81020411CC8B20A28F5DB23E02F48D0
:10445000801E007802281ED100201AE02B4912315C
:1044600031F91010A1F5806100EE101AF8EEC00AC3
:104470009FED270A9FED271A01EE200ABDEEC00A24
:1044800010EE101A0AB22149383121F81020411CCF
:10449000C8B20A28E2DB1D48801EB0F94200B0F520
:1044A000966F06DD1948801EB0F94200B0F5AF6F77
:1044B0000DDB1648801EB0F94200B0F5C86F0DDD67
:1044C0001248801EB0F94200B0F5E16F06DA012013
:1044D0000E49891E81F8390016E005E000200B49DD
:1044E000891E81F839000FE001200849891E81F8F2
:1044F0003900002006E000220449383121F810205C
:10450000411CC8B20A28F6DB1CBD0000900C00203C
:104510000080BB442FDD243FF0EE400AF5EEC00AD8
:10452000F1EE10FA02DBB0EE600A7047B1EE600AFD
:10453000FBE700B5B0EE403AB0EE602AB5EEC03A07
:10454000F1EE10FA07D1B5EEC02AF1EE10FA02D161
:104550009FEDFC1A99E0B0EE430AFFF7DDFFF0EEA5
:10456000403AB0EE420AFFF7D7FFF0EE402AF4EEF1
:10457000E23AF1EE10FA02D283EEA24A01E082EEB4
:10458000A34A9FEDF10AB4EEC04AF1EE10FA02D24E
:10459000F0EE441A2DE0DFEDED0AB6EE000A14EE5F
:1045A000200AF0EE404ABDEEE40A10EE100A00EEDA
:1045B000100AB8EEC00A34EEC00AF0EE404AE449F0
:1045C00001EB800191ED000AF0EE401AE04A411C37
:1045D00002EB810191ED000A114601EB8001D1ED62
:1045E000000A70EE600AB0EE610A00EEA40AF0EE76
:1045F000401AF4EEE32AF1EE10FA20DDB5EEC02AFF
:10460000F1EE10FA0ADBB5EEC03AF1EE10FA02DB79
:10461000B0EE611A39E0B1EE611A36E09FEDCD1AC5
:10462000B5EEC03AF1EE10FA04DB31EE610AB0EEFD
:10463000401A2AE031EEC10AB0EE401A25E0B5EE8C
:10464000C03AF1EE10FA10DB9FEDC31AB5EEC02AA6
:10465000F1EE10FA04DB31EE610AB0EE401A14E01C
:1046600031EE210AB0EE401A0FE09FEDBC1AB5EE14
:10467000C02AF1EE10FA04DB31EE210AB0EE401A46
:1046800003E031EE610AB0EE401AB0EE410A00BD1F
:1046900000B5B0EE405AF0EE605AF0EE450AB0EECA
:1046A000650AFFF746FF00BDF0EE400AF6EE001A7D
:1046B00060EEA11AB0EE611AB0EE600A10EE100AB8
:1046C000A749A1EB600000EE100A21EE002AF7EEE8
:1046D000081A42EE401A61EE801AB0EE610A21EE2D
:1046E000002AF7EE081A42EE401A61EE801AB0EE88
:1046F000610A704700B5F0EE402AB0EE620AFFF79B
:10470000D3FF20EE220A00BD10B52DED0A8BB0EECE
:10471000409AF0EE609A9FED930B53EC102B51EC06
:10472000190B0BF0BFFD18D29FED900B53EC102B23
:1047300051EC190B0BF01FFD41EC1B0B9FED8D0B8A
:1047400053EC102B0BF070FC41EC1A0B53EC192BB3
:104750000BF011FD41EC180B17E09FED840B53ECAF
:10476000102B51EC190B0BF006FD41EC1B0B9FEDD0
:10477000810B53EC102B0BF0FBFC41EC1A0B53ECB0
:10478000192B0BF0F8FC41EC180B9FED760B53EC5A
:10479000102B51EC180B0BF085FD20D29FED770B01
:1047A00053EC102B51EC180B0BF03EFC41EC1C0BA6
:1047B0009FED740B53EC102B0BF0DDFC41EC1B0B4D
:1047C0009FED6E0B53EC102B0BF02EFC41EC1A0BF3
:1047D00053EC182B0BF0CFFC41EC180B1FE09FEDB6
:1047E000670B53EC102B51EC180B0BF0BEFC41EC9B
:1047F0001C0B9FED660B53EC102B0BF0BCFC41EC3B
:104800001B0B9FED5E0B53EC102B0BF00DFC41ECE2
:104810001A0B53EC182B0BF0AEFC41EC180BB0EE5E
:10482000480AF0EE680ABDEC0A8B10BD10B52DEDFC
:10483000068BB0EE408AF0EE608A01249FED550BA6
:1048400053EC102B51EC180B0BF044FD0AD89FEDE4
:10485000510B53EC102B51EC180B0BF086FC41EC78
:10486000180BA41E20460BF0F8FC41EC190BB0EE1F
:10487000480AF0EE680AFFF747FFB0EE40AAF0EEF4
:1048800060AA53EC192B51EC1A0B0BF074FC41ECA1
:10489000100BBDEC068B10BD10B52DED088BB0EEE6
:1048A000408AF0EE608A01249FED3C0B53EC102B04
:1048B00051EC180B0BF0B8FB41EC180B9FED350BCE
:1048C00053EC102B51EC180B0BF004FD0AD8A41E6E
:1048D0009FED300B53EC102B51EC180B0BF045FCFB
:1048E00041EC180B20460BF0B8FC41EC1A0BB0EE73
:1048F000480AF0EE680AFFF799FFB0EE40BAF0EE12
:1049000060BA53EC1A2B51EC1B0B0BF034FC41EC4E
:10491000190B0BF0F7FC00EE100ABDEC088B10BD74
:10492000F0EE401AF4EEE01AF1EE10FA3ADD31EE54
:10493000C10AB4EEE00AF1EE10FA3CD2B0EE600A21
:1049400039E00000000000008180803B00008043CF
:10495000F80B0108DB0F4940DB0FC93FDB0FC9BF74
:10496000DF59375F00000000000000000000006019
:104970002FF0D93F00000060305FF43F00000000DE
:104980000000F03F000000C0CCCCCCBF000000C055
:10499000CCCCCC3FF1D4C853FB210940F1D4C8534F
:1049A000FB21F93F31EE810AB4EEE00AF1EE10FA94
:1049B00001DDB0EE600A7047F0EE401AB1EE412A18
:1049C00032EE202AB4EEE12AF1EE10FA09D231EEED
:1049D000202AB4EEE12AF1EE10FA02DDB0EE600A10
:1049E00001E0B0EE610A7047F0EE402AB5EEC01A61
:1049F000F1EE10FA02DDB0EE410A01E0B1EE410A3B
:104A0000B6EE003A22EE033A23EE213AB4EEC30AA0
:104A1000F1EE10FA06D29FEDD40A20EE800AF0EEF5
:104A2000400A4DE0B5EEC01AF1EE10FA02DDB0EE2C
:104A3000410A01E0B1EE410A22EE213AB4EEC30A86
:104A4000F1EE10FA06D29FEDC90A20EE800AF0EED0
:104A5000400A35E0B5EEC01AF1EE10FA02DDB0EE14
:104A6000410A01E0B1EE410AB4EEE10AF1EE10FABA
:104A700006D2B6EE000A20EE800AF0EE400A1FE0F1
:104A8000B5EEC01AF1EE10FA02DDB0EE410A01E017
:104A9000B1EE410AB0EE003A21EE833AB4EEC30A19
:104AA000F1EE10FA06D29FEDB20A20EE800AF0EE87
:104AB000400A05E09FEDAF0A20EE800AF0EE400AC2
:104AC0009FEDAD0A20EE800A20EE223AF7EE003A82
:104AD00083EE830AB7EE003A30EE030AF7EE003AAF
:104AE00083EE803A90ED000A71EE403A90ED000AB4
:104AF00003EE230A80ED000A90ED000AB1EE423A7F
:104B000023EE213AB4EEC30AF1EE10FA04D8B1EE66
:104B1000420A20EE210A0DE090ED000A22EE213A31
:104B2000B4EEC30AF1EE10FA02DD22EE210A01E032
:104B300090ED000A80ED000A90ED000A31EE400A87
:104B4000704710B52DED028BB0EE408AF0EE608A12
:104B50009FED8A0B53EC102B51EC180B0BF0BAFBAA
:104B60000CD29FED880B53EC102B51EC180B0BF073
:104B7000FCFA41EC100BBDEC028B10BD9FED830BDA
:104B800053EC102B51EC180B0BF08CFB0AD29FED61
:104B90007D0B53EC102B51EC180B0BF045FA41EC4C
:104BA000100BE8E7B0EE480AF0EE680AE3E730B52C
:104BB00005460C46F0EE403AD5ED000A60EEA00A3C
:104BC00094ED001AD4ED001A41EE210AB0EE600A0D
:104BD000FFF790FDB0EE403AB5EEC03AF1EE10FAB4
:104BE00002D81FEDA80A09E0B4EEE33AF1EE10FA9C
:104BF00002DDB0EE630A01E0B0EE430AB0EE404AD7
:104C0000B5EEC03AF1EE10FA06D11FEDB20A83ED0F
:104C1000000A82ED000A0FE084EE030AD5ED000AD7
:104C200020EE200A82ED000A84EE030AD4ED000A89
:104C300020EE200A83ED000A30BDF0EE400A0B782A
:104C400002EB8303C3ED000A0B785B1C0B700B783F
:104C5000834201DB00230B700B7802EB830393ED9F
:104C6000000A704700B50246B0EE403A0B46F7EE38
:104C7000000A43EE430AB0EE600AFFF73BFDD2EDB7
:104C8000000A20EE200AD2ED010A00EEC30A83EDED
:104C9000000AF7EE000A43EE430AB0EE600AFFF79F
:104CA00029FDD2ED010A20EE200AD2ED000A00EE25
:104CB000830A83ED010A00BD90ED000AD1ED010ADF
:104CC00020EE200AD0ED010A91ED001A00EEC10A93
:104CD000704790ED000AD1ED000A20EE200AD0EDD9
:104CE000010A91ED011A00EE810A704790ED010A68
:104CF000D1ED020A20EE200AD0ED020A91ED011A50
:104D000000EEC10A82ED000A90ED020AD1ED000A20
:104D100020EE200AD0ED000A91ED021A00EEC10A41
:104D200082ED010A90ED000AD1ED010A20EE200A81
:104D3000D0ED010A91ED001A00EEC10A82ED020ADF
:104D4000704790ED000AD1ED000A20EE200AD0ED68
:104D5000010A91ED011A00EE810AD0ED020A91EDEF
:104D6000021A00EE810A70479A99993FCDCC4C3FC8
:104D7000CDCC4C3ECDCCCC3DC3F5C84000000000AE
:104D800000806640000000000080764000000000C7
:104D9000008066C008B5C648D0ED000A9FEDC51A70
:104DA000F4EEC10AF1EE10FA0BD2D0ED000AB7EE24
:104DB000001A70EE810AC0ED000A0120BE49887019
:104DC00002E00020BC498870B948D0ED010A9FED8F
:104DD000B91AF4EEC10AF1EE10FA0BD2D0ED010AC5
:104DE000B7EE001A70EE810AC0ED010A01208DF8BD
:104DF000000002E000208DF80000AD48D0ED020A6E
:104E00009FEDAC1AF4EEC10AF1EE10FA0BD2D0ED20
:104E1000020AB7EE001A70EE810AC0ED020A012004
:104E20008DF8010002E000208DF801009DF80000DF
:104E300030B19DF8010018B101209F49C87002E00F
:104E400000209D49C87008BD30B500220024C578F7
:104E50008B1F9D4200D030BD002306E0C55C154489
:104E6000EAB2A518ECB25D1CEBB28D1E9D42F5DCDA
:104E7000431813F8023C934204D1431813F8013C41
:104E8000A34200D0E7E78378512B38D103795BB98F
:104E90004379894D6B7183795BB2AB71C3795BB236
:104EA000EB71037A2B7183E00379012B12D14379E3
:104EB000814D2B72C3886B810389AB81837A2B71FF
:104EC0009FED7E0A7A4B83ED010A2B461B785B1C13
:104ED0002B706DE00379022B6AD14379764DAB7369
:104EE000C3882B8203896B824389AB828389EB82DF
:104EF000C3892B83038A6B83837C2B7158E083786F
:104F0000342B0DD1D0F807306B4DEB619FED6B0A60
:104F1000674B83ED020A2B465B785B1C6B7047E0A6
:104F20008378012B0DD18388634D2B86C3886B86D4
:104F30000389AB864389EB8683892B87C3896B877B
:104F400036E08378042B33D1B0F9043000EE103A08
:104F5000B8EEC00ADFED5A0A20EE200A564B83ED68
:104F6000080AB0F9063000EE103AB8EEC00ADFEDDC
:104F7000540A20EE200A504B83ED090AB0F908309C
:104F800000EE103AB8EEC00ADFED4D0A20EE200A1E
:104F9000494B83ED0A0AB0F90A3000EE103AB8EE38
:104FA000C00ADFED470A20EE200A434B83ED0B0ACF
:104FB00000BF50E710B504464248007838B9AA2C23
:104FC00005D101203F4908703F4804706FE03D481B
:104FD0000078012809D1612C01D0FF2C05D10220D5
:104FE000384908703848447061E036480078022833
:104FF00005D10320334908703348847057E03148A5
:10500000007803280CD1FA2C0ADA04202D49087004
:105010002D48C4702D48047000202D49087046E0CA
:1050200028480078042819D128480078002815DD80
:1050300026480078401E25490870254800782449F4
:105040000978491C224A1170001D1F490C541F4841
:10505000007840BB05201B49087028E019480078FB
:1050600005280DD1062017490870194800781849FD
:105070000978491C164A1170001D13490C5416E09A
:105080001048007806280FD100200E4908701048FB
:105090000078001D0C490C540D480078401DC1B229
:1050A0000948FFF7D1FE02E000200649087010BD54
:1050B0006C0D00200000FA43FC0C002000000000F2
:1050C00017B7D1382C030020380D00202A03002008
:1050D0002B0300200146D548007800287ED000220E
:1050E000D24B1A70D24A1288C832D14B1A80D14A98
:1050F000127DD14B5A76CF4AD37DCF4A9376CD4A93
:105100009369CD4AC2F81B30CA4AD369CA4AC2F869
:105110001F30C84A526A0A2392FBF3F3C64AC2F808
:105120002330C44A126B0A2392FBF3F213B2C24A31
:10513000A2F82730BF4A526B0A2392FBF3F213B254
:10514000BD4AA2F82930BB4A926B0A2392FBF3F2C4
:1051500013B2B94AA2F82B30B64AB2F84C2000EE8E
:10516000102AB8EE400ADFEDB50A20EE200ABCEEA8
:10517000C00A10EE100A08B9002204E0C82801D9BC
:10518000C82200E002461046AB4A82F82D00A94A28
:10519000526C00EE102AB8EE400ADFEDA80A20EEAD
:1051A000200ABCEEC00A10EE100A08B9002204E082
:1051B000C82801D9C82200E0024610469E4A82F85B
:1051C0002E009C4AD26A00EE102AB8EE400ADFEDAB
:1051D0009B0A20EE200ABCEEC00A00E012E010EEAE
:1051E000100A08B9002204E0C82801D9C82200E04A
:1051F00002461046904A82F82F000123904A82F816
:10520000213100BF704710B50E218E4801F0B2F871
:1052100010BD10B50E218C4801F0ACF810BD10B5D2
:10522000642000F097FB4FF4165001F020F8322074
:1052300000F090FB1C21854801F09CF8642000F0F0
:1052400089FB4FF4964001F012F8322000F082FB07
:105250001C217E4801F08EF8642000F07BFB4FF4A7
:10526000164001F004F8322000F074FB1C2177484E
:1052700001F080F8642000F06DFB4FF4E13000F0A5
:10528000F6FF142000F066FB0B21714801F072F864
:10529000142000F05FFB0B216E4801F06BF8142026
:1052A00000F058FB0B216C4801F064F8142000F06A
:1052B00051FB0B21694801F05DF8142000F04AFB16
:1052C0000B21674801F056F8142000F043FB0B2136
:1052D000644801F04FF8142000F03CFBFFF793FF07
:1052E00010BD10B50146002000225F4B1B782BB982
:1052F000B52903D101235C4C237095E05A4B1B78F0
:10530000012B05D1622903D10223574C23708BE076
:10531000554B1B78022B05D10323534C2370534B61
:10532000197081E0504B1B78032B05D104234E4CA0
:1053300023704F4B197077E04B4B1B78042B05D132
:105340000523494C23704B4B19706DE0464B1B787D
:10535000052B10D10623444C2370464B1B7803EBDE
:105360000123454C238023461B88622B5CDB0023F2
:105370003D4C237058E03C4B1B78062B54DB3A4BDA
:105380001B789B1F3C4C2488A41CA3420ADA364B92
:105390001B789B1F274CE154334B1B785B1C324C12
:1053A000237041E0314B1B780344D8B21318DAB2B2
:1053B0002F4B1B780344D8B21318DAB22E4B1B784C
:1053C0000344D8B21318DAB22B4B1B8800EB13231B
:1053D000D8B21318DAB2002307E0164CE45C044498
:1053E000E0B21418E2B25C1CE3B2234C2488A3425E
:1053F000F3DB104B204C24881B5D834211D10D4CF4
:105400001D4B1B885B1CE35C93420AD1174B1B7836
:10541000012B06D1164B1B78072B02D10123034C1D
:1054200023700023104C237010BD00002E030020B9
:1054300030030020780D0020520C00200AD7233CB6
:10544000B804002032030020400300206A0300203B
:105450009B030020A6030020B1030020BC03002012
:10546000C7030020D2030020E3030020DD03002057
:10547000DE030020DF030020E003002030B50346F8
:105480001C788C545D78541C0D559D78941C0D55DA
:10549000DD78D41C0D5530BD11B52DED020B044641
:1054A0000A2C00DC04B91EBD0B2C43D2DFE804F04B
:1054B00042060C12181E242A30363C000122CF4925
:1054C0006846FFF7DBFF35E00522CC496846FFF769
:1054D000D5FF2FE00922C9496846FFF7CFFF29E031
:1054E0000D22C6496846FFF7C9FF23E01122C349D0
:1054F0006846FFF7C3FF1DE01522C0496846FFF765
:10550000BDFF17E01922BD496846FFF7B7FF11E05C
:105510001D22BA496846FFF7B1FF0BE02122B749C7
:105520006846FFF7ABFF05E02522B4496846FFF760
:10553000A5FF00BF00BF00BFB5E711B52DED020B01
:1055400004460A2C00DC04B91EBD0B2C43D2DFE854
:1055500004F042060C12181E242A30363C000322A6
:10556000A7496846FFF78AFF35E00722A449684645
:10557000FFF784FF2FE00B22A1496846FFF77EFF6B
:1055800029E00F229E496846FFF778FF23E01322A7
:105590009B496846FFF772FF1DE01722984968464D
:1055A000FFF76CFF17E01B2295496846FFF766FF7F
:1055B00011E01F2292496846FFF760FF0BE02322AB
:1055C0008F496846FFF75AFF05E027228C49684655
:1055D000FFF754FF00BF00BF00BFB5E711B52DEDC9
:1055E000020B04460A2C00DC04B91EBD0B2C43D26E
:1055F000DFE804F042060C12181E242A30363C0064
:1056000004227F496846FFF739FF35E008227C49CC
:105610006846FFF733FF2FE00C2279496846FFF711
:105620002DFF29E0102276496846FFF727FF23E087
:10563000142273496846FFF721FF1DE018227049C4
:105640006846FFF71BFF17E01C226D496846FFF70D
:1056500015FF11E020226A496846FFF70FFF0BE0B3
:10566000242267496846FFF709FF05E028226449BC
:105670006846FFF703FF00BF00BF00BFB5E7014664
:105680000A2900DC09B90020704724205B4A107009
:105690000B293CD2DFE801F03B060B10151A1F2442
:1056A000292F35000520554A50710620ECE70920C6
:1056B000524A50720A20E7E70D20504A50730E20DC
:1056C000E2E711204D4A50741220DDE715204B4AC5
:1056D00050751620D8E71920484A50761A20D3E78B
:1056E0001D20464A50771E20CEE72120434A82F8EB
:1056F00021002220C8E72520404A82F825002620E4
:10570000C2E729203D4A82F829002A20BCE7002070
:10571000BAE701460A2900DC09B9002070470B29C5
:105720002FD2DFE801F02E060A0E12161A1E2226CC
:105730002A000920324A9070F0E70D20304A90701C
:10574000ECE711202E4A9070E8E715202C4A907063
:10575000E4E719202A4A9070E0E71D20284A90705B
:10576000DCE72120264A9070D8E72520244A907053
:10577000D4E72920224A9070D0E72D20204A90704B
:10578000CCE70020CAE701460A2900DC09B900205D
:1057900070470B292FD2DFE801F02E060A0E1216F1
:1057A0001A1E22262A000A20154A9070F0E70E20C1
:1057B000134A9070ECE71220114A9070E8E7162027
:1057C0000F4A9070E4E71A200D4A9070E0E71E201F
:1057D0000B4A9070DCE72220094A9070D8E7262017
:1057E000074A9070D4E72A20054A9070D0E72D2010
:1057F000034A9070CCE70020CAE70000DC0D0020CF
:10580000060E0020704700BFFEE700BFFEE700BFA6
:10581000FEE77047704710B5802004F058FE10B1C5
:10582000802004F0AAFE10BD10B500F03FFC10BDB2
:10583000704710B50121114808F03FFD28B1012142
:105840000E4808F097FDFDF79FFF10BD10B500F062
:10585000D9FD10BD10B500F079FF10BD10B501F0F5
:1058600075FA10BD10B501F0A1FD10BD10B501F025
:105870008CFE10BD10B500F095FC10BD001400406A
:105880007FB5684605F055FD4FF47A710198B0FB7D
:10589000F1F4E4082146B1F1807F00D31DE021F04E
:1058A0007F40401E4FF0E022506150170F22002829
:1058B00007DA13071E0E314B00F00F052D1F5E5542
:1058C00003E013071D0E2E4B1D5400BF00204FF0A8
:1058D000E02290610720106100BF6FF0040002F029
:1058E00029FB7FBD2748D0E900305A1C40F1000059
:1058F0002449C1E90020704722480068704710B56C
:1059000000BF204A11684FF0E02252694FF0E023B7
:105910009B69D21A4FF47A735A434FF0E0235B69C4
:10592000B2FBF3F201EB4103C3EBC11302EBC30083
:10593000144C18CC4B402343E3D110BD30B5044682
:10594000FFF7DDFF054600BFFFF7D9FF401BA04270
:10595000FAD330BD10B5044603E04FF47A70FFF778
:10596000EDFF201EA4F10104F7D110BD10B54FF4D6
:10597000806002F02DFAFFF783FF10BD18ED00E004
:1059800000E400E0E803002000B58FB0684603F0B3
:105990002AFD0121880505F0E4FD00BF564804F00A
:1059A0003FF80028FAD100905448019054480290E2
:1059B0000020039032200490002005904FF4806076
:1059C0000690400007908000089000010A90401265
:1059D000099000200B9001200C9000200D900E905B
:1059E0006946454803F0A9FB0121434803F00CFD3B
:1059F0000FB000BD00B58DB001A802F09DFB0121E4
:105A0000042005F0AEFD0121080205F090FEFFF72D
:105A1000BBFF03208DF8300020200B9000208DF874
:105A200033000BA9374804F04DFE00200990079081
:105A30004FF48030089000200A9007A802F086FBFF
:105A4000002001908DF8080001208DF80900002049
:105A50000390059001208DF8180001A927484C38C3
:105A600002F0A1FA072301220F2124484C3802F04A
:105A700032FD012121484C3802F00BFF01211F4863
:105A80004C3802F014FC01211C484C3802F0DBFEBB
:105A90001A484C3802F0EBFD0DB000BD9FED1A0A1C
:105AA000F0EE400A002010E0154931F8101000EE29
:105AB000101AB8EE401ADFED151AB0EE600A01EECA
:105AC000210AF0EE400A411CC8B23228ECDB9FEDFF
:105AD000101A80EE810A9FED0F1A20EE010AB2EE35
