:020000040800F2
:1000000028030020890100089101000893010008DD
:100010009501000897010008990100080000000000
:100020000000000000000000000000009B0100082C
:100030009D010008000000009F010008A1010008C8
:10004000A3010008A3010008A3010008A301000800
:10005000A3010008A3010008A3010008A3010008F0
:10006000A3010008A3010008A3010008A3010008E0
:10007000A3010008A3010008A3010008A3010008D0
:10008000A3010008A3010008A3010008A3010008C0
:10009000A3010008A3010008A3010008E902000869
:1000A000A3010008A3010008A3010008A3010008A0
:1000B000A9090008A3010008A3010008A301000882
:1000C000A3010008A3010008A3010008A301000880
:1000D000A3010008A3010008D5090008A301000836
:1000E000B5020008A3010008A301000800F002F80F
:1000F00000F03AF80AA090E8000C82448344AAF188
:100100000107DA4501D100F02FF8AFF2090EBAE885
:100110000F0013F0010F18BFFB1A43F0010318473B
:10012000E80B0000080C0000103A24BF78C878C122
:10013000FAD8520724BF30C830C144BF04680C60ED
:10014000704700000023002400250026103A28BF35
:1001500078C1FBD8520728BF30C148BF0B60704739
:100160001FB51FBD10B510BD00F02FF81146FFF7E9
:10017000F7FF00F075FD00F04DF803B4FFF7F2FF54
:1001800003BC00F055F800000948804709480047C3
:10019000FEE7FEE7FEE7FEE7FEE7FEE7FEE7FEE737
:1001A000FEE7FEE704480549034A054B7047000097
:1001B00049090008ED00000828010020280300205C
:1001C00028010020704770477047754600F02CF8F2
:1001D000AE4605006946534620F00700854618B034
:1001E00020B5FFF7DFFFBDE820404FF000064FF0DD
:1001F00000074FF000084FF0000B21F00701AC465C
:10020000ACE8C009ACE8C009ACE8C009ACE8C0097A
:100210008D46704710B50446AFF300802046BDE818
:100220001040FFF7AABF000000487047C40000203C
:1002300001491820ABBEFEE726000200704700000F
:100240001FB50121082000F0E5F90121084600F062
:10025000E1F948208DF80F002020ADF80C000320B4
:100260008DF80E0003A9124800F0D0F805210120F6
:1002700000F0ACF82020019001208DF80A00002049
:100280008DF808000C208DF8090001A800F054F842
:1002900017208DF8000001208DF8030002208DF852
:1002A00001008DF80200684600F052F91FBD000001
:1002B000000C014010B54FF4005000F031F8012857
:1002C0000AD1142000F0A0FC4FF4005000F028F8F0
:1002D000012801D1034908704FF4005000F01AF8CA
:1002E00010BD00003800002010B5202000F018F8E4
:1002F000012809D1282000F087FC202000F010F808
:10030000012801D102490870202000F003F810BD37
:1003100038000020014908607047000014040140C3
:1003200001460020034A12680A400AB1012000E099
:100330000020704714040140002123498279002ADB
:100340003AD00A46126803689A430B461A600A1D9F
:10035000126803689A430B1D1A60027911440A68F7
:1003600003681A430A60184A0832126803689A43FD
:10037000154B08331A601A1D126803689A43124B12
:100380000C331A604279102A0ED11A1F12680368C2
:100390001A430D4B08331A601A1D126803681A437A
:1003A000094B0C331A600DE00749427911440A6881
:1003B00003681A430A6005E0027911440A68036879
:1003C0009A430A60704700000004014030B50022E3
:1003D0008B071C0F0F2303FA04F20B4B8C1053F8FE
:1003E00024309343084C8D1044F8253023468C105C
:1003F00053F824308C07240F00FA04F42343024CF2
:100400008D1044F8253030BD080001402DE9F04141
:10041000024600250026002000230024002791F832
:1004200003C00CF00F0591F803C00CF0100CBCF1E8
:10043000000F03D091F802C04CEA050591F800C006
:10044000BCF1000F31D0146800202BE04FF0010CFC
:100450000CFA00F3B1F800C00CEA03069E4220D16A
:1004600083004FF00F0C0CFA03F7BC4305FA03FCB2
:100470004CEA040491F803C0BCF1280F06D14FF0F8
:10048000010C0CFA00FCC2F814C00AE091F803C099
:10049000BCF1480F05D14FF0010C0CFA00FCC2F87A
:1004A00010C0401C0828D1D31460B1F800C0BCF1C2
:1004B000FF0F34DD546800202EE000F1080C4FF0EF
:1004C000010808FA0CF3B1F800C00CEA03069E42DA
:1004D00021D183004FF00F0C0CFA03F7BC4305FA4F
:1004E00003FC4CEA040491F803C0BCF1280F05D1C9
:1004F00000F1080C08FA0CF8C2F8148091F803C057
:10050000BCF1480F07D100F1080C4FF0010808FAC0
:100510000CF8C2F81080401C0828CED35460BDE807
:10052000F081000008B50121042000F073F81020CC
:100530008DF803008220ADF8000003208DF8020042
:1005400069460248FFF762FF08BD0000000801404D
:1005500070B5002100230F22C47804B3154C246821
:1005600004F4E064C4F5E064210AC1F10403CA4064
:10057000447804FA03F184781440214309010E4CB5
:100580000678A155047804F01F050124AC400578D5
:100590006D11AD0005F1E025C5F8004109E00478D2
:1005A00004F01F050124AC40044D0678761145F88F
:1005B000264070BD0CED00E000E400E080E100E0CA
:1005C00002490143024A1160704700000000FA0529
:1005D0000CED00E029B1064AD2690243044BDA610E
:1005E00004E0034AD2698243014BDA61704700009C
:1005F0000010024029B1064A12690243044B1A61F5
:1006000004E0034A12698243014B1A6170470000FB
:100610000010024029B1064A92690243044B9A61D4
:1006200004E0034A92698243014B9A6170470000DB
:100630000010024030B500210022002400232D4D7F
:100640006D6805F00C0121B1042905D0082923D1DA
:1006500005E0294D056022E0274D05601FE0254D8E
:100660006D6805F47012234D6D6805F48034022521
:1006700005EB92421CB9214D554305600BE01D4D21
:100680006D6805F400351DB11C4D5543056002E051
:10069000194D5543056002E0174D056000BF00BFCE
:1006A000144D6D6805F0F0010909154D6B5C056886
:1006B000DD4045600F4D6D6805F4E061090A104D9D
:1006C0006B5C4568DD4085600A4D6D6805F46051DE
:1006D000C90A0B4D6B5C4568DD40C560054D6D6812
:1006E00005F44041890B074D6B5CC568B5FBF3F51C
:1006F000056130BD0010024000127A0000093D0083
:10070000100000202000002010B586B00446012112
:100710000420FFF77FFF01214804FFF75BFF4FF440
:100720008070ADF8140010208DF8170003208DF8AC
:10073000160005A92648FFF769FE0420ADF814004D
:1007400018208DF8170005A92148FFF75FFE082043
:10075000ADF8140004208DF8170005A91C48FFF718
:1007600055FE01214804FFF745FF00214FF40030FA
:10077000FFF740FF01940020ADF80800ADF80A0033
:10078000ADF80C00ADF810000C20ADF80E0001A97A
:10079000104800F0A7F926208DF8000003208DF8FE
:1007A00001008DF8020001208DF803006846FFF774
:1007B000CFFE012240F22551064800F06EF90121DA
:1007C000044800F027F900200349086006B010BD76
:1007D0000008014000440040A001214270B50546D8
:1007E0000E460024012011490860142000F00CFA84
:1007F00000BF0CE000BF40210D4800F017F90028B1
:10080000F9D0295D0A4800F0DEF9601CC4B2B44298
:10081000F0DB00BF4021064800F008F90028F9D0BD
:100820000020044908700149086070BDA001214200
:10083000004400403900002010B500F001F810BD60
:100840000CB50020019000903348006840F48030DF
:100850003149086000BF3048006800F40030009063
:100860000198401C0190009818B90198B0F5A06F4C
:10087000F1D12948006800F4003010B10120009047
:1008800001E0002000900098012843D1234800682F
:1008900040F01000214908600846006820F003007D
:1008A00008600846006840F0020008601A48406886
:1008B000194948600846406848600846406840F466
:1008C000806048600846406820F47C104860084614
:1008D000406840F4E81048600846006840F08070C6
:1008E000086000BF0C48006800F000700028F9D0D4
:1008F0000948406820F003000749486008464068FE
:1009000040F00200486000BF0348406800F00C005F
:100910000828F9D10CBD0000001002400020024060
:10092000042808D14FF0E021096941F004014FF09B
:10093000E022116107E04FF0E021096921F0040194
:100940004FF0E0221161704710B51348006840F085
:1009500001001149086008464068104908400E49E6
:100960004860084600680E4908400B490860084680
:10097000006820F4802008600846406820F4FE00EB
:1009800048604FF41F008860FFF756FF4FF000608B
:100990000449086010BD0000001002400000FFF88C
:1009A000FFFFF6FE08ED00E010B50121880700F01A
:1009B00008F80121880700F001F810BDCA4302823F
:1009C000704702460020138A0B400BB1012000E063
:1009D0000020704710B540F225510B4800F033F865
:1009E00080B1094800F0EAF8C4B2084800788028CD
:1009F00008DA074805490978445404480078401C3F
:100A00000249087010BD0000004400403900002079
:100A10004400002021B1828942F40052828104E026
:100A200082894DF6FF731A4082817047024600208A
:100A3000B1F5007F00D100BF13880B400BB101203E
:100A400000E00020704770B5024600240023002516
:100A5000002040F66A16B14200D100BFC1F3421532
:100A600001F01F03012606FA03F3012D02D1968936
:100A7000334006E0022D02D1168A334001E0968A07
:100A800033400C12012606FA04F41688344013B1E0
:100A90000CB1012000E0002070BDF0B50346002439
:100AA00000260025002040F66A17B94200D100BF99
:100AB0001846C1F3421401F01F06012707FA06F594
:100AC000012C01D10C3004E0022C01D1103000E0E7
:100AD00014301AB107682F43076002E00768AF437C
:100AE0000760F0BD2DE9F04786B005460E460024AC
:100AF000A24600BFA1460027B08900B100BF2F4623
:100B00002C8A4CF6FF700440F08804432C82AC8998
:100B10004EF6F3100440B0883189084371890843C8
:100B20000443AC81AC8A4FF6FF400440B0890443D3
:100B3000AC8201A8FFF77EFD1F48874202D1DDF895
:100B400010A001E0DDF80CA0A88900F4004040B13D
:100B50000AEBCA0000EB0A1031684900B0FBF1F85B
:100B600007E00AEBCA0000EB0A1031688900B0FB0D
:100B7000F1F86420B8FBF0F004012009642101FBC6
:100B80001089A88900F4004040B1322000EBC90070
:100B9000B0FBF1F000F00700044308E0322000EB66
:100BA00009106421B0FBF1F000F00F0004432C8128
:100BB00006B0BDE8F0870000003801400146888893
:100BC000C0F308007047C1F308028280704700003C
:100BD00010B56FF00400FFF7A3FE0748006807494F
:100BE000B0FBF1F006490860084600684FF47A71DE
:100BF00048430449086010BD2400002000127A0018
:100C00003C0000204000002010B1B0F5E96F00D991
:100C10007047124A126842434FF0E0235A610022A3
:100C20009A611A46126942F001021A6100BF4FF040
:100C3000E022116901F001021AB101F48032002AA8
:100C4000F5D04FF0E022126922F001024FF0E023CC
:100C50001A6100229A6100BFDAE70000400000201C
:100C60004FF4A060FFF7ACFCFFF7B2FFFFF75AFCB0
:100C7000FFF7E6FA4FF41650FFF746FD01201C4936
:100C800008601C49C1F89C0131E01B48007801282C
:100C900010D110211948FFF7A1FD15481830006840
:100CA00008B9012000E00020114918310860002037
:100CB0001149087012480078022818DB1148407862
:100CC0004B2811D10A48006808B9012000E0002033
:100CD0000749086043200B4948704FF47A70FFF7CA
:100CE00093FF012004490870002005490870CCE7F3
:100CF0008401214200002142380000200000002031
:100D00003900002044000020280D000800000020C9
:100D100044000000280100086C0D00084400002079
:100D2000E402000044010008646F7562697869613B
:100D30006F68616E68616E000000000001020304CC
:100D400001020304060708090204060800A24A0477
:100D5000000000000000000001020304060708096B
:0C0D600000000000000000000000000087
:040000050800018965
:00000001FF
