:020000040800F2
:100000008002002089010008910100089301000886
:100010009501000897010008990100080000000000
:100020000000000000000000000000009B0100082C
:100030009D010008000000009F010008A1010008C8
:10004000A3010008A3010008A3010008A301000800
:10005000A3010008A3010008A3010008A3010008F0
:10006000A3010008A3010008A3010008A3010008E0
:10007000A3010008A3010008A3010008A3010008D0
:10008000A3010008A3010008A3010008A3010008C0
:10009000950C0008A3010008A3010008CD08000882
:1000A000A3010008A3010008A3010008A3010008A0
:1000B000A3010008A3010008A3010008A301000890
:1000C000A3010008A3010008A3010008A301000880
:1000D000A3010008A3010008A3010008A301000870
:1000E00099080008A3010008A301000800F002F825
:1000F00000F03AF80AA090E8000C82448344AAF188
:100100000107DA4501D100F02FF8AFF2090EBAE885
:100110000F0013F0010F18BFFB1A43F0010318473B
:10012000D80C0000F80C0000103A24BF78C878C141
:10013000FAD8520724BF30C830C144BF04680C60ED
:10014000704700000023002400250026103A28BF35
:1001500078C1FBD8520728BF30C148BF0B60704739
:100160001FB51FBD10B510BD00F02FF81146FFF7E9
:10017000F7FF00F0F7FD00F04DF803B4FFF7F2FFD2
:1001800003BC00F055F800000948804709480047C3
:10019000FEE7FEE7FEE7FEE7FEE7FEE7FEE7FEE737
:1001A000FEE7FEE704480549034A054B7047000097
:1001B000350C0008ED0000088000002080020020BF
:1001C00080000020704770477047754600F02CF89B
:1001D000AE4605006946534620F00700854618B034
:1001E00020B5FFF7DFFFBDE820404FF000064FF0DD
:1001F00000074FF000084FF0000B21F00701AC465C
:10020000ACE8C009ACE8C009ACE8C009ACE8C0097A
:100210008D46704710B50446AFF300802046BDE818
:100220001040FFF7AABF00000048704720000020E0
:1002300001491820ABBEFEE726000200704700000F
:1002400010B50021837A012202FA03F13D4A1268B7
:1002500042F001023B4B1A603A4A1C3212688A4350
:10026000384B1C331A60027BCAB9364A0C3212680A
:100270008A43344B0C331A604288C38842EA0343F2
:10028000304A4032847A42F834300288838842EA25
:1002900003432C4A4032847A02EBC4025360027B4F
:1002A000012A19D1274A0C3212680A43254B0C3314
:1002B0001A604288038842EA0343224A4032847A21
:1002C00042F83430C288838842EA03431D4A4032F0
:1002D000847A02EBC4025360C27A3AB9194A121DF9
:1002E00012688A43174B1B1D1A6006E0154A121D3F
:1002F00012680A43134B1B1D1A60028932B9114A56
:10030000143212688A430F4B14331A600289012A8F
:1003100006D10C4A143212680A430A4B14331A608D
:10032000427B012A06D1074A1C3212680A43054B58
:100330001C331A60034A126822F00102014B1A6052
:1003400010BD0000006600401AB143690B434361D1
:1003500002E043698B434361704730B50246002099
:100360000023146824F002041460146844F00104AB
:10037000146000E05B1C546804F001041CB94FF6E3
:10038000FF74A342F6D1546804F001040CB90020B4
:100390006CE08C79012C04D1146844F08004146062
:1003A00003E0146824F080041460CC79012C04D19B
:1003B000146844F04004146003E0146824F040041E
:1003C00014600C7A012C04D1146844F020041460E9
:1003D00003E0146824F0200414604C7A012C04D14A
:1003E000146844F01004146003E0146824F010044E
:1003F00014608C7A012C04D1146844F00804146051
:1004000003E0146824F008041460CC7A012C04D1B1
:10041000146844F00404146003E0146824F0040435
:1004200014608C78A407CD7844EA05640D7944EA19
:1004300005444D7944EA05540D886D1E2C43D46162
:10044000146824F001041460002300E05B1C54686D
:1004500004F001041CB14FF6FF74A342F6D15468B6
:1004600004F001040CB1002000E0012030BD0000C8
:100470002DE9F0418AB005460E4617469846109C75
:100480000121042000F03EFB0121480600F02AFB78
:100490004FF48050ADF8240003208DF8260018207A
:1004A0008DF8270009A9304800F038FA4FF40060B1
:1004B000ADF8240048208DF8270009A92A4800F04B
:1004C0002DFA00208DF81E008DF81F008DF82000F9
:1004D00001208DF8210000208DF822008DF82300E6
:1004E0008DF81A008DF81B0002208DF81C000120E9
:1004F0008DF81D003C20ADF8180006A91B48FFF739
:100500002CFF01208DF8120000208DF8130001202F
:100510008DF814000020ADF80800ADF80A00ADF821
:100520000C00ADF80E00ADF8100001208DF815009C
:1005300002A8FFF785FE012202210C48FFF704FF05
:1005400014208DF8040001208DF8050000208DF89E
:10055000060001208DF8070001A800F081FA0020B4
:100560000AB0BDE8F08100000008014000640040CE
:1005700010B500F5D87303EB01131B6803F00403F7
:100580001372137A53B900F5D87303EB01131B6888
:1005900040F2FF7404EA5353136009E000F5D87386
:1005A00003EB01131B686FF0604404EAD30353604C
:1005B00000F5D87303EB01131B6803F002035372B9
:1005C00000F5D87303EB01135B6803F00F0393721C
:1005D00000F5D87303EB01135B681B0AD37400F5B5
:1005E000D87303EB01139B68D37200F5D87303EB48
:1005F00001139B681C0A147300F5D87303EB0113F5
:100600009B681C0C547300F5D87303EB01139B68B3
:100610001B0E937300F5D87303EB0113DB68D373E0
:1006200000F5D87303EB0113DB681C0A147400F5A2
:10063000D87303EB0113DB681C0C547400F5D873FA
:1006400003EB0113DB681B0E937421B9C36843F0FD
:100650002003C36003E0036943F02003036110BD7E
:1006600010B502460020936803F08063B3F1806FF9
:1006700000D110E0936803F00063B3F1006F01D183
:10068000012008E0936803F08053B3F1805F01D14B
:10069000022000E00420042874D002F5C07303EBAC
:1006A00000131B6803F0010402F5C07303EB001391
:1006B0001C600B7A7BB94B7A0C8843EA445302F5F1
:1006C000C07404EB00142468234302F5C07404EBE7
:1006D0000014236010E00B7A4C6843EAC4034C7AA0
:1006E000234302F5C07404EB00142468234302F58D
:1006F000C07404EB001423608B7A03F00F038B7239
:1007000002F5C07303EB00135B6823F00F0402F5DE
:10071000C07303EB00135C6002F5C07303EB0013BE
:100720005B688C7A234302F5C07404EB00146360A9
:100730008B7B1C064B7B44EA03440B7B44EA03237C
:10074000CC7A234302F5C07404EB0014A3608B7CC5
:100750001C064B7C44EA03440B7C44EA0323CC7B19
:10076000234302F5C07404EB0014E36002F5C07388
:1007700003EB00131B6843F0010402F5C07303EBA5
:1007800000131C6010BD000010B50246002321B10B
:10079000012907D002290FD109E090681D4C00EA19
:1007A00004030BE090681C4C00EA040306E0906828
:1007B0001A4C00EA040301E0002300BF00BF184CFC
:1007C000181BA34216D007DC83B16FF08060184479
:1007D00070B1022818D111E0B0F5007F10D0114C93
:1007E000204448B1B0F5003F0ED10BE002230DE0EC
:1007F00000230BE0002309E0002307E0012305E0CC
:10080000012303E0012301E0002300BF00BFD8B2B1
:1008100010BD0000030000040003000800000310E6
:10082000000100080001FFF7F0B585B007460D464E
:10083000002400200090019004208DF80800002082
:100840008DF809008DF80A5000BF05E0395D0DF103
:100850000B000155601C84B2AC42F7DB69460D48C1
:10086000FFF7FEFE0646002401E0601C84B231461C
:100870000848FFF789FF18B940F6FF708442F4DB9F
:1008800040F6FF70844202DB012005B0F0BD00207D
:10089000FBE700000064004010B54FF4005000F08A
:1008A00031F801280AD1282000F030FA4FF4005026
:1008B00000F028F8012801D1034908704FF40050D6
:1008C00000F01AF810BD00001400002010B5202020
:1008D00000F018F8012809D1142000F017FA2020A0
:1008E00000F010F8012801D102490870202000F022
:1008F00003F810BD14000020014908607047000093
:100900001404014001460020034A12680A400AB15B
:10091000012000E000207047140401402DE9F0415F
:10092000024600250026002000230024002791F81D
:1009300003C00CF00F0591F803C00CF0100CBCF1D3
:10094000000F03D091F802C04CEA050591F800C0F1
:10095000BCF1000F31D0146800202BE04FF0010CE7
:100960000CFA00F3B1F800C00CEA03069E4220D155
:1009700083004FF00F0C0CFA03F7BC4305FA03FC9D
:100980004CEA040491F803C0BCF1280F06D14FF0E3
:10099000010C0CFA00FCC2F814C00AE091F803C084
:1009A000BCF1480F05D14FF0010C0CFA00FCC2F865
:1009B00010C0401C0828D1D31460B1F800C0BCF1AD
:1009C000FF0F34DD546800202EE000F1080C4FF0DA
:1009D000010808FA0CF3B1F800C00CEA03069E42C5
:1009E00021D183004FF00F0C0CFA03F7BC4305FA3A
:1009F00003FC4CEA040491F803C0BCF1280F05D1B4
:100A000000F1080C08FA0CF8C2F8148091F803C041
:100A1000BCF1480F07D100F1080C4FF0010808FAAB
:100A20000CF8C2F81080401C0828CED35460BDE8F2
:100A3000F081000008B50121042000F063F81020C7
:100A40008DF803008220ADF8000003208DF802002D
:100A500069460248FFF762FF08BD00000008014038
:100A600070B5002100230F22C47804B3154C24680C
:100A700004F4E064C4F5E064210AC1F10403CA404F
:100A8000447804FA03F184781440214309010E4CA0
:100A90000678A155047804F01F050124AC400578C0
:100AA0006D11AD0005F1E025C5F8004109E00478BD
:100AB00004F01F050124AC40044D0678761145F87A
:100AC000264070BD0CED00E000E400E080E100E0B5
:100AD00002490143024A1160704700000000FA0514
:100AE0000CED00E029B1064AD2690243044BDA61F9
:100AF00004E0034AD2698243014BDA617047000087
:100B00000010024029B1064A92690243044B9A61DF
:100B100004E0034A92698243014B9A6170470000E6
:100B20000010024010B500F001F810BD0CB5002017
:100B3000019000903348006840F4803031490860EB
:100B400000BF3048006800F4003000900198401C5D
:100B50000190009818B90198B0F5A06FF1D129481B
:100B6000006800F4003010B10120009001E0002086
:100B700000900098012843D12348006840F01000FD
:100B8000214908600846006820F003000860084614
:100B9000006840F0020008601A484068194948603F
:100BA0000846406848600846406840F480604860F5
:100BB0000846406820F47C1048600846406840F4CD
:100BC000E81048600846006840F08070086000BF88
:100BD0000C48006800F000700028F9D0094840680F
:100BE00020F00300074948600846406840F00200D2
:100BF000486000BF0348406800F00C000828F9D1A5
:100C00000CBD00000010024000200240042808D162
:100C10004FF0E021096941F004014FF0E022116139
:100C200007E04FF0E021096921F004014FF0E022D4
:100C30001161704710B51348006840F00100114978
:100C4000086008464068104908400E494860084658
:100C500000680E4908400B4908600846006820F407
:100C6000802008600846406820F4FE0048604FF489
:100C70001F008860FFF756FF4FF0006004490860CE
:100C800010BD0000001002400000FFF8FFFFF6FE5C
:100C900008ED00E010B586B000240020019002901D
:100CA0008DF80C008DF80D008DF8170001AA0021B9
:100CB0000548FFF75DFC9DF80F000449087001200E
:100CC0000349087006B010BD006400401600002003
:100CD0001500002010B56FF00400FFF797FF0748DC
:100CE00000680749B0FBF1F0064908600846006853
:100CF0004FF47A7148430449086010BD0000002099
:100D000000127A00180000201C00002010B1B0F57D
:100D1000E96F00D97047124A126842434FF0E0234E
:100D20005A6100229A611A46126942F001021A6160
:100D300000BF4FF0E022116901F001021AB101F485
:100D40008032002AF5D04FF0E022126922F0010231
:100D50004FF0E0231A6100229A6100BFDAE7000039
:100D60001C0000201CB500BF4220019000BF4FF4C2
:100D7000A060FFF7ADFEFFF7ADFF002004230822BF
:100D800007210090FFF774FBFFF754FE012016497E
:100D9000086000201549C1F89C0124E0144800783F
:100DA000012820D11048006808B9012000E0002087
:100DB0000D49086000200E4908700E48007841284F
:100DC00011D1012101A8FFF72FFD48B906481830BD
:100DD000006808B9012000E00020034918310860CC
:100DE000002004490870D9E7840121420000214213
:100DF0001500002016000020180E0008000000203A
:100E00002000000028010008380E00082000002003
:100E1000600200004401000800A24A040000000033
:100E2000000000000102030406070809000000009A
:080E30000000000000000000BA
:040000050800018965
:00000001FF
